:020000040800F2
:10000000280600204D490008294200082B4200081C
:100010002D4200082F420008314200080000000075
:100020000000000000000000000000003342000853
:10003000354200080000000037420008394200083D
:100040004142000843420008454200084742000878
:10005000494200084B4200084D4200084F42000848
:1000600051420008534200085542000899420008D6
:100070009B4200089D4200089F420008A1420008E0
:10008000A3420008A5420008A7420008A9420008B0
:10009000AB420008AD420008AF420008B142000880
:1000A000B3420008B5420008B7420008B942000850
:1000B000BB420008BD420008BF420008C142000820
:1000C000C3420008C5420008C7420008C9420008F0
:1000D000CB420008CD420008CF420008D1420008C0
:1000E000D3420008D5420008D74200082DE9F04F5E
:1000F00080460FF2B450A5B017461D46D0E9002344
:10010000CDE9122304AE00200491706214AC00E02B
:100110004F440020ADF8020012AB4FF0FF323946D9
:100120000DF1020001F045F88146B9F1010F08DA3E
:100130003878B0F1010969EB09096FEA09004FEA63
:10014000D079BDF8020025280CBFA9F101034B4668
:10015000012B07DB3A4602A9404601F005F80028CA
:1001600000F19D82BDF80200252807D10020F06033
:1001700030617061B061F061306205E00028C7D184
:10018000706A8EE240F0010017F8011F2029F9D0B3
:1001900023290DD02B2904D02D2906D030290AD0AF
:1001A0000CE040F0020080B2EEE740F00400FAE715
:1001B00040F00800F7E740F01000F4E72A290DD1DD
:1001C00029680A1D2A600968F162002904D549429C
:1001D00040F00400F16280B27F1C13E00021F16264
:1001E0000BE0F16A6FF00043994205D001EB810307
:1001F00002EB43013039F1627F1C3A78A2F1300101
:100200000A29EED339782E2903D04FF0FF31B1629D
:100210001EE017F8011F2A2906D129680A1D2A6045
:100220007F1C0968B16213E00021B1620BE0B16A82
:100230006FF00043994205D001EB810302EB4301CB
:100240003039B1627F1C3A78A2F130010A29EED32D
:1002500030860FF25C40397800F0CCFF08B117F817
:10026000010B8DF842009DF84200682802BF3978E2
:100270006829622005D06C2804BF38786C2803D127
:1002800071208DF842007F1C14A8B0603978B1F15C
:10029000250025D01C387BD0001F022878D91338C0
:1002A00000F0A080093873D0801E00F03181401E1C
:1002B00000F0DB80401E02286AD9001F00F0D580C4
:1002C000401F3AD0401E00F08D80401E2AD0C01E34
:1002D0000BD0801E00F08680C01E00F0838037E1C6
:1002E000F068411CF16025213BE19DF842006C283B
:1002F000286813D0011D29600068B26A7060002A66
:1003000002D500F083FF07E0002100F09BFF0028EA
:100310001ABF7168401AB06A306123E1011D29607B
:1003200002680EE12868011D296000210068CDE9FE
:10033000020114A870607821E6E09DF8420062286E
:1003400018D0682806D06A280BD06C2819D07128DC
:1003500007D016E02868011D29600068716A0180D5
:1003600000E12A68101D28601268706AC117C2E98E
:100370000001F7E02868011D29600068716A0170BA
:10038000F0E02868011D29600068716A0160E9E0F9
:100390002868C01D20F00700286000F108022A60CC
:1003A000D0E90023CDE90223002B04D5F068421CDC
:1003B000F2602D220DE0308E820704D5F068421CD9
:1003C000F2602B2205E0C00704D5F068421CF26001
:1003D00020220255F06814AA8018706002A800F06C
:1003E000BBFBBFE09DF842006C2808BF2A6811D013
:1003F000712808BF2A6802D02A686A280AD1D21D4B
:1004000022F007022A6094460CF108022A60DCE917
:10041000002303E0131D2B6000231268CDE90223A3
:10042000682808BF92B207D0622808BFD2B203D0B2
:10043000742818BF7A2802D10023CDE9022396F848
:10044000300000075CD5DDE90223002B08BF002A3D
:1004500056D041F02000782852D1F0683022025561
:10046000401C421CF26001554AE09DF8420062289F
:100470000CD0682810D06A281AD06C2823D0712894
:1004800016D074281FD07A280CD01CE02868021DD2
:100490002A6090F900201AE02868021D2A60B0F94D
:1004A000002014E02868021D2A60002302680FE083
:1004B0002868C01D20F00700286000F108022A60AB
:1004C000D0E9002304E02868021D2A600268D317DF
:1004D000CDE90223002B04DAF068421CF2602D22E1
:1004E0000DE0308E820704D5F068421CF2602B22AA
:1004F00005E0C00704D5F068421CF26020220255D6
:10050000F06814AA8018706002A800F076FA29E05A
:100510009DF842006C2807D0F068411CF160296802
:100520000A1D2A6009681CE02868011D296001AACB
:100530000068ADF804000020ADF806004FF0FF3071
:10054000B06202A9404600F0B7F800280AD5A6E03C
:10055000F068421CF2602522025519B1F068421C75
:10056000F2600155F06AF168401AB169401A3169C8
:10057000401AF169401A7169401A316AA0EB010909
:1005800096F830007F1C400711D420208DF8000021
:100590004FF0000A09E0012300AA02A9404600F03A
:1005A000E3FD00287BD10AF1010ACA45F3DBF368B9
:1005B00014AA02A9404600F0D7FD00286FD13020D0
:1005C000D6F818A08DF800004FF0000B09E00123C9
:1005D00000AA02A9404600F0C7FD00285FD10BF138
:1005E000010BD345F3DB3369726802A9404600F082
:1005F000BBFD002853D13020D6F81CA08DF8000098
:100600004FF0000B09E0012300AA02A9404600F0C8
:10061000ABFD002843D10BF1010BD345F3DB30696F
:100620007168D6F814A000EB010B0AE01BF8011B5F
:100630000498C047049090B3706A401C7062AAF19D
:10064000010ABAF1000FF1D13020D6F820A08DF8C0
:1006500000004FF0000B08E0012300AA02A9404669
:1006600000F082FDD8B90BF1010BD345F4DB96F80D
:10067000300040077FF54DAD20208DF800004FF091
:10068000000A01E00AF1010ACA45BFF642AD0123A2
:1006900000AA02A9404600F067FD0028F2D04FF002
:1006A000FF3025B0BDE8F08F000000000000000022
:1006B000686A6C747A4C00002DE9F04F0F4695B0D3
:1006C0003C6B83469146002C48BF6FF0004400F01D
:1006D000E5FD796B401802900FF6BC22D2E90001CB
:1006E000CDE9030197F83800400702D40298412869
:1006F00005D240200DF1140A0290002509E000F017
:10070000D3FD5FEA000AF8D14FF0FF3072E1A4EBAD
:100710000804012CC0F2B580B9F8001003AA0DF14D
:10072000010000F019FE8046002800F1C180B9F8F0
:10073000000018B9B8F1010800F1BA804445C0F2D0
:10074000A0807869029908EB0002914280F08A80CB
:100750007D634042396A401AB969401A796A401A81
:10076000F969401AB96A451A97F83800400710D459
:1007700020208DF80000002609E0012300AA394658
:10078000584600F0F1FC002840F09280761CAE4202
:10079000F3DB7B6952463946584600F0E5FC0028F9
:1007A00040F0868030208DF800000026386A0190E5
:1007B00008E0012300AA3946584600F0D5FC00287D
:1007C00076D1761C01988642F3DBBB69FA6839461C
:1007D000584600F0C9FC00286AD130208DF800008E
:1007E0000026786A019008E0012300AA394658469D
:1007F00000F0BAFC00285BD1761C01988642F3DB3E
:10080000B869F968FB6942183946584600F0ACFCF3
:1008100000284DD130208DF800000026B86A0190E4
:1008200008E0012300AA3946584600F09DFC002844
:100830003ED1761C01988642F3DB97F838004007DA
:100840000ED520208DF80000002607E0012300AA25
:100850003946584600F088FC50BB761CAE42F5DBAA
:1008600000257D61424678690DF10101504400F098
:1008700081FD78694044786139F8020B00287FF4E3
:1008800046AF786B7969401A396A401AB969401ADB
:10089000796A401AF969401AB96AA0EB010897F819
:1008A0003800400719D420208DF80000A94612E036
:1008B0004FF0FF3597E0012400AE16F8011BB86831
:1008C000D847B8600028F3D0F86A401CF862641E6C
:1008D000F3D109F10109C145EDDB7B695246394687
:1008E000584600F041FC0028E2D130208DF800008D
:1008F000A946386A01900FE0012400AE16F8011BEA
:10090000B868D847B8600028D2D0F86A401CF862AE
:10091000641EF3D109F1010901988145ECDBBB6943
:10092000FA683946584600F01FFC0028C0D1302034
:100930008DF80000A946786A01900FE0012400AE0E
:1009400016F8011BB868D847B8600028B0D0F86A1C
:10095000401CF862641EF3D109F101090198814538
:10096000ECDBB869F968FB6942183946584600F073
:10097000FBFB00289CD130208DF80000A946B86A06
:1009800001900FE0012400AE16F8011BB868D847AB
:10099000B86000288CD0F86A401CF862641EF3D15D
:1009A00009F1010901988145ECDB97F8380040070F
:1009B00017D520208DF80000A94610E0012400AED4
:1009C00016F8011BB868D847B86000283FF470AF2C
:1009D000F86A401CF862641EF2D109F10109C145B0
:1009E000ECDB7D617D6305A882451CBF504600F0AD
:1009F000FDFC284615B0BDE8F08F2DE9FA47064604
:100A000082B035690A466F2A08BF082705D041F031
:100A10002000782814BF0A271027D6E900013C24BB
:100A200080468946642A18BF692A05D1002903DA5D
:100A3000D8F1000869EB4909B9F1000F08BFB8F116
:100A4000000F0CD1306B50B9082F3BD196F838000D
:100A5000000737D530203B2485F83B0032E0CDE954
:100A60000089FB17404649463A4600F0FFFCB8466D
:100A7000A8FB0023DDE90089A8EB02023032A4F1D3
:100A8000010AD2B254463A2A03DB9DF80830513BA2
:100A90009A180AF8052080465FEA010908BFB8F1F4
:100AA000000F03D0F06861198842D8D3082F09D10C
:100AB00096F83800000705D5605D302802D0641E26
:100AC00030206055C4F13C00B0616119F160316BB8
:100AD000884207DA081A30624FF6EF71308F08400B
:100AE000308710E000290ED596F8381001F0140177
:100AF000102908D1716B7269891A326A891A081A29
:100B00000128A8BF306204B0BDE8F0872DE9D043CA
:100B100006460F4614464FF00008DFF8389012E002
:100B2000E00707D542464B463046394600F016FDF1
:100B300006460F4664104046494642464B4600F082
:100B40000DFD80468946002CEAD130463946BDE885
:100B5000D0830000000024402DE9F04F04468FB000
:100B60008A46D4E90001CDE9020104AF4AF0200031
:100B700061280BD0206B002848BF062005D404BF95
:100B80004AF02000672801D1012020636168C1F389
:100B90000A5040F2FF7290421AD1080304BF206845
:100BA000002808D10320A061AAF161001A2835D3DA
:100BB0000FF2F85107E00320A061AAF161001A28A2
:100BC00029D30FF2E051E068032200F0D3FBA4E147
:100BD000012816DA204600F092FD012811DB0025DD
:100BE00000204AF0200161291FD1E168302201F87C
:100BF000012B4A1CE260BAF1610F0CBF7822582227
:100C00000FE0626840F2FE3161F31E52451A6260E5
:100C10004FF0FF30E5E70FF28851D4E70FF288512B
:100C2000D1E70A706169891C616110B9002600254D
:100C30006BE14AF02000612840F09580206B00288D
:100C40004CBF2126461CDDE9020136B2771CD4E9EF
:100C500000890022002300F073FD3ABF89F00040B4
:100C6000CDE90280CDE902892D1F8DF810200DF10C
:100C7000110901E000F20709012F32DBDDE9020171
:100C80000022002300F074FD2BD21C2102A800F0EA
:100C900087FDDDE9020100F009FEFF1F8046012FFC
:100CA00009DB00F02FFE02460B46DDE9020100F0F1
:100CB00041FECDE9020109F20700072105E008F035
:100CC0000F0200F8012D4FEA2818B8F1010F01DBDF
:100CD000491EF4D5491E5CBF002200F8012DF9D54C
:100CE000C8E70DF11100A9EB00010DF11107B142A8
:100CF000B8BF0E4636B230002ED4884206DA04A9B8
:100D0000411849780829A8BF0F2100DA002104AA58
:100D1000821800E0761E12F80139401E8B42F9D08D
:100D20000F2904D104A941184A78521C4A7000289E
:100D300002D504AF761C2D1D36B2701E0CD4C1191D
:100D4000AAF13A030A783032D2B23A2AA8BF9A18E6
:100D500001F80129401EF5D5206B002840F1D5800F
:100D6000701E2063D1E0DDE902010022002300F0C3
:100D7000E7FC3CBF81F00041CDE902012DB247F212
:100D8000975068433F4990FBF1F52DB2C5F107023A
:100D9000012A04DBDDE90201FFF7B8FE25E0C2F11C
:100DA000000B0026384FDFF8E490984614E05FEA25
:100DB000CB7007D542464B463046394600F0CEFB55
:100DC00006460F464FEA6B0B4046494642464B46A5
:100DD00000F0C4FB80468946BBF1000FE7D1DDE996
:100DE000020132463B4600F065FECDE902014AF0C1
:100DF000200066280CBF05F10A000620216B46186A
:100E0000142EA8BF132630208DF810000DF1110705
:100E1000DFF87C90012E3DDBDDE9020100F05CFD96
:100E200007F1080104220A23B0FBF3F303EB830765
:100E3000A0EB4700303001F8010D0A20B3FBF0F0C1
:100E400000EB8007A3EB4703303301F8013D521E4E
:100E5000E9D1083E01F10807012EDBDBDDE90201E3
:100E600000F03AFD00F058FD02460B46DDE90201B4
:100E700000F060FD00224B4600F070FBCDE902015E
:100E8000CAE700BFA08601000000F03F0000244038
:100E900084D797410DF11100381A0DF1110702E0C6
:100EA000401E6D1E7F1C39783029F9D04AF0200190
:100EB000662902D12DB2691C03E065290CBF01210E
:100EC0000021226B8E1836B2B042B8BF064636B249
:100ED00031001AD4814204DAC85D3528A8BF392010
:100EE00000DA3020CA19521E00E0761E12F80139CD
:100EF000491E8342F9D0392802D1C85D401CC8552B
:100F0000002902D57F1E761C6D1C2DB2009533B2D0
:100F10003A465146204600F003F80FB0BDE8F08F86
:100F20002DE9F04786B006468A4690461D4600F0F9
:100F300002FF406A376B90F80090012D02DA01251C
:100F40000FF26C284AF02000BDF93840662808BF2F
:100F5000641C12D0672875D114F1040F78DBBC42F1
:100F600076DA96F83800641C000702D4BD42B8BF98
:100F70002F4624B23F1B48BF0027F068B16924B256
:100F8000012C21DA30234A1C0B54012F03DA96F886
:100F90003810090702D502F80090521CB261E742EE
:100FA000B8BF7C4224B26142E7197162AF42B8BF58
:100FB0003D462DB2F5612A46B3694146181800F046
:100FC000D9F9781BB062B8E00818A54216DA2A46AB
:100FD000414600F0CFF9B1696918B161601B7062D8
:100FE000012F03DA96F83800000705D5F06801F8FC
:100FF0000090F069401CF061B7629EE022464146D5
:1010000000F0B8F9B06920182D1B012F03DA96F80B
:101010003810090703D5F16800F80190401C2DB283
:10102000B061AF42B8BF3D46F3682DB22A4604EB2B
:101030000801C01800F09EF9B0692818B061781B4B
:1010400070627AE05046612814D14FF0700A15E0C2
:10105000BD4204DA96F83810090758BF2F467F1EA4
:1010600048BF0027BAF1670F14BF4FF0450A4FF091
:10107000650A03E0412808BF4FF0500AB169F068E3
:1010800018F8013B0B544A1C012F05DA96F838106A
:10109000090758BFB26115D502F80090531CB3611F
:1010A000012F0FDB6D1E2DB2AF42B8BF3D462DB2F2
:1010B0002A464146181800F05DF9B0692818B06159
:1010C000781B7062B069F16800EB0108200008F835
:1010D00001AB03D42B2008F8010B03E02D2108F805
:1010E000011B4442002502AF08E00A2200A800F0DC
:1010F0003BFE019807F8010B6D1C009C21B20129F1
:10110000F3DA022D06DA4AF02000652804BF302009
:1011100008F8010B4DB9302008F8010B07E06D1EEF
:1011200002A8285C303008F8010B012DF7DAB0690D
:10113000F1684018A8EB0000F06196F8380000F064
:10114000140010280DD17069B1690818716A081867
:10115000F1690818B16A0818716B8842BCBF081A97
:10116000306206B0BDE8F087F8B504460D46164675
:101170001F46002004E0E86A401CE8627F1E002051
:1011800047B116F8011BA868A047A8600028F2D153
:101190004FF0FF30F2BD0000000000000000000032
:1011A0006E616E004E414E00696E6600494E46000B
:1011B0003000F8B504460D4616461F4600F0DCFD2B
:1011C0003B4632462946204601B0BDE8F04000F0DB
:1011D000EABD50F8041B61B150F8042BD30744BF9B
:1011E000A9F101039A18002342F8043B091FFAD120
:1011F000EFE770470278C9B28A421AB11CBF10F8F3
:10120000012FF9E718BF00207047000000F101032B
:10121000810704D010F8011B89B18107FAD1026857
:10122000B2F10131914311F0803F04BF50F8042F17
:10123000F6E710F8011B11B110F8011BFBE7C01A0B
:1012400070470000C9B2830706D0521E22D310F89F
:10125000013B9942F7D11FE0083A13D302F104028F
:1012600041EA012141EA014150F8043B121F21BF2C
:101270004B40A3F1013C2CEA030C1CF0803FF3D05F
:10128000C9B2001F083210F8013B521E28BF91EA74
:10129000030FF8D818BF0120401E704780B500F03A
:1012A0006BFD012002BD000070B5054605F10F0081
:1012B000C408E400C046C046A54232D2082C04D27D
:1012C000082402E0083000F091F82248026811007A
:1012D0000CD1011D0A6802B31368A34238BF111D67
:1012E000F8D310E01D68A5420DD2191D0B68002B24
:1012F000F8D11268011D00E0191D0B6893420CD053
:101300001D68A542F8D361B10D682A68A2F10803EF
:10131000A3420AD26A680A600FE000F067FD002865
:10132000D0D1C046C046002070BD63190B60121BAF
:101330006E685E600B681A602C60096800291DBF2A
:101340004A68002A091D00210160C046C04605F117
:10135000080070BD1402002070B504460D46164604
:1013600000F00AFD324629462046BDE8704000F0F4
:101370000DBD000062B38B0708D0521E11F8013B6F
:1013800000F8013B00F024808B07F6D1830740F082
:10139000208000BF103A07D330B4B1E83810103ABB
:1013A000A0E83810F9D230BC530724BFB1E80810C8
:1013B000A0E8081044BF51F8043B40F8043BD207B2
:1013C00024BF31F8022B20F8022B44BF0B780370A6
:1013D0007047083A07D3B1E80810083A40F8043BD0
:1013E00040F804CBF7D25307E4E7000000B9704798
:1013F00010B5A0F108042068082833D310F0070FB7
:1014000030D1C046C0461848416809B18C4203D269
:101410006160446017E019464B680BB1A342FAD3F0
:101420000A6853189C421BD3A34204D123689A181C
:101430000A600C4607E04A681AB123681B199A42F1
:101440000ED362604C60616851B1226813198B42FF
:1014500006D1002303600868801820604868606037
:10146000C046C04610BD0000140200201B4213D12C
:10147000094236D12AB18446B0FBF2F002FB10C219
:10148000704700F0C9BCFCD30022002370470B005A
:101490000200002100207047904271EB030CF6D34C
:1014A00070B5B1FA81F4B3FA83F52C1BA340C4F1F3
:1014B000200532FA05F63343A2405FF00046E640CD
:1014C00002E05B085FEA3202841A71EB030524BF75
:1014D000204629467641F4D302000B00300000215B
:1014E00070BD012ACFD970B5140C20D0B1FA81F4A7
:1014F000B2FA82F5C4F120046419B4F12006D6D3FF
:10150000B2405FF00044F440002502E052085FEA78
:101510003303C61A71EB020E24BF30467146644194
:101520006D41F3D302000B002000290070BD0C4672
:10153000B1FBF2F102FB11452D0445EA1045B5FB64
:10154000F2F402FB145580B240EA0545B5FBF2F017
:1015500002FB105240EA044070BD0000B0B581EAC1
:10156000030C0CF0004C40F2FF7515EA11541DBF3E
:1015700015EA1357AC42AF4239E0E41923EA455368
:1015800043F48013C90241F0004141EA505EC702B2
:101590001100A7FB020200284FF00000EEFB012023
:1015A0004FF00001E3FB072118BF42F00102401891
:1015B00000214941E3FB0E01A4F580640F0302D230
:1015C00052004041494154F101046CDD470872F179
:1015D000004250F1000051EB0451A1F580115CBFB5
:1015E00041EA0C01B0BD4CEA05510020B0BD05EA4E
:1015F0001357AC4214BFAF4241E050EA410E1CBF4A
:1016000052EA430E02E061460020B0BD24423C4451
:101610001BD15FEA070EF6D0090302BF0146002086
:10162000AEF1140EB1FA81F7AEEB070401FA07FE32
:101630000C37C7F1200100FA07F7C8404EEA000E48
:1016400023EA455343F48013A2E733F00043B3FA8F
:1016500083F704BFB2FA82FE77440B3FE41BB7F175
:10166000200E2FBF02FA0EF3BB40C7F1200E22FA64
:101670000EFE38BF43EA0E03BA40641C82E750EA0C
:10168000410E14BF52EA430E6FF000014FF40017F1
:1016900017EB430F8ABF194617EB410FB5E74CEA2A
:1016A00005510020B0BDD4F10104B4F120070FDAD8
:1016B000C4F12007520828BF42F0010210FA07F5D2
:1016C00001FA07F7E1BF2A43E0403843E1400FE069
:1016D000352C98DCC7F1200452EA400220FA07F2C8
:1016E00018BF42F0010231FA07F0A1400A4300217D
:1016F00072F1004250F1000051EB0C01B0BD30B46A
:10170000436803F0004201211B031B0B436004BF2D
:101710000368002B08D10DE00368DD0F45EA44049F
:1017200044605B000360491E4468E302F4D5230370
:101730001B0B436043681A434260084630BC704745
:101740004FF4001C1CEB410F94BF1CEB430F09E04E
:1017500041EA030C50EA4C0C52EA0C0C03D29942B9
:1017600008BF9042704714BF8B428242704700000E
:101770004FF4001C1CEB410F94BF1CEB430F09E01E
:1017800041EA030C50EA4C0C52EA0C0C03D28B4297
:1017900008BF8242704714BF9942904270470000D0
:1017A00070B504460D466068C0F30A5040F2FF7100
:1017B000884207D16068000304BF2068002817D062
:1017C000022070BD20B92046FFF799FF012867DA93
:1017D000012D0FDB40F2FF71091A8D420AD36068B8
:1017E000002847BF00202F4900202F49C4E90001ED
:1017F000012070BD4142A942616806DA6FF31E51B3
:10180000401941EA0050606041E0401E63680122D7
:10181000451962F31F5305F1350001F00041636083
:10182000352803D361600020206070BD002215F1CF
:101830001F0F04DA226823600020203560606842B0
:1018400013D0521E25689241C0F12003D2439D401F
:1018500045EAD27225686668C54006FA03F32B4351
:101860002360636823FA00F060606068084360608A
:10187000B2F1004F03D80DD12078C0070AD52068F7
:10188000401C2060206828B96068401C60604FF0F0
:10189000FF3070BD6068884204BF20680028F6D120
:1018A000002070BD0000F0FF0000F07FF446400D06
:1018B00040EAC120490006D200F014F8004248BFB7
:1018C0006FF00040604700F00DF84FF00041884293
:1018D0008CBF084640426047400D40EAC1204900A5
:1018E00080F00D8040F00040490DA1F58061491C59
:1018F00005D4D1F11F0154BFC840C01770474FF045
:1019000000007047010040F10980F446404200F0B9
:1019100005F851F000416047010000BF09D0B0FA5E
:1019200080F18840C91CC1F58461090501EBD02113
:101930004005704770B44FF0004591EA030F44BF73
:101940006B4000F06BBA00BF841A71EB030604D23F
:101950006E40001BB141121973414FF4001C1CEB87
:10196000410F34BF7CEB430684E00C0DA4EB13560F
:10197000362E7DDC012E43DC45EAC32343EA525375
:1019800012BFD20292025B08240545EAC12141EA56
:101990005051D2EBC020994125D407D1B0FA80F63E
:1019A00010FA06F164D00020203608E0B1FA81F682
:1019B000B140C6F1200220FA02F21143B0404FEAD2
:1019C000F474B4EB465434F001064FEA74040AD8B8
:1019D000D6F50016760D04F00044F04061FA06F2E8
:1019E0005040F1404840C00A40EA415021F00041D7
:1019F00028BF5FEA500550F1000044EBD12137E0E9
:101A000045EAC323DB0A45EAC121C90AB6F120052C
:101A10000EDD42EA0242120CC5F1200603FA06F678
:101A2000EB4042EA06056D42984161F100010DE08C
:101A300062FA06F5F240554063FA06FC82EA0C02AF
:101A4000F3405A406D42904161EB030111F4801F55
:101A500005D1641E620502D06D004041494121F468
:101A60008011430875F1004350F1000041EB04512F
:101A700070BC70471CEB410F15D223F0004352EAB3
:101A800043060BD04FEA4C0CBCEB410F04D80C0DB5
:101A9000661E342EB7DDEBE7801A994150EA410605
:101AA00008BF0021E4E708BF1CEB430F28BF6FF01D
:101AB0000001DDE7F0B540F2FF7581EA030C0CF0A0
:101AC000004C15EA11541DBF15EA1357AC42AF4242
:101AD000E5E0BC41C1F31301C3F31303801A99413C
:101AE00043F4801304D2641E4000494180185941D8
:101AF000C90241EA5051B1FBF3F603FB1611A2FBF8
:101B00000675D7EBC020A94102D2761E8018594134
:101B1000C90241EA5051B1FBF3FE03FB1E11A2FBC7
:101B20000E75D7EBC020A94103D2AEF1010E80188B
:101B30005941890241EA9051760546EA8E2EB1FB61
:101B4000F3F603FB1611A2FB0675D7EB8020A94123
:101B500002D2761E80185941C90241EA50514EEA1C
:101B6000060EB1FBF3F603FB1611A2FB0675D7EBCD
:101B7000C020A94102D2761E80185941C90241EA0B
:101B80005051B1FBF3F703FB1711A2FB0735D3EB61
:101B9000C020A94167F100070CBF004247F00107D0
:101BA00066F3D5274FEA1E31B80814F5806412DDBC
:101BB000BD0775F1004250EB0E5051EB045111F589
:101BC000801F5CBF41EA0C01F0BD4CF07F6141F029
:101BD000E0410020F0BDBD076D0840EA0E5041F421
:101BE0008011D4F10104B4F120060ADAC4F1200610
:101BF0000200E04001FA06F3E1401843B240154309
:101C00000EE0342C13DCC6F1200445EA40056D08D3
:101C100020FA06F2154321FA06F0A1400D430021F7
:101C200075F1004250F1000051EB0C01F0BD0020B5
:101C30005FEA0C01F0BDCFB992185B41B3FA83F7AC
:101C400004BFB2FA82F6BF190B3FB7F120062FBFCF
:101C500002FA06F3BB40C7F1200622FA06F638BFA7
:101C60003343BA401CB1E419641E33E77F4231F0BC
:101C70000041B1FA81F404BFB0FA80F6A4190B3C1C
:101C8000B4F120062FBF00FA06F1A140C4F12006EE
:101C900020FA06F638BF3143A0403C1B1AE7AC429D
:101CA0001ABF05EA1357AF4212E050EA41061CBFC3
:101CB00052EA4306BFE750EA4107304661461CBF7F
:101CC00041EA0551F0BD52EA430C08BFC143F0BDE3
:101CD00000204FF4001616EB410F98BF16EB430F90
:101CE00008BF16EB410F24BFC14305E016EB430FBD
:101CF0000CBF61464CEA0551F0BD000080B51348A9
:101D000000F0F6F80FF24801016041608160C160A7
:101D10000161416181610FF23C0242628162C162F4
:101D2000016341630FF2300282630FF23402C26337
:101D30000164416401BD10B5044800F0D9F80446BF
:101D4000206808B9FFF7DAFF204610BD0000002028
:101D5000000000002E00000066616C73650000004A
:101D6000747275650000000091FBF2F303FB121121
:101D7000C0E900317047000080B5DFF80C0000F0CA
:101D8000B7F8806902BD00009000002030B430B97F
:101D90000FF24800D0E90045C2E900451BE00170A0
:101DA000012030BC704730B431B90FF23800D0E9AF
:101DB0000045C3E900450EE01AB930BC6FF00100E0
:101DC000704708B10A7802800978481E804130BC0B
:101DD000C043C00F7047002030BC704700000000B7
:101DE0000000000000000000000000000749086833
:101DF00008B1002070470648C008C00008600549C7
:101E0000C908C900091A0160704700BF20020020FC
:101E10002F0600202808002070470000841A71EB6C
:101E2000030603D2001BB141121973414FF4001C89
:101E30001CEB410F34BF7CEB430443E00C0DA4EBDF
:101E40001356352E50DC45EAC323DB0A45EAC1218F
:101E5000C912B6F120050DDD63FA05F6EB4086EAFE
:101E60000305124218BF45F00105C01851F10001E9
:101E70000CD213E062FA06F5F2405540F3415A40A5
:101E8000B340F3405A408018594107D349085FEAEC
:101E900030005FEA350528BF45F0010501F58011E6
:101EA000420875F1004250F1000041EB045170BC52
:101EB0004FF4001C1CEB410F38BF70470020090D88
:101EC000090570471CEB410F10D252EA43060BD0B4
:101ED000BCEB410F05D80C0DAB43661E342EB5DDAF
:101EE00002E0AB438018594170BC704770BC70472A
:101EF0007047000070B504000D0000200026DFF8D8
:101F000024158C420CD0DFF82005844208D0DFF87D
:101F10001C05844204D0DF21DFF8140500F090FA9C
:101F20002868002828D02868B0F5803F24D0286889
:101F3000B0F5003F20D02868B0F5403F1CD028689D
:101F4000B0F5802F18D02868B0F5A02F14D02868DD
:101F5000B0F5C02F10D02868B0F5E02F0CD028685D
:101F6000B0F5002F08D02868B0F5102F04D0E0217C
:101F7000DFF8BC0400F064FA2879002807D028793B
:101F8000012804D0E121DFF8A80400F059FA6879AB
:101F9000002807D06879012804D0E221DFF89004F6
:101FA00000F04EFAA868002837D0A868B0F5003FC6
:101FB00033D0A868B0F5802F2FD0A868B0F5C02F17
:101FC0002BD0A868B0F5002F27D0A868B0F5202F37
:101FD00023D0A868B0F5402F1FD0A868B0F5602FB7
:101FE0001BD0A868002818D0A868B0F5003F14D00E
:101FF000A868B0F5C02F10D0A868B0F5002F0CD09D
:10200000A868B0F5202F08D0A868B0F5402F04D0FC
:10201000E321DFF81C0400F013FAE868002808D078
:10202000E868B0F5006F04D0E421DFF8040400F0A4
:1020300007FA287C002802D0287C112804DBE5213F
:10204000DFF8EC0300F0FCF96068DFF8E813084003
:1020500029682A7951EA022108436060A068DFF804
:10206000D8130840E968AA6811436A7951EA420125
:102070000843A060E06A30F47000297C491E0E43DA
:10208000F6B250EA0650E06270BD38B504000D00AB
:10209000DFF8900384420DD0DFF88C03844209D02E
:1020A000DFF88803844205D04FF49771DFF880038E
:1020B00000F0C6F9EDB2002D08D0EDB2012D05D02B
:1020C00040F22F11DFF8680300F0BAF9EDB2002DED
:1020D00004D0A06850F00100A06003E0A0684008B0
:1020E0004000A06031BD38B504000D00DFF83403B6
:1020F000844209D0DFF83403844205D040F247110E
:10210000DFF82C0300F09CF9EDB2002D08D0EDB201
:10211000012D05D04FF4A471DFF8140300F090F9FD
:10212000EDB2002D04D0A06850F48070A06003E0F0
:10213000A06830F48070A06031BD10B50400DFF8F5
:10214000E40284420DD0DFF8E002844209D0DFF8D7
:10215000DC02844205D04FF4BF71DFF8E00200F0EA
:102160006FF9A06850F00800A06010BD10B5040021
:102170000020DFF8B0128C420DD0DFF8AC028442B0
:1021800009D0DFF8A802844205D04FF4C671DFF809
:10219000AC0200F055F9A068000701D5012000E06D
:1021A0000020C0B210BD10B50400DFF878028442F0
:1021B0000DD0DFF87402844209D0DFF87002844247
:1021C00005D04FF4D271DFF8740200F039F9A0683D
:1021D00050F00400A06010BD10B504000020DFF82E
:1021E00044128C420DD0DFF84002844209D0DFF85F
:1021F0003C02844205D04FF4D971DFF8400200F070
:102200001FF9A068400701D5012000E00020C0B2FE
:1022100010BD38B504000D00DFF8080284420DD06F
:10222000DFF80402844209D0DFF80002844205D0BE
:102230004FF4E671DFF8040200F002F9EDB2002D70
:1022400008D0EDB2012D05D040F2CD11DFF8EC0140
:1022500000F0F6F8EDB2002D04D0A06850F4A00014
:10226000A06003E0A06830F4A000A06031BDF8B524
:1022700004000D0016001F0000200021DFF8A4213B
:1022800094420DD0DFF8A001844209D0DFF89C0110
:10229000844205D040F25221DFF8A00100F0D0F8CE
:1022A000EDB2002D38D0EDB2012D35D0EDB2022DBA
:1022B00032D0EDB2032D2FD0EDB2042D2CD0EDB2E3
:1022C000052D29D0EDB2062D26D0EDB2072D23D055
:1022D000EDB2082D20D0EDB2092D1DD0EDB20A2DA2
:1022E0001AD0EDB20B2D17D0EDB20C2D14D0EDB2EB
:1022F0000D2D11D0EDB20E2D0ED0EDB20F2D0BD055
:10230000EDB2102D08D0EDB2112D05D040F25321C1
:10231000DFF8280100F094F8F6B2002E02D0F6B2F1
:10232000112E05DB4FF41571DFF8100100F088F86D
:10233000FFB2002F1AD0FFB2012F17D0FFB2022F29
:1023400014D0FFB2032F11D0FFB2042F0ED0FFB272
:10235000052F0BD0FFB2062F08D0FFB2072F05D0F4
:1023600040F25521DFF8D40000F06AF8EDB20A2DF2
:1023700011DBE0680721B5F10A0203235A439140BB
:102380008843FFB2B5F10A010322514317FA01F164
:102390000843E0600EE020690721032202FB05F2FA
:1023A00091408843FFB2032101FB05F117FA01F1C7
:1023B00008432061F6B2072E0FDA606B1F21721EF0
:1023C00005235A4391408843EDB2711E05225143C3
:1023D00015FA01F10843606323E0F6B20D2E0FDA1F
:1023E000206B1F21F21F05235A4391408843EDB211
:1023F000F11F0522514315FA01F10843206310E053
:10240000E06A1F21B6F10D0205235A43914088432B
:10241000EDB2B6F10D010522514315FA01F1084361
:10242000E062F1BD0024014000280140003C014071
:1024300044440008FFFEF0FFFDF7F1FF44440008AC
:1024400080B50A000100024800F004F8FEE7000031
:102450007C4800080EB400B582B003A90091024682
:1024600000AB0121034878440A30FDF73FFE06BC6B
:102470005DF810FBB7240000F0B585B004000D0036
:1024800000200021002200230026DFF89073BC42C8
:1024900014D0DFF88C03844210D0DFF88803844224
:1024A0000CD0DFF88403844208D0DFF88403844230
:1024B00004D0B821DFF87403FFF7C2FF28680028B2
:1024C00004D02868DFF86C13884204D3B921DFF800
:1024D0005C03FFF7B5FFA888002808D0A888B0F5EE
:1024E000805F04D0BA21DFF84403FFF7A9FFE88832
:1024F000002810D0E888B0F5805F0CD0E888B0F5EF
:10250000005F08D0E888B0F5405F04D0BB21DFF859
:102510001C03FFF795FF288900280CD02889B0F507
:10252000806F08D02889B0F5C06F04D0BC21DFF8D7
:10253000FC02FFF785FF68894FF6F371084202D16C
:102540006889002804D1BD21DFF8E002FFF778FF99
:10255000A889002810D0A889B0F5807F0CD0A88960
:10256000B0F5007F08D0A889B0F5407F04D0BE2127
:10257000DFF8B802FFF764FFA889002810D0DFF861
:102580009C0284420CD0DFF89802844208D0DFF825
:102590009402844204D0C221DFF89002FFF750FF7A
:1025A0002600208A4CF6FF710840E9880843208203
:1025B000A0894EF6F3110840A9882A8911436A8937
:1025C00011430843A081A08A4FF6FF410840A98922
:1025D0000843A08200A800F093F9DFF84002864289
:1025E00001D1039900E00299A089000407D51920C0
:1025F00000FB01F029684900B0FBF1F206E0192068
:1026000000FB01F029688900B0FBF1F26420B2FB05
:10261000F0F000010109642303FB1123A1890904DF
:1026200008D5D90032316422B1FBF2F111F0070173
:10263000084307E0190132316422B1FBF2F111F0D5
:102640000F010843208105B0F0BD38B504000D002E
:10265000DFF8C801844215D0DFF8C401844211D0EC
:10266000DFF8C00184420DD0DFF8BC01844209D0FC
:10267000DFF8BC01844205D04FF4B171DFF8AC0142
:10268000FFF7DEFEEDB2002D08D0EDB2012D05D032
:1026900040F26311DFF89401FFF7D2FEEDB2002D96
:1026A00004D0A08950F40050A08104E0A0894DF628
:1026B000FF710840A08131BDF8B504000D0016007F
:1026C0000020002100220023DFF85071BC4215D009
:1026D000DFF84C01844211D0DFF8480184420DD06C
:1026E000DFF84401844209D0DFF84401844205D078
:1026F00040F28911DFF83401FFF7A2FEADB2282DB8
:1027000026D0ADB240F22770854221D0ADB240F262
:10271000266085421CD0ADB240F22550854217D0CC
:10272000ADB240F22440854212D0ADB240F6460030
:1027300085420DD0ADB240F66A10854208D0ADB2E8
:10274000602D05D04FF4C571DFF8E000FFF778FE8B
:10275000F6B2002E08D0F6B2012E05D040F28B1151
:10276000DFF8C800FFF76CFEADB240F66A10854294
:1027700011D1DFF8A80084420DD0DFF8A400844214
:1027800009D0DFF8A000844205D040F28F11DFF8B5
:102790009C00FFF755FE23002800C0B24009C0B2DC
:1027A000ADB215F01F0101228A40012801D10C337E
:1027B00004E0022801D1103300E01433F6B2002EF9
:1027C00003D018681043186002E01868904318603E
:1027D000F1BD38B504000D001048844211D01048F6
:1027E00084420ED00F4884420BD00F48844208D058
:1027F000DFF83C00844204D040F253210B48FFF73D
:102800001FFEADB2B5F5007F04DB4FF4157107482C
:10281000FFF716FEE805C00DA08031BD003801406D
:102820000044004000480040004C0040744700084D
:102830000050004021AA440038B504000D000020DB
:1028400029498C4210D02A4884420DD0274884421E
:102850000AD02948844207D02848844204D040F254
:10286000A3312448FFF7ECFDADB2012D21D0ADB26C
:10287000802D1ED0ADB2402D1BD0ADB2202D18D072
:10288000ADB2102D15D0ADB2B5F5807F11D0ADB27F
:10289000B5F5007F0DD0ADB2082D0AD0ADB2042D34
:1028A00007D0ADB2022D04D04FF469711148FFF783
:1028B000C7FDADB2B5F5007F0DD10B4884420AD0FB
:1028C0000B48844207D00948844204D04FF46A710F
:1028D0000848FFF7B5FD2088284201D0012000E01C
:1028E0000020C0B232BD0000003801400048004066
:1028F0000044004074470008004C00400050004075
:1029000030B40022002100230024DFF8C8512D68D4
:1029100015F00C052A00002A04D0042A06D0082A43
:1029200008D029E0DFF8B411016028E0DFF8B01129
:10293000016024E0DFF89C11096811F47011DFF8E0
:102940009421126812F48033890C891C002B04D165
:10295000DFF89021514301600DE0DFF87821126823
:10296000920304D5DFF880215143016003E0DFF8D2
:1029700070215143016002E0DFF860110160DFF86F
:102980005411096811F0F0021209DFF86011545C6B
:102990000168E1404160DFF83C11096811F4E06230
:1029A000120ADFF84811545C4168E1408160DFF8A9
:1029B0002411096811F46052D20ADFF83011545C16
:1029C0004168E140C160DFF80C11096811F4404230
:1029D000920BDFF81C11545CC168B1FBF4F101618A
:1029E00030BC704738B504000D00DFF80801044220
:1029F00001D1002C04D140F22B413748FFF720FDD4
:102A0000EDB2002D07D0EDB2012D04D040F22C41E3
:102A10003148FFF715FDEDB2002D07D0DFF8D800E3
:102A200000682043DFF8D010086004E032480068F6
:102A3000A0433149086031BD38B504000D002F486E
:102A4000044201D1002C04D140F24A412248FFF750
:102A5000F7FCEDB2002D07D0EDB2012D04D040F20D
:102A60004B411D48FFF7ECFCEDB2002D05D024488A
:102A7000006820432249086004E021480068A04320
:102A80001F49086031BD38B504000D001D480442DF
:102A900001D1002C04D140F269410F48FFF7D0FC6E
:102AA000EDB2002D07D0EDB2012D04D040F26A4105
:102AB0000948FFF7C5FCEDB2002D05D012480068AB
:102AC00020431149086004E00F480068A0430E4904
:102AD000086031BD041002406446000800127A000C
:102AE000001BB70000093D00808D5B003C01002009
:102AF0005C010020A8FAFFFF141002400200C0FF92
:102B000018100240003601811C10024000B585B04B
:102B10004FF48271ADF80210ADF80C000020ADF852
:102B200000000020ADF806000020ADF808000720E6
:102B3000ADF810000020ADF804000020ADF80E0044
:102B40004FF40070ADF80A0000A9DFF8E80300F0C8
:102B500001FA4FF48071DFF8DC0300F006FB05B0EA
:102B600000BD80B5002000F001F980070CD40020E2
:102B700000F0FCF850F00201C9B2202000F0DDF8AE
:102B800040F2133000F097FB01BD80B50121082011
:102B9000FFF752FF01214FF48040FFF774FF03203D
:102BA0008DF802004FF46040ADF8000018208DF859
:102BB000030000A9DFF8800300F060FD4FF48050AF
:102BC000ADF8000010208DF8030000A9DFF86803BD
:102BD00000F054FD4020ADF8000010208DF80300F7
:102BE00000A9DFF8580300F049FD4FF2893000F0EA
:102BF00062FB0820FFF78AFF0121DFF8380300F0AD
:102C000058FA4021DFF8340300F01EFE4FF48051E3
:102C1000DFF8240300F0E9FDFF21E22000F08DF849
:102C2000FF21E12000F089F8FFF79BFF002000F072
:102C30009DF850F03001C9B2202000F07EF800204D
:102C400000F094F810F0FE01202000F076F86421E6
:102C5000252000F072F80F21262000F06EF80021E8
:102C6000212000F06AF80021242000F066F80020FE
:102C700000F07CF810F0FB01202000F05EF8052247
:102C8000DFF8BC122A2000F0AAF80522DFF8B01203
:102C9000302000F0A4F80121312000F04EF8052288
:102CA000DFF8A0122B2000F09AF80121322000F06A
:102CB00044F8FFF756FF002000F058F850F00101EB
:102CC000C9B2202000F039F87021272000F035F833
:102CD000FF21E12000F031F84021DFF8600200F030
:102CE00084FDFFF73EFFDFF8600200F0E4FA1020F9
:102CF000ADF8000048208DF8030000A9DFF84C0271
:102D000000F0BCFC01BD10B504000221DFF8240274
:102D100000F05FFA0028F8D0E4B2210089B28548BB
:102D200000F0F6F90121834800F053FA0028F9D0A9
:102D3000804800F004FAC0B210BD38B504000D00A0
:102D40004FF480517C4800F07FFD2000C0B2FFF7B7
:102D5000DAFF04002800C0B2FFF7D5FF4FF480511E
:102D6000754800F042FD2000C0B232BD10B504002D
:102D70004FF48051704800F067FD2000C0B2FFF7AB
:102D8000C2FF0020FFF7BFFF04004FF480516A48E4
:102D900000F02BFD2000C0B210BDF8B504000D00FE
:102DA00016004FF48051644800F04EFD2000C0B280
:102DB000FFF7A9FF0400002705E00020FFF7A3FFAD
:102DC000FFB278557F1CFFB2F6B2B742F5D34FF48D
:102DD0008051594800F009FD2000C0B2F2BDF8B59D
:102DE00004000D0016004FF48051534800F02CFDF4
:102DF0002000C0B2FFF787FF0400002704E0287816
:102E0000FFF781FF6D1C7F1CFFB2F6B2B742F6D30D
:102E10004FF48051484800F0E8FC2000C0B2F2BDF9
:102E200080B50020FFF7A2FF50F00101C9B22020B9
:102E3000FFF783FF40F2133000F03DFA70212720A6
:102E4000FFF77BFFFF21E120FFF777FF40213B48A1
:102E500000F0CBFC01BD38B504000D00402137481F
:102E600000F0F2FC0020FFF781FF10F0FE012020AF
:102E7000FFF763FF2A00D2B22100A020FFF7AFFFC7
:102E800040212E4800F0B1FC4FF47A7400E0641E3B
:102E90000720FFF76BFF8006F9D54021274800F097
:102EA000D3FC70212720FFF748FF31BD80B50720F4
:102EB000FFF75CFFC0B2010089B22548FFF789FC2B
:102EC00042F2107000F0F7F90120FFF74FFFC0B297
:102ED000010089B21E48FFF77CFC42F2107000F03E
:102EE000EAF90520FFF742FFC0B2010089B2184895
:102EF000FFF76FFC42F2107000F0DDF90620FFF7DB
:102F000035FFC0B2010089B21148FFF762FC42F2FE
:102F1000107000F0D0F90020FFF728FFC0B20100C8
:102F200089B20B48FFF755FC42F2107000F0C3F96C
:102F300001BD000000380040000C014000100140BD
:102F4000540100204C0100203A9E0400000801407A
:102F50000038014038B504000D000020DFF8E01211
:102F60008C420CD0DFF8DC02844208D0DFF8D802B3
:102F7000844204D0A321DFF8D402FFF761FA288845
:102F8000002810D02888B0F5806F0CD02888B0F5C4
:102F9000004F08D02888B0F5404F04D0A621DFF8B4
:102FA000AC02FFF74DFA6888B0F5827F07D06888D9
:102FB000002804D0A721DFF89402FFF741FAA8887F
:102FC000B0F5006F07D0A888002804D0A821DFF84A
:102FD0007C02FFF735FAE888002807D0E888022845
:102FE00004D0A921DFF86402FFF72AFA2889002813
:102FF00007D02889012804D0AA21DFF85002FFF762
:103000001FFA6889B0F5007F07D06889002804D0CE
:10301000AB21DFF83802FFF713FAA889002819D08E
:10302000A889082816D0A889102813D0A88918289C
:1030300010D0A88920280DD0A88928280AD0A889CE
:10304000302807D0A889382804D0AC21DFF8FC014B
:10305000FFF7F6F9E889002807D0E889802804D02E
:10306000AD21DFF8E801FFF7EBF9288A002804D149
:10307000AE21DFF8D801FFF7E3F9208810F44150C2
:1030800029886A881143AA881143EA8811432A894A
:1030900011436A891143AA891143EA8911430843FC
:1030A0002080A08B4FF2FF710840A083288A2082E5
:1030B00031BD38B504000D00DFF8840184420DD025
:1030C000DFF88001844209D0DFF87C01844205D01A
:1030D0004FF4D771DFF87401FFF7B2F9EDB2002DAC
:1030E00008D0EDB2012D05D040F2AF11DFF85C0140
:1030F000FFF7A6F9EDB2002D04D0208850F0400073
:10310000208004E020884FF6BF710840208031BD48
:1031100038B504000D00DFF8280184420DD0DFF837
:103120002401844209D0DFF82001844205D040F216
:103130002621DFF81801FFF783F9A58131BD10B50D
:103140000400DFF8FC0084420DD0DFF8F800844270
:1031500009D0DFF8F400844205D040F23621DFF8D0
:10316000EC00FFF76DF9A08910BD38B504000D0023
:10317000DFF8CC0084420DD0DFF8C800844209D0CB
:10318000DFF8C400844205D04FF41271DFF8BC00B0
:10319000FFF756F9ADB2B5F5807F0AD0ADB24FF664
:1031A000FF60854205D040F24921DFF8A000FFF71B
:1031B00047F9ADB24FF6FF60854204D0208850F445
:1031C0008070208004E020884FF6FF610840208056
:1031D00031BD38B504000D00002019498C420AD0D9
:1031E0001848844207D01848844204D040F2023183
:1031F0001648FFF725F9ADB2802D19D0ADB2402D9C
:1032000016D0ADB2202D13D0ADB2102D10D0ADB26E
:10321000082D0DD0ADB2042D0AD0ADB2022D07D0CD
:10322000ADB2012D04D040F203310848FFF708F990
:103230002089284201D0012000E00020C0B232BD28
:103240000030014000380040003C0040EC460008DF
:1032500010B504000A2C11D10D21DFF8F803FFF797
:10326000B8FA8021DFF8EC03FFF7E6FA0028F8D07F
:103270000A21DFF8E003FFF7ACFA06E02100C9B24B
:1032800089B2DFF8D003FFF7A4FA8021DFF8C40386
:10329000FFF7D2FA0028F8D0200010BDDFF8B803FD
:1032A0000068002806D0DFF8B0030068401EDFF891
:1032B000A8130860704701B402E00098401E009017
:1032C00000980028F9D101B0704780B500F072FB7A
:1032D000DFF88803FFF714FB01210420FFF7ACFBA4
:1032E00001210820FFF7A8FB01211020FFF7A4FB14
:1032F00001210120FFF7A0FB01214FF48040FFF7DF
:103300009BFB01214FF40070FFF796FB0121012088
:10331000FFF768FB01214FF48040FFF7B4FB01BDCC
:1033200000B58BB0DFF8380300F0F8FBDFF83403AA
:103330000090DFF8340301900020029008200390F1
:1033400000200490802005904FF4807006904FF488
:1033500080600790202008904FF4005009900020D2
:103360000A9000A9DFF8F80200F0B8FC0121DFF8AC
:10337000F00200F07FFD0BB000BD00B585B000206D
:10338000009001208DF8040001208DF805005FF405
:10339000602002900020039008208DF8100000A902
:1033A000DFF8C802FEF7A6FD052301220821DFF899
:1033B000BC02FEF75CFF052302220921DFF8AC0204
:1033C000FEF755FF052303220A21DFF8A002FEF7CE
:1033D0004EFF052304220B21DFF89002FEF747FF82
:1033E000052305220C21A148FEF741FF05230622F3
:1033F0000D219E48FEF73BFF052307220E219B4827
:10340000FEF735FF052308220F219848FEF72FFF0E
:1034100001219648FEF767FE01219448FEF735FE2C
:103420009248FEF78AFE9148FEF7A0FE0028FAD1E6
:103430008E48FEF7B8FE8D48FEF7CEFE0028FAD182
:1034400001218A48FEF7E5FE05B000BD80B50021E8
:103450005FF0006000F0E3FD4FF4A06000F07CFD41
:1034600025208DF8000000208DF8010001208DF846
:10347000020001208DF8030000A800F087FD26203F
:103480008DF8000000208DF8010002208DF8020068
:1034900001208DF8030000A800F078FD27208DF8AA
:1034A000000000208DF8010000208DF802000120AE
:1034B0008DF8030000A800F069FD0A208DF80000D7
:1034C00000208DF8010004208DF8020001208DF805
:1034D000030000A800F05AFD01BD00B583B004212F
:1034E000002000F0EBF91020009000208DF804007F
:1034F0000C208DF8050001208DF8060000A800F0D2
:10350000BBFD07BD80B54FF40070ADF8000003208F
:103510008DF8020018208DF8030000A9544800F02F
:10352000ADF84FF48060ADF8000004208DF8030082
:1035300000A94F4800F0A2F80420ADF800000320D5
:103540008DF8020018208DF8030000A9484800F00B
:1035500095F80820ADF8000004208DF8030000A9BC
:10356000434800F08BF84FF48060ADF80000032072
:103570008DF8020018208DF8030000A93D4800F0E6
:103580007DF84FF40060ADF8000004208DF80300D2
:1035900000A9384800F072F80320ADF800000020C0
:1035A0008DF8030000A9334800F068F83F20ADF81B
:1035B000000000208DF8030000A92F4800F05EF8FD
:1035C0004FF44870ADF8000003208DF80200102081
:1035D0008DF8030000A9274800F050F81020ADF83E
:1035E000000004208DF8030000A9214800F046F8EF
:1035F0004FF40070ADF8000003208DF80200102099
:103600008DF8030000A91C4800F038F801BD00B592
:1036100085B000900020ADF804000020ADF8060051
:103620000020ADF808000020ADF80C000C20ADF82B
:103630000A00012240F225510648FFF73DF800A993
:103640000448FEF719FF01210248FEF7FEFF05B00E
:1036500000BD0000003801401C020020F0010020E5
:10366000080002404C2401400402002000240140D4
:1036700000080140000C014000100140F8B50400B2
:103680000D00002600220021002300200027DFF883
:1036900010C264451CD0DFF80C02844218D0DFF859
:1036A0000802844214D0DFF80402844210D0DFF80C
:1036B000000284420CD0DFF8FC01844208D0DFF81D
:1036C000F801844204D0B221DFF8E002FEF7B8FE30
:1036D000E878002819D0E878042816D0E878282857
:1036E00013D0E878482810D0E87814280DD0E8786E
:1036F00010280AD0E8781C2807D0E878182804D0C9
:10370000B321DFF8A802FEF79BFE2888002804D129
:10371000B421DFF89802FEF793FEE87810F00F0668
:10372000E878C0060FD5A87801280AD0A878022822
:1037300007D0A878032804D0BB21DFF87002FEF779
:103740007FFEA87806432878000622D02068002152
:1037500006E0EA78482A02D101228A402261491C07
:10376000082915D2012212FA01F32A881A409A4236
:10377000F5D18B000F2212FA03F7B84316FA03F2C1
:103780001043EA78282AE4D101228A406261E6E700
:1037900020602888FF2827DD6068002121E00122C1
:1037A00011F1080312FA03F32A881A409A4217D13A
:1037B0008B000F2212FA03F7B84316FA03F21043F4
:1037C000EA78282A04D1012211F108039A406261A3
:1037D000EA78482A04D1012211F108039A402261B3
:1037E000491C0829DBD36060F1BD38B504000D0029
:1037F000DFF8AC0084421BD0DFF8A800844217D069
:10380000DFF8A400844213D0DFF8A00084420FD078
:10381000274884420CD02748844209D0DFF898001A
:10382000844205D040F26911DFF88001FEF708FEFE
:10383000ADB2002D05D14FF4B571DFF87001FEF780
:10384000FFFDADB2256131BD38B504000D0014484F
:10385000844218D01348844215D01348844212D0B1
:10386000124884420FD0124884420CD0114884423E
:1038700009D0DFF84400844205D040F27911DFF826
:103880002C01FEF7DDFDADB2002D05D14FF4BD7169
:10389000DFF81801FEF7D4FDADB2656131BD00005F
:1038A00000080140000C01400010014000140140DC
:1038B00000180140001C01400020014038B5040000
:1038C0000D000020E4B2002C16D0E4B2012C13D07D
:1038D000E4B2022C10D0E4B2032C0DD0E4B2042CDC
:1038E0000AD0E4B2052C07D0E4B2062C04D040F292
:1038F00065212E48FEF7A4FDEDB2002D31D0EDB2CA
:10390000012D2ED0EDB2022D2BD0EDB2032D28D0FB
:10391000EDB2042D25D0EDB2052D22D0EDB2062D4D
:103920001FD0EDB2072D1CD0EDB2082D19D0EDB28D
:10393000092D16D0EDB20A2D13D0EDB20B2D10D0FB
:10394000EDB20C2D0DD0EDB20D2D0AD0EDB20E2D35
:1039500007D0EDB20F2D04D040F266211348FEF7D8
:103960006FFD0F2015F00301C9B289008840EDB248
:10397000A9100F4A52F8211031EA0000EDB2A91047
:103980000B4A42F82100EDB2A810094951F8200075
:10399000E4B215F00301C9B2890014FA01F1084339
:1039A000EDB2A910024A42F8210031BDDC45000801
:1039B0000800014080B55248006850F001005049AD
:1039C000086050480068504908404E4908604C481B
:1039D00000684E4908404A4908604948006830F488
:1039E0008020474908604748006830F4FE00454998
:1039F000086047485FF41F01016000F005F8454882
:103A00005FF00061016001BD80B500F001F801BD0B
:103A100082B000200190002000903948006850F4E6
:103A20008030374908603648006810F40030009054
:103A30000198401C01900098002803D10198B0F52E
:103A4000A06FF0D12E480068800302D501200090BD
:103A500001E000200090009801284DD12E48006818
:103A600050F010002C4908602B4800688008800046
:103A7000294908602848006850F00200264908607B
:103A800020482049096801601E481E4909680160F4
:103A90001C48006850F480601A49086019480068A2
:103AA00050F40040174908601648006830F47C1054
:103AB000144908601348006850F4881011490860E0
:103AC0000F48006850F080700D4908600C4800688D
:103AD0008001FBD50B480068800880000949086018
:103AE0000848006850F00200064908600548006870
:103AF00010F00C000828F9D102B070470000000057
:103B000000100240041002400000FFF8FFFFF6FE24
:103B10000810024008ED00E00020024010B504004B
:103B2000DFF8F803844230D0DFF8F40384422CD06D
:103B3000DFF8F003844228D0DFF8EC03844224D07D
:103B4000DFF8E803844220D0DFF8E40384421CD08D
:103B5000DFF8E003844218D0DFF8DC03844214D09D
:103B6000DFF8D803844210D0DFF8D40384420CD0AD
:103B7000DFF8D003844208D0DFF8CC03844204D0BD
:103B80006F21DFF8C803FEF75BFC20684FF6FE717B
:103B90000840206000202060002060600020A060BD
:103BA0000020E060DFF87403844208D1DFF8A0034E
:103BB000006850F00F00DFF8981308608DE0DFF820
:103BC0006003844208D1DFF88803006850F0F000F9
:103BD000DFF87C13086080E0DFF84803844208D1F6
:103BE000DFF86C03006850F47060DFF8641308605D
:103BF00073E0DFF83403844208D1DFF8540300682F
:103C000050F47040DFF84813086066E0DFF81C03EA
:103C1000844208D1DFF83803006850F47020DFF8E0
:103C20003013086059E0DFF80803844208D1DFF858
:103C30002003006850F47000DFF8141308604CE0B3
:103C4000DFF8F002844208D1DFF80403006850F086
:103C50007060DFF8FC1208603FE0DFF8DC028442AD
:103C600008D1DFF8F002006850F00F00DFF8E4122E
:103C7000086032E0DFF8C402844208D1DFF8D402E1
:103C8000006850F0F000DFF8CC12086025E0DFF8A3
:103C9000B002844208D1DFF8BC02006850F47060C2
:103CA000DFF8B012086018E0DFF89802844208D10B
:103CB000DFF8A002006850F47040DFF89812086046
:103CC0000BE0DFF88402844207D1DFF88802006845
:103CD00050F47020DFF87C12086010BD38B5040085
:103CE0000D000020DFF834128C4230D0DFF83002B3
:103CF00084422CD0DFF82C02844228D0DFF828023E
:103D0000844224D0DFF82402844220D0DFF820024D
:103D100084421CD0DFF81C02844218D0DFF818025D
:103D2000844214D0DFF81402844210D0DFF810026D
:103D300084420CD0DFF80C02844208D0DFF808027D
:103D4000844204D0CF21DFF80402FEF779FBA86893
:103D5000102807D0A868002804D0D021DFF8EC0193
:103D6000FEF76EFBE868002803D0E868B0F5803FF6
:103D700004D3D121DFF8D401FEF762FB2869402883
:103D800007D02869002804D0D221DFF8C001FEF74F
:103D900057FB6869802807D06869002804D0D321C0
:103DA000DFF8A801FEF74CFBA86900280CD0A86931
:103DB000B0F5807F08D0A869B0F5007F04D0D42189
:103DC000DFF88801FEF73CFBE86900280CD0E869C1
:103DD000B0F5806F08D0E869B0F5006F04D0D52148
:103DE000DFF86801FEF72CFB286A202807D0286A34
:103DF000002804D0D621DFF85401FEF721FB686AC1
:103E0000B0F5405F0FD0686AB0F5005F0BD0686A0C
:103E1000B0F5805F07D0686A002804D0D721DFF8AA
:103E20002C01FEF70DFBA86AB0F5804F07D0A86AF9
:103E3000002804D0D821DFF81401FEF701FB206828
:103E40006FF30E10A9682A6A11432A6911436A693F
:103E50001143AA691143EA6911436A6A1143AA6AC4
:103E6000114308432060E86860602868A0606868C3
:103E7000E06031BD38B504000D00DFF8A0008442D9
:103E800031D0DFF89C0084422DD0DFF898008442C6
:103E900029D0DFF89400844225D0DFF890008442D6
:103EA00021D0DFF88C0084421DD0DFF888008442E6
:103EB00019D0DFF88400844215D0DFF880008442F6
:103EC00011D0DFF87C0084420DD0DFF87800844206
:103ED00009D0DFF87400844205D040F22911DFF8E0
:103EE0006C00FEF7ADFAEDB2002D08D0EDB2012D59
:103EF00005D04FF49571DFF85400FEF7A1FAEDB24A
:103F0000002D04D0206850F00100206004E02068FB
:103F10004FF6FE710840206031BD000008000240ED
:103F20001C000240300002404400024058000240A1
:103F30006C00024080000240080402401C04024061
:103F4000300402404404024058040240CC440008BB
:103F5000040002400404024010B50400B4F5E06F10
:103F60000FD0B4F5C06F0CD0B4F5A06F09D0B4F584
:103F7000806F06D0B4F5407F03D063213548FEF74B
:103F80005FFA354820433549086010BD38B5040054
:103F9000002000210F25E278002A06D0E0780128D1
:103FA00003D075212B48FEF74BFA6078102803DB0D
:103FB00076212848FEF744FAA078102803DB772101
:103FC0002448FEF73DFAE07800281DD02348006819
:103FD00010F4E060D0F5E060000AD0F10401C540C3
:103FE00060788840A17829400843000121781C4A64
:103FF0008854207840111B490122237813F01F03B5
:104000009A4041F8202009E0207840111649012209
:10401000237813F01F039A4041F8202031BD38B5B2
:1040200004000D00B4F1005F06D0B4F1006F03D0BE
:104030009F210848FEF704FA0C48854203D3A021CB
:104040000448FEF7FDF90A48284020430949086062
:1040500031BD0000FC4700080000FA050CED00E04F
:1040600000E400E000E100E080E100E0FFFF0F007D
:1040700080FFFF1F08ED00E010B50400002021794B
:10408000002906D02079042803D06A216548FEF76C
:10409000D7F96079082809D060790C2806D06079B2
:1040A000102803D06B215F48FEF7CAF92068000D85
:1040B0000005002802D12068002803D16C2159484E
:1040C000FEF7BEF9A079002806D0A079012803D018
:1040D0006D215448FEF7B4F94D48A179002935D037
:1040E0004B49096822689143494A11604949096866
:1040F00022689143474A11602179081801682268B3
:1041000011430160444800682168884342490860BF
:104110004248006821688843404908606079102857
:104120000CD13D480068216808433B4908603B4882
:10413000006821680843394908600DE03448617916
:104140000818016822681143016005E02179081808
:10415000016822689143016010BD10B50400002081
:104160000021012C35D0022C33D0042C31D0082C66
:104170002FD0102C2DD0202C2BD0402C29D0802CAF
:1041800027D0B4F5807F24D0B4F5007F21D0B4F5DA
:10419000806F1ED0B4F5006F1BD0B4F5805F18D0CF
:1041A000B4F5005F15D0B4F5804F12D0B4F5004FD0
:1041B0000FD0B4F5803F0CD0B4F5003F09D0B4F572
:1041C000802F06D0B4F5002F03D0E5211548FEF767
:1041D00037F90F48006814EA0001114800682042CE
:1041E00003D0002901D0012000E00020C0B210BDA2
:1041F00010B50400200D0005002801D1002C03D1CA
:10420000FC210848FEF71CF90548046010BD0000B9
:104210000004014004040140080401400C04014072
:1042200014040140544500087047FEE7FEE7FEE72E
:10423000FEE770477047704780B5FFF72FF801BD64
:1042400070477047704770477047704770477047B6
:104250007047704780B51020FFF77FFF002815D00A
:1042600001220B496120FEF798FD70212720FEF7FF
:1042700064FD07480078312805D120210548FEF764
:10428000EAFDFEF7CDFD1020FFF7B2FF01BD0000F3
:10429000B0010020D0010020704770477047704780
:1042A0007047704770477047704770477047704756
:1042B0007047704770477047704770477047704746
:1042C0007047704770477047704770477047704736
:1042D00070477047704780B55FF48020FFF788FF14
:1042E00001BD816807E002681168536889185B188E
:1042F000C36008320260C2689142F4D04A1C8260F6
:10430000087870472DE9FF4D00F1080100914FF04A
:10431000000A0168009A490802EBC1010191D346E5
:104320000021029103910168490800EBC101406836
:1043300000F0010501F10804400804EBC0061FE08D
:1043400000A8FFF7CEFF47B200A8FFF7CAFF8046DC
:10435000DA450DD1B44208BF00F01BF8D4F800A034
:1043600005B1CA44606800EB0A0B0834DA45F1D0A5
:104370000AF8018B002F09D57F1CE9D1DA45DFD17E
:10438000B442DDD1304604B0BDE8F08D7F1EDBD5F0
:10439000F4E7012000F000B880B5C046C046024AEC
:1043A00011001820ABBEFBE72600020070B5002606
:1043B0000025002400F032F8FEF778FD27E0A4B2D3
:1043C000144830F8140080B2000AA4B2124901F86F
:1043D0001400A4B2104810F814004519A4B20E48F5
:1043E00010EB4400A4B20B4931F814104170A4B290
:1043F000094810EB440040784519641CA4B2042C11
:10440000DDDB0548ADB2290A81770348C577002571
:104410000024F3E704020020D001002080B5FEF75D
:1044200054FFFFF76FF8FFF711F8FEF779FFFEF77B
:10443000A4FFFFF752F8FEF7A8FB4FF46140FFF727
:10444000E6F801BD433A5C55736572735C5461656F
:10445000576F6F6B5C4465736B746F705CBBEFB0D0
:10446000FA5FBFACC0E55C575973746570735F6EDB
:10447000524628696E74657272757074B7CE20C02A
:10448000DBBBECB3AAB0D420B5C7B4C220BCD2BD4C
:10449000BA295C6C6962726172795C53544D333233
:1044A000463130785F5374645065726970685F4458
:1044B00072697665725C7372635C73746D333266B5
:1044C0003130785F6164632E63000000433A5C55CD
:1044D000736572735C546165576F6F6B5C44657391
:1044E0006B746F705CBBEFB0FA5FBFACC0E55C573C
:1044F0005973746570735F6E524628696E74657285
:1045000072757074B7CE20C0DBBBECB3AAB0D420F8
:10451000B5C7B4C220BCD2BDBA295C6C69627261F5
:1045200072795C53544D3332463130785F53746442
:104530005065726970685F4472697665725C737207
:10454000635C73746D3332663130785F646D612EF5
:1045500063000000433A5C55736572735C54616597
:10456000576F6F6B5C4465736B746F705CBBEFB0BF
:10457000FA5FBFACC0E55C575973746570735F6ECA
:10458000524628696E74657272757074B7CE20C019
:10459000DBBBECB3AAB0D420B5C7B4C220BCD2BD3B
:1045A000BA295C6C6962726172795C53544D333222
:1045B000463130785F5374645065726970685F4447
:1045C00072697665725C7372635C73746D333266A4
:1045D0003130785F657874692E630000433A5C552A
:1045E000736572735C546165576F6F6B5C44657380
:1045F0006B746F705CBBEFB0FA5FBFACC0E55C572B
:104600005973746570735F6E524628696E74657273
:1046100072757074B7CE20C0DBBBECB3AAB0D420E7
:10462000B5C7B4C220BCD2BDBA295C6C69627261E4
:1046300072795C53544D3332463130785F53746431
:104640005065726970685F4472697665725C7372F6
:10465000635C73746D3332663130785F6770696F95
:104660002E630000433A5C55736572735C54616558
:10467000576F6F6B5C4465736B746F705CBBEFB0AE
:10468000FA5FBFACC0E55C575973746570735F6EB9
:10469000524628696E74657272757074B7CE20C008
:1046A000DBBBECB3AAB0D420B5C7B4C220BCD2BD2A
:1046B000BA295C6C6962726172795C53544D333211
:1046C000463130785F5374645065726970685F4436
:1046D00072697665725C7372635C73746D33326693
:1046E0003130785F7263632E63000000433A5C559B
:1046F000736572735C546165576F6F6B5C4465736F
:104700006B746F705CBBEFB0FA5FBFACC0E55C5719
:104710005973746570735F6E524628696E74657262
:1047200072757074B7CE20C0DBBBECB3AAB0D420D6
:10473000B5C7B4C220BCD2BDBA295C6C69627261D3
:1047400072795C53544D3332463130785F53746420
:104750005065726970685F4472697665725C7372E5
:10476000635C73746D3332663130785F7370692EB9
:1047700063000000433A5C55736572735C54616575
:10478000576F6F6B5C4465736B746F705CBBEFB09D
:10479000FA5FBFACC0E55C575973746570735F6EA8
:1047A000524628696E74657272757074B7CE20C0F7
:1047B000DBBBECB3AAB0D420B5C7B4C220BCD2BD19
:1047C000BA295C6C6962726172795C53544D333200
:1047D000463130785F5374645065726970685F4425
:1047E00072697665725C7372635C73746D33326682
:1047F0003130785F75736172742E6300433A5C5593
:10480000736572735C546165576F6F6B5C4465735D
:104810006B746F705CBBEFB0FA5FBFACC0E55C5708
:104820005973746570735F6E524628696E74657251
:1048300072757074B7CE20C0DBBBECB3AAB0D420C5
:10484000B5C7B4C220BCD2BDBA295C6C69627261C2
:1048500072795C53544D3332463130785F5374640F
:104860005065726970685F4472697665725C7372D4
:10487000635C6D6973632E630000000057726F6E96
:104880006720706172616D65746572732076616C0A
:1048900075653A2066696C65202573206F6E206C03
:1048A000696E652025640D0A0000000010B50749F7
:1048B00079441831064C7C44163404E00A68081D1B
:1048C000511888470146A142F8D110BD08000000E8
:1048D00030000000FFC8FFFFC4000000600100209E
:1048E0000000000021FAFFFF0200000002000000AB
:1048F000380100004C0000000000002060010000B2
:1049000000F009F8002801D0FFF7D0FF0020FFF7E2
:104910004DFD00F002F80120704700F001B80000E2
:1049200007463846FFF738FDFBE738B504460D4625
:10493000284600F005F8A84218BF0024204632BDE2
:104940000149FEF785BC00BFFC000020C046C04600
:10495000C046C046FFF7D4FFFFF766BCFFF765BC53
:10496000FFF764BCFFF763BCFFF762BCFFF761BCF5
:10497000FFF760BCFFF75FBCFFF75EBCFFF760BCF2
:10498000FFF75FBCFFF75EBCFFF75DBCFFF75CBCE9
:10499000FFF75BBCFFF75ABCFFF759BCFFF758BCE9
:1049A000FFF757BCFFF756BCFFF776BCFFF775BCA7
:1049B000FFF774BCFFF773BCFFF772BCFFF771BC65
:1049C000FFF770BCFFF76FBCFFF76EBCFFF76DBC65
:1049D000FFF76CBCFFF76BBCFFF76ABCFFF769BC65
:1049E000FFF768BCFFF767BCFFF766BCFFF765BC65
:1049F000FFF764BCFFF763BCFFF762BCFFF761BC65
:104A0000FFF760BCFFF75FBCFFF75EBCFFF75DBC64
:104A1000FFF75CBCFFF75BBCFFF75ABCFFF759BC64
:104A2000FFF758BCFFF757BCE400F8FFDC00FAFFC3
:104A30008100D1001F0204010160010020B00100CB
:104A40002060010020600100206001002039010089
:104A50002020010020DC000C0102030401020304F9
:104A60000607080900FCE2FD000010FCE2FD00035F
:044A7000020406082E
:040000050800494D59
:00000001FF
