:020000040800F2
:100000000004002039050008870500088B0500085A
:100010008F05000893050008970500080000000000
:100020000000000000000000000000009B05000828
:100030009F05000800000000A3050008A7050008B0
:10004000AB050008AF050008B3050008B7050008B8
:10005000BB050008BF050008C3050008C705000868
:10006000CB050008CF050008D3050008D705000818
:10007000DB050008DF050008E3050008E7050008C8
:10008000EB050008EF050008F3050008F705000878
:10009000FB050008FF050008030600080706000826
:1000A0000B0600080F0600081306000817060008D4
:1000B0001B0600081F060008230600082706000884
:1000C0002B0600082F060008330600083706000834
:1000D0003B0600083F0600084306000847060008E4
:1000E0004B0600084F0600085306000801B402E062
:1000F0000098401E009000980028F9D101B0704788
:1001000080B5A948FFF7F2FF01BD80B5A748FFF70A
:10011000EDFF01BDC905C90D81807047002200882F
:10012000084201D0012200E000221000C0B2704756
:1001300080B5C0B2010089B29D48FFF7EBFF802176
:100140009B48FFF7EBFF0028F9D001BD10B5040074
:1001500003E02078FFF7ECFF641C20780028F8D13A
:1001600010BDF0B40025934A00230024068A350010
:100170004CF6FF763540CE883543058285894EF6AC
:10018000F31635408E880F893E434F893E433543F1
:100190008581858A4FF6FF4635408E8935438582B5
:1001A00019256A4309688900B2FBF1F10B0064214B
:1001B000B3FBF1F10D012909642202FB11310C009E
:1001C000210132316422B1FBF2F111F00F010D4334
:1001D0000581F0BC704700B585B05FF4E130009058
:1001E0000020ADF804000020ADF806000020ADF8B6
:1001F00008000020ADF80C000C20ADF80A0000A9A2
:100200006B48FFF7AEFF6C48008850F400506A4915
:10021000088005B000BDF0B40022002600240025AF
:100220000023002791F803C01CF00F0C624691F8E0
:1002300003C05FEACC6C01D58B781A430B781B06A0
:1002400021D00368002406E0CD78482D02D1012595
:10025000A5400561641C082C14D20125A5400E8818
:100260002E40AE42F6D1A5000F2616FA05F7BB4385
:1002700012FA05F52B43CD78282DE5D10125A540AF
:100280004561E7E703600B884FF48074A34226D3EF
:100290004368002420E0012514F10806B5400E88CB
:1002A0002E40AE4217D1A5000F2616FA05F7BB4324
:1002B00012FA05F52B43CD78282D04D1012514F130
:1002C0000806B5404561CD78482D04D1012514F1CB
:1002D0000806B5400561641C082CDCD34360F0BC03
:1002E000704780B54FF40070ADF8000003208DF822
:1002F000020018208DF8030000A93048FFF78BFF9B
:100300004FF48060ADF8000004208DF8030000A9D0
:100310002A48FFF780FF0120ADF8000004208DF887
:10032000030000A92548FFF776FF0220ADF8000082
:1003300004208DF8030000A92048FFF76CFF4FF45C
:100340004870ADF8000003208DF8020010208DF8F1
:10035000030000A91A48FFF75EFF01BD80B51948E8
:10036000006850F00400174908601648006850F013
:100370000800144908601348006850F4804011498F
:100380000860FFF7AEFFFFF726FF0F48FFF7DEFE1E
:100390000E48FFF7DBFE00F061F80D48FFF7D6FED0
:1003A000FFF7AEFEF9E70000C44E0C00143B01005D
:1003B0000038014000127A000C380140000801406A
:1003C000000C014018100240AC0400087005000841
:1003D00078050008164800684FF400710843144976
:1003E00008607047134800684FF4007108431149D2
:1003F000086070470E48006850F020000C49086003
:1004000070470C48006850F020000A4908607047A7
:10041000074800684FF48071084305490860704739
:10042000044800684FF4807108430249086070472F
:10043000140C0140100C014080B5FFF7D3FFFFF70B
:10044000E0FFFFF7EDFF01BD00228068084201D008
:10045000012200E000221000C0B2704710B5002455
:10046000FFF7EAFF01E0FFF7C5FFFFF74EFE2000B0
:10047000441CC00702D4FFF7CBFF01E0FFF7D0FF19
:1004800001210948FFF7E0FF012802D1FFF7A2FF91
:1004900001E0FFF7A7FF02210348FFF7D5FF01287E
:1004A000E1D0FFF7AEFFE0E7000801400D0A486524
:1004B0006C6C6F20576F726C64212048656C6C6F98
:1004C00020436F727465782D4D33210D0A000000B2
:1004D0001D050008040000000004002000000000CA
:1004E00010B50548054CA04204D050F8041B8847BD
:1004F000A042FAD110BD00BFD0040008E0040008FB
:1005000000B5054A1068002804D011000220ABBED7
:100510000020106000BD000000040020002305E062
:1005200050F8041B41F8043B121FFBD150F8042B78
:10053000002AF5D17047000000F08DF8002801D0A6
:10054000FFF7CEFF0020FFF709FF00F019F80000C9
:1005500080B5FFF7D5FF024A11001820ABBEFBE7BC
:100560002600020007463846FFF7F2FFFBE70000CF
:1005700033303030303030000D0A3535350D0A005B
:1005800080B5FFF7EFBFFFF7FEBFFFF7FEBFFFF736
:10059000FEBFFFF7FEBFFFF7FEBFFFF7FEBFFFF78F
:1005A000FEBFFFF7FEBFFFF7FEBFFFF7FEBFFFF77F
:1005B000FEBFFFF7FEBFFFF7FEBFFFF7FEBFFFF76F
:1005C000FEBFFFF7FEBFFFF7FEBFFFF7FEBFFFF75F
:1005D000FEBFFFF7FEBFFFF7FEBFFFF7FEBFFFF74F
:1005E000FEBFFFF7FEBFFFF7FEBFFFF7FEBFFFF73F
:1005F000FEBFFFF7FEBFFFF7FEBFFFF7FEBFFFF72F
:10060000FEBFFFF7FEBFFFF7FEBFFFF7FEBFFFF71E
:10061000FEBFFFF7FEBFFFF7FEBFFFF7FEBFFFF70E
:10062000FEBFFFF7FEBFFFF7FEBFFFF7FEBFFFF7FE
:10063000FEBFFFF7FEBFFFF7FEBFFFF7FEBFFFF7EE
:10064000FEBFFFF7FEBFFFF7FEBFFFF7FEBFFFF7DE
:0A065000FEBFFFF7FEBF0120704758
:0400000508000539B1
:00000001FF
