:020000040800F2
:100000000004002079020008B9020008B9020008C3
:10001000B9020008B9020008B90200080000000097
:10002000000000000000000000000000B90200080D
:10003000B902000800000000B9020008B902000877
:1000400001B402E00098401E009000980028F9D109
:1000500001B0704780B53448FFF7F2FF01BD10B41E
:10006000D2B252EA830200230C0614D0002300E02F
:100070005B1C082B25D289B201249C40A142F7D1F8
:100080009B0001680F249C40A143016001689A40D5
:100090001143016015E089B2090A002300E05B1CEE
:1000A000082B0ED289B201249C40A142F7D19B00BB
:1000B00041680F249C40A143416041689A4011432C
:1000C000416010BC704780B51848006850F00400CB
:1000D000164908601548006850F008001349086088
:1000E000002301224FF400711148FFF7B8FF0023ED
:1000F000012220210E48FFF7B2FF002301224FF416
:1001000080710B48FFF7ABFF012300220121094852
:10011000FFF7A5FF0123002202210648FFF79FFFFA
:1001200000F04EF8FEE70000143B010018100240FA
:10013000000C014000080140164800684FF40071AF
:100140000843144908607047134800684FF4007171
:1001500008431149086070470E48006850F02000BD
:100160000C49086070470C48006850F020000A49AC
:1001700008607047074800684FF4807108430549DC
:1001800008607047044800684FF4807108430249D2
:1001900008607047140C0140100C014080B5FFF757
:1001A000D3FFFFF7E0FFFFF7EDFF01BD00228068FE
:1001B000084201D0012200E000221000C0B27047C6
:1001C00010B50024FFF7EAFF01E0FFF7C5FFFFF7D6
:1001D00041FF2000441CC00702D4FFF7CBFF01E021
:1001E000FFF7D0FF01210948FFF7E0FF012802D106
:1001F000FFF7A2FF01E0FFF7A7FF02210348FFF787
:10020000D5FF0128E1D0FFF7AEFFE0E7000801408D
:100210005D0200080400000000040020000000004F
:1002200010B50548054CA04204D050F8041B88477F
:10023000A042FAD110BD00BF100200082002000841
:1002400000B5054A1068002804D011000220ABBE9A
:100250000020106000BD000000040020002305E025
:1002600050F8041B41F8043B121FFBD150F8042B3B
:10027000002AF5D17047000000F01CF8002801D0DA
:10028000FFF7CEFF0020FFF71EFF00F010F8000080
:1002900080B5FFF7D5FF024A11001820ABBEFBE77F
:1002A0002600020007463846FFF7F2FFFBE780B55D
:0A02B000FFF7F8BF01207047FEE7DA
:040000050800027974
:00000001FF
