:020000040800F2
:1000000000040020B9300008492200084D220008F1
:100010005122000855220008592200080000000063
:100020000000000000000000000000005D22000849
:100030006122000800000000652200086922000813
:100040007122000875220008792200087D2200082C
:100050008122000885220008892200088D220008DC
:100060009122000895220008B5220008B922000854
:10007000BD220008C1220008C5220008C9220008CC
:10008000CD220008D1220008D5220008D92200087C
:10009000DD220008E1220008E5220008E92200082C
:1000A000ED220008F1220008F5220008F9220008DC
:1000B000FD2200080D230008112300081523000865
:1000C000192300081D230008212300082523000808
:1000D000292300082D2300083123000835230008B8
:0C00E000392300083D23000841230008DC
:1000EC002DE9F04FA5B016001C00DFF83426D2E93C
:1000FC000023CDE91223049004AD69600020A862AE
:10010C000DF150096FF0004B00E0BE190020ADF866
:10011C00020012AB4FF0FF3231000DF1020002F081
:10012C008BFF0700012804DA3078471EBF41FF43DC
:10013C00FF0FBDF80200252801D17A1E00E03A001D
:10014C00012A0ADB310002A801F04AF8002804D584
:10015C004FF0FF3025B0BDE8F08FBDF80200252828
:10016C0007D1002028616861A861E8612862686293
:10017C0005E00028C9D1A86AECE740F0010016F8A8
:10018C00011F2029F9D023290DD02B2904D02D298A
:10019C0006D030290BD00DE040F0020080B2EEE723
:1001AC0040F00400FAE740F0080080B2E7E740F0C6
:1001BC001000F3E72A290DD12268111D2160116866
:1001CC002963002904D54A422A6340F0040080B216
:1001DC00761C10E0002129630A2307E0296B59459E
:1001EC0003D001FB032130392963761C3278302A85
:1001FC0001D33A2AF2D331782E2903D04FF0FF31B4
:10020C00E9621BE016F8011F2A2906D12268111D8C
:10021C0021601168E962761C10E00021E9620A2372
:10022C0007E0E96A594503D001FB03213039E96243
:10023C00761C3278302A01D33A2AF2D3A886317848
:10024C00DFF8E00402F03EFF08B116F8010B8DF860
:10025C0046009DF84600682806D1307868280CD1F5
:10026C0062208DF8460007E06C2806D130786C28A7
:10027C0003D171208DF84600761C14A8E86096F81E
:10028C0000C06046413800F0F080001F022840F2A8
:10029C00EC80133800F0A080093800F0E680801E56
:1002AC001AD0401E3DD0401E022840F2DE80001FB6
:1002BC0037D0401F00F01B81401E00F08D80401E87
:1002CC0000F05481C01E00F05F81801E00F084801D
:1002DC00C01E00F0818079E19DF846006C2809D0A1
:1002EC002869411C29612268111D2160116800F8E0
:1002FC00091075E12168081D2060086880B2ADF80E
:10030C0004000020ADF806004FF0FF30E86201A9B0
:10031C0002A800F009FA002840F162814FF0FF308A
:10032C005FE19DF846006C281BD071280BD120682A
:10033C00C01D072188432060014601F108002060A0
:10034C00D1E9002312E06A280BD12068C01D0721D7
:10035C0088432060014601F108002060D1E90023A8
:10036C0004E02168081D20600A68D3179DF8460038
:10037C00682801D112B207E0622801D152B203E021
:10038C00742801D07A2800D1D317002B06DC00DBAF
:10039C0004D228692D2100F809100FE0A88E10F066
:1003AC00020F04D028692B2100F8091006E010F088
:1003BC00010F06D02869202100F809102869401C7B
:1003CC002861286914A94018A860CDE90223614668
:1003DC0002A800F01BFB03E19DF846006C281BD023
:1003EC0071280BD12068C01D07218843206001466D
:1003FC0001F108002060D1E9002312E06A280BD13A
:10040C002068C01D072188432060014601F10800C7
:10041C002060D1E9002304E02168081D20600A68EF
:10042C0000239DF84600682801D192B207E06228AB
:10043C0001D1D2B203E0742801D07A2800D1002374
:10044C00A88E10F0080FBCD00BB9002AB9D04CF014
:10045C0020007828B5D12869302100F809102869C6
:10046C00401C286100F809C0A8E79DF846004C28FC
:10047C0020680AD1C01D072188432060014601F184
:10048C0008002060D1E9000109E0C01D0721884364
:10049C002060014601F108002060D1E90001CDE99E
:1004AC000201BDF80E0010F4004F04D028692D2174
:1004BC0000F809100FE0A88E10F0020F04D0286984
:1004CC002B2100F8091006E010F0010F06D0286966
:1004DC00202100F809102869401C2861286914A9FA
:1004EC004018A860614602A800F02AFB78E09DF84D
:1004FC00460062280CD068282AD06A2818D06C28AC
:10050C001FD071280BD074281BD07A2819D026E064
:10051C00A86A2268111D21601168087060E0A86A41
:10052C00C11723681A1D22601A68C2E9000157E03E
:10053C00A86AC11723681A1D22601A68C2E9000153
:10054C004EE02168081D20600868A96A016047E038
:10055C00A86A2268111D21601168088040E021689A
:10056C00081D20600868A96A016039E02168081D2F
:10057C0020600A6814A8A8604FF0FF3000211040DA
:10058C00CDE90201782123E79DF846006C2821680B
:10059C0013D0081D20600868A860EA6A002A02D5FA
:1005AC0002F078FC07E0002102F08CFB10B1A96886
:1005BC00401A00E0E86A686112E0081D20600968D2
:1005CC0002A800F0B1F800280AD5A7E62869411C5A
:1005DC002961BCF1000F08BF4FF0250C00F809C0D1
:1005EC000020761C00287FF4B3AD286B2969401AD3
:1005FC00E969401A6969401A296A401AA969401ABE
:10060C00696A471AA88E10F0040F12D120208DF8B9
:10061C0000004FF00008012F0BDB012200A902A8FB
:10062C0000F0DEFD00287FF493AD08F10108B84519
:10063C00F3DB2A6914A902A800F0D2FD00287FF48C
:10064C0087AD30208DF80000D5F81CA04FF00008C5
:10065C00BAF1010F0BDB012200A902A800F0C0FDCA
:10066C0000287FF475AD08F10108D045F3DB6A6909
:10067C00A96802A800F0B4FD00287FF469AD302011
:10068C008DF80000D5F820A04FF00008BAF1010F4A
:10069C000BDB012200A902A800F0A2FD00287FF4C8
:1006AC0057AD08F10108D045F3DBAA696869A96860
:1006BC00411802A800F094FD00287FF449AD3020C9
:1006CC008DF80000D5F824A04FF00008BAF1010F06
:1006DC000BDB012200A902A800F082FD00287FF4A8
:1006EC0037AD08F10108D045F3DBA88E10F0040FEC
:1006FC003FF40CAD20208DF800004FF00008012FC6
:10070C00FFF604AD012200A902A800F069FD002843
:10071C007FF41EAD08F10108B845BFF6F7ACF1E760
:10072C008C310008943100082DE9F04F95B005008C
:10073C008B466E6B002E48BF6FF0004602F036FD04
:10074C00A96B40180190B048D0E90001CDE9030134
:10075C00A88F10F0040F02D10198412806D20DF198
:10076C001409402001900020029009E002F002F8E8
:10077C008146B9F1000FF6D14FF0FF3041E1361B45
:10078C00012EC0F2B88003AABBF800100DF10100D5
:10079C0002F070FC040004D4BBF8000028B9641EFD
:1007AC0003D54FF0FF300290A5E0A642C0F2A38023
:1007BC00A86901992218914280F08E800021A963CA
:1007CC004142686A081AE969401AA96A401A296AFA
:1007DC00401AE96A471AA88F10F0040F11D1202093
:1007EC008DF800004FF00008012F0ADB012200A950
:1007FC00280000F0F5FC00286CD108F10108B84580
:10080C00F4DBAA694946280000F0EAFC002861D113
:10081C0030208DF80000D5F824A04FF00008BAF174
:10082C00010F0ADB012200A9280000F0D9FC0028E6
:10083C0050D108F10108D045F4DBEA692969280098
:10084C0000F0CEFC002845D130208DF80000D5F802
:10085C0028A04FF00008BAF1010F0ADB012200A911
:10086C00280000F0BDFC002834D108F10108D04567
:10087C00F4DB2A6AE86929694118280000F0B0FC09
:10088C0040BB30208DF80000D5F82CA04FF00008AC
:10089C00BAF1010F09DB012200A9280000F0A0FC2D
:1008AC00C0B908F10108D045F5DBA88F10F0040F92
:1008BC0010D020208DF800004FF00008012F09DB2C
:1008CC00012200A9280000F08BFC18B908F10108DE
:1008DC00B845F5DB0020A86122000DF10101A869E3
:1008EC00484402F0A9F8A8692018A8613BF8020B4B
:1008FC0000287FF444AFA86BA969401A696A401AB2
:10090C00E969401AA96A401A296A401AE96A441A24
:10091C00A88F10F0040F0FD120208DF800000026B6
:10092C00012C09DB012200A9280000F059FC002849
:10093C005DD1761CA642F5DBAA694946280000F079
:10094C004FFC002853D130208DF800006E6A002730
:10095C00012E09DB012200A9280000F041FC00282F
:10096C0045D17F1CB742F5DBEA692969280000F004
:10097C0037FC00283BD130208DF80000AE6A0027F0
:10098C00012E09DB012200A9280000F029FC002817
:10099C002DD17F1CB742F5DB2A6AE8692969411819
:1009AC00280000F01DFC10BB30208DF80000EE6A12
:1009BC000027012E08DB012200A9280000F010FC02
:1009CC00A8B97F1CB742F6DBA88F10F0040F0ED02D
:1009DC0020208DF800000026012C08DB012200A944
:1009EC00280000F0FDFB10B9761CA642F6DB0020B7
:1009FC00A861A86305A881451CBF484601F05EFFAD
:100A0C00029815B0BDE8F08FC43100082DE9FA4703
:100A1C0086B08046D8F8140000909DF818006F2816
:100A2C0002D14FF0080907E040F0200078280CBFF5
:100A3C004FF010094FF00A093C24D8E900010600D8
:100A4C000F009DF81820642A01D0692A09D10029C9
:100A5C0007DC00DB05D200200021801BB941060019
:100A6C000F001FB916B9D8F8340050B3651E2C000E
:100A7C004FEAE97ACDE9029A30003900DDE9022328
:100A8C0001F0D0FDCDE90401B246DDE90423DDE936
:100A9C000201A2FB00675046801B3030C0B23A28DE
:100AAC0003D39DF818105139081800996854DDE9E2
:100ABC00046707B92EB1D8F8100000996118884264
:100ACC00D4D3B9F1080F0CD1B8F83C0010F0080FD2
:100ADC0007D00098205C302803D0641E0098302189
:100AEC002154C4F13C00C8F81C0000996118C8F8E6
:100AFC001010D8F8341088420ADA081AC8F8240002
:100B0C00B8F83C004FF6EF710840A8F83C0014E030
:100B1C00002912D5B8F83C1001F0140110290CD1A1
:100B2C00D8F83810D8F81820891AD8F82420891A3F
:100B3C000C1A012CA8BFC8F8244008B0BDE8F087F7
:100B4C002DE9F24F8EB0060004AFD6E90001CDE9D5
:100B5C0000019DF8380040F020008DF80800612855
:100B6C000BD0706B002801D5062005E005D19DF84F
:100B7C000800672801D101207063F18847F6F070F6
:100B8C000840001140F2FF7290421CD111F00F0F7F
:100B9C0005D1B08818B9708808B9308848B10320DD
:100BAC00F0619DF83800612835D37B2833D2D5A16C
:100BBC0032E00320F0619DF83800612831D37B28A6
:100BCC002FD2D1A128E0012804DA300001F02CFC4E
:100BDC0001281DDAF18848F20F02114043F6E07249
:100BEC001143F180A0F2FE354FF0FF309DF8081054
:100BFC0061291DD13269511C31613021117031696B
:100C0C004A1C32619DF83820612A0CD178220BE005
:100C1C0000250020EAE7CFA10322306901F00CFF88
:100C2C0095E1CDA1F8E758220A70B169891CB16130
:100C3C0010B90024002580E19DF80800612840F0DF
:100C4C009980706B002801D5212401E0441C24B24A
:100C5C0004F10108D6E900ABDDE900010022002314
:100C6C0002F068F92EBFCDE900AB8BF0004BCDE95B
:100C7C0000AB2D1F00208DF810000DF11109B8F1FB
:100C8C00010F35DBDDE900010022002302F06AF9D7
:100C9C002ED21C2100A801F041FADDE9000102F07E
:100CAC003DF80700A8F10708B8F1010F09DB02F0C5
:100CBC0071F902000B00DDE9000101F023F8CDE928
:100CCC00000109F107000721012F0ADB491E08D496
:100CDC0007F00F0200F8012D3F11F5E7002200F894
:100CEC00012D491EFAD500F10709B8F1010FC9DA37
:100CFC000DF11100A9EB00000DF11107A042B8BFD6
:100D0C0004B2002C2FD4844206DA04A820184078B0
:100D1C00082801D30F2000E00020210004AA8A1823
:100D2C0001E0641E24B2491E12F801398342F8D046
:100D3C000F2804D104A808184278521C42700029CC
:100D4C0003D504AF641C24B22D1D200009E0C15D45
:100D5C003031C9B23A2903D39DF838203A3A5118A8
:100D6C00C155401EF3D5706B002840F1E680601E23
:100D7C007063E2E0DDE900010022002302F0DAF802
:100D8C003EBFDDE9000181F00041CDE900012DB24B
:100D9C0047F297506843714990FBF1F52DB2C5F1BC
:100DAC0007009046DFF8B89101281BDB0400DDE951
:100DBC0000AB14F0010F07D05046594642464B4643
:100DCC0000F0CEFE82468B466410404649464246B1
:100DDC004B4600F0C5FE80468946002CE9D1CDE992
:100DEC0000AB22E044429246DFF878B113E014F0F5
:100DFC00010F07D05046594642464B4600F0B0FE14
:100E0C0082468B4664104046494642464B4600F0AB
:100E1C00A7FE80468946002CE9D1DDE90001524647
:100E2C005B4600F0F7F9CDE900019DF80800662853
:100E3C0002D105F10A0000E00620716B4418142C55
:100E4C00A8BF132430208DF810000DF11107012CD0
:100E5C002DDBDFF8149111E0DDE9000101F074FFE6
:100E6C0002F0A2F802000B00DDE9000100F04AFFDD
:100E7C0000224B4600F074FECDE90001DDE90001D3
:100E8C0001F062FF07F1080108220A23B0FBF3FC12
:100E9C00E6460EFB1303DBB26046303301F8013D2E
:100EAC00521EF2D101F10807083C012CD4DA0DF1E5
:100EBC001100381A0DF111079DF81110302905D1C8
:100ECC00401E6D1E17F8011F3029F9D09DF808102F
:100EDC00662902D12DB2691C04E0652901D10121DA
:100EEC0000E00021726B8C1824B2A042B8BF04B28F
:100EFC00002C22D4844209DAE05D352806D339204F
:100F0C0005E000BF6E616E00696E66003020210046
:100F1C00CA19521E01E0641E24B2491E12F801398E
:100F2C008342F8D0392802D1C85D401CC85500292D
:100F3C0003D57F1E641C24B26D1C2DB220B523007A
:100F4C003A009DF84010300000F010F802B00FB0DD
:100F5C00BDE8F08F4E414E00494E4600A086010080
:100F6C00000024400000F03F84D797412DE9F04762
:100F7C0086B00400884615001E00BDF9387002F0DA
:100F8C00D9F8406A90F800A0D4F83490012E01DA18
:100F9C00012692A548F0200066280AD0672840F068
:100FAC0086806FF003018F42C0F287804F4580F23C
:100FBC0084807F1C66280CD0A08F10F0080F02D103
:100FCC004E45B8BFB1463FB2B9EB070948BF4FF029
:100FDC0000092069E1693FB2012F25DA4A1C302350
:100FEC000B54B9F1010F03DAA18F11F0080F02D0E5
:100FFC0002F800A0521CE26179428945B8BFC9F1E0
:10100C0000073FB27942A162B944B145B8BF4E4620
:10101C0036B2266232002900E369181801F00CFD83
:10102C00A9EB0600E062C3E00818BE4218DA3200F1
:10103C00290001F001FDE1697118E161B81BA062A2
:10104C00B9F1010F03DAA08F10F0080F05D0206959
:10105C0001F800A0206A401C2062C4F82C90A7E084
:10106C003A00290001F0E8FCE0693818E061F61B51
:10107C00B9F1010F03DAA18F11F0080F04D0411C54
:10108C00E161216900F801A036B2B145B8BF4E4606
:10109C0036B232007919E0692369C01801F0CCFC32
:1010AC00E0693018E061A9EB0600A06280E0B8F1BD
:1010BC00610F16D14FF0700818E04E4504DAA18F7D
:1010CC0011F0080F08BFB146B9F1010948BF4FF044
:1010DC000009B8F1670F14BF4FF045084FF06508D1
:1010EC0004E0B8F1410F08BF4FF05008E1694A1C09
:1010FC00206915F8013B0B54B9F1010F03DAA18FEC
:10110C0011F0080F02D002F800A0521CE261B9F1F4
:10111C00010F11DB761E36B2B145B8BF4E4636B262
:10112C0032002900E369181801F086FCE0693018D8
:10113C00E061A9EB0600A062E0692169451805F899
:10114C00018B002F03D42B2005F8010B04E02D207C
:10115C0005F8010B3800474200260DF1080909E09B
:10116C000A22390000A801F0DBFF019809F8010BF5
:10117C00009F761C3FB2012FF2DA022E06DA48F0FD
:10118C002000652802D1302005F8010B4EB9302023
:10119C0005F8010B07E0761E02A8305C303005F82C
:1011AC00010B012EF7DAE06921694018281A206238
:1011BC00A08F00F0140010280DD1A069E169081867
:1011CC00A16A0818216A0818E16A0818A16B8842FC
:1011DC0001DA081A606206B0BDE8F0873000000042
:1011EC00F8B505000E00140000208CB14FF0FF374D
:1011FC0005E0286B401C28630020641E08D016F8FC
:10120C00011BE868AA689047E8600028F1D1380013
:10121C00F2BD00004FF4001C1CEB410F38BF1CEB5F
:10122C00430F17D31CEB410F09D31CEB430F28BF03
:10123C006FF000011B4248BF81F0004170471CEB6E
:10124C00430F18BF6FF0000102BF594001F000417D
:10125C0000207047BCEB410F98BFBCEB430F39D952
:10126C0050EA410C18BF52EA430C13D150EA410C1E
:10127C0081EA030101F000414FF000001EBF41F074
:10128C00E04141F07F61704752EA430C08BF6FF0B8
:10129C0000017047F0B475464FF40014B4EB410FE5
:1012AC0011D9B4EB430F07D901F01EFE01F00EFE6D
:1012BC00E41B7608AE4614E001F008FE5F00A4EBD8
:1012CC005754AE460DE001F00FFE4C00C7EB5454E2
:1012DC00AE4606E0F0B44C007641640D5F00A4EB22
:1012EC00575446F1000C04F580646FF0404606EA52
:1012FC00812545EA9055800206EA832343EA9253FE
:10130C000221920227D0861A9D4143F0804304D2D9
:10131C00641E76006D41B6185D4176006D419642B3
:10132C0075EB030724BFB61A3D464941F5D34FF47C
:10133C00006076006D41964275EB030724BFB61A28
:10134C003D464041F5D376006D41B61A75EB030767
:10135C0008BF364249E0ED1A43F0804303D2641EC5
:10136C00400043EB45055B4200421AD041F48061DA
:10137C00001853EB450538BFED1A4941001853EBE3
:10138C00450538BFED1A4941001853EB450538BFE8
:10139C00ED1A4941001853EB450538BFED1A494188
:1013AC00ECD313EB450538BFED1A494113EB45055A
:1013BC0038BFED1A494113EB450538BFED1A4941C9
:1013CC00F4D34FF4006013EB450538BFED1A4041E0
:1013DC0013EB450538BFED1A404113EB450538BFFB
:1013EC00ED1A4041EFD313EB45052CBF4FF00045F0
:1013FC00002518BF45F0804540EA4150C90A641EDB
:10140C002FDC41F48011D4F10104202C10DAC4F14A
:10141C0020072D4225FA04F518BF45F0010500FA06
:10142C0007F63543E04001FA07F63043E14026E089
:10143C00342C12DC203C2D4208BF5FEA4007C4F17B
:10144C00200720FA04F518BF45F0010501FA07F64C
:10145C00354331FA04F0002111E000205FEACC7131
:10146C001AE021F4801111EB04515CBF11F5801FBF
:10147C0005E000204FF07F6141F0E0410AE06D0093
:10148C0008BF10F0010F98BF5FEA350550F100005E
:10149C0041F1000141EACC71F0BC704740B2002828
:1014AC0009D540B210F00F00064A8018C9B20901E4
:1014BC0000F8041C04E040B2034AC9B2090181548B
:1014CC00704700BF18ED00E000E400E080B5B0F11B
:1014DC00807F01D3012010E00002000A401E074962
:1014EC0008600F215FF0FF30FFF7D8FF04480021A0
:1014FC000160044807210160002002BD14E000E0F7
:10150C0018E000E010E000E010B504000A2C11D146
:10151C000D21DFF8F80100F065FD8021DFF8EC010A
:10152C0000F092FD0028F8D00A21DFF8E00100F06D
:10153C0059FD06E02100C9B289B2DFF8D00100F0F4
:10154C0051FD8021DFF8C40100F07EFD0028F8D0A9
:10155C00200010BD01B481B0094801990160084810
:10156C0000680028FBD102B07047000004480068F6
:10157C00002804D002480068401E014908607047EA
:10158C005408002080B500F07DFC214800F0E4F9FF
:10159C001F4800684FF47A71B0FBF1F0FFF796FF2B
:1015AC00002800D0FEE70121042000F07FFA012181
:1015BC00082000F07BFA0121102000F077FA0121BD
:1015CC00012000F073FA01214FF4804000F06EFA14
:1015DC0001215FF4802000F093FA01214FF4007098
:1015EC0000F064FA0121012000F032FA01214FF4DD
:1015FC00006000F05BFA0121012000F081FA01216A
:10160C00022000F07DFA0121042000F079FA01BDDE
:10161C002408002080B54FF40070ADF800000320C2
:10162C008DF8020018208DF8030000A9344800F052
:10163C006FF84FF48060ADF8000004208DF80300C3
:10164C0000A92F4800F064F84FF48060ADF800005A
:10165C0003208DF8020018208DF8030000A92948FA
:10166C0000F056F84FF40060ADF8000004208DF83F
:10167C00030000A9234800F04BF80320ADF800004C
:10168C0004208DF8030000A91D4800F041F8F0205B
:10169C00ADF8000000208DF8030000A9184800F0F8
:1016AC0037F80320ADF8000000208DF8030000A9E6
:1016BC00144800F02DF81F20ADF8000000208DF824
:1016CC00030000A9104800F023F84FF47040ADF867
:1016DC00000010208DF8030000A90A4800F018F84B
:1016EC004FF40070ADF8000003208DF802001020BC
:1016FC008DF8030000A9044800F00AF801BD00BFF2
:10170C0000080140000C014000100140003801406D
:10171C0070B504000D0000260022002000230021DB
:10172C005FF0000CDFF810E274451CD0DFF80C02FF
:10173C00844218D0DFF80802844214D0DFF8040287
:10174C00844210D0DFF8000284420CD0DFF8FC0198
:10175C00844208D0DFF8F801844204D0B221DFF8CB
:10176C00F40101F0D3FCE878002819D0E8780428BB
:10177C0016D0E878282813D0E878482810D0E878D4
:10178C0014280DD0E87810280AD0E8781C2807D047
:10179C00E878182804D0B321DFF8B80101F0B6FCC2
:1017AC002888002804D1B421DFF8A80101F0AEFC90
:1017BC00E87810F00F06E87810F0100F0FD0A8782A
:1017CC0001280AD0A878022807D0A878032804D0CA
:1017DC00BB21DFF8800101F099FCA878064328882A
:1017EC00000624D02168002006E0EA78482A02D1BD
:1017FC00012282402261401C082817D20123834019
:10180C002A881A409A42F6D183005FF00F0C1CFA1A
:10181C0003FC7FEA0C02114016FA03F21143EA783A
:10182C00282AE2D1012282406261E4E72160288803
:10183C004FF4807188422AD36168002024E0012291
:10184C000300083312FA03F32A881A409A421AD179
:10185C0083005FF00F0C1CFA03FC7FEA0C021140B2
:10186C0016FA03F21143EA78282A04D10122030064
:10187C0008339A406261EA78482A04D101220300B5
:10188C0008339A402261401C0828D8D3616070BD8F
:10189C0038B504000D002848844217D027488442EC
:1018AC0014D02748844211D0264884420ED02648B2
:1018BC0084420BD02548844208D02548844205D068
:1018CC0040F26911DFF88C0001F020FCADB2002D64
:1018DC0005D14FF4B571DFF87C0001F017FCADB207
:1018EC00256131BD38B504000D001348844217D072
:1018FC001248844214D01248844211D011488442B8
:10190C000ED0114884420BD01048844208D01048A5
:10191C00844205D040F27911DFF8380001F0F6FB73
:10192C00ADB2002D05D14FF4BD71DFF8280001F0E8
:10193C00EDFBADB2656131BD00080140000C01400A
:10194C00001001400014014000180140001C01402F
:10195C0000200140202B000810B50022002100239C
:10196C005FF0000CDFF8E4E0DEF800E01EF00C0E97
:10197C007246002A04D0042A05D0082A06D025E095
:10198C002C49016024E02C49016021E02F490968B1
:10199C0011F470112D4A126812F48033890C891CD1
:1019AC00002B04D1254A01FB02F1016010E0274A0B
:1019BC00126812F4003F04D0214A01FB02F10160CD
:1019CC0006E01D4A01FB02F1016001E019490160CA
:1019DC001E49096811F0F00212091A4912F801C0E7
:1019EC00016831FA0CF141601849096811F4E062A0
:1019FC00120A144912F801C0416831FA0CF18160E5
:101A0C001249096811F46052D20A0E4912F801C049
:101A1C00416831FA0CF1C1600C49096811F440427B
:101A2C00920B094912F801C0C168B1FBFCF10161CC
:101A3C0010BD00BF00127A00001BB70000093D006A
:101A4C00808D5B008009002090090020041002406A
:101A5C0038B504000D001348204201D1002C05D1EB
:101A6C0040F22B41DFF8F40001F050FBEDB2002DF9
:101A7C0008D0EDB2012D05D040F22C41DFF8DC008E
:101A8C0001F044FBEDB2002D05D00748006820435F
:101A9C000549086005E004480068E1430840024934
:101AAC00086031BDA8FAFFFF1410024038B50400DD
:101ABC000D002848204201D1002C04D140F24A41AB
:101ACC00264801F023FBEDB2002D07D0EDB2012D1D
:101ADC0004D040F24B41214801F018FBEDB2002D2F
:101AEC0005D00648006820430449086005E0034817
:101AFC000068E14308400149086031BD18100240FC
:101B0C0038B504000D001448204201D1002C04D13A
:101B1C0040F26941114801F0F9FAEDB2002D07D0FD
:101B2C00EDB2012D04D040F26A410C4801F0EEFAFE
:101B3C00EDB2002D05D0064800682043044908602A
:101B4C0005E003480068E14308400149086031BDE5
:101B5C001C1002400200C0FF003601818C2B0008D3
:101B6C00B0B581EA030C0CF0004C40F2FF7515EA9D
:101B7C0011541DBF15EA1357AC42AF423AE0E419B9
:101B8C0023EA455343F48013C90241F0004141EA72
:101B9C0050574FEAC02E1100AEFB020200284FF046
:101BAC000000E7FB01204FF00001E3FB0E2118BF02
:101BBC0042F00102401800214941E3FB0701A4F562
:101BCC0080640F0302D252004041494154F1010498
:101BDC006BDD470872F1004250F1000051EB0451EB
:101BEC00A1F580115CBF41EA0C01B0BD4CEA055176
:101BFC000020B0BD05EA1357AC4214BFAF4240E021
:101C0C0050EA410E1CBF52EA430E02E0614600202E
:101C1C00B0BD24423C441AD13F42F7D0090302BF65
:101C2C0001460020143FB1FA81FEA7EB0E0401FA25
:101C3C000EF70EF10C0ECEF1200100FA0EFEC8408C
:101C4C0047EA000723EA455343F48013A3E733F034
:101C5C000043B3FA83F704BFB2FA82FE77440B3F1A
:101C6C00E41BB7F1200E2FBF02FA0EF3BB40C7F1F5
:101C7C00200E22FA0EFE38BF43EA0E03BA40641C53
:101C8C0082E750EA410E14BF52EA430E6FF0000196
:101C9C004FF4001717EB430F8ABF194617EB410F90
:101CAC00B6E74CEA05510020B0BDD4F10104B4F103
:101CBC0020070FDAC4F12007520828BF42F00102B6
:101CCC0010FA07F501FA07F7E1BF2A43E040384361
:101CDC00E1400FE0352C99DCC7F1200452EA4002B8
:101CEC0020FA07F218BF42F0010231FA07F0A140C6
:101CFC000A43002172F1004250F1000051EB0C013B
:101D0C00B0BD0000F0B44FF0004591EA030F44BFA2
:101D1C006B4000F01EBB8B4208BF824205D9844643
:101D2C00100062464C19591923004FF4001C1CEB8F
:101D3C00410F06D308BF1CEB430F28BF6FF0000107
:101D4C0062E0BCEB430F14D9AB4352EA43060BD011
:101D5C004FEA4C0CBCEB410F04D80C0D661E342E14
:101D6C0057DD51E0801A994150EA410608BF002125
:101D7C004AE00C0DA4EB1356362E45DC012E45DC47
:101D8C004FEA045445EAC32343EA525312BFD2022A
:101D9C0092025B0845EAC12141EA5051D2EBC020C6
:101DAC00994125D404BF01460020B1FA81F601FA0D
:101DBC0006F1C6F1200220FA02F241EA020100FA11
:101DCC0006F002BF203609421EE04FEAF474B4EB71
:101DDC00465434F001064FEA740409D8D6F50016BF
:101DEC00760D2C40F04071FA06F25040F14048401C
:101DFC00C00A40EA415021EA050128BF5FEA5005BC
:101E0C0050F1000044EBD121F0BC704745EAC323EC
:101E1C00DB0A45EAC121C90A202E0DDD203E63FAFA
:101E2C0006F5F3405D40124218BF45F001056D42C6
:101E3C00984161F100010DE062FA06F5F24085EA85
:101E4C00020563FA06FC82EA0C02F3405A406D422A
:101E5C009041994111F4801F05D1641E620502D096
:101E6C006D004041494121F480116D0008BF10F014
:101E7C00010F98BF5FEA350550F1000041EB0451AA
:101E8C00F0BC704780B55548006850F001005349CC
:101E9C0008605348006811490840514908604F4890
:101EAC0000680F4908404D4908604C4800687FF4B1
:101EBC008021084049490860494800687FF4FE01C8
:101ECC0008404749086007485FF41F01016000F0B3
:101EDC000DF805485FF00061016001BD0000FFF8DE
:101EEC00FFFFF6FE0810024008ED00E080B500F0A0
:101EFC0001F801BD82B0002001900020009037480D
:101F0C00006850F48030354908603448006810F49B
:101F1C00003000900198401C01900098002803D1DB
:101F2C000198B0F5A06FF0D12C48006810F4003087
:101F3C00401E8041C043C00F00900098012849D139
:101F4C002548006850F010002349086022480068BA
:101F5C0003218843204908601F48006850F00200A4
:101F6C001D4908601E481E49096801601C481C492F
:101F7C00096801601A48006850F4806018490860CC
:101F8C00174800687FF47C11084015490860144814
:101F9C00006850F48810124908601048006850F02E
:101FAC0080700E4908600D48006810F0007FFAD070
:101FBC000B480068032188430949086008480068F9
:101FCC0050F00200064908600548006810F00C004B
:101FDC000828F9D102B070470020024000100240DE
:101FEC000410024038B504000D001148844210D092
:101FFC00104884420DD0104884420AD00F488442C5
:10200C0007D00F48844204D040F253210D4801F010
:10201C007DF84FF40070ADB2854204D34FF41571C6
:10202C00084801F073F8E805C00DA08031BD000030
:10203C00003801400044004000480040004C004083
:10204C0000500040642C000838B504000D0000203E
:10205C002C498C4210D02C4884420DD02B48844201
:10206C000AD02B48844207D02A48844204D040F23C
:10207C006E31294801F04AF8ADB2012D23D0ADB232
:10208C00802D20D0ADB2402D1DD0ADB2202D1AD058
:10209C00ADB2102D17D04FF48070ADB2854212D076
:1020AC004FF40070ADB285420DD0ADB2082D0AD000
:1020BC00ADB2042D07D0ADB2022D04D040F26F3179
:1020CC00154801F023F84FF40070ADB285420DD1E4
:1020DC000C4884420AD00C48844207D00B488442F6
:1020EC0004D040F273310C4801F010F8208815EA46
:1020FC000001080080B2401E8041C043C00FC0B236
:10210C0032BD00BF00380140004400400048004090
:10211C00004C004000500040642C000870B50500D5
:10212C000C00E88847F6F0710840001140F2FF7689
:10213C00B0420DD1E88810F00F0F05D1A88818B95E
:10214C00688808B9288808B1022070BD012070BDCC
:10215C0030B9280000F068F9012801DB002070BDBF
:10216C000419B4420BDBE88810F4004F02D00020B5
:10217C00304901E000203049C5E90001E6E7012CB7
:10218C00E88809DB48F20F010840A4B240EA0410C9
:10219C00E8804FF0FF3070BD00F40040E98801F09A
:1021AC000F0141F01001E980641E6FF033018C4285
:1021BC0005DAE8800020A8806880288070BD24B2F1
:1021CC006FF00E018C420BDA6A882A80AA886A802A
:1021DC00EA88AA800022EA80103424B28C42F3DB15
:1021EC00614209B20A001FD0C2F110022B880B41C8
:1021FC00B5F802C00CFA02FC4CEA03032B806B8886
:10220C000B41B5F804C00CFA02FC4CEA03036B80DA
:10221C00AB880B41B5F806C00CFA02F21A43AA803F
:10222C00EA8822FA01F1E980E9880843E8804FF056
:10223C00FF3070BD0000F0FF0000F07F7047000021
:10224C00FEE70000FEE70000FEE70000FEE70000EE
:10225C0070470000704700007047000080B5FFF722
:10226C0085F901BD70470000704700007047000001
:10227C007047000070470000704700007047000076
:10228C00704700007047000080B5082000F00EFA7F
:10229C00002805D0034800F0BFFE082000F056FAD5
:1022AC0001BD00BF7C310008704700007047000082
:1022BC007047000070470000704700007047000036
:1022CC007047000070470000704700007047000026
:1022DC007047000070470000704700007047000016
:1022EC007047000070470000704700007047000006
:1022FC0080B501215FF0804000F004F901BD0000C1
:10230C0070470000704700007047000070470000E5
:10231C0070470000704700007047000070470000D5
:10232C0070470000704700007047000070470000C5
:10233C007047000080B55FF4802000F007FA01BD03
:10234C00F0B44FF0004591EA030C44BF6B40FFF72B
:10235C00E2BC8B4208BF824205D98446100062461B
:10236C008C46190063464FF4001C1CEB410F01D343
:10237C00F0BC7047BCEB430F0FD952EA430648D070
:10238C00BCEB410F05D80C0DAB43661E342E0CDD97
:10239C003FE0AB43801859413BE00C0DA4EB1356C6
:1023AC00352E36DC45EAC323DB0A45EAC121C912C6
:1023BC00202E11DB203E18BF5FEA020263FA06F5FD
:1023CC0023FA06F385EA030518BF45F00105C0188A
:1023DC0051F100010CD213E072FA06F5F2405540AF
:1023EC00F3415A40B340F3405A408018594107D347
:1023FC0049085FEA30005FEA350528BF45F0010562
:10240C0001F58011420875F1004250F1000041EBDA
:10241C000451F0BC4FF4001C1CEB410F38BF70474B
:10242C000020090D0905704710B50100C88800F49B
:10243C0000420120CB8803F00F03CB80C3B98B88FB
:10244C0023B94B8813B90B88002B57D08B88CB80C2
:10245C00B1F802C0A1F804C0B1F800C0A1F802C0E4
:10246C004FF0000CA1F800C0103800B2002BEDD0DA
:10247C00CB88102B1ED28B88B1F806C04FEAD33E06
:10248C004EEA4C0CA1F806C0B1F802E04FEADE347B
:10249C0044EA43038B800B88DC0B44EA4E0EA1F814
:1024AC0002E05B000B80401E00B21FFA8CFCBCF1FA
:1024BC00100FE0D3CB88202B1CD34B88B1F800C075
:1024CC004FEAC33E4EEA5C0CA1F800C0B1F804C060
:1024DC004FEACC3E4EEA53034B80CB884FEAC33EC7
:1024EC004EEA5C0CA1F804C05B08CB80401C00B227
:1024FC00202BE2D2CB8803F00F03CB80CB881A437E
:10250C00CA8010BD38B504000D002348844234D075
:10251C00B4F1804F31D0214884422ED020488442DF
:10252C002BD02048844228D01F48844225D01F48F5
:10253C00844222D01E4884421FD01E4884421CD0A4
:10254C001D48844219D01D48844216D01C48844230
:10255C0013D01C48844210D01B4884420DD01B4819
:10256C0084420AD01A48844207D01A48844204D0C4
:10257C0040F67721184800F0C9FD15F47F4F02D1C1
:10258C00ADB2002D04D140F67821134800F0BEFD09
:10259C00ADB2E843208231BD002C01400004004064
:1025AC0000080040000C00400010004000140040E7
:1025BC0000340140004C01400050014000540140E7
:1025CC0000180040001C004000200040004001406A
:1025DC000044014000480140F82B00082DE9005050
:1025EC0003D34942404261F1000100F01BF8BDE801
:1025FC0000505FEA4C0C05D34942404261F10001A6
:10260C001CEA0C0F03D55B42524263F10003704786
:10261C0013F0004C03D55B42524263F100039CEA79
:10262C00210CDBD151EA030C0ED1002A1FBF8446CA
:10263C00B0FBF2F002FB10C2704700F0DDBD0B00E6
:10264C00020000210020704752EA030CF5D02DE95E
:10265C00F041002400250F00060052EA03081FD0A9
:10266C005FF0000892185B4108D2BB4208BFB2422F
:10267C0098BF08F10108F5D918F100085FEA330397
:10268C004FEA3202B01A77EB030124BF0F4606461D
:10269C0064416D415B084FEA3202B8F10108F1DA8E
:1026AC002000290032003B00BDE8F08110B5040089
:1026BC0000200021012C35D0022C33D0042C31D039
:1026CC00082C2FD0102C2DD0202C2BD0402C29D0E6
:1026DC00802C27D0B4F5807F24D0B4F5007F21D096
:1026EC00B4F5806F1ED0B4F5006F1BD0B4F5805FCD
:1026FC0018D0B4F5005F15D0B4F5804F12D0B4F5F6
:10270C00004F0FD0B4F5803F0CD0B4F5003F09D08A
:10271C00B4F5802F06D0B4F5002F03D0E521134873
:10272C0000F0F4FC0848006814EA00011048006846
:10273C00044205D00800401E8041C043C00F00E099
:10274C000020C0B210BD00000004014010B5040010
:10275C00200D0005002801D1002C03D1FC210348D9
:10276C0000F0D4FC0248046010BD0000B42A00083C
:10277C001404014070B5050005F10F0407208443D3
:10278C00012000F069F8A54204D3012000F08AF87A
:10279C00002070BD082C04D2082402E0083000F0A0
:1027AC008DF8224D286801000CD1291D00E0011D77
:1027BC000868A0B10268A242F9D315E01368A342DD
:1027CC0012D2111D0A68002AF8D10068291D03E0F5
:1027DC001368A34208D2111D0A688242F8D100F096
:1027EC00F1FB0028DAD100210029CED00E68306828
:1027FC000838A04202D27068086008E0A01908608E
:10280C00726842603068001B0A68106034600868A7
:10281C0018B1416809B1001D00E0002028600120BA
:10282C0000F040F806F1080070BD00BF4C08002015
:10283C0010B5214C201D00F0A5FA04F1080000F0A1
:10284C00A1FA04F10C0000F09DFA04F11000BDE8AF
:10285C00104000F097BA000038B50400164D2868F7
:10286C0098B9281D00F086FA05F1080000F082FAEC
:10287C0005F10C0000F07EFA05F1100000F07AFA78
:10288C0000220021064800F05DF801202860042C8D
:10289C0004D205EB8400001D00F07CFA31BD00BFB2
:1028AC003D28000880B5042805D2034901EB8000BF
:1028BC00001D00F077FA01BD3808002010B5F0B10A
:1028CC00A0F108042068082819D310F0070F16D1BE
:1028DC000120FFF7C1FF1A48416809B18C4203D2AD
:1028EC00616044601BE019004B680BB1A342FAD342
:1028FC000A6853189C4203D20120FFF7D3FF10BD86
:10290C00A34204D123689A180A600C0007E04A68B5
:10291C001AB123681B199A42EED362604C6061684D
:10292C000029E9D0226812198A42E5D10021016000
:10293C006068216802685118216040686060DBE7BC
:10294C004C08002080B51D4BD3F800C0DFF828E000
:10295C00F44506D20CF10C0EC3F800E0BCF1000FEC
:10296C0001D1012002BDCCF80010CCF80400CCF849
:10297C000820002002BD00BFD4070020002000BFAB
:10298C00F8B50E4C27683E0014D00B4D00E088477C
:10299C00AE420FD02068874201D0060007000C3EE3
:1029AC0071680800F4D00020706030680028EED107
:1029BC008847EDE7F1BD00BF000600209409002018
:1029CC0070B500F10801026801EBC202406802EB2D
:1029DC00C00000239C469E4601E0AC4207D18242D7
:1029EC0000D170BD52F8044B52F8045B2D196345AD
:1029FC0002BF51F8043B51F804CB9C446345ECD026
:102A0C00AC42EAD0BEF1000F08BF13F901EB00266F
:102A1C0001E004F8016BBEF1000FEFD0AC42EDD039
:102A2C006345EBD0BEF1000F52BFAEF1010E13F8AF
:102A3C00016B0EF1010EECE78B0707D0521E24BF81
:102A4C0011F8013B00F8013BF6D8704783071ED103
:102A5C00103A07D330B4B1E83810103AA0E8381067
:102A6C00F9D230BC530724BFB1E80810A0E8081015
:102A7C0044BF51F8043B40F8043BD20724BF31F863
:102A8C00022B20F8022B44BF0B7803707047083AD6
:102A9C0007D3B1E80810083A40F8043B40F804CBDF
:102AAC00F7D25307E4E70000433A5C70726F6A6533
:102ABC0063745C70726F6A6563745F41524D5C4DF8
:102ACC00616E676F2D4D33322E4669726D77617270
:102ADC00655C575973746570735C6C696272617272
:102AEC00795C53544D3332463130785F53746450B3
:102AFC0065726970685F4472697665725C73726343
:102B0C005C73746D3332663130785F657874692E1E
:102B1C0063000000433A5C70726F6A6563745C70AA
:102B2C00726F6A6563745F41524D5C4D616E676F85
:102B3C002D4D33322E4669726D776172655C575933
:102B4C0073746570735C6C6962726172795C5354F6
:102B5C004D3332463130785F53746450657269700E
:102B6C00685F4472697665725C7372635C73746DD2
:102B7C003332663130785F6770696F2E6300000006
:102B8C00433A5C70726F6A6563745C70726F6A65ED
:102B9C0063745F41524D5C4D616E676F2D4D3332E6
:102BAC002E4669726D776172655C575973746570E6
:102BBC00735C6C6962726172795C53544D3332464A
:102BCC003130785F5374645065726970685F447219
:102BDC00697665725C7372635C73746D33326631E3
:102BEC0030785F7263632E6300000000433A5C70C0
:102BFC00726F6A6563745C70726F6A6563745F414F
:102C0C00524D5C4D616E676F2D4D33322E4669729D
:102C1C006D776172655C575973746570735C6C6920
:102C2C0062726172795C53544D3332463130785F45
:102C3C005374645065726970685F4472697665722A
:102C4C005C7372635C73746D3332663130785F74AD
:102C5C00696D2E6300000000433A5C70726F6A6508
:102C6C0063745C70726F6A6563745F41524D5C4D46
:102C7C00616E676F2D4D33322E4669726D776172BE
:102C8C00655C575973746570735C6C6962726172C0
:102C9C00795C53544D3332463130785F5374645001
:102CAC0065726970685F4472697665725C73726391
:102CBC005C73746D3332663130785F757361727426
:102CCC002E630000C9B2830706D0521E22D310F81F
:102CDC00013B9942F7D11FE0083A13D302F10402E9
:102CEC0041EA012141EA014150F8043B121F21BF86
:102CFC004B40A3F1013C2CEA030C1CF0803FF3D0B9
:102D0C00C9B2001F083210F8013B521E28BF91EACD
:102D1C00030FF8D818BF0120401E7047F446400D31
:102D2C0040EAC120490006D200F013F8004248BF27
:102D3C006FF00040604700F00CF84FF00041884203
:102D4C008CBF084640426047400D40EAC120490014
:102D5C000CD240F00040490DA1F58061491C05D40E
:102D6C00D1F11F0154BFC840C01770474FF000008D
:102D7C007047000080B50F4909680A0018BF8847E2
:102D8C0001BD000080B50C4909680A0018BF8847CE
:102D9C0001BD000080B5094909680A0018BF8847C1
:102DAC0001BD000080B5064909680A0018BF8847B4
:102DBC0001BD00005C0800206008002064080020B1
:102DCC006808002030B90548D0E90001C2E90001CB
:102DDC000020704701700120704700BFDC310008F3
:102DEC0031B90A48D0E90001C3E90001002070475D
:102DFC0012B96FF00100704708B10A7802800978A7
:102E0C00481E8041C043C00F704700BFE43100082A
:102E1C0074320008743200087432000874320008EE
:102E2C00743200087432000874320008FFFFFFFF90
:102E3C00FFFFFFFF083200087432000874320008EC
:102E4C007432000874320008EC310008F4310008C8
:102E5C00743200087432000880B500F015F84FF495
:102E6C0000710848FEF714FD4FF47A70FEF772FB00
:102E7C004FF400710348FEF735FD4FF47A70FEF7FE
:102E8C0069FBECE70010014080B5FEF77BFBFEF719
:102E9C00C1FB01BD00F10103810704D010F8011B37
:102EAC000029F9D110E00268B2F10131914311F01F
:102EBC00803F04BF50F8042FF6E710F8011B0029DF
:102ECC001CBF10F8011BFAE7C01A704740004941BB
:102EDC007641002411F4801F05D1641E4000494145
:102EEC0011F4801FF9D0704752005B4176410027E6
:102EFC0013F4801FF7D17F1E52005B4113F4801F27
:102F0C00F9D0704757726F6E6720706172616D6592
:102F1C00746572732076616C75653A2066696C65B0
:102F2C00202573206F6E206C696E652025640D0A58
:102F3C00000000004FF4001C1CEB410F98BF1CEB71
:102F4C00430F09D841EA030C50EA4C0C52EA0C0C22
:102F5C0003D2994208BF9042704718BF8B4208BFFA
:102F6C00824270474FF4001C1CEB410F98BF1CEBC6
:102F7C00430F09D841EA030C50EA4C0C52EA0C0CF2
:102F8C0003D28B4208BF8242704718BF994208BFD8
:102F9C0090427047010040F10880F446404200F036
:102FAC0004F851F000416047010009D0B0FA80F1FB
:102FBC008840C91CC1F58461090501EBD02140058D
:102FCC00704700000649086808B1002070470548A2
:102FDC000860054907229143091A0160704700BF38
:102FEC005808002000040020000600209D30000836
:102FFC009C000000D407002000000000CD29000830
:10300C00010000000100000075320008940000006F
:10301C0070080020280100000EB400B582B003A98E
:10302C00009100AB020001210248FDF759F806BCE3
:10303C005DF810FB01310008F8B507000C00150015
:10304C001E0000F08BF833002A002100380001B07C
:10305C00BDE8F040FFF7C4BE10B50448044C02E0D4
:10306C0050F8041B8847A042FAD110BDF82F000875
:10307C002430000870B506000C00150000F06EF846
:10308C002A0021003000BDE87040FFF79BBE000015
:10309C00002305E050F8041B41F8043B121FFBD140
:1030AC0050F8042B002AF5D17047000000F0A0F86E
:1030BC00002801D0FFF7D0FF0020FFF7CDFE00F075
:1030CC0099F800000278C9B2012A91EA020F84BF74
:1030DC0010F8012FF8E718BF0020704780B504499D
:1030EC000868002803D00220ABBE0020086001BD98
:1030FC006C08002038B505000C00200000F050F8DA
:10310C00A04218BF0025280032BD000080B50A007F
:10311C0001000248FFF780FFFEE700BF102F0008F8
:10312C0018B491FBF2F31C0002FB1311C0E900412F
:10313C0012BC704710B5034CA06C010018BF80473F
:10314C00200010BDF408002080B5FFF7C7FF02492E
:10315C001820ABBEFCE7C0462600020010B5034C9D
:10316C00E06A010018BF8047A06910BD70080020FC
:10317C00427574746F6E332050726573730A00005D
:10318C000000000000000000686A6C747A4C0000BB
:10319C000746FFF7F3FB3846FFF7D6FFFBE70000C7
:1031AC000149FEF7B1B900BF4009002080B5FFF717
:1031BC00D5FF012002BD000000000000000000004F
:1031CC0066616C7365000000747275650000000028
:1031DC0000000000000000000000000000000000E3
:1031EC0066616C7365000000747275650000000008
:1031FC0001207047FFF7CCBF70472E002E00FEE772
:10320C00FEE7FEE7FEE7FEE7FEE7FEE7FEE7FEE78A
:10321C00FEE7FEE7FEE7FEE7FEE7FEE7FEE7FEE77A
:10322C00FEE7FEE7FEE7FEE7FEE7FEE7FEE7FEE76A
:10323C00FEE7FEE7FEE7FEE7FEE7FEE7FEE7FEE75A
:10324C00FEE7FEE7FEE7FEE7FEE7FEE7FEE7FEE74A
:10325C00FEE7FEE7FEE7FEE7FEE7FEE7FEE7FEE73A
:10326C00FEE7FEE7FEE70000001CFC7332000804DA
:10327C00FC7332000808FC1C2E000850B872320097
:10328C000872320008723200087232000872320082
:10329C00087232000872320008FFFFFFFFFFFFFFC9
:1032AC00FF063200087232000872320008723200D7
:1032BC000872320008CC310008D431000872320098
:1032CC00087232000804E002040101D40700202433
:1032DC00080020D4070020D4070020D40700207D4C
:1032EC000900206409002024EC01020304010203FC
:0D32FC000406070809020406080006002069
:04000005080030B906
:00000001FF
