:020000040800F2
:1000000028180020159D0008897300088B730008CC
:100010008D7300088F7300089173000800000000C2
:1000200000000000000000000000000093730008C2
:10003000957300080000000097730008997300088A
:10004000A1730008A3730008A5730008A773000834
:10005000A9730008AB730008AD730008237400088F
:10006000997400089B7400089D7400089F74000830
:10007000FD740008FF74000801750008037500088E
:100080000575000807750008097500080B7500085C
:100090000D7500081575000817750008197500081A
:1000A0001B7500081D7500081F75000821750008E4
:1000B00023750008257500082775000829750008B4
:1000C0002B7700089D7700089F770008A17700082C
:1000D000A3770008A5770008CD7700084D780008C1
:1000E0004F7800085178000853780008DFF8500C6A
:1000F000016899B94FF4803181604FF480514160BB
:100100004FF0FF31C160016104214161DFF8341C0F
:100110000422C1F8B821DFF8301C016001207047CB
:1001200001F1080313F007030FBF002301F10803D7
:10013000C3F1080303F007035918D21A8161C260A2
:1001400042F001034B60511828224A60DFF8F01B8F
:100150000969C16170472DE9F84F054601F10800B2
:1001600010F007000FBF002001F10800C0F10800E7
:1001700000F0070000EB010A02F1080010F0070090
:100180000FBF002002F10800C0F1080000F00700D6
:10019000841803EB0A07A4EB0A00A0EB030843F062
:1001A0000300CAF80400A74228BF01F0A1F9207992
:1001B000C00758BF01F09CF9B8F1100F38BF01F02B
:1001C00097F9A869844207D1E8684044E860AF61C4
:1001D00040F00100786048E16869844208D1A8686D
:1001E0004044A8606F6140F001017960C0513CE17A
:1001F000606800F00301012940F09F80C008C00042
:1002000000904FEAD00BBBF1200F2FD2D4F808900A
:10021000E668B44208BF01F06BF94C4508BF01F035
:1002200067F96068C008C000B0EBCB0F18BF01F0E1
:100230005FF9B14506D12868012101FA0BF1884325
:10024000286077E005EBCB0000F12801894502D05A
:10025000296989456CD32830864202D028698642B4
:1002600066D3C9F80C60C6F8089063E0D4F818901B
:10027000E668A64206D0A068296988421DD3C660F8
:10028000B0601CE004F21400066836B904F11000F6
:100290000668A6B101E00846066806F214010A687D
:1002A000002A02BF06F110010A68002AF3D1296969
:1002B000884224BF0021016001D201F019F9B9F18F
:1002C000000F37D0E06905EB800000F230100168C4
:1002D0008C4209D10660002E14D168680121E269C0
:1002E00091408843686025E02869814508D3D9F8A2
:1002F0001000A04214BFC9F81460C9F8106001E0F2
:1003000001F0F6F8B6B12869864211D3C6F8189004
:10031000216929B1814226BF31618E6101F0E8F87F
:10032000606938B12969884224BF7061866101D251
:1003300001F0DEF80098041980446068400840002D
:10034000606048F00100786048F807804FEAD806FE
:10035000202E1FD205EBC60000F22804A146B8F1FA
:10036000100F38BF01F0C4F80120B04029680142E5
:1003700004BF0843286006D0A068296988422CBFC2
:10038000814601F0B5F8A760C9F80C70C7F808906D
:10039000FC606AE05FEA182008BF002123D0B0F5B6
:1003A000803F28BF1F211ED2A0F58071090C01F0EB
:1003B00008018840A0F58052120C02F0040290401F
:1003C000A0F580431B0C03F00203C1F10E01891A52
:1003D000C91A984001EBD030C11D28FA01F101F093
:1003E000010101EB400105EB810000F23012F961DF
:1003F000002078613861012088406B68034204D195
:10040000184368601760BA611DE010681F290EBFAD
:1004100000214908C1F1190108FA01F100E0104674
:100420004268D208D200424510D0CA0F00EB8202C7
:1004300002F1100349001A68002AF0D129698B42A1
:1004400011D31F60B861FF60BF600EE081682A6948
:10045000904228BF914206D3CF608760B960F860B0
:100460000020B86101E001F043F80AF10800BDE89E
:10047000F28F2DE9FE4F0446A56904F2BC10016815
:100480008D4203D3426851188D4202D38068002800
:10049000F5D1416800680E18A6F12F0000F108019F
:1004A00011F007010FBF002100F10801C1F108019F
:1004B00001F0070101EB000A05F11000824538BF89
:1004C000AA460AF1080B0AF1180900270198A0F1C1
:1004D000280200992046FFF723FE1BF0070018BFF3
:1004E00001F006F81B20CAF8040004F2BC10B0E8C2
:1004F0000E10ABE80E10ABF110010098C4F8BC016F
:100500000198C4F8C0010298C4F8C801C4F8C41125
:1005100000E0814609F104000721C9F804107F1C9E
:10052000011DB142F5D3022FB8BF00F0E1FFAA458B
:1005300000F09C80AAEB050041194A68520852005D
:100540004A6040F0010169604051C708202F1FD266
:1005500004EBC70101F22806B046102838BF00F0AE
:10056000C7FF012101FA07F02168014204BF0843D7
:10057000206006D0B068216988422CBF804600F018
:10058000B7FFB560C8F80C50C5F80880EE606DE0A4
:10059000010A08BF002223D0B1F5803F28BF1F22E7
:1005A0001ED2A1F58072120C02F008029140A1F552
:1005B00080531B0C03F004039940A1F58046360CD0
:1005C00006F00206C2F10E02D21A921BB14002EBF3
:1005D000D131CA1D20FA02F202F0010202EB4102FF
:1005E00004EB820101F23013EA61002169612961A3
:1005F0000121914066680E4205D141EA0600606023
:100600001D60AB611DE019681F2A0EBF0022520851
:10061000C2F1190200FA02F200E019464B68DB0849
:10062000DB00834210D0D30F01EB830303F11006EC
:1006300052003368002BF0D12069864211D3356017
:10064000A961ED60AD6011E088682269914228BF20
:10065000904206D3C5608D60A860E9600020A86163
:1006600004E003B0BDE8F04F00F042BF03B0BDE8C6
:10067000F08FF8B504460D46DFF8C466306808B957
:10068000FFF734FD00F048FF01001CBF0A6811F1BC
:10069000010F00F08A80D4F8B0011018C4F8B0013E
:1006A000D4F8B431834238BF0346C4F8B431A069EA
:1006B00058BB206908B1814200D22161C4F8BC1145
:1006C000C4F8C0210020C4F8C801306860624FF04F
:1006D000FF3020622046202300F22806F660B66034
:1006E00008305B1EF8D1DFF85C06844208BF283A68
:1006F00027D054F8040CC00814EBC0000838511877
:10070000091AA1F1280201461BE004F2BC100346BD
:1007100000E09B68CBB15E681F68F619B142F8D162
:100720001E7B360711D4A669BE420ED3D3F804C08F
:100730006744BE4209D202EB0C005860E068121810
:10074000A1692046FFF7ECFC1EE02369994238BFFF
:1007500021610346501800E09B688BB11E688642F9
:10076000FAD1187B00070BD4304619605E689219E5
:100770005A602B460246204601B0BDE8F040EAE44C
:1007800000232046FFF775FEE06885420DD2401B2E
:10079000E060A1696A18A26140F00100506045F074
:1007A0000300486001F10800F2BD0020F2BD2DE910
:1007B000F84F05468B460024CBF100085FEA1B206A
:1007C00008BF002023D0B0F5803F28BF1F201ED2D5
:1007D000A0F58071090C01F008018840A0F5805255
:1007E000120C02F004029040A0F580431B0C03F0B1
:1007F0000203C1F10E01891AC91A984001EBD030E9
:10080000C11D2BFA01F101F0010101EB400005EBE4
:100810008001D1F8301129B31F280EBF00224208F1
:10082000C2F119020BFA02F2002300E052004E68F6
:10083000F608F600A6EB0B06464504D20C46B04679
:10084000B8F1000F0BD04E69D70F01EB8701096992
:10085000002E1CBF8E4233460029E7D1194661BBEA
:10086000002C3CD1012101FA00F040004142084334
:100870006968084000F0618141420840411E080B50
:1008800000F0100021FA00F2510901F00801CA40FD
:10089000930803F00403DA40560806F00206F2401B
:1008A000C2F34007081818183018384422FA07F124
:1008B000081805EB8000D0F8301181B100E0014646
:1008C0004868C008C000A0EB0B0040453CBF804614
:1008D0000C4608690028F2D149690029F0D1002CA2
:1008E00000F02B81A868A0EB0B00804580F02581EB
:1008F00028698442C0F01F810BEB04060BEB08094A
:100900006068C008C000484518BF00F0F1FDB4425F
:1009100080F01181D4F818A0E768A74206D0A0683B
:10092000296988421DD3C760B8601CE004F2140036
:10093000076837B904F110000768A7B101E008465D
:10094000076807F214010A68002A02BF07F11001C4
:100950000A68002AF3D12969884224BF0021016076
:1009600001D200F0C5FDBAF1000F37D0E06905EB08
:10097000800000F2301001688C4208D10760A7B9EE
:1009800068680121E26991408843686026E028692F
:10099000824508D3DAF81000A04214BFCAF81470D8
:1009A000CAF8107001E000F0A3FDBFB128698742CA
:1009B00012D3C7F818A0206930B12969884226BF30
:1009C0003861876100F094FD606938B12969884217
:1009D00024BF7861876101D200F08AFDB8F1100F61
:1009E0000BD249F00300606009EB0400416841F05C
:1009F0000101416004F10800A0E04BF003006060D9
:100A000048F00100706048F806804FEAD8002028BE
:100A100020D205EBC00101F2280BD846012101FAD2
:100A200000F02968014204BF0843286007D0DBF8C2
:100A30000800296988422CBF804600F059FDCBF898
:100A40000860C8F80C60C6F80880C6F80CB004F15D
:100A5000080073E05FEA182008BF002223D0B0F539
:100A6000803F28BF1F221ED2A0F58071090C01F023
:100A700008018840A0F58052120C02F00402904058
:100A8000A0F580431B0C03F00203C1F10E01891A8B
:100A9000C91A984001EBD030C11D28FA01F101F0CC
:100AA000010101EB400205EB820000F23010F2611F
:100AB000002171613161012191406B680B4202BFDD
:100AC0001943696006601CD000681F2A0EBF002110
:100AD0005108C1F1190108FA01F100E0104642681D
:100AE000D208D200424512D0CA0F00EB820202F1B6
:100AF000100349001A68002AF0D129698B4215D3E6
:100B00001E60B061F660B66004F1080016E081680E
:100B10002A69904228BF914208D3CE608660B160B6
:100B2000F0600020B06104F1080007E000F0E0FC94
:100B300004F1080002E000F0DBFC0020BDE8F28FC9
:100B40002DE9F84F04468846606841420840411E3E
:100B5000080B00F01000C1404A0902F00802D14021
:100B60008B0803F00403D9404D0805F00205E94065
:100B7000C1F340061018181828443018F14008181E
:100B800004EB8000D0F8300106464168C908C9006E
:100B9000A1EB080A09E008464168C908C900A1EBB1
:100BA000080151453CBF8A46064601690029F2D139
:100BB00040690028F0D120698642C0F0BC8008EB73
:100BC000060B08EB0A097068C008C000484518BF4A
:100BD00000F08EFC5E4580F0AE80B569F768B742E4
:100BE00006D0B068216988421DD3C760B8601CE098
:100BF00006F21400076837B906F110000768A7B1BC
:100C000001E00846076807F214010A68002A02BFDB
:100C100007F110010A68002AF3D12169884224BF34
:100C20000021016001D200F063FC002D34D0F06996
:100C300004EB800000F2301001688E4209D1076099
:100C4000002F11D160680121F269914088436060F2
:100C500022E02069854205D32869B04214BF6F6144
:100C60002F6101E000F044FCB7B12069874211D345
:100C7000BD61306930B12169884226BF3861876122
:100C800000F036FC706938B12169884224BF786170
:100C9000876101D200F02CFCBAF1100F0BD249F0A1
:100CA0000300706009EB0600416841F001014160FA
:100CB00006F1080042E048F0030070604AF00100CD
:100CC000CBF804004AF80BA0D4F80880B8F1000F64
:100CD0002AD0D4F814904FEAD805202D28BF00F070
:100CE00007FC009504EBC50000F228052F46B8F17B
:100CF000100F38BF00F0FCFB0120009988402168EC
:100D0000014204BF0843206006D0A86821698842D8
:100D10002CBF074600F0ECFBC5F80890C7F80C9014
:100D2000C9F80870C9F80C50C4F808A0C4F814B089
:100D300006F1080002E000F0DBFB0020BDE8F28FC6
:100D40008C130020E00B00206859883C2DE9F04FFF
:100D500083B00446012000F02DFCF52C80F0F880D3
:100D60000B2C31BF102704F10B00C008C700FE0890
:100D7000DFF878472068F04010F003013ED0C04310
:100D800000F00100861904EBC60000F22808D8F82C
:100D90000850F7006868C008C000B84218BF00F0EB
:100DA000A7FBD5F80890454508BF00F0A1FB4D45CD
:100DB00008BF00F09DFB6868C008C000B84218BFBB
:100DC00000F096FBC84505D120680121B140884359
:100DD000206008E02069814526BFC8F80890C9F85E
:100DE0000C8000F085FB47F00300686078194168CB
:100DF00041F00101416005F10804F7E0A168B94242
:100E000080F0BA80002800F09980012505FA06F1EB
:100E10004900B0404A421143084041420840411E47
:100E2000080B00F01000C1404A0902F00802D1404E
:100E30008B0803F00403D9404E0806F00206F14087
:100E4000C1F34008101818183018404421FA08F16E
:100E500001EB000804EBC80000F22809D9F808608B
:100E60004FEAC80A7068C008C000504518BF00F0BB
:100E70003FFBD6F808B04E4508BF00F039FB5E4591
:100E800008BF00F035FB7068C008C000504518BFAF
:100E900000F02EFBD94505D1206805FA08F18843FA
:100EA000206008E02069834526BFC9F808B0CBF868
:100EB0000C9000F01DFBAAEB070847F003007060E0
:100EC000B819009048F001014160009848F800808E
:100ED000A76867B3D4F814904FEAD70ABAF1200F85
:100EE00028BF00F005FBCDF804A004EBCA0000F217
:100EF000280AD346102F38BF00F0FAFA019805FAF5
:100F000000F02168014204BF0843206007D0DAF8EE
:100F10000800216988422CBF834600F0E9FACAF82C
:100F20000890CBF80C90C9F808B0C9F80CA0C4F828
:100F300008800098606106F1080457E060680028A6
:100F40003ED039462046FFF7FBFD040014D04DE0AB
:100F500014F1400F28BF4FF0FF370DD204F10B0002
:100F6000C008C700DFF88445606828B139462046CC
:100F7000FFF71DFC040039D1DFF87045A168B942C4
:100F80001ED3CA1B6069102A0CD339186161A26094
:100F900042F001034B60525047F00301416000F101
:100FA000080423E00022A260626141F00302426073
:100FB00009184A6842F001024A6000F1080415E08D
:100FC000E06887420DD2C01BE060A1697A18A26177
:100FD00040F00100506047F00300486001F1080450
:100FE00004E039462046FFF744FB0446012000F0A8
:100FF00025FB2046FFF73ABB2DE9F047002800F01B
:101000007182A0F10804012000F0D4FADFF8DC546A
:1010100028698442C0F05F82616801F00302012AFE
:1010200000F05982CA084FEAC20808EB0409CA074F
:101030002DD4226811F0030100F04F8290445142F8
:101040000C198442C0F0478269698C4200F0D48058
:101050004FEAD20ABAF1200F6FD2A668E768BC4205
:1010600008BF00F045FAB44208BF00F041FA6068DA
:10107000C008C000B0EBCA0F18BF00F039FABE427A
:1010800046D12868012101FA0AF1884328604C45BD
:1010900080F02182D9F80400C10740F11C82810749
:1010A00000F172816969AA69914540F0BA80E868E7
:1010B0004044E860AC6140F0010262608C4202D1C1
:1010C00000216961A960E969814280F00682DFF848
:1010D0001804006808B9FFF709F8A869002800F0AB
:1010E000FC81E96829290BD305F2BC1213689842E8
:1010F00003D35468E318984202D39268002AF5D1CA
:10110000E869884280F0E9814FF0FF30E861E4E16E
:1011100005EBCA0000F128018E4202D029698E42F7
:1011200008D32830874202D02869874202D3F7606B
:10113000BE60ACE700F0DCF9A9E7A669E768A74262
:1011400005D0A16881421CD3CF60B9601BE004F2D6
:1011500014010F6837B904F110010F689FB101E065
:1011600011460F6807F214021368002B02BF07F143
:1011700010021368002BF3D1814224BF00200860C5
:1011800001D200F0B5F9002E3FF481AFE06905EB24
:10119000800000F2301001688C4209D10760002FF6
:1011A00011D168680121E2699140884368606EE767
:1011B0002869864205D33069A04214BF7761376140
:1011C00001E000F095F9002F3FF461AF28698742F4
:1011D000B0D3BE61216929B1814226BF39618F61D7
:1011E00000F086F9606900283FF451AF2969884210
:1011F000A0D3786187614AE799F8040000F0030002
:1012000003287FF444AFC5F80880D9F804004008EB
:101210004000C9F8040048F00100606048F804800C
:101220005BE1894508D1A8684044A8606C6140F042
:1012300001016160005150E1C008C00080444FEAE4
:10124000D00ABAF1200F2FD2D9F80860D9F80C7063
:10125000B94508BF00F04CF9B14508BF00F048F9A6
:10126000D9F80400C008C000B0EBCA0F18BF00F0E6
:101270003FF9BE4206D12868012101FA0AF18843EC
:10128000286076E005EBCA0000F128018E4202D00A
:1012900029698E426BD32830874202D02869874261
:1012A00065D3F760BE6064E0D9F81860D9F80C70B7
:1012B0004F4507D0D9F80800296988421DD3C76077
:1012C000B8601CE009F21400076837B909F1100092
:1012D0000768A7B101E00846076807F214010A6829
:1012E000002A02BF07F110010A68002AF3D1296918
:1012F000884224BF0021016001D200F0F9F8002EDD
:1013000037D0D9F81C0005EB800000F230100168DE
:1013100089450AD10760002F12D168680121D9F8E8
:101320001C2091408843686023E02869864205D3E9
:101330003069484514BF7761376101E000F0D8F8A3
:10134000BFB12869874212D3BE61D9F8101029B104
:10135000814226BF39618F6100F0CAF8D9F81400C4
:1013600038B12969884224BF7861876101D200F0D1
:10137000BFF848F00100606048F804806869844262
:101380000BD1C5F80880A8E040084000C9F8040067
:1013900048F00100606048F804804FEAD807202F29
:1013A00020D205EBC70000F228094E46B8F1100F15
:1013B00038BF00F09DF80120B8402968014204BF01
:1013C0000843286007D0D9F80800296988422CBF53
:1013D000064600F08DF8C9F80840F460A660C4F82D
:1013E0000C907AE05FEA182008BF002123D0B0F506
:1013F000803F28BF1F211ED2A0F58071090C01F08B
:1014000008018840A0F58052120C02F004029040BE
:10141000A0F580431B0C03F00203C1F10E01891AF1
:10142000C91A984001EBD030C11D28FA01F101F032
:10143000010101EB400105EB810000F23012E16196
:10144000002060612061012088406B68034204D164
:10145000184368601460A2611DE010681F290EBF68
:1014600000214908C1F1190108FA01F100E0104614
:101470004268D208D200424510D0CA0F00EB820267
:1014800002F1100349001A68002AF0D129698B4241
:1014900011D31C60A061E460A4600EE081682A6939
:1014A000904228BF914206D3CC608460A160E06086
:1014B0000020A06101E000F01BF8286A401E2862AD
:1014C0000BD1D5F8C40110B180680028FCD14FF0D1
:1014D000FF30286201E000F00BF80120BDE8F04782
:1014E00000F0ACB8BDE8F0878C130020E00B0020C2
:1014F000012000F0AFB850F8041B61B150F8042B84
:10150000D30744BFA9F101039A18002342F8043B12
:10151000091FFAD1EFE770470649086808B10020B3
:101520007047054808600549C908C900091A0160E3
:10153000704700BF0814002028180020281A002037
:1015400010B5434C2068A0B3201D00F08EF804F1C4
:10155000080000F08AF804F10C0000F086F804F1AD
:10156000100000F082F804F1140000F07EF804F19D
:10157000180000F07AF804F11C0000F076F804F18D
:10158000200000F072F804F1240000F070F804F17B
:10159000280000F06CF804F12C0000F068F804F169
:1015A000300000F064F804F13400BDE8104000F0B1
:1015B0005EB810BD38B50446254D286890BB281D7F
:1015C00000F052F805F1080000F04EF805F10C00AB
:1015D00000F04AF805F1100000F046F805F114009B
:1015E00000F042F805F1180000F03EF805F11C008B
:1015F00000F03AF805F1200000F036F805F124007B
:1016000000F034F805F1280000F030F805F12C0066
:1016100000F02CF805F1300000F028F805F1340056
:1016200000F024F801202860052C06D205EB840088
:101630002430BDE8324000F01BB831BD052805D28A
:10164000034901EB8000243000F013B8704700001C
:101650000C13002080B5C046C046024A1100182075
:10166000ABBEFBE72600020070477047704770472B
:10167000704770472DE9F04FA5B0804615461E46CD
:101680000FF2D850D0E90023CDE91223049104AF22
:101690000020786214AC6FF0004900E0554400204F
:1016A000ADF8020012AB4FF0FF3229460DF10200F7
:1016B00001F035F88246BAF1010F08DA2878B0F166
:1016C000010A6AEB0A0A6FEA0A004FEAD07ABDF80B
:1016D000020025280CBFAAF101035346012B07DBAA
:1016E0002A4602A9404600F0F5FF002800F1EB80F1
:1016F000BDF80200252807D10020F8603861786124
:10170000B861F861386205E00028C7D1786ADCE08A
:1017100040F0010015F8011F2029F9D023290ED02F
:101720002B2904D02D2906D030290CD00FE040F011
:10173000020080B2EEE740F0040080B2EAE740F039
:10174000080080B2E6E740F0100080B2E2E72A2904
:101750000DD131680A1D32600968F962002904D58B
:101760004942F96240F0040080B26D1C11E0002192
:10177000F96209E0F96A494505D001EB810302EB02
:1017800043013039F9626D1C2A78A2F130010A292F
:10179000F0D329782E291CBF4FF0FF31B9621CD13C
:1017A00015F8011F2A2906D131680A1D326009681F
:1017B000B9626D1C11E00021B96209E0B96A4945BE
:1017C00005D001EB810302EB43013039B9626D1C96
:1017D0002A78A2F130010A29F0D3388629780FF24D
:1017E000844000F0ADFF08B115F8010B8DF8420000
:1017F0009DF84200682804D1287868280AD1622020
:1018000005E06C2804BF28786C2803D171208DF87E
:1018100042006D1C14A8B8602A781046253828D0DC
:101820001C3800F08B80001F022840F2878013389C
:1018300000F0B080093800F08180801E00F04A81FD
:10184000401E00F0F080401E022877D9001F00F0F3
:10185000EA80401F47D0401E00F09C80401E37D0D9
:10186000C01E0CD0801E00F09580C01E00F092803B
:1018700051E1F868411CF9602521015555E19DF8B9
:1018800042006C28306814D0011D31600068786017
:10189000BA6A002A03D500F05FFF386145E10021F4
:1018A00000F076FF00281ABF7968401AB86A3861DC
:1018B0003BE1011D3160026802A9404600F0D6F903
:1018C000002840F132814FF0FF3025B0BDE8F08FA5
:1018D0003068011D316000680021CDE9020114A8C3
:1018E00078607821F2E09DF84200622818D06828DC
:1018F00006D06A280BD06C2819D0712807D016E0C2
:101900003068011D3160796A006801800DE132683C
:10191000101D3060786AC1171268C2E9000104E145
:101920003068011D3160796A00680170FDE030683F
:10193000011D3160796A00680160F6E03068C01D01
:1019400020F007003060034603F108003060D3E95F
:101950000001CDE90201002904D5F868411CF960B5
:101960002D210DE0388E810704D5F868411CF960FF
:101970002B2105E0C00704D5F868411CF96020213F
:101980000155F86814A940187860114602A800F0C3
:101990006DFBCAE09DF842306C2B08BF306811D057
:1019A000712B08BF306802D06A2B30680AD1C01D85
:1019B00020F00700306084460CF108003060DCE95C
:1019C000000103E0011D316000680021CDE9020142
:1019D000682B04BFDDE9020180B20BD0622B04BF8B
:1019E000DDE90201C0B205D0742B18BF7A2B04D1F7
:1019F000DDE902010021CDE9020197F8300000077E
:101A00005FD5DDE90201002908BF002859D042F066
:101A10002000782855D1F86830210155401C411C20
:101A2000F96002554DE09DF8420062280CD068280C
:101A300010D06A281AD06C2824D0712816D07428A7
:101A400020D07A280CD01DE03068011D316090F95B
:101A500000001BE03068011D3160B0F9000015E0A6
:101A60003068011D31600068002110E03068C01D41
:101A700020F007003060034603F108003060D3E92E
:101A8000000104E03068011D31600068C117CDE934
:101A90000201DDE90201002904DAF868411CF9605D
:101AA0002D210DE0388E810704D5F868411CF960BE
:101AB0002B2105E0C00704D5F868411CF9602021FE
:101AC0000155F86814A940187860114602A800F082
:101AD0003AFA2AE09DF842006C2808D0F868411CC8
:101AE000F96031680A1D3260096801551DE03068EF
:101AF000011D31600068ADF804000020ADF806005B
:101B00004FF0FF30B86201AA02A9404600F0AEF8DB
:101B100000280AD5D7E6F868411CF960252101554F
:101B20001AB1F868411CF96002556D1CF86AF96831
:101B3000401AB969401A3969401AF969401A796935
:101B4000401A396AA0EB010A97F83000400712D416
:101B500020208DF80000BAF1010F0CDBD3460123E1
:101B600000AA02A9404600F0B5FD00287FF4ABAE04
:101B7000BBF1010BF3D1FB6814AA02A9404600F0A7
:101B8000A9FD00287FF49FAE30208DF80000D7F823
:101B900018B0BBF1010F0BDB012300AA02A94046DC
:101BA00000F098FD00287FF48EAEBBF1010BF3D15D
:101BB0003B697A6802A9404600F08CFD00287FF45A
:101BC00082AE30208DF80000D7F81CB0BBF1010FB9
:101BD0000BDB012300AA02A9404600F07BFD002890
:101BE0007FF471AEBBF1010BF3D17B693869796881
:101BF000421802A9404600F06DFD00287FF463AE54
:101C000030208DF80000D7F820B0BBF1010F0BDBBE
:101C1000012300AA02A9404600F05CFD00287FF4E1
:101C200052AEBBF1010BF3D197F8300040077FF5BE
:101C300036AD20208DF80000BAF1010FFFF62FAD70
:101C4000012300AA02A9404600F044FD00287FF4C9
:101C50003AAEBAF1010AF3D121E50000000000001C
:101C600000000000686A6C747A4C00002DE9F04FA7
:101C700095B083460F461446D7F830A0BAF1000F4E
:101C800048BF6FF0004A00F0AFFD796B401801903B
:101C90000FF67022D2E90001CDE9020197F8380071
:101CA000400702D40198412805D20DF110094020C7
:101CB000019000250AE0FFF749F88146B9F1000FCD
:101CC000F7D14FF0FF303BE1AAEB080ABAF1010F60
:101CD000C0F2A98002AA21880DF1010000F089FD5F
:101CE0005FEA000800F1BF80208818B9B8F1010848
:101CF00000F1B980C245C0F296807869019908EB7D
:101D00000002914280F080807D634042396A401A2F
:101D1000B969401A796A401AF969401AB96A451ACC
:101D200097F83800400710D420208DF80000012DCE
:101D30000BDB2E46012300AA3946584600F0CAFCA8
:101D4000002840F09080761EF4D17B694A463946DF
:101D5000584600F0BFFC002840F0858030208DF808
:101D600000003E6A012E09DB012300AA39465846CD
:101D700000F0B0FC002876D1761EF5D1BB69FA6878
:101D80003946584600F0A6FC00286CD130208DF86A
:101D900000007E6A012E09DB012300AA394658465D
:101DA00000F098FC00285ED1761EF5D1FB69B86979
:101DB000F96842183946584600F08CFC002852D188
:101DC00030208DF80000BE6A012E09DB012300AA35
:101DD0003946584600F07EFC002844D1761EF5D1E5
:101DE00097F8380040070DD520208DF80000012D10
:101DF00008DB012300AA3946584600F06BFC90BB73
:101E00006D1EF6D100257D6142460DF10101786914
:101E1000484400F0FBFC78694044786134F8020BD8
:101E200000287FF451AF786B7969401A396A401AFB
:101E3000B969401A796A401AF969401AB96AA0EB7F
:101E4000010897F83800400712D420208DF80000D0
:101E5000B8F1010F0CDB4446012300AA394658466D
:101E600000F038FC10B14FF0FF3562E0641EF3D192
:101E70007B694A463946584600F02CFC0028F2D1CE
:101E800030208DF800003C6A012C09DB012300AAF8
:101E90003946584600F01EFC0028E4D1641EF5D1F6
:101EA000BB69FA683946584600F014FC0028DAD1BC
:101EB00030208DF800007C6A012C09DB012300AA88
:101EC0003946584600F006FC0028CCD1641EF5D1F6
:101ED000FB69B869F96842183946584600F0FAFBC0
:101EE0000028C0D130208DF80000BC6A012C09DB2D
:101EF000012300AA3946584600F0ECFB0028B2D175
:101F0000641EF5D197F83800400710D520208DF8D1
:101F10000000B8F1010F0ADB012300AA3946584638
:101F200000F0D8FB00289ED1B8F10108F4D17D6102
:101F30007D6304A881451CBF4846FFF75DF828462D
:101F400015B0BDE8F08F2DE9FA4B86B005462F6934
:101F50006F2908BF082605D041F02000782814BF5B
:101F60000A2610263C24D5E9000181468B469DF8BF
:101F70001820642A18BF692A05D1002903DAD9F18B
:101F800000096BEB4B0BBBF1000F08BFB9F1000F61
:101F90000CD1286B50B9082E44D195F838000007B1
:101FA00040D53B24302087F83B003BE0A4F10108FA
:101FB0004446F017CDE9046048465946DDE904235C
:101FC00000F060FCCDE90201CDE9009BDDE90223D0
:101FD000DDE90401A0FB029BDDE90001A0EB0900A3
:101FE0003030C0B23A2803D39DF818105139081880
:101FF00008F80700DDE9029BBBF1000F08BFB9F14B
:10200000000F03D0E868E1198842CFD3082E09D128
:1020100095F83800000705D5E05D302802D0641E31
:102020003020E055C4F13C00A861E119E960296B5A
:10203000884207DA081A2862288F4FF6EF710840A5
:10204000288710E000290ED595F8381001F014010A
:10205000102908D1696B6A69891A2A6A891A0C1AC7
:10206000012CA8BF2C6208B0BDE8F08B2DE9F24F1F
:102070008EB0054604AFD5E90001CDE902019DF817
:10208000380040F020008DF8000061280BD0286B4C
:10209000002848BF062005D404BF9DF8000067282B
:1020A00001D1012028636968C1F30A5040F2FF732F
:1020B00098421CD1080304BF2868002809D10320D6
:1020C000A8619DF8380061381A2837D30FF24861AB
:1020D00008E00320A8619DF8380061381A282AD347
:1020E0000FF22C610322E86800F090FBBBE10100D5
:1020F00017D1284600F03DFC012812DB0024002007
:102100009DF80010612920D1E968302201F8012BE7
:102110004A1CEA609DF83820612A0CBF78225822B8
:102120000FE040F2FE316A6861F31E526A60441AA1
:102130004FF0FF30E4E70FF2D451D3E70FF2D45160
:10214000D0E70A706969891C696110B90026B04638
:102150007FE19DF80000612840F09780286B0028FF
:102160004CBF2126461C36B2771CD5E900ABDDE911
:1021700002010022002300F01FFC3ABF8BF0004058
:10218000CDE902A0CDE902ABA4F104088DF810203E
:102190000DF11109012F33DBDDE9020100220023DB
:1021A00000F022FC2CD21C2102A800F035FCDDE955
:1021B000020100F0BFFC0446FF1F012F09DB00F005
:1021C000E5FC02460B46DDE9020100F0F7FCCDE933
:1021D000020109F20700072104E004F00F0200F8F1
:1021E000012D2411012C01DB491EF6D5491E5CBFCF
:1021F000002200F8012DF9D500F20709012FCBDAF2
:102200000DF11100A9EB00010DF11107B142B8BFAA
:102210000E4636B2002E31D43046884206DA04A982
:1022200041184978082928BF0F2100D2002104AAAB
:10223000821800E0761E401E12F801398B42F9D058
:102240000F2904D104A941184A78521C4A70002869
:1022500003D504AF761C08F1040836B2701E0DD405
:10226000C1190A783032D2B23A2A03D39DF83830F5
:102270003A3B9A1801F80129401EF2D5286B002834
:1022800040F1E780701E2863E3E0DDE902010022EF
:10229000002300F091FB05D2DDE9020181F000414D
:1022A000CDE9020124B247F2975060436F4990FB99
:1022B000F1F80FFA88F8C8F107040027DFF8B091A9
:1022C000012C19DBDDE902ABE00707D55046594682
:1022D0003A464B4600F032FD82468B466410384643
:1022E00049463A464B4600F029FD07468946002CF0
:1022F000EAD1CDE902AB21E064429246DFF874B145
:1023000014D0E00707D5504659463A464B4600F0F0
:1023100015FD82468B466410384649463A464B4680
:1023200000F00CFD07468946002CEAD1DDE90201E8
:1023300052465B4600F0D4FDCDE902019DF8000055
:1023400066280CBF08F10A000620296B4618142ED7
:10235000A8BF132630208DF810000DF11104464F50
:10236000012E33DBDDE9020100F0FAFB04F1080184
:1023700004220A24B0FBF4F303EB830EA0EB4E001F
:10238000303001F8010DB3FBF4F000EB8004A3EB57
:102390004403303301F8013D521EEAD101F1080433
:1023A000083E012EDCDBDDE9020100F0D9FB00F084
:1023B000F7FB02460B46DDE9020100F0FFFB0022BD
:1023C0003B4600F0BBFCCDE90201CBE70DF111006B
:1023D000201A0DF111079DF81110302906D1401E69
:1023E000A8F1010817F8011F3029F8D09DF8001056
:1023F000662904BF0FFA88F808F1010103D06529A6
:102400000CBF012100212A6B8E1836B2B042B8BF32
:10241000064636B2002E1CD43146814204DAC85D2D
:10242000352828BF392000D23020CA19521E00E0BA
:10243000761E491E12F801398342F9D0392802D19B
:10244000C85D401CC855002903D57F1E761C08F1C5
:1024500001080FFA88F0009033B23A469DF8381020
:10246000284600F00BF80FB0BDE8F08FA086010001
:10247000000024400000F03F84D797412DE9F04749
:1024800086B006468A4690461C46BDF9385000F094
:1024900068FE406A90F80090376B012C02DA012444
:1024A0000FF278284AF02000662807D067287AD1F2
:1024B0006FF003018D427CDBBD427ADA6D1C662829
:1024C0000AD096F83800000702D4BC42B8BF2746AD
:1024D0002DB27F1B48BF0027F068B1692DB2012DD6
:1024E00021DA4A1C30230B54012F03DA96F83810F6
:1024F000090702D502F80090521CB261EF42B8BF42
:102500007D422DB269427162EF19A742B8BF3C46C5
:1025100024B2F46122464146B369181800F076F9F6
:10252000381BB062BFE00818AC4216DA22464146BA
:1025300000F06CF9B1696118B161281B7062012F5C
:1025400003DA96F83800000705D5F06801F8009026
:10255000F069401CF061B762A5E02A46414600F0F0
:1025600055F9B0692818B061641B012F03DA96F899
:102570003810090704D5411CB161F16800F80190D9
:1025800024B2A742B8BF3C4624B2224605EB08015C
:10259000B069F368C01800F039F9B0692018B0616B
:1025A000381B70627FE0BAF1610F14D14FF0700AEE
:1025B00016E0BC4204DA96F83810090758BF2746DF
:1025C0007F1E48BF0027BAF1670F14BF4FF0450ABE
:1025D0004FF0650A04E0BAF1410F08BF4FF0500A0E
:1025E000B1694A1CF06818F8013B0B54012F03DA5B
:1025F00096F83810090702D502F80090521CB26113
:10260000012F10DB641E24B2A742B8BF3C4624B29F
:1026100022464146B369181800F0F8F8B06920184E
:10262000B061381B7062B069F16800EB010808F80E
:1026300001AB002D5CBF2B2008F8010B03D52D202A
:1026400008F8010B6D42002402AF2DB2012D0EDB04
:102650000A22294600A800F09DFD019807F8010B09
:10266000009D641C2DB2012DF2DA022C06DA4AF02C
:102670002000652804BF302008F8010B1CB9302069
:1026800008F8010B09E0012C07DB641E02A8205C9E
:10269000303008F8010B012CF7DAB069F168401806
:1026A000A8EB0000F06196F8380000F01400102844
:1026B0000DD17069B1690818716A0818F1690818B4
:1026C000B16A0818716B8842BCBF081A306206B044
:1026D000BDE8F087F8B504460D4616461F460020B3
:1026E00077B116F8011BA868A047A86030B1E86A66
:1026F000401CE86200207F1EF3D1F2BD4FF0FF3096
:10270000F2BD000000000000000000006E616E00DD
:102710004E414E00696E6600494E46003000F8B5E5
:1027200004460D4616461F4600F03CFD3B46324629
:102730002946204601B0BDE8F04000F04BBD000046
:102740000278C9B28A421AB11CBF10F8012FF9E70A
:1027500018BF00207047000000F10103810704D07A
:1027600010F8011B89B18107FAD10268B2F1013179
:10277000914311F0803F04BF50F8042FF6E710F8A2
:10278000011B11B110F8011BFBE7C01A70470000D4
:10279000C9B2830706D0521E22D310F8013B9942DA
:1027A000F7D11FE0083A13D302F1040241EA0121F4
:1027B00041EA014150F8043B121F21BF4B40A3F1F5
:1027C000013C2CEA030C1CF0803FF3D0C9B2001F7F
:1027D000083210F8013B521E28BF91EA030FF8D8C7
:1027E00018BF0120401E704780B500F0DBFC0120BF
:1027F00002BD70B504460D46164600F0D3FC3246C5
:1028000029462046BDE8704000F0D6BC62B38B0775
:1028100008D0521E11F8013B00F8013B00F0248063
:102820008B07F6D1830740F0208000BF103A07D312
:1028300030B4B1E83810103AA0E83810F9D230BC02
:10284000530724BFB1E80810A0E8081044BF51F8AE
:10285000043B40F8043BD20724BF31F8022B20F898
:10286000022B44BF0B7803707047083A07D3B1E8D6
:102870000810083A40F8043B40F804CBF7D253075D
:10288000E4E700001B4213D1094236D12AB1844645
:10289000B0FBF2F002FB10C2704700F0BBBCFCD3EF
:1028A0000022002370470B00020000210020704727
:1028B000904271EB030CF6D370B5B1FA81F4B3FA20
:1028C00083F52C1BA340C4F1200532FA05F63343EF
:1028D000A2405FF00046E64002E05B085FEA320299
:1028E000841A71EB030524BF204629467641F4D3B0
:1028F00002000B003000002170BD012ACFD970B555
:10290000140C20D0B1FA81F4B2FA82F5C4F120049B
:102910006419B4F12006D6D3B2405FF00044F4400D
:10292000002502E052085FEA3303C61A71EB020E7B
:1029300024BF3046714664416D41F3D302000B0061
:102940002000290070BD0C46B1FBF2F102FB1145DD
:102950002D0445EA1045B5FBF2F402FB145580B294
:1029600040EA0545B5FBF2F002FB105240EA044094
:1029700070BD30B4416801F00042012143681B037F
:102980001B0B436004BF0368002B0ED00368446830
:10299000DD0F45EA440444605B000360491EE30226
:1029A000F4D543681B031B0B436043681A43426022
:1029B000084630BC704700004FF4001C1CEB410F70
:1029C00094BF1CEB430F09E041EA030C50EA4C0CA6
:1029D00052EA0C0C03D2994208BF9042704714BFD0
:1029E0008B428242704700004FF4001C1CEB410FE9
:1029F00094BF1CEB430F09E041EA030C50EA4C0C76
:102A000052EA0C0C03D28B4208BF8242704714BFBB
:102A1000994290427047000070B504460D466068C8
:102A2000C0F30A5040F2FF72904207D16068000381
:102A300004BF2068002818D0022070BD010004D116
:102A40002046FFF796FF012867DA012D0FDB40F2E1
:102A5000FF71091A8D420AD36068002847BF002021
:102A60002F4900202F49C4E90001012070BD4142D7
:102A7000A942616806DA2C4A1140401941EA005027
:102A8000606053E001F0004162681203120B42F4EF
:102A900080126260401E451905F13500352803D3C8
:102AA00061600020206070BD002215F11F0F05DA63
:102AB000203522686068206000206060684213D082
:102AC000521E9241D243C0F1200325689D4055EA31
:102AD000D2722568C540666806FA03F32B4323606B
:102AE000636823FA00F06060606808436060B2F1D8
:102AF000004F03D80BD12078C00708D52068401CB0
:102B00002060206818B96068401C60600EE0606852
:102B1000884204BF20680028F8D1002070BD000062
:102B20000000F0FF0000F07FFFFF0F804FF0FF304C
:102B300070BD0000F446400D40EAC120490006D2B5
:102B400000F014F8004248BF6FF00040604700F00A
:102B50000DF84FF0004188428CBF08464042604764
:102B6000400D40EAC120490080F00D8040F0004057
:102B7000490DA1F58061491C05D4D1F11F0154BF55
:102B8000C840C01770474FF000007047010040F187
:102B90000980F446404200F005F851F000416047DA
:102BA000010000BF09D0B0FA80F18840C91CC1F50E
:102BB0008461090501EBD0214005704770B44FF0E6
:102BC000004591EA030F44BF6B4000F02FBB00BFEC
:102BD000841A71EB030604D26E40001BB141121936
:102BE00073414FF4001C1CEB410F34BF7CEB4306D8
:102BF00084E00C0DA4EB1356362E7DDC012E43DC55
:102C000045EAC32343EA525312BFD20292025B0841
:102C1000240545EAC12141EA5051D2EBC020994137
:102C200025D407D1B0FA80F610FA06F164D000205E
:102C3000203608E0B1FA81F6B140C6F1200220FA50
:102C400002F21143B0404FEAF474B4EB465434F04E
:102C500001064FEA74040AD8D6F50016760D04F082
:102C60000044F04061FA06F25040F1404840C00A8A
:102C700040EA415021F0004128BF5FEA500550F181
:102C8000000044EBD12137E045EAC323DB0A45EAE3
:102C9000C121C90AB6F120050EDD42EA0242120C3A
:102CA000C5F1200603FA06F6EB4042EA06056D423E
:102CB000984161F100010DE062FA06F5F2405540DD
:102CC00063FA06FC82EA0C02F3405A406D429041DE
:102CD00061EB030111F4801F05D1641E620502D06F
:102CE0006D004041494121F48011430875F10043D2
:102CF00050F1000041EB045170BC70471CEB410FD8
:102D000015D223F0004352EA43060BD04FEA4C0C95
:102D1000BCEB410F04D80C0D661E342EB7DDEBE77B
:102D2000801A994150EA410608BF0021E4E708BF34
:102D30001CEB430F28BF6FF00001DDE7B0B581EA5F
:102D4000030C0CF0004C40F2FF7515EA11541DBF46
:102D500015EA1357AC42AF4239E0E41923EA455370
:102D600043F48013C90241F0004141EA505EC702BA
:102D70001100A7FB020200284FF00000EEFB01202B
:102D80004FF00001E3FB072118BF42F00102401899
:102D900000214941E3FB0E01A4F580640F0302D238
:102DA00052004041494154F101046CDD470872F181
:102DB000004250F1000051EB0451A1F580115CBFBD
:102DC00041EA0C01B0BD4CEA05510020B0BD05EA56
:102DD0001357AC4214BFAF4241E050EA410E1CBF52
:102DE00052EA430E02E061460020B0BD24423C445A
:102DF0001BD15FEA070EF6D0090302BF014600208F
:102E0000AEF1140EB1FA81F7AEEB070401FA07FE3A
:102E10000C37C7F1200100FA07F7C8404EEA000E50
:102E200023EA455343F48013A2E733F00043B3FA97
:102E300083F704BFB2FA82FE77440B3FE41BB7F17D
:102E4000200E2FBF02FA0EF3BB40C7F1200E22FA6C
:102E50000EFE38BF43EA0E03BA40641C82E750EA14
:102E6000410E14BF52EA430E6FF000014FF40017F9
:102E700017EB430F8ABF194617EB410FB5E74CEA32
:102E800005510020B0BDD4F10104B4F120070FDAE0
:102E9000C4F12007520828BF42F0010210FA07F5DA
:102EA00001FA07F7E1BF2A43E0403843E1400FE071
:102EB000352C98DCC7F1200452EA400220FA07F2D0
:102EC00018BF42F0010231FA07F0A1400A43002185
:102ED00072F1004250F1000051EB0C01B0BD000056
:102EE000F0B540F2FF7581EA030C0CF0004C15EAD6
:102EF00011541DBF15EA1357AC42AF42E5E0BC4187
:102F0000C1F31301C3F31303801A994143F48013EF
:102F100004D2641E4000494180185941C90241EA67
:102F20005051B1FBF3F603FB1611A2FB0675D7EB6C
:102F3000C020A94102D2761E80185941C90241EA37
:102F40005051B1FBF3FE03FB1E11A2FB0E75D7EB34
:102F5000C020A94103D2AEF1010E80185941890267
:102F600041EA9051760546EA8E2EB1FBF3F603FB5B
:102F70001611A2FB0675D7EB8020A94102D2761E5E
:102F800080185941C90241EA50514EEA060EB1FB80
:102F9000F3F603FB1611A2FB0675D7EBC020A9417F
:102FA00002D2761E80185941C90241EA5051B1FB44
:102FB000F3F703FB1711A2FB0735D3EBC020A941A0
:102FC00067F100070CBF004247F0010766F3D52701
:102FD0004FEA1E31B80814F5806412DDBD0775F1A3
:102FE000004250EB0E5051EB045111F5801F5CBFB5
:102FF00041EA0C01F0BD4CF07F6141F0E04100205E
:10300000F0BDBD076D0840EA0E5041F48011D4F1C7
:103010000104B4F120060ADAC4F120060200E040FF
:1030200001FA06F3E1401843B24015430EE0342C98
:1030300013DCC6F1200445EA40056D0820FA06F2CB
:10304000154321FA06F0A1400D43002175F100421D
:1030500050F1000051EB0C01F0BD00205FEA0C01C3
:10306000F0BDCFB992185B41B3FA83F704BFB2FA4F
:1030700082F6BF190B3FB7F120062FBF02FA06F305
:10308000BB40C7F1200622FA06F638BF3343BA40E8
:103090001CB1E419641E33E77F4231F00041B1FAFC
:1030A00081F404BFB0FA80F6A4190B3CB4F12006F9
:1030B0002FBF00FA06F1A140C4F1200620FA06F65F
:1030C00038BF3143A0403C1B1AE7AC421ABF05EAA7
:1030D0001357AF4212E050EA41061CBF52EA4306C2
:1030E000BFE750EA4107304661461CBF41EA05513F
:1030F000F0BD52EA430C08BFC143F0BD00204FF4BD
:10310000001616EB410F98BF16EB430F08BF16EBE6
:10311000410F24BFC14305E016EB430F0CBF6146CE
:103120004CEA0551F0BD000080B5134800F0E8F806
:103130000FF24801016041608160C160016141613D
:1031400081610FF23C0242628162C16201634163AC
:103150000FF2300282630FF23402C26301644164F1
:1031600001BD10B5044800F0CBF80446206808B94A
:10317000FFF7DAFF204610BD7C00002000000000B1
:103180002E00000066616C73650000007472756546
:103190000000000091FBF2F303FB1211C0E90031C3
:1031A0007047000080B5DFF80C0000F0A9F88069D6
:1031B00002BD00005012002030B438B90FF24400B4
:1031C000D0E90045C2E90045002001E0017001207E
:1031D00030BC704730B439B90FF23000D0E9004547
:1031E000C3E9004500200BE012B96FF0010007E0D1
:1031F00008B10A7802800978481E8041C043C00F98
:1032000030BC70470000000000000000000000001B
:10321000000000007047000070B44FF0004591EAD4
:10322000030C44BF6B40FFF7D3BC00BF841A71EBA3
:10323000030603D2001BB141121973414FF4001C65
:103240001CEB410F34BF7CEB430443E00C0DA4EBBB
:103250001356352E50DC45EAC323DB0A45EAC1216B
:10326000C912B6F120050DDD63FA05F6EB4086EADA
:103270000305124218BF45F00105C01851F10001C5
:103280000CD213E062FA06F5F2405540F3415A4081
:10329000B340F3405A408018594107D349085FEAC8
:1032A00030005FEA350528BF45F0010501F58011C2
:1032B000420875F1004250F1000041EB045170BC2E
:1032C0004FF4001C1CEB410F38BF70470020090D64
:1032D000090570471CEB410F10D252EA43060BD090
:1032E000BCEB410F05D80C0DAB43661E342EB5DD8B
:1032F00002E0AB438018594170BC704770BC704706
:103300007047000010B50400A4B2002C06D1DFF80D
:10331000D00B006801210182002008E0DFF8C40B17
:10332000006800688047DFF8B80B00680A3010BDFD
:1033300080B5DFF8B40B4078DFF8A41B0968C978C2
:1033400088421AD3DFF8980B00688078002814D1DF
:10335000DFF88C0B0068808800280ED1DFF8800B26
:103360000068DFF87C1B0968C9788172DFF8740B8C
:10337000006840688047002000E0022002BD10B5D0
:103380000400A4B2002C06D1DFF8540B0068012120
:103390000182002008E0DFF84C0B0068806880475D
:1033A000DFF83C0B00680C3010BD10B5DFF8300BB7
:1033B0000068C178DFF8280B00684079DFF8B02B8F
:1033C0001268926990470400DFF8140B0068807A55
:1033D00000282AD0E4B2002C0BD1DFF8040B0068DF
:1033E0000079002805D1DFF8F80A00688078002805
:1033F00001D002201AE0E4B2002C16D1DFF8E40A72
:103400000068C0688047DFF8D80A0068DFF8D01A83
:1034100009684979C172DFF8C80A0068DFF8C01A84
:103420000968C9780173002000E0022010BD10B5C2
:103430000400A4B2002C06D1DFF8A40A006802211F
:10344000018200207FE0DFF82C0B00210180DFF8F3
:10345000900A006800787F2108422AD1DFF8800AAC
:103460000068407A810608D5DFF8081B097851F01A
:103470000201DFF8002B117007E0DFF8F81A097875
:1034800011F0FD01DFF8EC2A1170410608D5DFF8D4
:10349000E41A097851F00101DFF8D82A11704BE0E5
:1034A000DFF8D01A097811F0FE01DFF8C82A117090
:1034B00042E0DFF82C0A0068007810F07F00012855
:1034C00002D1DFF8B00A3EE0DFF8140A00680078A5
:1034D00010F07F0002282DD1DFF8041A096849791D
:1034E00011F00F0210000A0611D5C0B2DFF8882AC9
:1034F00052F8202012F03002102A1DD1DFF8742A71
:10350000127852F00102DFF86C3A1A7014E0C0B27F
:10351000DFF8642A52F8202012F44052B2F5805F9E
:103520000AD1DFF8502A127852F00102DFF8443A4B
:103530001A7001E0002006E0DFF8A80900680069C1
:103540008047DFF8300A10BD2DE9F843DFF8900915
:103550000068007810F07F04002C0BD1DFF88009A0
:103560000068407A10F0DF00DFF8741909684872CB
:1035700000209EE0022C40F09B80DFF86409006888
:103580004088002805D1DFF8580900680079002834
:1035900001D002208DE0DFF850090600DFF8400975
:1035A00000684079804638F0800081464F46DFF859
:1035B000300900684079000607D5DFF8BC0950F8EB
:1035C000270010F03000050006E0DFF8AC0950F8E5
:1035D000270010F4405005003078814507D2002DB7
:1035E00005D0DFF8FC080068807A002801D10220AD
:1035F0005FE04046000611D5DFF87C0950F827004F
:1036000010F0300010284CD13800C0B200F081FD1D
:1036100030213800C0B200F0E4FC42E0DFF8580985
:1036200050F8270010F44050B0F5805F39D1002FDA
:103630001ED1DFF8480990F82C1089B23800C0B2CA
:1036400000F0CBFDDFF8301951F827104BF68F72E0
:103650001140080090F4805090F40050DFF81819E1
:1036600040F4004050F0800080B241F8270018E09C
:103670003800C0B200F034FDDFF8FC1851F8271014
:103680004BF68F721140080090F4805090F4005077
:10369000DFF8E41840F4004050F0800080B241F8B8
:1036A0002700DFF84008006840698047002000E0FC
:1036B0000220BDE8F283F8B5DFF8240800684079FD
:1036C000040034F0800006003500DFF814080068BC
:1036D0004079000607D5DFF8A00850F8250010F063
:1036E0003000070006E0DFF8900850F8250010F4DD
:1036F00040500700DFF8F007007885420DD2DFF870
:10370000E00700684088002807D1002F05D0DFF8C7
:10371000D0070068807A002801D102202FE0200025
:10372000000613D5DFF8501851F8251048F6BF727F
:103730001140080090F01000DFF83C1840F4004001
:1037400050F0800080B241F8250012E0DFF8281820
:1037500051F825104BF68F721140080090F48050FC
:10376000DFF8141840F4004050F0800080B241F8B7
:103770002500DFF870070068806980470020F2BDEF
:1037800080B5DFF85C070068407A50F02000DFF871
:10379000501709684872DFF84C070068C069804715
:1037A000002002BD10B40200DFF834070068408A30
:1037B000030092B2002A07D18888C01ADFF8204798
:1037C00024682082002001E00868181810BC7047A7
:1037D000F8B5DFF80C07006810F110042088050028
:1037E000A06800281BD0002D19D0A0880700BD427A
:1037F00000D22F00380080B2A168884706002088D8
:10380000C01B2080608838186080002000F0CBFC4E
:103810003A0092B2010089B2300000F04AFD2088DF
:1038200000280CD0DFF858074FF4405101800021E8
:10383000002000F0C5FCDFF84C0730210180208813
:10384000A188884205D3DFF8980600680321017239
:103850001DE02088012805D3DFF8840600680521D3
:10386000017214E02088002811D1DFF87406006886
:1038700006210172DFF81007006880B2DFF80C172C
:10388000002241F81020DFF8FC0630210180F1BD54
:103890002DE9F041DFF84806006810F11004258892
:1038A000DFF83C060068067A002D21D1042E1FD1D6
:1038B000DFF8DC060078012813D1DFF8CC060068B9
:1038C00080B2DFF8C816002241F81020DFF8B406F5
:1038D0003021018004200600DFF8B40600210170C9
:1038E00005E007200600DFF89C06102101802EE08D
:1038F000A0888046A84501D3042600E0022645455D
:1039000000D2A846404680B2A16888470700002040
:1039100000F03CFC424692B2010089B2380000F04F
:10392000A8FC414689B2002000F04AFC2088B0EB98
:1039300008002080608818EB00006080DFF84406F3
:1039400030210180DFF838064FF440510180DFF864
:10395000900500680672BDE8F08170B50224DFF8BA
:10396000800500684578DFF87805006800787F21D9
:10397000084255D1092D03D1FFF7DAFC040073E0AA
:10398000052D1DD1DFF858050068C078802811D2B8
:10399000DFF84C050068807800280BD1DFF840057F
:1039A00000688088002805D1DFF834050068807A37
:1039B000002802D0082006007CE00020040053E02C
:1039C000032D12D1DFF818050068C078012809D14D
:1039D000DFF80C0500688088002803D1FFF7D0FECF
:1039E000040041E0022004003EE0012D3CD1DFF85C
:1039F000F0040068C07801280FD1DFF8E404006803
:103A00008088002809D1DFF8D8040068407A800651
:103A100003D5FFF799FD040026E00220040023E00F
:103A2000DFF8BC040068007810F07F00012805D1A1
:103A30000B2D19D1FFF7B9FC040015E0DFF8A00445
:103A40000068007810F07F0002280BD1012D03D10F
:103A5000FFF77AFD040007E0032D05D1FFF72BFEE9
:103A6000040001E002200400E4B2002C0DD0280084
:103A7000C0B2DFF8FC140968496988470400E4B261
:103A8000032C02D10920060014E0E4B2002C02D07D
:103A9000082006000EE006200600DFF8EC040068AF
:103AA00080B2DFF8E814002241F81020DFF8D404D7
:103AB00030210180DFF828040068067270BD2DE90E
:103AC000F04782B0DFF81804006846780020040050
:103AD00000208146062E27D1DFF804040068007814
:103AE0007F21084240F0D080DFF8F403006880783E
:103AF000C0B2012805D1DFF878140968C9690C0043
:103B0000C2E0C0B2022805D1DFF864140968096A6E
:103B10000C00B9E0C0B2032840F0B680DFF85014C2
:103B20000968496A0C00AFE0002E78D1DFF8B003D5
:103B300000684088002872D1DFF8A4030068C088BC
:103B400002286CD1DFF8980300680079002866D15C
:103B5000DFF88C03006800787F21084209D1DFF884
:103B6000800300688088002803D1DFF8280404005F
:103B70008AE0DFF86C030068007810F07F0001280D
:103B800015D10021DFF8580300684079DFF8E02301
:103B9000126892699047002876D1DFF844030068E4
:103BA000807A002870D0DFF8EC0304006CE0DFF8C6
:103BB00030030068007810F07F00022864D1DFF83D
:103BC00020030068407910F00F000700DFF81003B1
:103BD0000068407910F070008046C1480068407964
:103BE000000607D5DFF8900350F8270010F03000EA
:103BF000824606E0DFF8800350F8270010F44050BA
:103C00008246B948007887423ED2B8F1000F3BD1D6
:103C1000BAF1000F38D0DFF87C03040034E0082E3E
:103C200009D1AF48006800787F2108422CD1DFF825
:103C30006803040028E00A2E26D1A948006800780D
:103C400010F07F0001281FD1A5480068807A002865
:103C50001AD0A34800684088002815D1A048006801
:103C60000079002810D19E480068C08801280BD137
:103C700000219B4800684079BD4A126892699047CC
:103C8000002801D1C5480400200000280BD094482A
:103C90000068A0F812909248006884610020A04754
:103CA000002005000FE08E4800684078B0490968A0
:103CB000096988470500EDB2032D04D188480068E2
:103CC0000921017264E086480068008A4FF6FF719E
:103CD000884204D1824800680921017258E0EDB29F
:103CE000022D04D07E480068008A002804D17C4858
:103CF0000068082101724BE07948006800780006EE
:103D00003ED577480068C0880090009874490968DB
:103D1000098A884204D2724800680099018225E02D
:103D20006F480068008A6E490968C98888421DD2B8
:103D30006B480068008A8E49096891F82C1089B296
:103D4000884203D29248002101700FE06448006865
:103D5000008A8749096891F82C1090FBF1F201FB69
:103D60001200002802D18A48012101705C480068D5
:103D70007F49096891F82C108182FFF789FD07E0DF
:103D800057480068032101727D484FF4405101807B
:103D9000BDE8F38738B501257B48006880B28049CB
:103DA00031F81000400000F1804010F5C0400400E0
:103DB0004B480068007A092826D0494800682178D5
:103DC0000170641C4648006821784170641CADB2E3
:103DD00014EB45042000841C008800F03FFA4049A1
:103DE00009684880ADB214EB45042000841C0088AB
:103DF00000F034FA3A4909688880ADB214EB450402
:103E0000374800682188C180354800680121017267
:103E100033480068C088002802D1FFF79EFD01E00A
:103E2000FFF74DFE00F062F832BD10B52C48006877
:103E3000047A022C01D0042C06D1FFF729FD284872
:103E40000068007A04001EE0062C1AD1244800689D
:103E5000407805280ED12248006800787F2108426A
:103E600008D11F480068C07800F05EF81D4800685F
:103E7000006A80473E480068806880470820040048
:103E800001E00820040016480068047200F02EF8D3
:103E900010BD10B512480068047A022C01D0042C21
:103EA00002D10820040015E0032C01D0052C06D116
:103EB000FFF78EFC0A480068007A04000AE0072C2D
:103EC00006D12B480068C06880470820040001E044
:103ED0000820040002480068047200F007F810BDD2
:103EE000F0130020F81300200802002080B52348BA
:103EF00090F82C1089B2002000F06FF92948006872
:103F0000007A082806D11E484FF4805101801D48D0
:103F10001021018023480068007A092801D101207E
:103F200000E00020C0B202BD30B41F4A1278002366
:103F30001900914215D20B00DBB20F4C54F823301C
:103F400048F68F7423400C00E4B2234343F400434B
:103F500053F080030C00E4B2074D45F82430491CAF
:103F6000E7E7C0B250F08003104C236030BC7047CC
:103F7000F4130020EC130020005C00400C01002032
:103F80001414002016140020505C0040046000400F
:103F9000201400202F340008053300087F33000868
:103FA00008600040F0130020080200204C5C004034
:103FB000704700004FF6F8710140DFF88822116069
:103FC0007047C0B2DFF8802252F8202048F68F13E5
:103FD0001A400A4392B2C0B2DFF86C3243F8202094
:103FE000704710B4C0B2DFF8603253F8203048F6A2
:103FF000BF7423401A00CB0601D592F010028B0645
:1040000001D592F02002C0B2DFF83C3242F4004207
:1040100052F0800292B243F8202010BC704710B4D6
:10402000C0B2DFF8243253F820304BF68F742340AF
:104030001A00CB0401D592F480528B0401D592F47E
:104040000052C0B2DFF8003242F4004252F0800267
:1040500092B243F8202010BC7047C0B2DFF8E821CC
:1040600052F8202048F6BF731A40110091F0100159
:1040700091F02001C0B2DFF8D02141F4004151F0AD
:10408000800189B242F820107047C0B2DFF8B82131
:1040900052F820204BF68F731A40110091F4805192
:1040A00091F40051C0B2DFF8A02141F4004151F079
:1040B000800189B242F820107047C0B2DFF8881141
:1040C00051F8201048F68F62114041F4004151F040
:1040D000800189B2C0B2DFF8702142F82010704729
:1040E000C0B2DFF8641151F82010490410D5C0B2F5
:1040F000DFF8541151F8201048F68F72114041F446
:10410000404151F08001C0B2DFF83C2142F820105C
:104110007047C0B2DFF8301151F82010490610D5B1
:10412000C0B2DFF8241151F8201048F68F72114008
:1041300041F4004151F0C001C0B2DFF80C2142F857
:104140002010704710B4DFF8FC20126892B2C0B2A1
:1041500012EBC002DFF8F43089B24C08A4B264005C
:1041600043F8124010BC704710B4DFF8D820126832
:1041700092B2C0B212EBC002DFF8D43089B24C0860
:10418000A4B2640043F8124010BC7047DFF8B410CA
:10419000096889B2C0B211EBC000DFF8B01051F865
:1041A000100080B27047DFF89C10096889B2C0B275
:1041B00011EBC000DFF8981051F8100080B2704782
:1041C000DFF88020126892B2C0B212EBC002DFF8B2
:1041D000843089B243F81210704730B4DFF864308D
:1041E0001B689BB2C0B213EBC003DFF86C4014EB4A
:1041F00043031A0089B23F290CD389B24C0923002A
:104200001F24214200D15B1E9BB29B0253F400434A
:10421000136008E089B24C082300CC0700D55B1C72
:104220009BB29B02136030BC70470649096889B293
:10423000C0B211EBC000084951F810008005800D94
:1042400070470000505C0040005C0040006000408F
:1042500008600040046000400C60004001000B005A
:104260001A0089B2D2B2130253EA1123180080B2A5
:104270007047F0B492B2531C5B1089B25FEA410CF4
:104280000CF1804C1CF5C04C67461C00002C0ED075
:1042900090F800C06546401C90F800C055EA0C2C10
:1042A00066463E80BF1CBF1C401C641EEEE7F0BC8F
:1042B000704770B492B2531C5B1089B24E0006F185
:1042C000804616F5C04635001C00002C06D02E682E
:1042D00006802D1D401C401C641EF6E770BC704714
:1042E0002DE9FC4105000E0017009846089C0020AF
:1042F000019000200090A8884FF480710843A880A6
:104300005FFA88F8B8F1020F63D101233A00310057
:10431000280000F04CFBA88850F48050A880A888A2
:1043200050F40060A8804FF6FF70009028884FF48A
:10433000807108432880A88AC00706D40098411ECF
:1043400000910028F7D1002069E14FF6FF7000903E
:1043500054F00104DFF810070470DFF80C07007850
:104360002882A88A800706D40098411E0091002860
:10437000F7D1002053E1288B0190DFF8F006854249
:104380000FD15FF0007000F090FD0028F9D00021FF
:10439000DFF8DC0600F036FD5FF0007000F033FE61
:1043A0000EE05FF4003000F080FD0028F9D000211D
:1043B000DFF8C00600F026FD5FF4003000F023FEB9
:1043C00028884FF400710843288028888005FCD491
:1043D00024E15FFA88F8B8F1000F40F0F380012F74
:1043E00042D14FF6FF70009028884FF48071084347
:1043F0002880A88AC00706D40098411E0091002892
:10440000F7D100200BE154F00104DFF85C060470E2
:10441000DFF85406007828824FF6FF700090A88AD3
:10442000800706D40098411E00910028F7D1002093
:10443000F5E028884FF6FF310840288072B6288BB7
:10444000019028884FF400710843288062B6A88A3A
:104450004006FCD5288A307028888005FCD428883E
:1044600050F480602880D9E0022F4FD1288850F482
:10447000006028804FF6FF70009028884FF480710C
:1044800008432880A88AC00706D40098411E0091DE
:104490000028F7D10020C2E04FF6FF70009054F0E2
:1044A0000104DFF8C4050470DFF8BC050078288239
:1044B000A88A800706D40098411E00910028F7D1F1
:1044C0000020ACE072B6288B019028884FF6FF31AF
:1044D0000840288062B6A88A4007FCD572B6012140
:1044E000280000F0C3FE288A307062B6761C288A45
:1044F000307028888005FCD4288850F4806028809B
:1045000028884FF2FF710840288087E04FF6FF703F
:10451000009028884FF4807108432880A88AC0073B
:1045200006D40098411E00910028F7D1002076E0C3
:104530004FF6FF70009054F00104DFF82C05047072
:10454000DFF8240500782882A88A800706D400981E
:10455000411E00910028F7D1002060E0288B0190D7
:10456000002F27D0032F06D0A88A4007FCD5288A21
:104570003070761C7F1E032FF2D1A88A4007FCD52D
:1045800028884FF6FF310840288072B6288A30709C
:10459000761C28884FF4007108432880288A3070E0
:1045A00062B6761CA88A4006FCD5288A30700020A6
:1045B0000700D5E728888005FCD4288850F480605F
:1045C00028802BE0A8884FF400710843A880A888B1
:1045D00050F48060A880DFF8A0040121016054F04D
:1045E0000104DFF884040470DFF88004854203D1FD
:1045F000DFF88804076002E0DFF884040760288899
:104600004FF48071084328802888C005FCD4288B8B
:104610008007FCD4288850F4806028800120BDE801
:10462000F6812DE9FC4105000E0017009846089C14
:104630000020019000200090A8884FF4807108436A
:10464000A8805FFA88F8B8F1020F62D14FF6FF70C8
:10465000009000233A003100280000F0A8F9A88853
:1046600050F40060A88028884FF4807108432880A7
:10467000A88AC00706D40098411E00910028F7D1EF
:104680000020B4E04FF6FF70009014F0FE04DFF855
:10469000D8030470DFF8D00300782882A88A800746
:1046A00006D40098411E00910028F7D100209EE01A
:1046B000288B0190DFF8B40385420FD15FF400101E
:1046C00000F0F3FB0028F9D00021DFF8B80300F078
:1046D00099FB5FF4001000F096FC0EE04FF40050E0
:1046E00000F0E3FB0028F9D00021DFF89C0300F084
:1046F00089FB4FF4005000F086FCA88A4007FCD5E7
:1047000028884FF400710843288028888005FCD44D
:104710006CE05FFA88F8B8F1000F44D14FF6FF70F3
:10472000009028884FF4807108432880A88AC00729
:1047300006D40098411E00910028F7D1002056E0D1
:1047400014F0FE04DFF820030470DFF81C03007887
:1047500028824FF6FF700090A88A800706D4009840
:10476000411E00910028F7D1002040E0288B0190E5
:1047700030782882761C7F1E3800471E002806D01D
:10478000A88A4007FCD530782882761CF4E7A88AEE
:104790004007FCD528884FF40071084328802888FA
:1047A0008005FCD422E0A8884FF400710843A8805B
:1047B000A88850F48060A880AF480021016014F000
:1047C000FE04A9480470A948854202D1AB4807609D
:1047D00001E0AB48076028884FF4807108432880C7
:1047E0002888C005FCD4288B8007FCD40120BDE8B4
:1047F000F68110B586B004000121082000F0BBFE50
:104800000121012000F08AFE9848844223D1012131
:104810005FF4001000F0D7FE4020ADF80000032048
:104820008DF802001C208DF8030000A9974800F0C5
:104830008FFF8020ADF8000000A9944800F088FFA9
:1048400001215FF4001000F0E5FE00215FF400108C
:1048500000F0E0FE24E001215FF4800000F0B3FEF0
:104860004FF48060ADF8000003208DF802001C209A
:104870008DF8030000A9854800F06AFF4FF400603E
:10488000ADF8000000A9814800F062FF01215FF44B
:10489000800000F0BFFE00215FF4800000F0BAFE4F
:1048A0000020ADF808004BF6FF70ADF80A00282094
:1048B000ADF80C004FF48060ADF80E004FF480406E
:1048C000ADF810007248019001A9684800F000FCA2
:1048D0003020ADF80C0001A96E4800F0F9FB6348E8
:1048E000844231D1674800F0DDF86B486B490160C4
:1048F00069480021416068481021816066484FF690
:10490000FF71C160644800210161634880214161F9
:1049100061480021816160480021C1615E48002139
:1049200001625D484FF4405141625B480021816261
:104930005949544800F096F94D4800F0B3F85649EB
:104940004B4800F08FF930E04F4800F0ABF8524888
:10495000534901605048002141604F481021816057
:104960004D484FF6FF71C1604B48002101614A4834
:104970008021416148480021816147480021C1618F
:1049800045480021016244484FF440514162424889
:104990000021816240493C4800F064F9354800F04C
:1049A00081F83D49334800F05DF906B010BDF8B517
:1049B00004000D0016001F00002F29D13648456065
:1049C0003548102181603448C660284884420FD1A0
:1049D00031483249016000212A4800F013FA2E497B
:1049E000284800F03FF90121264800F00BFA38E092
:1049F00029482B4901600021234800F003FA264989
:104A0000214800F02FF901211F4800F0FBF928E0B0
:104A1000214845602048002181601F48C660134836
:104A200084420FD11C481D4901600021104800F04C
:104A3000E9F919490E4800F015F901210C4800F078
:104A4000E1F90EE01448164901600021094800F020
:104A5000D9F91149074800F005F90121054800F08E
:104A6000D1F9F1BD000000001A14002000540040EC
:104A70008000024058000240C8130020CC130020E0
:104A8000D01300206C00024044000240000C0140A2
:104A9000801A0600005800404413002010540040C3
:104AA0001058004010B50400DFF88C05844230D067
:104AB000DFF8880584422CD0DFF88405844228D0B2
:104AC000DFF88005844224D0DFF87C05844220D0C2
:104AD000DFF8780584421CD0DFF87405844218D0D2
:104AE000DFF87005844214D0DFF86C05844210D0E2
:104AF000DFF8680584420CD0DFF86405844208D0F2
:104B0000DFF86005844204D07521DFF85C0501F010
:104B1000F9F820684FF6FE71084020600020206000
:104B2000002060600020A0600020E060DFF8080541
:104B3000844208D1DFF83405006850F00F00DFF838
:104B40002C1508608DE0DFF8F404844208D1DFF80A
:104B50001C05006850F0F000DFF81015086080E0D8
:104B6000DFF8DC04844208D1DFF80005006850F467
:104B70007060DFF8F814086073E0DFF8C80484425E
:104B800008D1DFF8E804006850F47040DFF8DC1466
:104B9000086066E0DFF8B004844208D1DFF8CC0496
:104BA000006850F47020DFF8C414086059E0DFF8A2
:104BB0009C04844208D1DFF8B404006850F470000B
:104BC000DFF8A81408604CE0DFF88404844208D1C0
:104BD000DFF89804006850F07060DFF89014086007
:104BE0003FE0DFF87004844208D1DFF884040068F5
:104BF00050F00F00DFF87814086032E0DFF8580456
:104C0000844208D1DFF86804006850F0F000DFF853
:104C10006014086025E0DFF84404844208D1DFF81E
:104C20005004006850F47060DFF84414086018E025
:104C3000DFF82C04844208D1DFF83404006850F413
:104C40007040DFF82C1408600BE0DFF81804844291
:104C500007D1DFF81C04006850F47020DFF810144E
:104C6000086010BD70B504000D000026DFF8C80311
:104C7000844230D0DFF8C40384422CD0DFF8C00374
:104C8000844228D0DFF8BC03844224D0DFF8B80384
:104C9000844220D0DFF8B40384421CD0DFF8B00394
:104CA000844218D0DFF8AC03844214D0DFF8A803A4
:104CB000844210D0DFF8A40384420CD0DFF8A003B4
:104CC000844208D0DFF89C03844204D0D521DFF869
:104CD000980301F017F8A868102807D0A8680028E2
:104CE00004D0D621DFF8800301F00CF8E868002832
:104CF00003D0E868B0F5803F04D3D721DFF868031C
:104D000001F000F82869402807D02869002804D05D
:104D1000D821DFF8540300F0F5FF6869802807D038
:104D20006869002804D0D921DFF83C0300F0EAFFCD
:104D3000A86900280ED0A8694FF48071884209D074
:104D4000A8694FF40071884204D0DA21DFF8180313
:104D500000F0D8FFE86900280CD0E869B0F5806F52
:104D600008D0E869B0F5006F04D0DB21DFF8F80265
:104D700000F0C8FF286A202807D0286A002804D03D
:104D8000DC21DFF8E40200F0BDFF686AB0F5405FA7
:104D90000FD0686AB0F5005F0BD0686AB0F5805F2D
:104DA00007D0686A002804D0DD21DFF8BC0200F0DB
:104DB000A9FFA86AB0F5804F07D0A86A002804D0E0
:104DC000DE21DFF8A40200F09DFF20680600DFF876
:104DD000A4020640A868296A08432969084369694A
:104DE0000843A9690843E9690843696A0843A96A4D
:104DF000084306432660E86860602868A060686829
:104E0000E06070BD38B504000D00DFF82C0284426C
:104E100031D0DFF8280284422DD0DFF8240284420A
:104E200029D0DFF82002844225D0DFF81C0284421A
:104E300021D0DFF8180284421DD0DFF8140284422A
:104E400019D0DFF81002844215D0DFF80C0284423A
:104E500011D0DFF8080284420DD0DFF8040284424A
:104E600009D0DFF80002844205D040F22F11DFF8AC
:104E7000F80100F047FFEDB2002D08D0EDB2012D92
:104E800005D04FF49871DFF8E00100F03BFFEDB280
:104E9000002D04D0206850F00100206004E020685C
:104EA0004FF6FE710840206031BD70B5040000254A
:104EB0000026012C00F09480022C00F09180042C3C
:104EC00000F08E80082C00F08B80102C00F0888081
:104ED000202C00F08580402C00F08280802C00F097
:104EE0007F804FF4807084427AD04FF40070844207
:104EF00076D0B4F5806F73D0B4F5006F70D0B4F590
:104F0000805F6DD0B4F5005F6AD0B4F5804F67D094
:104F1000B4F5004F64D0B4F5803F61D0B4F5003FE4
:104F20005ED0B4F5802F5BD0B4F5002F58D0B4F527
:104F3000801F55D0B4F5001F52D0B4F5800F4FD06C
:104F4000B4F5000F4CD0B4F1807F49D0B4F1007FAC
:104F500046D0B4F1806F43D0B4F1006F40D04648E2
:104F600084423DD0454884423AD04548844237D0B7
:104F70004448844234D04448844231D04348844237
:104F80002ED0434884422BD04248844228D0424805
:104F9000844225D04148844222D0414884421FD0D7
:104FA000404884421CD0B4F1102F19D03E488442AE
:104FB00016D03E48844213D03D48844210D03D482C
:104FC00084420DD03C4884420AD03C48844207D0F9
:104FD0003B48844204D040F2BD11234800F092FEC9
:104FE000E00003D537480068060002E03648006854
:104FF0000600264202D00120050001E00020050045
:105000002800C0B270BD10B5040014F0704F02D07B
:105010002E48044201D1002C04D14FF405711248EE
:1050200000F070FEE00002D51148046001E00F4876
:10503000046010BD00000000080002401C00024097
:105040003000024044000240580002406C00024020
:1050500080000240080402401C0402403004024068
:105060004404024058040240309400080400024006
:10507000040402400F80FFFF010000100200001036
:1050800004000010080000101000001020000010A4
:10509000400000108000001000010010000200100D
:1050A0000004001000080010002000100040001054
:1050B0000080001000000110000002100000041029
:1050C0000000081000040240000002400000F0EF61
:1050D0002DE9F04385B004000D00002600275FF0A5
:1050E0000408DFF8E891DFF8E801844208D0DFF82F
:1050F000D401844204D0CC21DFF8CC0100F002FEC0
:105100002868002804D02868DFF8C811884204D332
:10511000CD21DFF8B40100F0F5FDA88800280AD001
:10512000A888022807D0A8880A2804D0CE21DFF852
:10513000980100F0E7FDE888B0F5804F09D0E888D5
:105140004BF6FF71884204D0CF21DFF87C0100F0DC
:10515000D9FD2889B0F5806F04D3D021DFF868012C
:1051600000F0D0FD6889B0F5806F07D0688900280D
:1051700004D0D121DFF8500100F0C4FDA889B0F5BA
:10518000804F08D0A889B0F5404F04D0D221DFF875
:10519000380100F0B7FDA08806004FF6C070064049
:1051A00000A800F03BF902988146DFF82C01B9FB1A
:1051B000F0F007003E43A68020884FF6FE710840BD
:1051C0002080002006002868DFF81011884210D2E5
:1051D00028684000B9FBF0F080461FFA88F8B8F163
:1051E000040F01D20420804658EA0606781C208469
:1051F00026E0E8884BF6FF71884206D12868032133
:105200004843B9FBF0F0804607E02868192148437D
:10521000B9FBF0F0804658F480485FEA085001D1AD
:1052200058F0010858F400400643BFB24FF496709E
:1052300000FB07F04FF47A7190FBF1F0401C2084E2
:10524000A683208850F001002080208806004FF6B9
:10525000F5300640A8886989084306432680A88956
:1052600029890843208105B0BDE8F08338B50400E2
:105270000D00DFF85C00844209D0DFF8480084426A
:1052800005D040F2AB11DFF8400000F03BFDEDB27D
:10529000002D08D0EDB2012D05D04FF4D671DFF806
:1052A000280000F02FFDEDB2002D05D020884FF42E
:1052B00000710843208004E020884FF6FF51084029
:1052C000208031BD00580040A094000800127A00F0
:1052D00000540040811A060040420F00A1860100E0
:1052E00010B50400002C0BD0B4F5803F08D0B4F505
:1052F000802F05D040F21711DFF80C0400F002FDFA
:10530000DFF8FC03006830F48030DFF8F413086045
:10531000DFF8EC03006830F48020DFF8E413086065
:105320002000B0F5803F03D0B0F5802F09D011E008
:10533000DFF8CC03006850F48030DFF8C413086055
:1053400008E0DFF8BC03006850F4A020DFF8B013D9
:105350000860FFE710BD38B500200090002400254C
:10536000312000F07EF905000098401C0090009864
:10537000B0F5A06F02D0EDB2002DF1D0312000F0D9
:1053800070F9002802D00120040001E00020040090
:105390002000C0B232BD10B50400E4B2002C08D029
:1053A000E4B2012C05D04FF4CD71DFF85C0300F0BE
:1053B000A9FCDFF85803E4B2046010BD38B504005E
:1053C0000025002C09D0012C07D0022C05D040F27A
:1053D0003E21DFF8340300F095FCDFF82803006875
:1053E0000500AD08AD002543DFF81803056031BDA9
:1053F000DFF81003006810F00C00704710B50400CF
:10540000002C07D0012C05D040F2E121DFF8F80292
:1054100000F078FCDFF8F802046010BD30B4002121
:10542000002200230024DFF8DC522D6815F00C0563
:1054300029000D00002D04D0042D06D0082D08D021
:105440002EE0DFF8D45205602DE0DFF8D052056081
:1054500029E0DFF8B0522D6815F470152A00DFF846
:10546000A4522D6815F480352B00920C921C002B51
:1054700005D1DFF8AC5205FB02F505600FE0DFF85F
:1054800084522D68AD0305D5DFF8985205FB02F56F
:10549000056004E0DFF8845205FB02F5056002E0D8
:1054A000DFF874520560DFF85C522D6815F0F005E6
:1054B00029000909DFF870524D5D2C000568E540B0
:1054C0004560DFF840522D6815F4E0652900090AAF
:1054D000DFF854524D5D2C004568E5408560DFF8EB
:1054E00024522D6815F460552900C90ADFF8385296
:1054F0004D5D2C004568E540C560DFF808522D6819
:1055000015F440452900890BDFF820524D5D2C0031
:10551000C568B5FBF4F5056130BC704738B50400CB
:105520000D00DFF80C02044201D1002C05D140F23D
:105530003141DFF8D40100F0E5FBEDB2002D07D0DA
:10554000EDB2012D04D040F232416F4800F0DAFB99
:10555000EDB2002D07D0DFF8DC0100682043DFF852
:10556000D411086006E0DFF8CC010068A043DFF842
:10557000C411086031BD38B504000D00DFF8B80172
:10558000044201D1002C04D14FF48A615E4800F03E
:10559000B9FBEDB2002D07D0EDB2012D04D040F2E1
:1055A0005141594800F0AEFBEDB2002D05D06348E3
:1055B000006820436149086004E060480068A04337
:1055C0005E49086031BD38B504000D005C480442F6
:1055D00001D1002C04D140F26F414B4800F092FB06
:1055E000EDB2002D07D0EDB2012D04D04FF48E6145
:1055F000454800F087FBEDB2002D05D0514800680A
:1056000020435049086004E04E480068A0434D49DB
:10561000086031BD38B504000D004948044201D18D
:10562000002C04D140F2C941374800F06BFBEDB2C9
:10563000002D07D0EDB2012D04D040F2CA4132480E
:1056400000F060FBEDB2002D05D03F48006820431C
:105650003D49086004E03C480068A0433A490860BE
:1056600031BDF8B50400002500260027E4B2212C46
:1056700022D0E4B2312C1FD0E4B2392C1CD0E4B2D9
:10568000412C19D0E4B2612C16D0E4B27A2C13D09C
:10569000E4B27B2C10D0E4B27C2C0DD0E4B27D2C93
:1056A0000AD0E4B27E2C07D0E4B27F2C04D040F2C2
:1056B0003A51154800F026FBE4B26009C0B205007B
:1056C000012D03D10E480068060008E0022D03D129
:1056D00010480068060002E01C4800680600E4B2BA
:1056E00014F01F0005000120A840064202D001204E
:1056F000070001E0002007003800C0B2F2BD000042
:1057000000100240041002408095000860004242F0
:10571000D80042422010024000127A00001BB7005D
:1057200000093D00808D5B00D401002004020020B0
:10573000A8FAFFFF141002400200C0FF1810024038
:10574000003601811C10024010100240241002405B
:105750002DE9F84F04000D00002600275FF0000837
:105760005FF000095FF0000A5FF0000BDFF86004F3
:1057700084421CD0DFF85C04844218D0DFF858045F
:10578000844214D0DFF85404844210D0DFF850046F
:1057900084420CD0DFF84C04844208D0DFF848047F
:1057A000844204D0B821DFF8340500F0ABFAE87881
:1057B000002819D0E878042816D0E878282813D0D3
:1057C000E878482810D0E87814280DD0E878102818
:1057D0000AD0E8781C2807D0E878182804D0B92126
:1057E000DFF8F80400F08EFA2888002804D1BA21E6
:1057F000DFF8E80400F086FAE87810F00F00060001
:10580000E878C0060FD5A87801280AD0A878022821
:1058100007D0A878032804D0C121DFF8C00400F025
:1058200071FAA87806432878000631D020688246AD
:1058300000208046B8F1080F28D2012010FA08F0A5
:105840008146288819EA000007004F451BD15FEA0E
:10585000880081460F2010FA09F083463AEA0B0AC5
:1058600016FA09F050EA0A0AE878282804D101203B
:1058700010FA08F0606106E0E878482803D10120BA
:1058800010FA08F0206118F10108D3E7C4F800A06D
:1058900028884FF48071884233D3606882460020A4
:1058A0008046B8F1080F2AD2012018F1080188407B
:1058B0008146288819EA000007004F451CD15FEA9D
:1058C000880081460F2010FA09F083463AEA0B0A55
:1058D00016FA09F050EA0A0AE878282804D10120CB
:1058E00018F1080188406061E878482804D1012057
:1058F00018F108018840206118F10108D1E7C4F8C7
:1059000004A0BDE8F18F70B504000D000026DFF89B
:10591000C00284421DD0DFF8BC02844219D0DFF8F7
:10592000B802844215D0DFF8B402844211D0DFF807
:10593000B00284420DD0DFF8AC02844209D0DFF817
:10594000A802844205D04FF49271DFF8900300F072
:10595000D9F9ADB2012D3CD0ADB2022D39D0ADB2E6
:10596000042D36D0ADB2082D33D0ADB2102D30D0CD
:10597000ADB2202D2DD0ADB2402D2AD0ADB2802DAC
:1059800027D04FF48070ADB2854222D04FF4007022
:10599000ADB285421DD0ADB2B5F5806F19D0ADB2B4
:1059A000B5F5006F15D0ADB2B5F5805F11D0ADB2D1
:1059B000B5F5005F0DD0ADB2B5F5804F09D0ADB2F1
:1059C000B5F5004F05D040F22511DFF8100300F0C7
:1059D00099F9A06880B2284202D00120060001E0B7
:1059E000002006003000C0B270BD38B504000D00C4
:1059F000DFF8DC0184421CD0DFF8D801844218D0E3
:105A0000DFF8D401844214D0DFF8D001844210D0F2
:105A1000DFF8CC0184420CD07248844209D0DFF810
:105A2000C801844205D040F26F11DFF8B00200F0E7
:105A300069F9ADB2002D05D14FF4B871DFF89C02C1
:105A400000F060F9ADB2256131BD38B504000D003C
:105A50005F48844218D05F48844215D05E48844233
:105A600012D05E4884420FD05D4884420CD05D481D
:105A7000844209D0DFF87001844205D040F27F11E2
:105A8000DFF8580200F03EF9ADB2002D05D14FF419
:105A9000C071DFF8480200F035F9ADB2656131BD83
:105AA00070B504000D0016004948844218D04948DA
:105AB000844215D04848844212D0484884420FD0CE
:105AC000474884420CD04748844209D0DFF8180187
:105AD000844205D040F29311DFF8000200F012F981
