:020000040800F2
:1000000000040020616A0008011D0008031D0008AB
:10001000051D0008071D0008091D0008000000005C
:100020000000000000000000000000000B1D0008A0
:100030000D1D0008000000000F1D0008111D000824
:10004000191D00081B1D00081D1D00081F1D0008AC
:10005000211D0008231D0008251D00083F1D000864
:10006000591D00085B1D0008771D0008791D000858
:100070007B1D00087D1D00087F1D0008811D0008F4
:10008000831D0008851D0008871D0008891D0008C4
:100090008B1D00088D1D00088F1D0008911D000894
:1000A000931D0008951D0008736B0008776B00080E
:1000B0007B6B00087F6B0008836B0008D32400086B
:1000C000D5240008D7240008D9240008DB24000820
:1000D000DD240008DF240008A9250008AB2500085E
:1000E0004D2600084F260008512600082DE9F04F44
:1000F000A5B017461C46DFF87058D5E90023CDE9B6
:100100001223049004AD69600020A8620DF1500A2A
:100110006FF0004800E04F440020ADF8020012AB41
:100120004FF0FF3239460DF1020006F007FC814620
:10013000B9F1010F08DA3878B0F1010969EB090962
:100140006FEA09004FEAD079BDF8020025280CBFFC
:10015000A9F101024A46012A0ADB394602A800F049
:10016000D1FF002804D54FF0FF3025B0BDE8F08F57
:10017000BDF80200252816D1002028616861A86119
:10018000E8612862686217F8011F202908D0232936
:1001900014D02B290BD02D290DD0302911D013E0EC
:1001A00040F00100EFE70028B5D1A86ADDE740F094
:1001B000020080B2E7E740F00400FAE740F00800F0
:1001C000F7E740F01000F4E72A290DD12268111D4D
:1001D000216011682963002904D54942296340F050
:1001E000040080B27F1C12E00021296309E0296B22
:1001F000414505D001EB810302EB4301303929630E
:100200007F1C3A78A2F13001C9B20A29EFD33978BC
:100210002E291CBF4FF0FF31E9621DD117F8011FD5
:100220002A2906D12268111D21601168E9627F1C0C
:1002300012E00021E96209E0E96A414505D001EBDD
:10024000810302EB43013039E9627F1C3A78A2F165
:100250003001C9B20A29EFD3A8863978DFF8300C0B
:1002600006F0B0FB08B117F8010B8DF846009DF8B9
:100270004600682804D1387868280AD1622005E051
:100280006C2806D138786C2803D171208DF846008F
:100290007F1C14A8E8603A781046413800F0D180FD
:1002A000001F022840F2CD80133800F08B800938FF
:1002B00000F0C780801E17D0401E39D0401E022893
:1002C00040F2BF80001F33D0401F00F0E980401E85
:1002D00078D0401E00F01281C01E00F01A81801EEE
:1002E00070D0C01E6ED036E19DF846006C2809D053
:1002F0002869411C29612268111D2160116800F8DC
:100300000A102FE12168081D20600868ADF804007C
:100310000020ADF806004FF0FF30E86201A902A806
:1003200000F0B8F9002840F11D814FF0FF301AE1CC
:100330009DF846006C280FD071280BD12068C01D95
:1003400020F007002060034603F108002060D3E995
:10035000000106E06A28F1D02168081D20600868C5
:10036000C1179DF84630682B08BF00B207D0622B3A
:1003700008BF40B203D0742B01D07A2B00D1C11733
:10038000002904DA2B695E1C2E612D260DE0AB8E50
:100390009E0704D52B695E1C2E612B2605E0DB072A
:1003A00005D52B695E1C2E61202603F80A602B6997
:1003B00014AE3344AB60CDE90201114602A800F04F
:1003C000D5FACFE09DF846006C280FD071280BD1EC
:1003D0002068C01D20F007002060034603F10800DC
:1003E0002060D3E9000106E06A28F1D02168081DE9
:1003F0002060086800219DF84630682B08BF80B255
:1004000007D0622B08BFC0B203D0742B01D07A2B67
:1004100000D1002195F834301B07C8D509B9002850
:10042000C5D042F02003782BC1D12B695E1C2E6110
:10043000302603F80A602B695E1C2E6103F80A203F
:10044000B5E72068C01D20F007002060034603F1D7
:1004500008002060D3E90001CDE90201BDF80E00DB
:10046000000404D52869411C29612D210DE0A88EC6
:10047000810704D52869411C29612B2105E0C007AB
:1004800005D52869411C2961202100F80A10286936
:1004900014A94018A860114602A800F0EFFA61E024
:1004A0009DF8460062280BD0682820D06A280ED01C
:1004B0006C2815D071280AD0742811D07A280FE042
:1004C000A86A2268111D2160116808704AE0A86AB4
:1004D000C11723681A1D22601A68C2E9000141E0B1
:1004E0002168081D20600868A96A01603AE0A86ACE
:1004F0002268111D21601168088033E02168081D01
:100500002060086814A9A9600021CDE902017821C2
:1005100054E79DF846006C28216813D0081D206020
:100520000868A860EA6A002A02D506F041F907E0E7
:10053000002106F075F800281ABFA968401AE86A79
:1005400068610FE0081D2060096802A800F0A2F8A9
:10055000002807D5E9E62869411C296102B925224E
:1005600000F80A2000207F1C00287FF4FCAD286BD7
:100570002969401AE969401A6969401A296A401ACA
:10058000A969401A696AA0EB010995F8340040078F
:1005900011D420208DF800000026B9F1010F0ADBEC
:1005A000012200A902A800F0ADFD00287FF4DBAD18
:1005B000761C4E45F4DB2A6914A902A800F0A2FDBE
:1005C00000287FF4D0AD30208DF80000EE694FF0A8
:1005D000000B012E0BDB012200A902A800F092FD06
:1005E00000287FF4C0AD0BF1010BB345F3DB6A6962
:1005F000A96802A800F086FD00287FF4B4AD302081
:100600008DF800002E6A4FF0000B012E0BDB01224B
:1006100000A902A800F076FD00287FF4A4AD0BF13C
:10062000010BB345F3DBAA696869A968411802A800
:1006300000F068FD00287FF496AD30208DF80000B2
:100640006E6A4FF0000B012E0BDB012200A902A8FD
:1006500000F058FD00287FF486AD0BF1010BB34587
:10066000F3DB95F8340040077FF556AD20208DF878
:1006700000000026B9F1010FFFF64EAD012200A9DE
:1006800002A800F03FFD00287FF46DAD761C4E45BA
:10069000F4DB41E52DE9F04F95B005460F466C6B54
:1006A000002C48BF6FF0004406F0F6F9A96B401823
:1006B0000190DFF83C0AD0E90023CDE9032395F847
:1006C0003C00400702D40198412806D20DF1140ADB
:1006D000402001900020029009E005F02DFC5FEA27
:1006E000000AF7D14FF0FF303AE1A4EB0804012CE7
:1006F000C0F2B18003AA39880DF1010006F03CF97F
:100700005FEA000804D4388830B9B8F1010803D58D
:100710004FF0FF3002909EE04445C0F29C80A869F3
:10072000019908EB0002914280F086800021A963C4
:100730004042696A401AE969401AA96A401A296A5E
:10074000401AE96AA0EB010995F83C00400710D473
:1007500020208DF800000026B9F1010F09DB0122ED
:1007600000A9284600F0CEFC002863D1761C4E4537
:10077000F5DBAA695146284600F0C4FC002859D18F
:1007800030208DF800006E6A4FF0000B012E0ADB5E
:10079000012200A9284600F0B5FC00284AD10BF13F
:1007A000010BB345F4DBEA692969284600F0AAFC8D
:1007B00000283FD130208DF80000AE6A4FF0000BCA
:1007C000012E09DB012200A9284600F09BFC88BB12
:1007D0000BF1010BB345F5DB2A6AE8692969411879
:1007E000284600F08FFC28BB30208DF80000EE6A10
:1007F0004FF0000B012E09DB012200A9284600F072
:1008000081FCB8B90BF1010BB345F5DB95F83C0061
:1008100040070FD520208DF800000026B9F1010F08
:1008200008DB012200A9284600F06CFC10B9761CF8
:100830004E45F6DB0020A86142460DF10101A86992
:10084000504405F0F3FCA8694044A86137F8020B56
:1008500000287FF44AAFA86BA969401A696A401A58
:10086000E969401AA96A401A296A401AE96A461ACF
:1008700095F83C0040070FD420208DF80000002799
:10088000012E09DB012200A9284600F03BFC0028CC
:100890005CD17F1CB742F5DBAA695146284600F0BF
:1008A00031FC002852D130208DF800006F6A0024FE
:1008B000012F09DB012200A9284600F023FC0028B3
:1008C00044D1641CBC42F5DBEA692969284600F082
:1008D00019FC00283AD130208DF80000AF6A0024BE
:1008E000012F08DB012200A9284600F00BFC68BBA1
:1008F000641CBC42F6DB2A6AE8692969411828466B
:1009000000F000FC10BB30208DF80000EF6A0024DE
:10091000012F08DB012200A9284600F0F3FBA8B94B
:10092000641CBC42F6DB95F83C0040070ED5202045
:100930008DF800000027012E08DB012200A92846BF
:1009400000F0E0FB10B97F1CB742F6DB0020A86185
:10095000A86305A882451CBF504605F0DFFB02983E
:1009600015B0BDE8F08F0000506A00082DE9FA4785
:1009700086B00446606900909DF818006F2808BF93
:10098000082705D040F02000782814BF0A27102738
:100990003C25D4E90001064689469DF81820642AC2
:1009A00001D0692A04D1002902DA764269EB4909AB
:1009B000B9F1000F02D10EB9606B60B3A5F1010867
:1009C0004546F817CDE9047030464946DDE9042371
:1009D00005F03AF8CDE90201B246DDE90223DDE98E
:1009E0000401A0FB02695046801B3030C0B23A2897
:1009F00003D39DF8181051390818009908F8010020
:100A0000DDE90269B9F1000F00D126B12069009932
:100A100069188842D2D3082F0BD194F83C00000704
:100A200007D50098285C302803D06D1E009830212F
:100A30002954C5F13C00E061009969182161616B9E
:100A4000884206DA081A6062A08F20F01000A087A2
:100A500010E000290ED594F83C1001F01401102983
:100A600008D1A16BA269891A626A891A0D1A012D2F
:100A7000A8BF656208B0BDE8F08700002DE9F24F1D
:100A80008EB0054604AFD5E90001CDE902019DF81D
:100A9000380040F020008DF8000061280BD0686B12
:100AA000002848BF062005D405D19DF8000067281E
:100AB00001D101206863E888C0F30A1040F2FF7199
:100AC000884222D1A8790F21084205D1A88818B9F7
:100AD000688808B9288868B10320E8619DF8380063
:100AE0006138C0B21A2836D389A10322286905F0DB
:100AF0009DFBC7E10320E8619DF838006138C0B272
:100B00001A2834BF83A184A1EFE7012804DA28461C
:100B100005F0AFF901281BDA40F2FE31EA8861F3F3
:100B20000E12EA80441A4FF0FF309DF80010612940
:100B300017D12A69511C29613021117029694A1C79
:100B40002A619DF83820612A0CBF7822582204E0DF
:100B500000240020E9E7CDA1C7E70A70A969891C34
:100B6000A96110B90026B04682E19DF80000612815
:100B700040F09580686B00284EBF2126461C36B297
:100B8000771CD5E900ABDDE902010022002305F066
:100B900043FE3ABF8BF00040CDE902A0CDE902ABA5
:100BA000A4F104088DF810200DF11109012F33DB99
:100BB000DDE902010022002305F046FE2CD21C21B3
:100BC00002A805F05FF8DDE9020105F055FD0446D5
:100BD000FF1F012F09DB05F04FFE02460B46DDE942
:100BE000020104F0BBFDCDE9020109F20700072173
:100BF000012C0BDB491E5EBF04F00F0200F8012D33
:100C00002411F5D502E0002200F8012D491EFAD585
:100C100000F20709012FCBDA0DF11100A9EB00005A
:100C20000DF11107B042B8BF06B2002E30D4864293
:100C300006DA04A830184078082828BF0F2000D210
:100C40000020314604AA8A1801E0761E36B2491EF9
:100C500012F801398342F8D00F2804D104A80818EB
:100C60004278521C4270002904D504AF761C36B27B
:100C700008F10408304609E0C15D3031C9B23A29B3
:100C800003D39DF838203A3A5118C155401EF3D588
:100C9000686B002840F1EC80701E6863E8E0DDE9D5
:100CA00002010022002305F0B7FD05D2DDE90201B3
:100CB00081F00041CDE9020124B247F29750604330
:100CC000DFF8301490FBF1F80FFA88F8C8F1070448
:100CD0000027DFF82494012C20DBDDE902ABE007DC
:100CE00007D5504659463A464B4604F065FC8246C5
:100CF0008B466410384649463A464B4604F05CFC45
:100D000007468946002CEAD1CDE902AB28E000BFB6
:100D10004E414E00696E6600494E4600644292465E
:100D2000DFF8D8B314D0E00707D5504659463A4605
:100D30004B4604F041FC82468B46641038464946D7
:100D40003A464B4604F038FC07468946002CEAD167
:100D5000DDE9020152465B4604F014F8CDE90201D8
:100D60009DF8000066280CBF08F10A000620696B98
:100D70004418142CA8BF132430208DF810000DF156
:100D80001106012C30DBDE4F11E0DDE9020105F038
:100D900089FC05F07BFD02460B46DDE9020104F00B
:100DA000DDFC00223B4604F007FCCDE90201DDE951
:100DB000020105F077FC06F1080104220A23B0FBCA
:100DC000F3F603FB1600303001F8010DB6FBF3F02B
:100DD00003FB1063303301F8013D521EEED101F1E7
:100DE0000806083C012CD0DA0DF11100301A0DF183
:100DF00011079DF81110302906D1401EA8F10108F5
:100E000017F8011F3029F8D09DF80010662904BF9B
:100E10000FFA88F808F1010103D065290CBF012100
:100E200000216A6B8E1836B2B042B8BF06B2002EEF
:100E30001ED4864204DAF05D352828BF392000D25E
:100E400030203146CA19521E01E0761E36B2491EC4
:100E500012F801398342F8D0392802D1C85D401C0C
:100E6000C855002904D57F1E761C36B208F101084A
:100E70000FFA88F0009033463A469DF8381028461D
:100E800000F008F80FB0BDE8F08F00006E616E0052
:100E9000586A00082DE9F04786B006468A46904613
:100EA0001C46BDF9385005F0ADFD406A90F8009041
:100EB000776B012CBCBF01240FF230284AF02000D0
:100EC000662807D067287AD16FF003018D427CDB5A
:100ED000BD427ADA6D1C66280AD096F83C000007FD
:100EE00002D4BC42B8BF27462DB27F1B48BF0027A3
:100EF0003069F1692DB2012D21DA4A1C30230B54DF
:100F0000012F03DA96F83C10090702D502F8009089
:100F1000521CF261EF42B8BF7D422DB26942B1620C
:100F2000EF19A742B8BF3C4624B23462224641467C
:100F3000F369181805F07AF9381BF062BFE0081859
:100F4000AC4216DA2246414605F070F9F1696118A3
:100F5000F161281BB062012F03DA96F83C0000070C
:100F600005D5306901F80090306A401C3062F762A4
:100F7000A5E02A46414605F059F9F0692818F061C4
:100F8000641B012F03DA96F83C10090704D5411CB5
:100F9000F161316900F8019024B2A742B8BF3C4624
:100FA00024B2224605EB0801F0693369C01805F048
:100FB0003DF9F0692018F061381BB0627FE0BAF1AA
:100FC000610F14D14FF0700A16E0BC4204DA96F8B3
:100FD0003C10090758BF27467F1E48BF0027BAF1BB
:100FE000670F14BF4FF0450A4FF0650A04E0BAF1ED
:100FF000410F08BF4FF0500AF1694A1C306918F8D8
:10100000013B0B54012F03DA96F83C10090702D577
:1010100002F80090521CF261012F10DB641E24B212
:10102000A742B8BF3C4624B222464146F36918188D
:1010300005F0FCF8F0692018F061381BB062F06927
:10104000316900EB010808F801AB002D5CBF2B20D3
:1010500008F8010B03D52D2008F8010B6D42002480
:1010600002AF2DB2012D0EDB0A22294600A805F0A1
:1010700006FD019807F8010B009D641C2DB2012D9F
:10108000F2DA022C06DA4AF02000652804BF30208C
:1010900008F8010B1CB9302008F8010B09E0012CFD
:1010A00007DB641E02A8205C303008F8010B012C1D
:1010B000F7DAF06931694018A8EB0000306296F861
:1010C0003C0000F0140010280DD1B069F169081837
:1010D000B16A0818316A0818F16A0818B16B8842B9
:1010E000BCBF081A706206B0BDE8F087300000008F
:1010F000A46A0008A0860100000024400000F03F20
:1011000084D79741F8B504460D46164600208EB1A7
:101110004FF0FF3705E0206B401C20630020761E57
:1011200008D015F8011BE068A2689047E06000282D
:10113000F1D13846F2BD000038B504000D000020A2
:10114000DFF8EC148C4243D0B4F1804F40D0DFF88C
:10115000E40484423CD0DFF8E004844238D0DFF875
:10116000DC04844234D0DFF8D804844230D0DFF885
:10117000D40484422CD0DFF8D004844228D0DFF895
:10118000CC04844224D0DFF8C804844220D0DFF8A5
:10119000C40484421CD0DFF8C004844218D0DFF8B5
:1011A000BC04844214D0DFF8B804844210D0DFF8C5
:1011B000B40484420CD0DFF8B004844208D0DFF8D5
:1011C000B404844204D0E721DFF8A00405F010FC49
:1011D0006888002810D0688810280DD068882028DA
:1011E0000AD06888402807D06888602804D0E821A1
:1011F000DFF8780405F0FCFBE88800280ED0E888CA
:101200004FF48071884209D0E8884FF40071884219
:1012100004D0E921DFF8540405F0EAFB2088DFF868
:1012200010148C4212D0DFF820148C420ED0B4F18E
:10123000804F0BD0DFF8FC138C4207D0DFF8F81397
:101240008C4203D0DFF8F4138C4204D14FF68F7137
:10125000084069880843DFF8E8138C4208D0DFF8BB
:10126000E4138C4204D04FF6FF410840E98808435C
:101270002080A888A08528882085DFF8B4038442D0
:101280000FD0DFF8C40384420BD0DFF8D8038442C8
:1012900007D0DFF8D403844203D0DFF8D8038442B8
:1012A00001D1287A20860120A08231BD2DE9F041AC
:1012B00004000D005FF0000800260027DFF870032F
:1012C00084423CD0B4F1804F39D0DFF868038442C7
:1012D00035D0DFF86403844231D0DFF86003844204
:1012E0002DD0DFF86403844229D0DFF86003844204
:1012F00025D0DFF85C03844221D0DFF85803844214
:101300001DD0DFF85403844219D0DFF85003844223
:1013100015D0DFF84C03844211D0DFF84803844233
:101320000DD0DFF84403844209D0DFF8440384423F
:1013300005D04FF48E71DFF8340305F059FB28888F
:10134000002814D02888102811D0288820280ED0F2
:10135000288830280BD02888602808D02888702852
:1013600005D040F21D11DFF8040305F041FB688849
:10137000002808D06888012805D04FF48F71DFF865
:10138000EC0205F035FB2889002808D028890228BE
:1013900005D040F21F11DFF8D40205F029FB208CA4
:1013A00020F001002084268CA788B4F818804FF61E
:1013B0008F7010EA08084FF6FC7010EA08082888B9
:1013C00050EA080826F00206288906436888064382
:1013D000DFF85C0284420FD0DFF86C0284420BD04D
:1013E000DFF88002844207D0DFF87C02844203D019
:1013F000DFF87C02844243D1A888002808D0A8885E
:10140000042805D04FF49E71DFF8600205F0F0FA71
:101410006889002808D06889082805D040F23D1165
:10142000DFF8480205F0E4FAE8894FF400718842D9
:1014300008D0E889002805D04FF49F71DFF82C020E
:1014400005F0D6FAA8894FF48071884208D0A8899F
:10145000002805D040F23F11DFF8100205F0C8FA6D
:1014600026F008066889064326F00406A888064385
:1014700027F4807727F40077A8890743E889074392
:10148000A780A4F81880E888A0862684BDE8F081AB
:101490002DE9F04104000D005FF000080026002750
:1014A000DFF88C01844224D0B4F1804F21D0DFF8E2
:1014B000840184421DD0DFF88001844219D0DFF816
:1014C0007C01844215D0DFF88001844211D0DFF81E
:1014D0007C0184420DD0DFF88001844209D0DFF81E
:1014E0008401844205D040F26F11DFF8800105F0DD
:1014F0007FFA2888002814D02888102811D028883E
:1015000020280ED0288830280BD02888602808D0C2
:101510002888702805D04FF4B871DFF8500105F025
:1015200067FA6888002808D06888012805D040F24A
:101530007111DFF8380105F05BFA2889002808D01E
:101540002889022805D04FF4B971DFF8200105F091
:101550004FFA208C20F010002084268CA788B4F845
:10156000188048F6FF7010EA08084FF6FF4010EAAE
:101570000808288858EA002826F02006288956EA14
:101580000016688856EA00162948844202D02E4880
:10159000844244D1A888002808D0A888042805D00F
:1015A00040F28F11DFF8C40005F022FA68890028A4
:1015B00007D06889082804D04FF4C8712B4805F07B
:1015C00017FAE8894FF40071884207D0E8890028AB
:1015D00004D040F29111254805F00AFAA8894FF489
:1015E0008071884207D0A889002804D04FF4C971BF
:1015F0001E4805F0FDF926F08006688956EA0016B7
:1016000026F04006A88856EA001627F4806727F4DB
:101610000067A88957EA8007E88957EA8007A7800A
:10162000A4F81880E88820872684BDE8F0810000AF
:10163000002C01400004004000080040000C004065
:10164000001000400014004000340140004C0140F4
:10165000005001400054014000180040001C0040B0
:101660000020004000400140004401406065000847
:10167000004801400048014038B504000D00DFF883
:10168000A401844244D0B4F1804F41D0DFF89C01E2
:1016900084423DD0DFF89801844239D0DFF89401CC
:1016A000844235D0DFF8B401844231D0DFF8B00194
:1016B00084422DD0DFF87001844229D0DFF8780110
:1016C000844225D0DFF87401844221D0DFF8700114
:1016D00084421DD0DFF86C01844219D0DFF8680124
:1016E000844215D0DFF86401844211D0DFF8640130
:1016F00084420DD0DFF85801844209D0DFF864013C
:10170000844205D040F22931DFF84C0105F070F930
:10171000EDB2002D08D0EDB2012D05D040F22A31F6
:10172000DFF8340105F064F9EDB2002D04D0208813
:1017300050F00100208003E0208820F0010020808C
:1017400031BD70B504000D001600DFF8D8008442EA
:1017500044D0B4F1804F41D0DFF8D00084423DD076
:10176000DFF8CC00844239D0DFF8C800844235D09D
:10177000DFF8E800844231D0DFF8E40084422DD065
:10178000DFF8A400844229D0DFF8AC00844225D0E1
:10179000DFF8A800844221D0DFF8A40084421DD0E5
:1017A000DFF8A000844219D0DFF89C00844215D0F5
:1017B000DFF89800844211D0DFF8980084420DD001
:1017C000DFF88C00844209D0DFF89800844205D00D
:1017D00040F26B31DFF8800005F00AF94FF47F40EA
:1017E000054202D1ADB2002D05D14FF45B71DFF897
:1017F000680005F0FDF8F6B2002E08D0F6B2012E12
:1018000005D040F26D31DFF8500005F0F1F8F6B286
:10181000002E03D0A0892843A08102E0A089A8431C
:10182000A08170BD002C0140003401400004004044
:1018300000080040000C0040004C014000500140F6
:101840000054014000180040001C004000200040EF
:101850000044014000400140606500080010004065
:101860000014004000480140F8B504000D001600C7
:101870001F00002000210022DFF874319C421CD0A0
:10188000B4F1804F19D0DFF86C01844215D0DFF835
:101890006801844211D0DFF8640184420DD0DFF882
:1018A0006001844209D0DFF86401844205D04FF41E
:1018B0009F61DFF8940205F09BF8ADB2012D0BD0CB
:1018C000ADB2022D08D0ADB2032D05D040F2F941E2
:1018D000DFF8740205F08CF8B6B2002E08D0B6B26C
:1018E000022E05D040F2FA41DFF85C0205F080F8E4
:1018F000BFB2002F08D0BFB2022F05D040F2FB418B
:10190000DFF8440205F074F82089218B228C4FF611
:10191000F873184028434FF6FC43194040F2011376
:1019200019434FF6DD731A4056EA07131A43208114
:1019300021832284F1BD38B504000D002C48844277
:101940003DD0B4F1804F3AD02A48844237D02A485B
:10195000844234D02948844231D0DFF8F4018442F3
:101960002DD0DFF8F001844229D02548844226D0CA
:101970002448844223D0DFF8BC0184421FD0DFF822
:10198000B80184421BD02048844218D0DFF8AC0153
:10199000844214D0DFF8A801844210D01B4884424E
:1019A0000DD0DFF8A001844209D0DFF8A001844205
:1019B00005D040F28451DFF8900105F019F8EDB23E
:1019C000002D08D0EDB2012D05D040F28551DFF891
:1019D000780105F00DF8EDB2002D04D0208850F00C
:1019E0008000208003E0208820F08000208031BD2E
:1019F000002C01400004004000080040000C0040A2
:101A000000340140004C01400018004000400140FB
:101A100038B504000D000020DFF83C118C4237D0AF
:101A2000B4F1804F34D0DFF83401844230D0DFF895
:101A3000300184422CD0DFF82C01844228D0DFF81A
:101A40002801844224D0DFF82401844220D0394880
:101A500084421DD0384884421AD0DFF814018442F1
:101A600016D03648844213D03548844210D0DFF86F
:101A7000040184420CD03348844209D0DFF8CC0002
:101A8000844205D040F2E951DFF8BC0004F0B0FF19
:101A9000ADB2082D08D0ADB2002D05D040F2EA510C
:101AA000DFF8A40004F0A4FF208B20F008002843F6
:101AB000208331BD38B504000D000020DFF89810F8
:101AC0008C4224D0B4F1804F21D0DFF890008442C2
:101AD0001DD0DFF88C00844219D0DFF888008442E2
:101AE00015D0DFF88400844211D0DFF880008442F2
:101AF0000DD0DFF87C00844209D0DFF87800844202
:101B000005D040F20261DFF8400004F071FFADB291
:101B1000082D07D0ADB2002D04D040F203610A4871
:101B200004F066FF208B20F4006050EA052020833B
:101B300031BD00000050014000540140001C004035
:101B4000002000400044014060650008004801405A
:101B50000010004000140040002C01400004004030
:101B600000080040000C004000340140004C0140DF
:101B7000001800400040014010B50400DFF84801A3
:101B800084423CD0B4F1804F39D0DFF84001844228
:101B900035D0DFF83C01844231D0DFF8380184428F
:101BA0002DD0DFF83401844229D0DFF8300184429F
:101BB00025D01448844222D0144884421FD01648AD
:101BC00084421CD01548844219D01148844216D052
:101BD0001348844213D0DFF8E80084420FD00D4848
:101BE00084420CD0DFF8DC00844208D006488442EE
:101BF00005D04FF41D61DFF8C40004F0F9FEA08C9D
:101C000010BD00000034014000480140004C01407C
:101C100000180040004001400050014000540140C5
:101C2000001C004038B504000D002748844234D021
:101C3000B4F1804F31D0254884422ED024488442CC
:101C40002BD02448844228D02348844225D02348DE
:101C5000844222D0224884421FD0234884421CD090
:101C60002448844219D02448844216D01F48844214
:101C700013D02248844210D0114884420DD01C4811
:101C800084420AD00F48844207D01648844204D0C8
:101C900040F67721094804F0ABFE4FF47F4005423F
:101CA00002D1ADB2002D04D140F67821034804F0F2
:101CB0009FFEADB2E843208231BD000060650008A0
:101CC0000020004000440140002C0140000400407E
:101CD00000080040000C00400010004000140040CC
:101CE0000034014000480140004C01400018004011
:101CF000004001400050014000540140001C0040E1
:101D00007047FEE7FEE7FEE7FEE770477047704763
:101D100080B501F075F901BD704770477047704795
:101D20007047704780B5012003F0DDFB002805D027
:101D30000A2001F0E9FE012003F022FC01BD80B57C
:101D4000022003F0D0FB002805D00C2001F0DCFEBF
:101D5000022003F015FC01BD704780B5082003F098
:101D6000C2FB002806D0DFF87C0804F0C7FD08207D
:101D700003F006FC01BD704770477047704770471D
:101D8000704770477047704770477047704770479B
:101D90007047704780B50121DFF84C08FFF742FF1C
:101DA000DFF84808FFF7E8FEDFF844180880DFF89E
:101DB0004408FFF7E1FEDFF840180880DFF83C0830
:101DC0000021017046E0DFF834080078DFF83018B1
:101DD00031F8100004F05AFD5FF06632DFF8243865
:101DE00003F0EAFB0022DFF8203802F0CBFF02000C
:101DF0000B00DFF81808DFF8181802F0C3FFDFF84F
:101E00001428DFF8143803F0C1FF04F035FCDFF8C4
:101E1000EC170978DFF804288854DFF8E007007829
:101E2000DFF8DC1731F8100040F2EE2188420AD2C8
:101E3000DFF8C8070078DFF8E41700224254DFF823
:101E4000DC0700214172DFF8B4070078401CDFF89E
:101E5000AC170870DFF8A40700780B28B3D3DFF8BD
:101E6000C0070088401E11D0401E00F0C280801EB6
:101E700000F04981801E00F0D88141F28231401A81
:101E800000F05D82401E00F0AC8221E3DFF8940791
:101E90000088DFF85C1709880818DFF888170880C1
:101EA000DFF88007008810F47040B0F5704F0BD158
:101EB0004FF6FF70DFF86C170988401A4FF6FF7174
:101EC0004843DFF860170880DFF82C07008810F41B
:101ED0007040B0F5704F13D14FF6FF70DFF8181750
:101EE0000988401ADFF810170880DFF83C070088DF
:101EF000DFF8041709880818DFF82C17088010E0AD
:101F0000DFF8F40600884FF47A71884209D2DFF8CE
:101F100018070088DFF8E0160988401ADFF808176C
:101F20000880DFF80007018841F6646000F096FB46
:101F3000DFF8F406018841F6D85000F012FCDFF813
:101F4000EC060088401CDFF8E4160880DFF8DC06A9
:101F500000883A2802D1002003F005F9DFF8CC060A
:101F60000088752802D1002003F0FDF8DFF8BC06D8
:101F70000088B02802D1002003F0F5F8DFF8AC06A5
:101F80000088EA2812D1DFF8980600210180DFF8E6
:101F90009C0600210180DFF88C0600210180DFF81B
:101FA000880600210180002003F0DDF8DFF86C06D0
:101FB0004079002814D0DFF86406407907280FD252
:101FC000DFF85C0600210180DFF860060021018057
:101FD000DFF8500600210180DFF84C060021018067
:101FE000DFF84C0600210180DFF84806002101805F
:101FF0006EE2DFF8FC05008810F47040B0F5704F19
:1020000013D14FF6FF70DFF8E8150988401ADFF8A2
:10201000E0150880DFF80C060088DFF8D415098881
:102020000818DFF80016088010E0DFF8C405008803
:102030004FF47A71884209D2DFF8E8050088DFF8AA
:10204000B0150988401ADFF8DC150880DFF8D805DC
:102050000088DFF8A41509880818DFF8CC15088077
:10206000DFF8C405008810F47040B0F5704F0BD154
:102070004FF6FF70DFF8B0150988401A4FF6FF7170
:102080004843DFF8A4150880DFF89805008801F0C0
:102090003BFD01F081FDDFF89005008801F034FD83
:1020A000DFF8800501884FF4C87000F0B2FEDFF859
:1020B000780501884FF4C87000F02EFEDFF86C053B
:1020C0000088401CDFF864150880DFF86005008890
:1020D0000F280FD1DFF8480500210180DFF84C05FB
:1020E00000210180DFF83C0500210180DFF8380580
:1020F00000210180DFF8380500210180DFF8340578
:1021000000210180E4E1DFF8E804008810F4704069
:10211000B0F5704F13D14FF6FF70DFF8D414098873
:10212000401ADFF8CC140880DFF8F8040088DFF8E4
:10213000C01409880818DFF8EC14088010E0DFF8F4
:10214000B00400884FF47A71884209D2DFF8D404D1
:102150000088DFF89C140988401ADFF8C81408804A
:10216000DFF89404008810F47040B0F5704F13D17C
:102170004FF6FF70DFF880140988401ADFF87814F2
:102180000880DFF8A4040088DFF86C1409880818B8
:10219000DFF89414088010E0DFF85C0400884FF446
:1021A0007A71884209D2DFF880040088DFF8481489
:1021B0000988401ADFF870140880DFF86804018885
:1021C00042F2021000F07CFCDFF85C04018842F26D
:1021D000F03000F00BFDDFF854040088401CDFF8FD
:1021E0004C140880DFF8440400884FF4967188424C
:1021F00012D1DFF82C0400210180DFF83004002127
:102200000180DFF8200400210180DFF81C04002198
:1022100001805A2002F0A7FFDFF81404002101809A
:10222000DFF810040021018052E1DFF8C4030088C8
:1022300010F47040B0F5704F13D14FF6FF70DFF817
:10224000B0130988401ADFF8A8130880DFF8D40318
:102250000088DFF89C1309880818DFF8C813088085
:1022600010E0DFF88C0300884FF47A71884209D2BD
:10227000DFF8B0030088DFF878130988401ADFF828
:10228000A4130880DFF87003008810F47040B0F5E4
:10229000704F13D14FF6FF70DFF85C130988401AB6
:1022A000DFF854130880DFF880030088DFF8481354
:1022B00009880818DFF87013088010E0DFF8380389
:1022C00000884FF47A71884209D2DFF85C030088F5
:1022D000DFF824130988401ADFF84C130880DFF870
:1022E000440301884FF4617000F0EAFBDFF8380323
:1022F00001884FF4617000F079FCDFF8300300884A
:10230000401CDFF828130880DFF8200300884628E7
:102310000ED1DFF80C0300210180DFF8100300214B
:102320000180DFF8000300210180BF480021018007
:10233000BF4800210180BF4800210180C8E0B948A2
:102340000088AB4909880818B6490880B548008854
:1023500010F47040B0F5704F09D14FF6FF70B149DD
:102360000988401A4FF6FF714843AE490880AE48CD
:102370000088A14909880818AB490880AA48008844
:1023800010F47040B0F5704F09D14FF6FF70A649B8
:102390000988401A4FF6FF714843A3490880A148B5
:1023A000008801F0B1FB01F0F7FB9F48008801F0C5
:1023B000ABFB9C4801884FF4297000F055FA9A480D
:1023C000018840F2722000F0E5FA9948002101806E
:1023D00098480021018095480088401C9349088056
:1023E00076E08348008810F47040B0F5704F0ED14D
:1023F0004FF6FF707E490988401A7D490880894858
:1024000000887B4909880818864908800CE07848CC
:1024100000884FF47A71884206D282480088744955
:102420000988401A7F4908807348008810F470407A
:10243000B0F5704F0ED14FF6FF706F490988401A02
:102440006D490880784800886B49098808187649E2
:1024500008800CE0684800884FF47A71884206D200
:102460007148008864490988401A6F4908806D489E
:10247000008801F049FB01F08FFB6B48008801F0F8
:1024800043FB6848018840F25E2000F019FB664873
:1024900001884FF4297000F0A9FB64480088401CB3
:1024A000624908806148008828280BD15C480021D7
:1024B00001805E48002101805A48002101805A486D
:1024C000002101805A48002101805A4800210180E2
:1024D00001BD70477047704770477047704780B5BF
:1024E00040F22551544801F071FC40F22551524808
:1024F00001F0E2FB002856D14F4801F05AFB4F494A
:1025000009784F4A88544D4800784D49405C052869
:1025100002D14C4801210170484800784849405C8C
:10252000062802D14748002101704648007800285B
:1025300006D1424800784249405C80B201F0D5FAA9
:102540004048007801282ED13C4800783C49405C46
:10255000032805D1002002F0C6FD002002F003FE92
:10256000364800783649405C04281CD123480021B5
:10257000017014E0214800782849405C80B201F0E5
:10258000C3FA01F009FB1D4800781D4931F810001D
:1025900001F0BAFA19480078401C18490870174829
:1025A00000780B28E6D301BD704780B540F2255175
:1025B000254801F00BFC40F22551234801F07CFB3B
:1025C00000280DD1204801F0F4FA1C4909781C4A72
:1025D00088541A4800781A49405C80B201F094FA95
:1025E00001BD0000406A0008002C014000080040C6
:1025F000E409002000040040E6090020F50900205D
:102600005009002066660A4000FEAF40CDCCCCCC1D
:10261000CC4C274037894160E5D0C2BFA4090020D7
:10262000E8090020F0090020F2090020EE0900204E
:10263000240800402404004000380140FC08002029
:1026400068090020F40900200048004070477047E6
:1026500080B55FF4802002F093FF01BD80B589B2A0
:1026600011F47042B2F5704F05D14FF6FF72511A56
:102670004FF6FF725143401ADFF890180880DFF8D8
:102680008C08B0F9000004F0F7F8DFF88428DFF8D0
:10269000843802F091FFDFF88028C2E90001DFF8FA
:1026A0007C08DFF8681809880180DFF87408DFF813
:1026B0006818D1E90023C0E90023DFF85C28D2E9DB
:1026C00000010022002304F0BFF813D8002002F01C
:1026D000D0FCDFF84428D2E900010022DFF84438BA
:1026E00004F0B2F806D8DFF838080022DFF83438F2
:1026F000C0E90023DFF82028D2E9000100220023EE
:1027000004F08AF821D2012002F0B3FCDFF8082897
:10271000D2E900015FF0FF32DFF80C3804F07CF8FA
:1027200006D2DFF8FC070022DFF80038C0E90023FA
:10273000DFF8EC07D0E900230020DFF8F41702F0FF
:102740003BFFDFF8DC27C2E90001DFF8D427D2E93C
:10275000000103F0A7FF010089B2012003F0B4FCDF
:1027600001BD80B589B211F47042B2F5704F05D148
:102770004FF6FF72511A4FF6FF725143401ADFF8BD
:102780008C170880DFF88407B0F9000004F074F8B3
:10279000DFF87C27DFF87C3702F00EFFDFF87827C0
:1027A000C2E90001DFF87407DFF8601709880180CB
:1027B000DFF86C07DFF86017D1E90023C0E90023D8
:1027C000DFF85427D2E900010022002304F03CF88E
:1027D00013D8012002F06AFCDFF83C27D2E900019F
:1027E0000022DFF8403704F02FF806D8DFF8300772
:1027F0000022DFF83037C0E90023DFF81C27D2E9D8
:1028000000010022002304F007F821D2002002F08A
:102810004DFCDFF80427D2E900015FF0FF32DFF85A
:10282000083703F0F9FF06D2DFF8F4060022DFF8DC
:10283000FC36C0E90023DFF8E806D0E900230020D9
:10284000DFF8EC1602F0B8FEDFF8D426C2E900018A
:10285000DFF8CC26D2E9000103F024FF010089B2A1
:10286000022003F031FC01BD38B589B211F4704289
:10287000B2F5704F05D14FF6FF72511A4FF6FF7245
:102880005143401ADFF884160880DFF88006B0F95B
:10289000000003F0F1FFDFF87826DFF8783602F069
:1028A0008BFE04000D00DFF86406B0F90000DFF8CD
:1028B0006C16B1F90010401A0021484303F0DCFF08
:1028C00022002B0003F062FADFF84C26C2E9000177
:1028D000DFF84806DFF8341609880180DFF8400683
:1028E000DFF83416D1E90023C0E90023DFF82826F9
:1028F000D2E900010022002303F0A6FF13D8002034
:1029000002F0B7FBDFF81026D2E900010022DFF861
:10291000243603F099FF06D8DFF804060022DFF81A
:102920001436C0E90023DFF8F025D2E900010022C7
:10293000002303F071FF21D2012002F09AFBDFF89F
:10294000D825D2E900015FF0FF32DFF8EC3503F063
:1029500063FF06D2DFF8C8050022DFF8E035C0E9E2
:102960000023DFF8BC05D0E900230020DFF8C01504
:1029700002F022FEDFF8A825C2E90001DFF8A02559
:10298000D2E9000103F08EFE010089B2012003F0BC
:102990009BFB31BD38B589B211F47042B2F5704F6E
:1029A00005D14FF6FF72511A4FF6FF725143401A8C
:1029B000DFF858150880DFF85405B0F9000003F07F
:1029C0005BFFDFF84C25DFF84C3502F0F5FD040025
:1029D0000D00DFF83805B0F90000DFF84015B1F957
:1029E0000010401A0021484303F046FF22002B004C
:1029F00003F0CCF9DFF82025C2E90001DFF81C055F
:102A0000DFF8081509880180DFF81405DFF80815DC
:102A1000D1E90023C0E90023DFF8FC24D2E900015A
:102A20000022002303F010FF13D8002002F03EFB29
:102A3000DFF8E424D2E900010022DFF8043503F0D6
:102A400003FF06D8DFF8D8040022DFF8F434C0E929
:102A50000023DFF8C424D2E900010022002303F0A0
:102A6000DBFE21D2012002F021FBDFF8AC24D2E909
:102A700000015FF0FF32DFF8CC3403F0CDFE06D268
:102A8000DFF89C040022DFF8C034C0E90023DFF83F
:102A90009004D0E900230020DFF8941402F08CFDAC
:102AA000DFF87C24C2E90001DFF87424D2E90001D8
:102AB00003F0F8FD010089B2022003F005FB31BDEF
:102AC00038B589B211F47042B2F5704F05D14FF6A6
:102AD000FF72511A4FF6FF725143401ADFF82C145F
:102AE0000880DFF82804B0F9000003F0C5FEDFF825
:102AF0002024DFF8203402F05FFD04000D00DFF831
:102B00000C04B0F90000DFF81414B1F90010401AF9
:102B10000021484303F0B0FE22002B0003F036F9F9
:102B2000DFF8F423C2E90001DFF8F003DFF8DC137B
:102B300009880180DFF8E803DFF8DC13D1E900231E
:102B4000C0E90023DFF8D023D2E9000100220023EE
:102B500003F07AFE13D8012002F08BFADFF8B823D5
:102B6000D2E900010022DFF8CC3303F06DFE06D875
:102B7000DFF8AC030022DFF8BC33C0E90023DFF844
:102B80009823D2E900010022002303F045FE21D260
:102B9000002002F06EFADFF88023D2E900015FF036
:102BA000FF32DFF8943303F037FE06D2DFF870030C
:102BB0000022DFF88833C0E90023DFF86403D0E99E
:102BC00000230020DFF8681302F0F6FCDFF8502342
:102BD000C2E90001DFF84823D2E9000103F062FDF9
:102BE000010089B2012003F06FFA31BD38B589B216
:102BF00011F47042B2F5704F05D14FF6FF72511AC1
:102C00004FF6FF725143401ADFF800130880DFF8D7
:102C1000FC02B0F9000003F02FFEDFF8F422DFF829
:102C2000F43202F0C9FC04000D00DFF8E002B0F954
:102C30000000DFF8E812B1F90010401A0021484303
:102C400003F01AFE22002B0003F0A0F8DFF8C822E0
:102C5000C2E90001DFF8C402DFF8B0120988018080
:102C6000DFF8BC02DFF8B012D1E90023C0E900238D
:102C7000DFF8A422D2E900010022002303F0E4FDE2
:102C800013D8012002F012FADFF88C22D2E90001F9
:102C90000022DFF8A03203F0D7FD06D8DFF880026B
:102CA0000022DFF89032C0E90023DFF86C22D2E97D
:102CB00000010022002303F0AFFD21D2002002F02A
:102CC000F5F9DFF85422D2E900015FF0FF32DFF8B6
:102CD000683203F0A1FD06D2DFF844020022DFF8DB
:102CE0005C32C0E90023DFF83802D0E9002300207D
:102CF000DFF83C1202F060FCDFF82422C2E9000198
:102D0000DFF81C22D2E9000103F0CCFC010089B2FB
:102D1000022003F0D9F931BD38B589B211F47042FF
:102D2000B2F5704F05D14FF6FF72511A4FF6FF7290
:102D30005143401A754908807448B0F9000003F007
:102D40009BFD734A734B02F037FC04000D006F4883
:102D5000B0F900007149B1F90010401A0021484350
:102D600003F08AFD22002B0003F010F86A4AC2E942
:102D700000016A4865490988018069486649D1E9C6
:102D80000023C0E90023644AD2E9000100220023A5
:102D900003F05AFD0FD8002002F088F95E4AD2E90C
:102DA00000010022694B03F04FFD04D85C4800226B
:102DB000664BC0E90023584AD2E9000100220023F3
:102DC00003F02AFD1AD2012002F070F9524AD2E92A
:102DD00000015FF0FF325E4B03F01EFD04D250484D
:102DE00000225C4BC0E900234D48D0E900230020BD
:102DF0004F4902F0E1FB4A4AC2E90001484AD2E9E0
:102E0000000103F04FFC010089B2022003F05CF9DD
:102E100031BD38B589B211F47042B2F5704F05D1A9
:102E20004FF6FF72511A4FF6FF725143401A37495D
:102E300008803648B0F9000003F01EFD344A354BD7
:102E400002F0BAFB04000D003048B0F9000033492D
:102E5000B1F90010401A0021484303F00DFD220093
:102E60002B0002F093FF2C4AC2E900012B482749AE
:102E7000098801802A482849D1E90023C0E90023B4
:102E8000254AD2E900010022002303F0DDFC0FD81F
:102E9000012002F0EEF8204AD2E9000100222B4B7B
:102EA00003F0D2FC04D81E480022284BC0E90023BE
:102EB000194AD2E900010022002303F0ADFC1AD226
:102EC000002002F0D6F8144AD2E900015FF0FF3288
:102ED0001F4B03F0A1FC04D2114800221D4BC0E996
:102EE00000230F48D0E900230020114902F064FBC1
:102EF0000B4AC2E900010A4AD2E9000103F0D2FB01
:102F0000010089B2012003F0DFF831BDEA09002099
:102F1000CDCCCCCCCCCC0040B8090020EC090020B2
:102F2000B009002000007140FFFF70C0000071C0B8
:102F30000000F0BF00E07040FFDF70C000E070C034
:102F400000C06740FFBF67C000C067C000006940A5
:102F5000FFFF68C0000069C040B2002809D540B238
:102F600010F00F00DFF850278018090100F8041C4A
:102F700004E040B2DFF8442709018154704780B56E
:102F8000B0F1807F01D3012013E00002000A401E4F
:102F9000DFF82C1708600F215FF0FF30FFF7DCFF30
:102FA000DFF8200700210160DFF81C07072101601E
:102FB000002002BD10B504000A2C11D10D21DFF84C
:102FC0000C0700F05EFD8021DFF8000700F01AFE1C
:102FD0000028F8D00A21DFF8F40600F052FD06E0E0
:102FE0002100C9B289B2DFF8E40600F04AFD802171
:102FF000DFF8D80600F006FE0028F8D0200010BD4B
:10300000DFF8CC060068002806D0DFF8C4060068A8
:10301000401EDFF8BC160860704780B502F05EFC09
:10302000DFF8B00602F0E8F8DFF8A80600684FF411
:103030007A71B0FBF1F0FFF7A2FF002800D0FEE7A5
:103040000121042002F074F90121082002F070F936
:103050000121102002F06CF90121202002F068F912
:103060000121012002F064F901214FF4804002F0B7
:103070005FF901215FF4802002F081F901214FF412
:10308000007002F055F90121012002F027F9012119
:103090004FF4006002F04CF90121012002F06FF9B9
:1030A0000121022002F06BF90121042002F067F9EE
:1030B00001BD00B58BB0DFF8200601F041FCDFF860
:1030C0001C060090DFF818060190002002900B20EB
:1030D000039000200490802005904FF480700690AB
:1030E0004FF480600790202008904FF40050099022
:1030F00000200A9000A9DFF8E00501F001FD00A919
:10310000DFF8E00501F0FCFC00A9DFF8DC0501F0C8
:10311000F7FC00A9DFF8D40501F0F2FC0121DFF88B
:10312000B80501F0BCFD0121DFF8B80501F0B7FDDD
:103130000121DFF8B40501F0B2FD0121DFF8AC0593
:1031400001F0ADFD0BB000BD00B585B05FF4C0204F
:10315000009001208DF8040001208DF805005FF437
:1031600060200290002003900B208DF8100000A931
:10317000DFF87C0501F040F9052301220421DFF886
:10318000700501F0F6FA052302220521DFF860053B
:1031900001F0EFFA052303220621DFF8540501F0C0
:1031A000E8FA052304220721DFF8440501F0E1FADB
:1031B000052305220821DFF8380501F0DAFA052396
:1031C00006220921DFF8280501F0D3FA052307229A
:1031D0000A21DFF81C0501F0CCFA052308220B2197
:1031E000DFF80C0501F0C5FA052309220C21DFF8F0
:1031F000000501F0BEFA05230A220D21DFF8F004D4
:1032000001F0B7FA05230B220E21DFF8E40401F0E8
:10321000B0FA0121DFF8D80401F0E6F90121DFF866
:10322000D00401F0B3F9DFF8C80401F008FADFF8C0
:10323000C00401F01DFA0028F9D1DFF8B40401F050
:1032400034FADFF8AC0401F049FA0028F9D1012181
:10325000DFF89C0401F05FFA05B000BD00B587B04F
:1032600040F22B10ADF8040041F61F40ADF800000D
:103270000020ADF806000020ADF8020000208DF817
:10328000080000A9DFF86C04FDF756FF0121DFF804
:103290006404FEF7F1F90121DFF85804FEF7C2FCDF
:1032A00001220121DFF84C04FEF74BFA40F2E7302F
:1032B000ADF804004720ADF800000020ADF806008E
:1032C0000020ADF8020000208DF8080000A95FF092
:1032D0008040FDF731FF6020ADF80C000120ADF813
:1032E0000E000020ADF812000020ADF8140003A974
:1032F0005FF08040FDF7DAFF08215FF08040FEF7C5
:1033000087FB03A95FF08040FEF7C2F808215FF059
:103310008040FEF7CFFB01215FF08040FEF70BFB02
:1033200001215FF08040FEF7A7F940F2E73002F09C
:10333000ACFE07B000BD80B500215FF0006002F078
:1033400075FC4FF4A06002F00DFC25208DF8000004
:1033500000208DF8010000208DF8020001208DF87A
:10336000030000A802F019FC27208DF800000020BF
:103370008DF8010000208DF8020001208DF8030077
:1033800000A802F00AFC19208DF8000000208DF83A
:10339000010001208DF8020001208DF8030000A833
:1033A00002F0FBFB01BD00B583B00021002000F05E
:1033B0005FFF0120009000208DF804000C208DF8A4
:1033C000050001208DF8060000A802F01BF801217D
:1033D000002000F04DFF0220009000208DF8040036
:1033E0000C208DF8050001208DF8060000A802F0E1
:1033F00009F80A21012000F03BFF0820009000207E
:103400008DF804000C208DF8050001208DF80600D1
:1034100000A801F0F7FF0421012000F029FF10208F
:10342000009000208DF804000C208DF8050001208C
:103430008DF8060000A801F0E5FF07BD80B54FF448
:103440000070ADF8000003208DF8020018208DF800
:10345000030000A9A84800F015FD4FF48060ADF806
:10346000000004208DF8030000A9A34800F00AFD25
:103470004FF48060ADF8000003208DF802001820A2
:103480008DF8030000A99D4800F0FCFC4FF400609B
:10349000ADF8000004208DF8030000A9974800F063
:1034A000F1FC0320ADF8000004208DF8030000A912
:1034B000914800F0E7FCF020ADF8000000208DF806
:1034C000030000A98C4800F0DDFC0320ADF80000EB
:1034D00000208DF8030000A9884800F0D3FC1F20CD
:1034E000ADF8000000208DF8030000A9844800F02A
:1034F000C9FC4FF47040ADF8000010208DF80300B7
:1035000000A97E4800F0BEFCC020ADF800000320FA
:103510008DF8020048208DF8030000A9774800F0DC
:10352000B1FCC020ADF8000003208DF80200482057
:103530008DF8030000A9724800F0A4FC0121714835
:1035400000F0C0FD4FF40040ADF8000003208DF8FE
:10355000020018208DF8030000A9674800F092FCD3
:103560000820ADF8000003208DF8020018208DF827
:10357000030000A9614800F085FC0121624800F0C9
:10358000A1FD0121614800F09DFD01BD00B585B0A0
:1035900000900020ADF804000020ADF806000020E7
:1035A000ADF808000020ADF80C000C20ADF80A00C2
:1035B000012240F22551454800F0D6F900A94348C0
:1035C00000F0B0F80121414800F098F905B000BDC5
:1035D00000B585B000900020ADF804000020ADF8E3
:1035E00006000020ADF808000020ADF80C000C200B
:1035F000ADF80A00012240F22551454800F0B4F927
:1036000000A9434800F08EF80121414800F076F906
:1036100005B000BDE0B50020ADF800004FF6FF702A
:10362000ADF804000020ADF806000020ADF802005F
:1036300000208DF8080000A93648FDF77DFD002325
:10364000002203213348FEF70FF901213148FEF72C
:1036500072F901212F48FEF70FF82E48FEF78CFA79
:103660002D4908800020ADF800004FF6FF70ADF83E
:1036700004000020ADF806000020ADF80200002094
:103680008DF8080000A92548FDF756FD002300220B
:1036900003212248FEF7E8F801212048FEF74BF904
:1036A00001211E48FDF7E8FF1C48FEF765FA1C499A
:1036B000088007BD0000000018ED00E000E400E015
:1036C00014E000E018E000E010E000E00038014005
:1036D000C80900207C090020080002404C24014059
:1036E000500900201C00024030000240440002400B
:1036F00000240140002C014000080140000C014062
:1037000000100140000C1A000004300000031800F3
:103710000048004000080040E40900200004004088
:10372000E6090020F0B585B004000D00002000215E
:10373000002200230026DFF8B074BC4214D0DFF86A
:10374000AC04844210D0DFF8A80484420CD0DFF827
:10375000A404844208D0DFF8A404844204D0B82131
:10376000DFF8940403F044F92868002804D028689E
:10377000DFF88C14884204D3B921DFF87C0403F00D
:1037800037F9A888002808D0A888B0F5805F04D051
:10379000BA21DFF8640403F02BF9E888002810D080
:1037A000E888B0F5805F0CD0E888B0F5005F08D0FD
:1037B000E888B0F5405F04D0BB21DFF83C0403F09B
:1037C00017F9288900280CD02889B0F5806F08D017
:1037D0002889B0F5C06F04D0BC21DFF81C0403F0C9
:1037E00007F968894FF6F371084202D16889002809
:1037F00004D1BD21DFF8000403F0FAF8A8890028FD
:1038000013D0A8894FF4807188420ED0A8894FF454
:103810000071884209D0A8894FF44071884204D0D1
:10382000BE21DFF8D40303F0E3F8A889002810D004
:10383000DFF8B40384420CD0DFF8B003844208D030
:10384000DFF8AC03844204D0C221DFF8AC0303F0FC
:10385000CFF82600208A4CF6FF710840E98808431B
:103860002082A0894EF6F3110840A9882A891143C5
:103870006A8911430843A081A08A4FF6FF4108409E
:10388000A9890843A08200A801F0B6FCDFF858031C
:10389000864201D1039900E00299A089000407D56E
:1038A000192000FB01F029684900B0FBF1F206E0A5
:1038B000192000FB01F029688900B0FBF1F26420B7
:1038C000B2FBF0F000010109642303FB1123A1897D
:1038D000090408D5D90032316422B1FBF2F111F0AC
:1038E0000701084307E0190132316422B1FBF2F10C
:1038F00011F00F010843208105B0F0BD38B5040078
:103900000D00DFF8E402844215D0DFF8E0028442C3
:1039100011D0DFF8DC0284420DD0DFF8D8028442F7
:1039200009D0DFF8D802844205D04FF4B171DFF836
:10393000C80203F05DF8EDB2002D08D0EDB2012D04
:1039400005D040F26311DFF8B00203F051F8EDB298
:10395000002D04D0A08950F40050A08103E0A0897C
:1039600020F40050A08131BDF8B504000D00160010
:103970000020002100220023DFF86C72BC4215D029
:10398000DFF86802844211D0DFF8640284420DD06F
:10399000DFF86002844209D0DFF86002844205D07B
:1039A00040F28911DFF8500203F022F8ADB2282D61
:1039B00026D040F22770ADB2854221D040F2266079
:1039C000ADB285421CD040F22550ADB2854217D031
:1039D00040F22440ADB2854212D040F64600ADB26E
:1039E00085420DD040F66A10ADB2854208D0ADB226
:1039F000602D05D04FF4C571DFF8FC0102F0F8FF2F
:103A0000F6B2002E08D0F6B2012E05D040F28B118E
:103A1000DFF8E40102F0ECFF40F66A10ADB2854237
:103A200011D1DFF8C40184420DD0DFF8C001844217
:103A300009D0DFF8BC01844205D040F28F11DFF8D5
:103A4000B80102F0D5FF23002800C0B24009C0B27F
:103A5000ADB215F01F0101228A40012801D10C33BB
:103A600004E0022801D1103300E01433F6B2002E36
:103A700003D018681043186002E01868904318607B
:103A8000F1BD38B504000D005748844210D05748A6
:103A900084420DD0564884420AD05648844207D00A
:103AA0005648844204D040F25321534802F0A0FF0C
:103AB0004FF40070ADB2854204D34FF415714E48F7
:103AC00002F096FFE805C00DA08031BD80B5010071
:103AD00089B2DFF89403FFF7D4FF8021DFF8880371
:103AE00000F090F80028F8D001BD80B5010089B23F
:103AF000DFF87803FFF7C5FF8021DFF8700300F0DF
:103B000081F80028F8D001BD10B50400A4B2DFF898
:103B1000600394FBF0F100FB114042F2107190FB46
:103B2000F1F0303080B2FFF7D1FFA4B242F2107052
:103B300094FBF0F100FB11404FF47A7190FBF1F02F
:103B4000303080B2FFF7C2FFA4B24FF47A7094FB1A
:103B5000F0F100FB1140642190FBF1F0303080B2B5
:103B6000FFF7B4FFA4B2642094FBF0F100FB114016
:103B70000A2190FBF1F0303080B2FFF7A7FFA4B22A
:103B80000A2094FBF0F100FB1140303080B2FFF7C7
:103B90009DFF00F009F810BD80B50A20FFF796FFE1
:103BA0000D20FFF793FF01BD80B52020FFF78EFFAA
:103BB00001BD10B504000C48844210D00B4884426B
:103BC0000DD00B4884420AD00A48844207D00B48E3
:103BD000844204D040F29221074802F009FFA088F5
:103BE000C005C00D10BD0000003801400044004079
:103BF00000480040004C00409C620008005000401B
:103C000021AA440038B504000D00002096498C42DA
:103C100010D0984884420DD0944884420AD09648E7
:103C2000844207D09648844204D04FF46771934889
:103C300002F0DEFEADB2012D23D0ADB2802D20D03A
:103C4000ADB2402D1DD0ADB2202D1AD0ADB2102D89
:103C500017D04FF48070ADB2854212D04FF400708F
:103C6000ADB285420DD0ADB2082D0AD0ADB2042D53
:103C700007D0ADB2022D04D040F29D317F4802F052
:103C8000B7FE4FF40070ADB285420DD17648844244
:103C90000AD07848844207D07448844204D040F265
:103CA000A131764802F0A4FE2088284201D00120EC
:103CB00000E00020C0B232BD70B504000D0000214C
:103CC000002200230020684EB44210D0694884428C
:103CD0000DD0664884420AD06748844207D06848BD
:103CE000844204D040F2EF31644802F081FEADB26C
:103CF000282D31D040F22770ADB285422CD040F251
:103D00002660ADB2854227D040F22550ADB2854243
:103D100022D040F22440ADB285421DD040F646008C
:103D2000ADB2854218D040F66A10ADB2854213D0CC
:103D30004FF45870ADB285420ED04FF41870ADB24A
:103D4000854209D04FF4B070ADB2854204D04FF433
:103D50007C714A4802F04CFE40F66A10ADB28542D2
:103D60000DD1414884420AD04248844207D03F489E
:103D7000844204D04FF47D71404802F039FE28009F
:103D8000C0B24309DBB2ADB215F01F02012010FA38
:103D900002F2012B02D1A089024006E0022B02D1DF
:103DA000208A024001E0A08A0240ADB2290A89B20D
:103DB000012010FA01F120880140002A03D00029D7
:103DC00001D0012000E00020C0B270BD38B5040071
:103DD0000D0000200021244A944210D0254884423E
:103DE0000DD0224884420AD02348844207D0244878
:103DF000844204D04FF48761204802F0F9FD40F27C
:103E00002660ADB2854213D040F22550ADB2854256
:103E10000ED040F64600ADB2854209D040F66A1099
:103E2000ADB2854204D040F23941144802F0E0FDC1
:103E300040F66A10ADB285420DD10B4884420AD0DB
:103E40000C48844207D00948844204D040F23D41E6
:103E50000A4802F0CDFDADB2280A0121814089B2A5
:103E6000C843208031BD00000038014000480040B8
:103E7000A086010000440040004C00409C62000805
:103E800000500040F8B504000D000026002200217B
:103E9000002300200027DFF814C264451CD0DFF89F
:103EA0001002844218D0DFF80C02844214D0DFF8EC
:103EB0000802844210D0DFF8040284420CD0DFF8FC
:103EC0000002844208D0DFF8A403844204D0B22167
:103ED000DFF88C0402F08CFDE878002819D0E8782F
:103EE000042816D0E878282813D0E878482810D07D
:103EF000E87814280DD0E87810280AD0E8781C2833
:103F000007D0E878182804D0B321DFF8540402F071
:103F10006FFD2888002804D1B421DFF8440402F0A2
:103F200067FDE87810F00F06E878C0060FD5A8788E
:103F300001280AD0A878022807D0A878032804D03E
:103F4000BB21DFF81C0402F053FDA8780643287853
:103F5000000622D02068002106E0EA78482A02D133
:103F600001228A402261491C082915D2012212FA35
:103F700001F32A881A409A42F5D18B000F2212FAD7
:103F800003F7B84316FA03F21043EA78282AE4D17B
:103F900001228A406261E6E7206028884FF4807140
:103FA000884227D36068002121E0012211F1080333
:103FB00012FA03F32A881A409A4217D18B000F2273
:103FC00012FA03F7B84316FA03F21043EA78282AE4
:103FD00004D1012211F108039A406261EA78482A6B
:103FE00004D1012211F108039A402261491C0829D9
:103FF000DBD36060F1BD38B504000D00DFF8AC0024
:1040000084421CD0DFF8A800844218D0DFF8A40056
:10401000844214D0DFF8A000844210D0DFF89C0066
:1040200084420CD02648844209D0DFF84002844202
:1040300005D040F26911DFF8280302F0D9FCADB2D7
:10404000002D05D14FF4B571DFF8140302F0D0FC58
:10405000ADB2256131BD38B504000D00134884426E
:1040600018D01348844215D01248844212D0124806
:1040700084420FD0114884420CD01148844209D0A8
:10408000DFF8E801844205D040F27911DFF8D00270
:1040900002F0AEFCADB2002D05D14FF4BD71DFF8DA
:1040A000C00202F0A5FCADB2656131BD000801405F
:1040B000000C0140001001400014014000180140B4
:1040C000001C014038B504000D0000200022002132
:1040D0000023012C00F08580022C00F08280042C4B
:1040E00000F07F80082C7CD09E48844279D09E4886
:1040F000844276D09D48844273D09D48844270D0DB
:104100009C4884426DD09C4884426AD09B4884423B
:1041100067D09B48844264D09A48844261D0B4F509
:10412000805F5ED0B4F5EA1F5BD0B4F5EB1F58D0CA
:10413000B4F5004F55D09448844252D093488442FD
:104140004FD0934884424CD09248844249D0924800
:10415000844246D0B4F1201F43D09048844240D0DE
:104160008F4884423DD08F4884423AD08E48844262
:1041700037D08E48844234D08D48844231D0B4F553
:10418000011F2ED08B4884422BD08B48844228D0EC
:104190008A48844225D08A48844222D08948844271
:1041A0001FD0894884421CD08848844219D088484E
:1041B000844216D08748844213D08748844210D066
:1041C000864884420DD0864884420AD0854884427D
:1041D00007D08548844204D040F22A21604802F08A
:1041E00007FCEDB2002D07D0EDB2012D04D040F256
:1041F0002B215B4802F0FCFB002C02D57B480168B8
:1042000001E07B480168C4F30343A0B214F44012F8
:10421000B2F5401F08D131F07061754A126832F072
:104220007062734B1A6010E0E20205D503229A40D7
:10423000914351F0706108E0C4F34752D2B21201C9
:1042400010FA02F2914351F07061EDB2002D05D0E9
:10425000C4F34752D2B2120190400143002C02D560
:104260006248016001E06248016031BD0020014008
:1042700038B504000D000020E4B2002C16D0E4B2E2
:10428000012C13D0E4B2022C10D0E4B2032C0DD0D8
:10429000E4B2042C0AD0E4B2052C07D0E4B2062C18
:1042A00004D040F265212E4802F0A2FBEDB2002DB1
:1042B00031D0EDB2012D2ED0EDB2022D2BD0EDB2CA
:1042C000032D28D0EDB2042D25D0EDB2052D22D03E
:1042D000EDB2062D1FD0EDB2072D1CD0EDB2082D8A
:1042E00019D0EDB2092D16D0EDB20A2D13D0EDB2D2
:1042F0000B2D10D0EDB20C2D0DD0EDB20D2D0AD03E
:10430000EDB20E2D07D0EDB20F2D04D040F2662194
:10431000134802F06DFB0F2015F00301C9B28900AC
:104320008840EDB2A910334A52F8211031EA00005A
:10433000EDB2A9102F4A42F82100EDB2A8102D4984
:1043400051F82000E4B215F00301C9B2890014FA53
:1043500001F10843EDB2A910264A42F8210031BD0F
:10436000986400081000140030001400400016008B
:10437000C000160000011800000218000003180019
:1043800000081A00000C1A000100200002002000A2
:104390000400200008002000100020004000200041
:1043A0000001300000023000000430000011200045
:1043B0000020200001000080020000800400008036
:1043C0000800008010000080200000804000008075
:1043D0008000008000010080000200800004008056
:1043E0000008008000100080002000801C000140B8
:1043F000040001400800014070B504000D000020D9
:104400000026DFF820158C420CD0DFF81C05844212
:1044100008D0DFF81805844204D0DF21DFF810054A
:1044200002F0E6FA2868002828D02868B0F5803F16
:1044300024D02868B0F5003F20D02868B0F5403F70
:104440001CD02868B0F5802F18D02868B0F5A02FB0
:1044500014D02868B0F5C02F10D02868B0F5E02F30
:104460000CD02868B0F5002F08D02868B0F5102FC0
:1044700004D0E021DFF8B80402F0BAFA2879002865
:1044800007D02879012804D0E121DFF8A40402F044
:10449000AFFA6879002807D06879012804D0E221B2
:1044A000DFF88C0402F0A4FAA868002837D0A868C6
:1044B000B0F5003F33D0A868B0F5802F2FD0A868A2
:1044C000B0F5C02F2BD0A868B0F5002F27D0A86872
:1044D000B0F5202F23D0A868B0F5402F1FD0A868D2
:1044E000B0F5602F1BD0A868002818D0A868B0F5D8
:1044F000003F14D0A868B0F5C02F10D0A868B0F560
:10450000002F0CD0A868B0F5202F08D0A868B0F50F
:10451000402F04D0E321DFF8180402F069FAE868BC
:10452000002808D0E868B0F5006F04D0E421DFF877
:10453000000402F05DFA287C401EC0B2102804D3AB
:10454000E521DFF8EC0302F053FA6068DFF8E413CA
:10455000084029682A7951EA022108436060A0686E
:10456000DFF8D4130840E968AA6811436A7951EA70
:1045700042010843A060E06A30F47000297C491EC3
:104580000E43F6B250EA0650E06270BD38B5040042
:104590000D00DFF8900384420DD0DFF88C038442D5
:1045A00009D0DFF88803844205D04FF49771DFF813
:1045B000800302F01DFAEDB2002D08D0EDB2012DFE
:1045C00005D040F22F11DFF8680302F011FAEDB2C6
:1045D000002D04D0A06850F00100A06003E0A068A6
:1045E00020F00100A06031BD38B504000D00DFF8F7
:1045F0003403844209D0DFF83403844205D040F20A
:104600004711DFF82C0302F0F3F9EDB2002D08D0CA
:10461000EDB2012D05D04FF4A471DFF8140302F0C0
:10462000E7F9EDB2002D05D0A0684FF48071084382
:10463000A06003E0A06820F48070A06031BD10B5D8
:104640000400DFF8E00284420DD0DFF8DC0284428F
:1046500009D0DFF8D802844205D04FF4BF71DFF8EB
:10466000DC0202F0C5F9A06850F00800A06010BD9F
:1046700010B504000020DFF8AC128C420DD0DFF83A
:10468000A802844209D0DFF8A402844205D04FF486
:10469000C671DFF8A80202F0ABF9A068000701D5E7
:1046A000012000E00020C0B210BD10B50400DFF80A
:1046B000740284420DD0DFF87002844209D0DFF822
:1046C0006C02844205D04FF4D271DFF8700202F020
:1046D0008FF9A06850F00400A06010BD10B5040070
:1046E0000020DFF840128C420DD0DFF83C028442FB
:1046F00009D0DFF83802844205D04FF4D971DFF8D1
:104700003C0202F075F9A068400701D5012000E0E5
:104710000020C0B210BD38B504000D00DFF804025F
:1047200084420DD0DFF80002844209D0DFF8FC019A
:10473000844205D04FF4E671DFF8000202F058F928
:10474000EDB2002D08D0EDB2012D05D040F2CD1113
:10475000DFF8E80102F04CF9EDB2002D04D0A068BA
:1047600050F4A000A06003E0A06830F4A000A060B6
:1047700031BDF8B504000D0016001F000020002117
:10478000DFF8A02194420DD0DFF89C01844209D0CB
:10479000DFF89801844205D040F25221DFF89C01F5
:1047A00002F026F9EDB2002D38D0EDB2012D35D052
:1047B000EDB2022D32D0EDB2032D2FD0EDB2042D8B
:1047C0002CD0EDB2052D29D0EDB2062D26D0EDB2BC
:1047D000072D23D0EDB2082D20D0EDB2092D1DD02C
:1047E000EDB20A2D1AD0EDB20B2D17D0EDB20C2D73
:1047F00014D0EDB20D2D11D0EDB20E2D0ED0EDB2C4
:104800000F2D0BD0EDB2102D08D0EDB2112D05D02B
:1048100040F25321DFF8240102F0EAF8701EC0B222
:10482000102805D34FF41571DFF8100102F0E0F8FD
:10483000FFB2002F1AD0FFB2012F17D0FFB2022F04
:1048400014D0FFB2032F11D0FFB2042F0ED0FFB24D
:10485000052F0BD0FFB2062F08D0FFB2072F05D0CF
:1048600040F25521DFF8D40002F0C2F8EDB20A2D73
:1048700011D3E0680721B5F10A0203235A4391409E
:104880008843FFB2B5F10A010322514317FA01F13F
:104890000843E0600EE020690721032202FB05F2D5
:1048A00091408843FFB2032101FB05F117FA01F1A2
:1048B00008432061F6B2072E0FD2606B1F21721ED3
:1048C00005235A4391408843EDB2711E052251439E
:1048D00015FA01F10843606323E0F6B20D2E0FD202
:1048E000206B1F21F21F05235A4391408843EDB2EC
:1048F000F11F0522514315FA01F10843206310E02E
:10490000E06A1F21B6F10D0205235A439140884306
:10491000EDB2B6F10D010522514315FA01F108433C
:10492000E062F1BD0024014000280140003C01404C
:104930006C630008FFFEF0FFFDF7F1FF6C630008F9
:1049400010B50400DFF8FC03844230D0DFF8F80330
:1049500084422CD0DFF8F403844228D0DFF8F0033F
:10496000844224D0DFF8EC03844220D0DFF8E8034F
:1049700084421CD0DFF8E403844218D0DFF8E0035F
:10498000844214D0DFF8DC03844210D0DFF8D8036F
:1049900084420CD0DFF8D403844208D0DFF8D0037F
:1049A000844204D06F21DFF8CC0302F021F82068A4
:1049B0004FF6FE71084020600020206000206060FB
:1049C0000020A0600020E060DFF87803844208D176
:1049D000DFF8A403006850F00F00DFF89C130860B4
:1049E0008DE0DFF86403844208D1DFF88C030068AF
:1049F00050F0F000DFF88013086080E0DFF84C032F
:104A0000844208D1DFF87003006850F47060DFF86A
:104A10006813086073E0DFF83803844208D1DFF8D8
:104A20005803006850F47040DFF84C13086066E0EB
:104A3000DFF82003844208D1DFF83C03006850F41B
:104A40007020DFF83413086059E0DFF80C0384426B
:104A500008D1DFF82403006850F47000DFF8181361
:104A600008604CE0DFF8F402844208D1DFF8080364
:104A7000006850F07060DFF8001308603FE0DFF876
:104A8000E002844208D1DFF8F402006850F00F0021
:104A9000DFF8E812086032E0DFF8C802844208D18B
:104AA000DFF8D802006850F0F000DFF8D01208609C
:104AB00025E0DFF8B402844208D1DFF8C0020068C4
:104AC00050F47060DFF8B412086018E0DFF89C0260
:104AD000844208D1DFF8A402006850F47040DFF887
:104AE0009C1208600BE0DFF88802844207D1DFF8EF
:104AF0008C02006850F47020DFF88012086010BD4E
:104B000038B504000D000020DFF838128C4230D098
:104B1000DFF8340284422CD0DFF83002844228D0FF
:104B2000DFF82C02844224D0DFF82802844220D00F
:104B3000DFF8240284421CD0DFF82002844218D01F
:104B4000DFF81C02844214D0DFF81802844210D02F
:104B5000DFF8140284420CD0DFF81002844208D03F
:104B6000DFF80C02844204D0CF21DFF8080201F004
:104B70003FFFA868102807D0A868002804D0D021DB
:104B8000DFF8F00101F034FFE868002803D0E8689E
:104B9000B0F5803F04D3D121DFF8D80101F028FF20
:104BA0002869402807D02869002804D0D221DFF8DE
:104BB000C40101F01DFF6869802807D068690028DA
:104BC00004D0D321DFF8AC0101F012FFA86900285E
:104BD0000ED0A8694FF48071884209D0A8694FF4BB
:104BE0000071884204D0D421DFF8880101F000FF71
:104BF000E86900280CD0E869B0F5806F08D0E86952
:104C0000B0F5006F04D0D521DFF8680101F0F0FEA7
:104C1000286A202807D0286A002804D0D621DFF887
:104C2000540101F0E5FE686AB0F5405F0FD0686A94
:104C3000B0F5005F0BD0686AB0F5805F07D0686A96
:104C4000002804D0D721DFF82C0101F0D1FEA86A9A
:104C5000B0F5804F07D0A86A002804D0D821DFF82B
:104C6000140101F0C5FE2068DFF814110840A9689E
:104C70002A6A11432A6911436A691143AA691143D7
:104C8000EA6911436A6A1143AA6A11430843206022
:104C9000E86860602868A0606868E06031BD38B589
:104CA00004000D00DFF89C00844231D0DFF898004A
:104CB00084422DD0DFF89400844229D0DFF89000A0
:104CC000844225D0DFF88C00844221D0DFF88800B0
:104CD00084421DD0DFF88400844219D0DFF88000C0
:104CE000844215D0DFF87C00844211D0DFF87800D0
:104CF00084420DD0DFF87400844209D0DFF87000E0
:104D0000844205D040F22911DFF8680001F070FEFE
:104D1000EDB2002D08D0EDB2012D05D04FF4957104
:104D2000DFF8500001F064FEEDB2002D04D02068E1
:104D300050F00100206004E020684FF6FE7108404A
:104D4000206031BD080002401C00024030000240DB
:104D500044000240580002406C00024080000240C3
:104D6000080402401C040240300402404404024093
:104D700058040240D06300080400024004040240CA
:104D80000F80FFFFF0B540F2FF7581EA030C0CF0D5
:104D9000004C15EA11541DBF15EA1357AC42AF423F
:104DA000E5E0BC41C1F31301C3F31303801A994139
:104DB00043F4801304D2641E4000494180185941D5
:104DC000C90241EA5051B1FBF3F603FB1611A2FBF5
:104DD0000675D7EBC020A94102D2761E8018594132
:104DE000C90241EA5051B1FBF3FE03FB1E11A2FBC5
:104DF0000E75D7EBC020A94103D2AEF1010E801889
:104E00005941890241EA9051760546EA8E2EB1FB5E
:104E1000F3F603FB1611A2FB0675D7EB8020A94120
:104E200002D2761E80185941C90241EA50514EEA19
:104E3000060EB1FBF3F603FB1611A2FB0675D7EBCA
:104E4000C020A94102D2761E80185941C90241EA08
:104E50005051B1FBF3F703FB1711A2FB0735D3EB5E
:104E6000C020A94167F100070CBF004247F00107CD
:104E700066F3D5274FEA1E31B80814F5806412DDB9
:104E8000BD0775F1004250EB0E5051EB045111F586
:104E9000801F5CBF41EA0C01F0BD4CF07F6141F026
:104EA000E0410020F0BDBD076D0840EA0E5041F41E
:104EB0008011D4F10104B4F120060ADAC4F120060D
:104EC0000200E04001FA06F3E1401843B240154306
:104ED0000EE0342C13DCC6F1200445EA40056D08D1
:104EE00020FA06F2154321FA06F0A1400D430021F5
:104EF00075F1004250F1000051EB0C01F0BD0020B3
:104F00005FEA0C01F0BDCFB992185B41B3FA83F7A9
:104F100004BFB2FA82F6BF190B3FB7F120062FBFCC
:104F200002FA06F3BB40C7F1200622FA06F638BFA4
:104F30003343BA401CB1E419641E33E77F4231F0B9
:104F40000041B1FA81F404BFB0FA80F6A4190B3C19
:104F5000B4F120062FBF00FA06F1A140C4F12006EB
:104F600020FA06F638BF3143A0403C1B1AE7AC429A
:104F70001ABF05EA1357AF4212E050EA41061CBFC0
:104F800052EA4306BFE750EA4107304661461CBF7C
:104F900041EA0551F0BD52EA430C08BFC143F0BDE0
:104FA00000204FF4001616EB410F98BF16EB430F8D
:104FB00008BF16EB410F24BFC14305E016EB430FBA
:104FC0000CBF61464CEA0551F0BD000080B500F011
:104FD00036F885484079002803D08348407907286F
:104FE00006D3824801210180804800880028FBD137
:104FF0007D48407900280ED07B48407907280AD2A6
:10500000794800780D2806D2784804210180774835
:1050100000880028FBD1744800780428D9D272484F
:1050200040780628D5D2704880780828D1D26F48B9
:10503000062101806D4800880028FBD1C9E780B5B2
:10504000FDF7EBFFFEF7FAF9FEF775F9FEF731F819
:10505000FEF77AF8FEF702F9FEF7A5F9FEF7DAFA9D
:105060004FF46140FEF792FA5FF4E130FEF7B0FAD8
:1050700001BD80B5C0B200280AD14FF480515C4810
:10508000FEF7E9FF4FF400515948FEF7B4FF0CE07A
:10509000C0B2012809D14FF480515548FEF7ABFF4B
:1050A0004FF400515248FEF7D6FF01BD80B5C0B2A3
:1050B00000280AD14FF480414D48FEF7CCFF4FF451
:1050C00000414B48FEF797FF0CE0C0B2012809D120
:1050D0004FF480414648FEF78EFF4FF400414448AC
:1050E000FEF7B9FF01BD38B500240021414AFF2376
:1050F0001370012508E0EDB23B4AAA1812F8012C02
:10510000EDB23C4BEA546D1CEDB20C2DF3D340B222
:10511000002801D1052103E040B25A2800D1002126
:10512000344A117333494873012504E0EDB2314824
:10513000285C04196D1CEDB20E2DF7D3002506E096
:10514000EDB22C48285C80B2FEF7C0FC6D1CEDB2BD
:105150000E2DF5D3E4B2200080B2FEF7B7FC234851
:105160000021018031BD38B500240021214AFF23F0
:105170001370012508E0EDB21B4AAA1812F8012CA1
:10518000EDB21C4BEA546D1CEDB20C2DF3D340B2C2
:10519000002801D1052103E040B25A2800D10021A6
:1051A000144A117313494873012504E0EDB2114804
:1051B000285C04196D1CEDB20E2DF7D3002506E016
:1051C000EDB20C48285C80B2FEF78FFC6D1CEDB28E
:1051D0000E2DF5D3E4B2200080B2FEF786FC034822
:1051E0000021018031BD0000A4090020E809002051
:1051F000000C01406809002030B400220021002387
:105200000024DFF8C8512D6815F00C052A00002A8B
:1052100004D0042A06D0082A08D029E0DFF8B41107
:10522000016028E0DFF8B011016024E0DFF89C1194
:10523000096811F47011DFF89421126812F48033B8
:10524000890C891C002B04D1DFF8902151430160A7
:1052500011E0DFF878211268920304D5DFF880218D
:105260005143016007E0DFF870215143016002E023
:10527000DFF860110160DFF85411096811F0F002E5
:105280001209DFF86011545C0168E1404160DFF809
:105290003C11096811F4E062120ADFF84811545C0D
:1052A0004168E1408160DFF82411096811F460521F
:1052B000D20ADFF83011545C4168E140C160DFF888
:1052C0000C11096811F44042920BDFF81C11545C78
:1052D000C168B1FBF4F1016130BC704738B504001E
:1052E0000D00DFF80801044201D1002C04D140F286
:1052F0002D41374801F07CFBEDB2002D07D0EDB217
:10530000012D04D040F22E41314801F071FBEDB285
:10531000002D07D0DFF8D80000682043DFF8D01058
:10532000086004E032480068A0433149086031BD9C
:1053300038B504000D002F48044201D1002C04D1DF
:1053400040F24C41224801F053FBEDB2002D07D052
:10535000EDB2012D04D040F24D411D4801F048FB53
:10536000EDB2002D05D02448006820432249086092
:1053700004E021480068A0431F49086031BD38B5EA
:1053800004000D001D48044201D1002C04D140F25C
:105390006B410F4801F02CFBEDB2002D07D0EDB2B0
:1053A000012D04D040F26C41094801F021FBEDB21F
:1053B000002D05D01248006820431149086004E020
:1053C0000F480068A0430E49086031BD0410024038
:1053D000FC64000800127A00001BB70000093D00C1
:1053E000808D5B00E4080020F4080020A8FAFFFF8D
:1053F000141002400200C0FF181002400036018164
:105400001C10024010B5040000202179002906D0AC
:105410002079042803D06A21664801F0E9FA60790E
:10542000082809D060790C2806D06079102803D0AC
:105430006B21604801F0DCFA2068000D00050028AF
:1054400002D12068002803D16C215A4801F0D0FA1B
:10545000A079002806D0A079012803D06D215548F5
:1054600001F0C6FA4E48A179002935D04C490968A7
:10547000226891434A4A11604A4909682268914367
:10548000484A1160217908180168226811430160B7
:1054900045480068216888434349086043480068DC
:1054A0002168884341490860607910280CD13E4842
:1054B0000068216808433C4908603C48006821684E
:1054C00008433A4908600DE03548617908180168D9
:1054D00022681143016005E02179081801682268FB
:1054E0009143016010BD10B5040000200021012C83
:1054F00037D0022C35D0042C33D0082C31D0102CCE
:105500002FD0202C2DD0402C2BD0802C29D04FF404
:105510008070844225D04FF40070844221D0B4F5CD
:10552000806F1ED0B4F5006F1BD0B4F5805F18D02B
:10553000B4F5005F15D0B4F5804F12D0B4F5004F2C
:105540000FD0B4F5803F0CD0B4F5003F09D0B4F5CE
:10555000802F06D0B4F5002F03D0E521154801F0C7
:1055600047FA0F48006814EA000111480068204219
:1055700003D0002901D0012000E00020C0B210BDFE
:1055800010B50400200D0005002801D1002C03D126
:10559000FC21084801F02CFA0548046010BD000009
:1055A0000004014004040140080401400C040140CF
:1055B0001404014034640008B0B581EA030C0CF017
:1055C000004C40F2FF7515EA11541DBF15EA135740
:1055D000AC42AF423AE0E41923EA455343F4801366
:1055E000C90241F0004141EA50574FEAC02E110074
:1055F000AEFB020200284FF00000E7FB01204FF055
:105600000001E3FB0E2118BF42F001024018002107
:105610004941E3FB0701A4F580640F0302D2520065
:105620004041494154F101046BDD470872F10042E9
:1056300050F1000051EB0451A1F580115CBF41EA2B
:105640000C01B0BD4CEA05510020B0BD05EA13576E
:10565000AC4214BFAF4240E050EA410E1CBF52EAD8
:10566000430E02E061460020B0BD24423C441AD102
:105670003F42F7D0090302BF01460020143FB1FAB0
:1056800081FEA7EB0E0401FA0EF70EF10C0ECEF11F
:10569000200100FA0EFEC84047EA000723EA4553FE
:1056A00043F48013A3E733F00043B3FA83F704BF56
:1056B000B2FA82FE77440B3FE41BB7F1200E2FBFF6
:1056C00002FA0EF3BB40C7F1200E22FA0EFE38BFDD
:1056D00043EA0E03BA40641C82E750EA410E14BF4D
:1056E00052EA430E6FF000014FF4001717EB430F1F
:1056F0008ABF194617EB410FB6E74CEA0551002067
:10570000B0BDD4F10104B4F120070FDAC4F12007D1
:10571000520828BF42F0010210FA07F501FA07F714
:10572000E1BF2A43E0403843E1400FE0352C99DCEB
:10573000C7F1200452EA400220FA07F218BF42F0F3
:10574000010231FA07F0A1400A43002172F1004240
:1057500050F1000051EB0C01B0BD000070B44FF0EF
:10576000004591EA030F44BF6B4000F018BB841A58
:1057700071EB030604D26E40001BB1411219734154
:105780004FF4001C1CEB410F34BF7CEB430684E05C
:105790000C0DA4EB1356362E7DDC012E43DC45EABE
:1057A000C32343EA525312BFD20292025B0824057C
:1057B00045EAC12141EA5051D2EBC020994125D49C
:1057C00007D1B0FA80F610FA06F164D00020203636
:1057D00008E0B1FA81F6B140C6F1200220FA02F2E7
:1057E0001143B0404FEAF474B4EB465434F0010670
:1057F0004FEA74040AD8D6F50016760D04F000447A
:10580000F04061FA06F25040F1404840C00A40EAD8
:10581000415021F0004128BF5FEA500550F10000DF
:1058200044EBD12137E045EAC323DB0A45EAC12135
:10583000C90AB6F120050EDD42EA0242120CC5F19A
:10584000200603FA06F6EB4042EA06056D4298414F
:1058500061F100010DE062FA06F5F240554063FA8D
:1058600006FC82EA0C02F3405A406D42904161EB23
:10587000030111F4801F05D1641E620502D06D0082
:105880004041494121F48011430875F1004350F132
:10589000000041EB045170BC70471CEB410F15D266
:1058A00023F0004352EA43060BD04FEA4C0CBCEB0A
:1058B000410F04D80C0D661E342EB7DDEBE7801ABD
:1058C000994150EA410608BF0021E4E708BF1CEBFC
:1058D000430F28BF6FF00001DDE7000080B54E48A0
:1058E000006850F001004C4908604C4800684C4981
:1058F00008404A490860484800684A490840464903
:1059000008604548016821F480210160434800682F
:1059100030F4FE004149086043485FF41F01016014
:1059200000F005F841485FF00061016001BD80B5FD
:1059300000F001F801BD82B000200190002000902D
:105940003548006850F480303349086032480068B8
:1059500010F4003000900198401C0190009800283D
:1059600003D10198B0F5A06FF0D12B4800688003F7
:1059700002D50120009001E000200090009801284D
:1059800047D12B48006850F010002949086028488A
:10599000006880088000264908602548006850F0AB
:1059A0000200234908601D481C49096801601B4822
:1059B0001A49096801601948006850F48060174965
:1059C00008601648006830F47C10144908601348D9
:1059D000006850F48810114908600F48006850F0C2
:1059E00080700D4908600C4800688001FBD50B48A9
:1059F000006880088000094908600848006850F085
:105A00000200064908600548006810F00C000828EC
:105A1000F9D102B0704700000010024004100240AB
:105A20000000FFF8FFFFF6FE0810024008ED00E05E
:105A30000020024013F0004C03D55B42524263F158
:105A400000039CEA210C15D11B4229D109424CD1FB
:105A50002AB18446B0FBF2F002FB10C2704701F09D
:105A600041B8FCD30022002370470B000200002144
:105A70000020704710B5644603D34942404261F1AB
:105A80000001FFF7E1FF640004D34942404261F1A5
:105A90000001244203D55B42524263F1000310BD72
:105AA000904271EB030CE0D370B5B1FA81F4B3FA14
:105AB00083F52C1BA340C4F1200532FA05F63343CD
:105AC000A2405FF00046E64002E05B085FEA320277
:105AD000841A71EB030524BF204629467641F4D38E
