:020000040800F2
:100000000004002061010008A1010008A10100080E
:10001000A1010008A1010008A101000800000000E2
:10002000000000000000000000000000A101000826
:10003000A101000800000000A1010008A1010008C2
:10004000D2B2C9B251EA82010022030618D00022BE
:1000500000E0521C082A2DD280B20123934098421E
:10006000F7D19200214800680F23934098431F4B1B
:1000700018601E480068914008431C49086019E058
:1000800080B2000A002200E0521C082A12D280B27C
:10009000012393409842F7D19200154800680F233E
:1000A00093409843124B18601148006891400843F0
:1000B0000F490860704780B50E48006850F008008E
:1000C0000C490860002201214FF40070FFF7B8FFCF
:1000D000002201212020FFF7B3FF002201214FF46D
:1000E0008070FFF7ADFFFEE700000000000C01404C
:1000F000040C0140181002404501000804000000F3
:10010000000400200000000010B50548054CA04286
:1001100004D050F8041B8847A042FAD110BD00BF9C
:10012000F80000080801000800B5054A106800281A
:1001300004D011000220ABBE0020106000BD000002
:1001400000040020002305E050F8041B41F8043BA4
:10015000121FFBD150F8042B002AF5D17047000084
:1001600000F01CF8002801D0FFF7CEFF0020FFF7B9
:10017000A2FF00F010F8000080B5FFF7D5FF024A9B
:1001800011001820ABBEFBE72600020007463846E8
:10019000FFF7F2FFFBE780B5FFF7F8BF01207047DC
:0201A000FEE778
:04000005080001618D
:00000001FF
