:020000040800F2
:1000000000040020F9010008D7010008D70100080A
:10001000D7010008D7010008D70100080000000040
:10002000000000000000000000000000D7010008F0
:10003000D701000800000000D7010008D701000820
:1000400001B402E00098401E009000980028F9D109
:1000500001B0704780B52D48FFF7F2FF01BDD2B265
:10006000C9B251EA82010022030618D0002200E042
:10007000521C082A2DD280B2012393409842F7D116
:100080009200234800680F2393409843204B186048
:100090001F480068914008431D49086019E080B27C
:1000A000000A002200E0521C082A12D280B201236A
:1000B00093409842F7D19200164800680F2393406E
:1000C0009843144B18601348006891400843114945
:1000D0000860704780B51048006850F008000E496D
:1000E0000860002201214FF40070FFF7B8FF0022E2
:1000F00001212020FFF7B3FF002201214FF480707F
:10010000FFF7ADFF00F04CF8FCE70000C44E0C0018
:10011000000C0140040C0140181002401648006811
:100120004FF4007108431449086070471348006891
:100130004FF4007108431149086070470E48006889
:1001400050F020000C49086070470C48006850F0DF
:1001500020000A4908607047074800684FF4807122
:100160000843054908607047044800684FF48071EF
:100170000843024908607047140C0140100C01400C
:1001800080B5FFF7CBFFFFF7D9FFFFF7E5FF01BD14
:1001900080B5FFF7CBFFFFF7D8FFFFF7E5FF01BD05
:1001A00080B5FFF7EDFFFFF755FFFFF7F1FFFFF712
:1001B00051FFFFF7E5FF01BD00F009F8002801D06D
:1001C000C046C0460020FFF785FF00F002F801207E
:1001D000704700F001B8FEE70746384600F002F825
:1001E000FBE7000080B5C046C046024A1100182057
:1001F000ABBEFBE726000200C046C046C046C04674
:04020000FFF7DAFF2B
:04000005080001F9F5
:00000001FF
