:020000040800F2
:1000000000040020D92700083F29000843290008E0
:10001000472900084B2900084F290008000000006C
:10002000000000000000000000000000532900084C
:1000300057290008000000005B2900085F2900081C
:1000400063290008672900086B2900086F29000848
:1000500073290008772900087B2900087F290008F8
:1000600083290008872900088B2900088F290008A8
:1000700093290008972900089B2900089F29000858
:10008000A3290008A7290008AB290008AF29000808
:10009000B3290008B7290008BB290008BF290008B8
:1000A000C3290008C7290008CB290008CF29000868
:1000B000D3290008D7290008DB290008DF29000818
:1000C000E3290008E7290008EB290008EF290008C8
:1000D000F3290008F7290008FB290008FF29000878
:1000E000032A0008072A00080B2A00082DE9F04F10
:1000F000A5B017461C46DFF87058D5E90023CDE9B6
:100100001223049004AD69600020A8620DF1500A2A
:100110006FF0004800E04F440020ADF8020012AB41
:100120004FF0FF3239460DF1020002F0EDFA814640
:10013000B9F1010F08DA3878B0F1010969EB090962
:100140006FEA09004FEAD079BDF8020025280CBFFC
:10015000A9F101024A46012A0ADB394602A800F049
:10016000D1FF002804D54FF0FF3025B0BDE8F08F57
:10017000BDF80200252816D1002028616861A86119
:10018000E8612862686217F8011F202908D0232936
:1001900014D02B290BD02D290DD0302911D013E0EC
:1001A00040F00100EFE70028B5D1A86ADDE740F094
:1001B000020080B2E7E740F00400FAE740F00800F0
:1001C000F7E740F01000F4E72A290DD12268111D4D
:1001D000216011682963002904D54942296340F050
:1001E000040080B27F1C12E00021296309E0296B22
:1001F000414505D001EB810302EB4301303929630E
:100200007F1C3A78A2F13001C9B20A29EFD33978BC
:100210002E291CBF4FF0FF31E9621DD117F8011FD5
:100220002A2906D12268111D21601168E9627F1C0C
:1002300012E00021E96209E0E96A414505D001EBDD
:10024000810302EB43013039E9627F1C3A78A2F165
:100250003001C9B20A29EFD3A8863978DFF8300C0B
:1002600002F0C6FA08B117F8010B8DF846009DF8A8
:100270004600682804D1387868280AD1622005E051
:100280006C2806D138786C2803D171208DF846008F
:100290007F1C14A8E8603A781046413800F0D180FD
:1002A000001F022840F2CD80133800F08B800938FF
:1002B00000F0C780801E17D0401E39D0401E022893
:1002C00040F2BF80001F33D0401F00F0E980401E85
:1002D00078D0401E00F01281C01E00F01A81801EEE
:1002E00070D0C01E6ED036E19DF846006C2809D053
:1002F0002869411C29612268111D2160116800F8DC
:100300000A102FE12168081D20600868ADF804007C
:100310000020ADF806004FF0FF30E86201A902A806
:1003200000F0B8F9002840F11D814FF0FF301AE1CC
:100330009DF846006C280FD071280BD12068C01D95
:1003400020F007002060034603F108002060D3E995
:10035000000106E06A28F1D02168081D20600868C5
:10036000C1179DF84630682B08BF00B207D0622B3A
:1003700008BF40B203D0742B01D07A2B00D1C11733
:10038000002904DA2B695E1C2E612D260DE0AB8E50
:100390009E0704D52B695E1C2E612B2605E0DB072A
:1003A00005D52B695E1C2E61202603F80A602B6997
:1003B00014AE3344AB60CDE90201114602A800F04F
:1003C000D5FACFE09DF846006C280FD071280BD1EC
:1003D0002068C01D20F007002060034603F10800DC
:1003E0002060D3E9000106E06A28F1D02168081DE9
:1003F0002060086800219DF84630682B08BF80B255
:1004000007D0622B08BFC0B203D0742B01D07A2B67
:1004100000D1002195F834301B07C8D509B9002850
:10042000C5D042F02003782BC1D12B695E1C2E6110
:10043000302603F80A602B695E1C2E6103F80A203F
:10044000B5E72068C01D20F007002060034603F1D7
:1004500008002060D3E90001CDE90201BDF80E00DB
:10046000000404D52869411C29612D210DE0A88EC6
:10047000810704D52869411C29612B2105E0C007AB
:1004800005D52869411C2961202100F80A10286936
:1004900014A94018A860114602A800F0EFFA61E024
:1004A0009DF8460062280BD0682820D06A280ED01C
:1004B0006C2815D071280AD0742811D07A280FE042
:1004C000A86A2268111D2160116808704AE0A86AB4
:1004D000C11723681A1D22601A68C2E9000141E0B1
:1004E0002168081D20600868A96A01603AE0A86ACE
:1004F0002268111D21601168088033E02168081D01
:100500002060086814A9A9600021CDE902017821C2
:1005100054E79DF846006C28216813D0081D206020
:100520000868A860EA6A002A02D502F03FF807E0EE
:10053000002101F073FF00281ABFA968401AE86A79
:1005400068610FE0081D2060096802A800F0A2F8A9
:10055000002807D5E9E62869411C296102B925224E
:1005600000F80A2000207F1C00287FF4FCAD286BD7
:100570002969401AE969401A6969401A296A401ACA
:10058000A969401A696AA0EB010995F8340040078F
:1005900011D420208DF800000026B9F1010F0ADBEC
:1005A000012200A902A800F0ADFD00287FF4DBAD18
:1005B000761C4E45F4DB2A6914A902A800F0A2FDBE
:1005C00000287FF4D0AD30208DF80000EE694FF0A8
:1005D000000B012E0BDB012200A902A800F092FD06
:1005E00000287FF4C0AD0BF1010BB345F3DB6A6962
:1005F000A96802A800F086FD00287FF4B4AD302081
:100600008DF800002E6A4FF0000B012E0BDB01224B
:1006100000A902A800F076FD00287FF4A4AD0BF13C
:10062000010BB345F3DBAA696869A968411802A800
:1006300000F068FD00287FF496AD30208DF80000B2
:100640006E6A4FF0000B012E0BDB012200A902A8FD
:1006500000F058FD00287FF486AD0BF1010BB34587
:10066000F3DB95F8340040077FF556AD20208DF878
:1006700000000026B9F1010FFFF64EAD012200A9DE
:1006800002A800F03FFD00287FF46DAD761C4E45BA
:10069000F4DB41E52DE9F04F95B005460F466C6B54
:1006A000002C48BF6FF0004402F022F9A96B4018FB
:1006B0000190DFF83C0AD0E90023CDE9032395F847
:1006C0003C00400702D40198412806D20DF1140ADB
:1006D000402001900020029009E001F0CFFC5FEA89
:1006E000000AF7D14FF0FF303AE1A4EB0804012CE7
:1006F000C0F2B18003AA39880DF1010002F022F89E
:100700005FEA000804D4388830B9B8F1010803D58D
:100710004FF0FF3002909EE04445C0F29C80A869F3
:10072000019908EB0002914280F086800021A963C4
:100730004042696A401AE969401AA96A401A296A5E
:10074000401AE96AA0EB010995F83C00400710D473
:1007500020208DF800000026B9F1010F09DB0122ED
:1007600000A9284600F0CEFC002863D1761C4E4537
:10077000F5DBAA695146284600F0C4FC002859D18F
:1007800030208DF800006E6A4FF0000B012E0ADB5E
:10079000012200A9284600F0B5FC00284AD10BF13F
:1007A000010BB345F4DBEA692969284600F0AAFC8D
:1007B00000283FD130208DF80000AE6A4FF0000BCA
:1007C000012E09DB012200A9284600F09BFC88BB12
:1007D0000BF1010BB345F5DB2A6AE8692969411879
:1007E000284600F08FFC28BB30208DF80000EE6A10
:1007F0004FF0000B012E09DB012200A9284600F072
:1008000081FCB8B90BF1010BB345F5DB95F83C0061
:1008100040070FD520208DF800000026B9F1010F08
:1008200008DB012200A9284600F06CFC10B9761CF8
:100830004E45F6DB0020A86142460DF10101A86992
:10084000504401F04DFDA8694044A86137F8020BFF
:1008500000287FF44AAFA86BA969401A696A401A58
:10086000E969401AA96A401A296A401AE96A461ACF
:1008700095F83C0040070FD420208DF80000002799
:10088000012E09DB012200A9284600F03BFC0028CC
:100890005CD17F1CB742F5DBAA695146284600F0BF
:1008A00031FC002852D130208DF800006F6A0024FE
:1008B000012F09DB012200A9284600F023FC0028B3
:1008C00044D1641CBC42F5DBEA692969284600F082
:1008D00019FC00283AD130208DF80000AF6A0024BE
:1008E000012F08DB012200A9284600F00BFC68BBA1
:1008F000641CBC42F6DB2A6AE8692969411828466B
:1009000000F000FC10BB30208DF80000EF6A0024DE
:10091000012F08DB012200A9284600F0F3FBA8B94B
:10092000641CBC42F6DB95F83C0040070ED5202045
:100930008DF800000027012E08DB012200A92846BF
:1009400000F0E0FB10B97F1CB742F6DB0020A86185
:10095000A86305A882451CBF504601F039FC0298E7
:1009600015B0BDE8F08F0000AC2800082DE9FA476B
:1009700086B00446606900909DF818006F2808BF93
:10098000082705D040F02000782814BF0A27102738
:100990003C25D4E90001064689469DF81820642AC2
:1009A00001D0692A04D1002902DA764269EB4909AB
:1009B000B9F1000F02D10EB9606B60B3A5F1010867
:1009C0004546F817CDE9047030464946DDE9042371
:1009D00001F00EF9CDE90201B246DDE90223DDE9BD
:1009E0000401A0FB02695046801B3030C0B23A2897
:1009F00003D39DF8181051390818009908F8010020
:100A0000DDE90269B9F1000F00D126B12069009932
:100A100069188842D2D3082F0BD194F83C00000704
:100A200007D50098285C302803D06D1E009830212F
:100A30002954C5F13C00E061009969182161616B9E
:100A4000884206DA081A6062A08F20F01000A087A2
:100A500010E000290ED594F83C1001F01401102983
:100A600008D1A16BA269891A626A891A0D1A012D2F
:100A7000A8BF656208B0BDE8F08700002DE9F24F1D
:100A80008EB0054604AFD5E90001CDE902019DF81D
:100A9000380040F020008DF8000061280BD0686B12
:100AA000002848BF062005D405D19DF8000067281E
:100AB00001D101206863E888C0F30A1040F2FF7199
:100AC000884222D1A8790F21084205D1A88818B9F7
:100AD000688808B9288868B10320E8619DF8380063
:100AE0006138C0B21A2836D389A10322286901F0DF
:100AF000F7FBC7E10320E8619DF838006138C0B218
:100B00001A2834BF83A184A1EFE7012804DA28461C
:100B100001F0F3F901281BDA40F2FE31EA8861F3B3
:100B20000E12EA80441A4FF0FF309DF80010612940
:100B300017D12A69511C29613021117029694A1C79
:100B40002A619DF83820612A0CBF7822582204E0DF
:100B500000240020E9E7CDA1C7E70A70A969891C34
:100B6000A96110B90026B04682E19DF80000612815
:100B700040F09580686B00284EBF2126461C36B297
:100B8000771CD5E900ABDDE902010022002301F06A
:100B900029FD3ABF8BF00040CDE902A0CDE902ABC0
:100BA000A4F104088DF810200DF11109012F33DB99
:100BB000DDE902010022002301F02CFD2CD21C21D2
:100BC00002A801F0A3F8DDE9020101F053FC04469C
:100BD000FF1F012F09DB01F035FD02460B46DDE961
:100BE000020100F08BFECDE9020109F207000721A6
:100BF000012C0BDB491E5EBF04F00F0200F8012D33
:100C00002411F5D502E0002200F8012D491EFAD585
:100C100000F20709012FCBDA0DF11100A9EB00005A
:100C20000DF11107B042B8BF06B2002E30D4864293
:100C300006DA04A830184078082828BF0F2000D210
:100C40000020314604AA8A1801E0761E36B2491EF9
:100C500012F801398342F8D00F2804D104A80818EB
:100C60004278521C4270002904D504AF761C36B27B
:100C700008F10408304609E0C15D3031C9B23A29B3
:100C800003D39DF838203A3A5118C155401EF3D588
:100C9000686B002840F1EC80701E6863E8E0DDE9D5
:100CA00002010022002301F09DFC05D2DDE90201D2
:100CB00081F00041CDE9020124B247F29750604330
:100CC000DFF8301490FBF1F80FFA88F8C8F1070448
:100CD0000027DFF82494012C20DBDDE902ABE007DC
:100CE00007D5504659463A464B4600F035FD8246F8
:100CF0008B466410384649463A464B4600F02CFD78
:100D000007468946002CEAD1CDE902AB28E000BFB6
:100D10004E414E00696E6600494E4600644292465E
:100D2000DFF8D8B314D0E00707D5504659463A4605
:100D30004B4600F011FD82468B466410384649460A
:100D40003A464B4600F008FD07468946002CEAD19A
:100D5000DDE9020152465B4600F0DAFBCDE9020113
:100D60009DF8000066280CBF08F10A000620696B98
:100D70004418142CA8BF132430208DF810000DF156
:100D80001106012C30DBDE4F11E0DDE9020101F03C
:100D900087FB01F061FC02460B46DDE9020100F031
:100DA000ADFD00223B4600F0D7FCCDE90201DDE9B4
:100DB000020101F075FB06F1080104220A23B0FBD1
:100DC000F3F603FB1600303001F8010DB6FBF3F02B
:100DD00003FB1063303301F8013D521EEED101F1E7
:100DE0000806083C012CD0DA0DF11100301A0DF183
:100DF00011079DF81110302906D1401EA8F10108F5
:100E000017F8011F3029F8D09DF80010662904BF9B
:100E10000FFA88F808F1010103D065290CBF012100
:100E200000216A6B8E1836B2B042B8BF06B2002EEF
:100E30001ED4864204DAF05D352828BF392000D25E
:100E400030203146CA19521E01E0761E36B2491EC4
:100E500012F801398342F8D0392802D1C85D401C0C
:100E6000C855002904D57F1E761C36B208F101084A
:100E70000FFA88F0009033463A469DF8381028461D
:100E800000F008F80FB0BDE8F08F00006E616E0052
:100E9000B42800082DE9F04786B006468A469046F9
:100EA0001C46BDF9385001F0C3FC406A90F8009030
:100EB000776B012CBCBF01240FF230284AF02000D0
:100EC000662807D067287AD16FF003018D427CDB5A
:100ED000BD427ADA6D1C66280AD096F83C000007FD
:100EE00002D4BC42B8BF27462DB27F1B48BF0027A3
:100EF0003069F1692DB2012D21DA4A1C30230B54DF
:100F0000012F03DA96F83C10090702D502F8009089
:100F1000521CF261EF42B8BF7D422DB26942B1620C
:100F2000EF19A742B8BF3C4624B23462224641467C
:100F3000F369181801F0D4F9381BF062BFE0081803
:100F4000AC4216DA2246414601F0CAF9F16961184D
:100F5000F161281BB062012F03DA96F83C0000070C
:100F600005D5306901F80090306A401C3062F762A4
:100F7000A5E02A46414601F0B3F9F0692818F0616E
:100F8000641B012F03DA96F83C10090704D5411CB5
:100F9000F161316900F8019024B2A742B8BF3C4624
:100FA00024B2224605EB0801F0693369C01801F04C
:100FB00097F9F0692018F061381BB0627FE0BAF150
:100FC000610F14D14FF0700A16E0BC4204DA96F8B3
:100FD0003C10090758BF27467F1E48BF0027BAF1BB
:100FE000670F14BF4FF0450A4FF0650A04E0BAF1ED
:100FF000410F08BF4FF0500AF1694A1C306918F8D8
:10100000013B0B54012F03DA96F83C10090702D577
:1010100002F80090521CF261012F10DB641E24B212
:10102000A742B8BF3C4624B222464146F36918188D
:1010300001F056F9F0692018F061381BB062F069D0
:10104000316900EB010808F801AB002D5CBF2B20D3
:1010500008F8010B03D52D2008F8010B6D42002480
:1010600002AF2DB2012D0EDB0A22294600A801F0A5
:101070002CFC019807F8010B009D641C2DB2012D7A
:10108000F2DA022C06DA4AF02000652804BF30208C
:1010900008F8010B1CB9302008F8010B09E0012CFD
:1010A00007DB641E02A8205C303008F8010B012C1D
:1010B000F7DAF06931694018A8EB0000306296F861
:1010C0003C0000F0140010280DD1B069F169081837
:1010D000B16A0818316A0818F16A0818B16B8842B9
:1010E000BCBF081A706206B0BDE8F087300000008F
:1010F000FC280008A0860100000024400000F03F0A
:1011000084D79741F8B504460D46164600208EB1A7
:101110004FF0FF3705E0206B401C20630020761E57
:1011200008D015F8011BE068A2689047E06000282D
:10113000F1D13846F2BD000001B402E00098401E33
:10114000009000980028F9D101B0704780B5DFF811
:101150007403FFF7F1FF01BD80B5DFF86C03FFF703
:10116000EBFF01BDC905C90D818070478088C005AE
:10117000C00D704700220088084201D0012200E023
:1011800000221000C0B27047F0B40025D04A0023FE
:101190000024068A35004CF6FF763540CE8835436C
:1011A000058285894EF6F31635408E880F893E43B9
:1011B0004F893E4335438581858A4FF6FF4635404A
:1011C0008E893543858219256A4309688900B2FBF7
:1011D000F1F10B006421B3FBF1F10D012909642247
:1011E00002FB11310C00210132316422B1FBF2F11A
:1011F00011F00F010D430581F0BC704700B585B0BB
:101200005FF4E13000900020ADF804000020ADF85C
:1012100006000020ADF808000020ADF80C000C20FE
:10122000ADF80A0000A9A948FFF7AEFFA948008859
:1012300050F40050A749088005B000BDF0B400226A
:101240000026002400250023002791F803C01CF08D
:101250000F0C624691F803C05FEACC6C01D58B7825
:101260001A430B781B0621D00368002406E0CD78D2
:10127000482D02D10125A5400561641C082C14D21B
:101280000125A5400E882E40AE42F6D1A5000F26BE
:1012900016FA05F7BB4312FA05F52B43CD78282D36
:1012A000E5D10125A5404561E7E703600B884FF4D0
:1012B0008074A34226D34368002420E0012514F162
:1012C0000806B5400E882E40AE4217D1A5000F2665
:1012D00016FA05F7BB4312FA05F52B43CD78282DF6
:1012E00004D1012514F10806B5404561CD78482D9B
:1012F00004D1012514F10806B5400561641C082CD1
:10130000DCD34360F0BC704780B54FF40070ADF89B
:10131000000003208DF8020018208DF8030000A9BA
:101320006D48FFF78BFF4FF48060ADF8000004209C
:101330008DF8030000A96848FFF780FF0120ADF891
:10134000000004208DF8030000A96348FFF776FF32
:101350000220ADF8000004208DF8030000A95E48CB
:10136000FFF76CFF4FF44870ADF8000003208DF8D4
:10137000020010208DF8030000A95848FFF75EFF17
:1013800001BD10B504000A2C0ED10D214F48FFF706
:10139000E9FE80214D48FFF7EDFE0028F9D00A2133
:1013A0004A48FFF7DFFE05E02100C9B289B247488D
:1013B000FFF7D8FE80214548FFF7DCFE0028F9D072
:1013C000200010BD38B5040020212000FFF7D2FE18
:1013D0000028F9D02000FFF7C9FE0500EDB2290072
:1013E00089B22000FFF7BEFE80212000FFF7C2FE79
:1013F0000028F9D0EDB20D2D01D10A2001E028001E
:10140000C0B232BD80B53648018889B2354801F096
:101410005BF901BD10B53448006850F00400324952
:1014200008603148006850F008002F4908602E48D5
:10143000006850F480402C490860FFF765FFFFF713
:10144000DDFE2A4801F040F9294801F03DF929481C
:1014500001F03AF9284801F037F9264801F034F94B
:10146000264801F031F9264801F02EF9254801F00F
:101470002BF9204801F028F9234801F025F91348F9
:10148000FFF7A0FF0400214801F01EF9E4B220009C
:10149000302806D0312807D032280BD0332806D088
:1014A0000AE0FFF7AFFF07E000F0E3FD04E000F023
:1014B0008DFF01E000F03AFBE4B2782CC1D10020AE
:1014C00010BD0000C44E0C00143B01000038014068
:1014D00000127A000C38014000080140000C014065
:1014E00008380140782700081810024090270008AB
:1014F0006C280008A8270008C02700087C280008DE
:101500008C2800081C280008D82800089C280008FF
:10151000F0B540F2FF7581EA030C0CF0004C15EABF
:1015200011541DBF15EA1357AC42AF42E5E0BC4170
:10153000C1F31301C3F31303801A994143F48013D9
:1015400004D2641E4000494180185941C90241EA51
:101550005051B1FBF3F603FB1611A2FB0675D7EB56
:10156000C020A94102D2761E80185941C90241EA21
:101570005051B1FBF3FE03FB1E11A2FB0E75D7EB1E
:10158000C020A94103D2AEF1010E80185941890251
:1015900041EA9051760546EA8E2EB1FBF3F603FB45
:1015A0001611A2FB0675D7EB8020A94102D2761E48
:1015B00080185941C90241EA50514EEA060EB1FB6A
:1015C000F3F603FB1611A2FB0675D7EBC020A94169
:1015D00002D2761E80185941C90241EA5051B1FB2E
:1015E000F3F703FB1711A2FB0735D3EBC020A9418A
:1015F00067F100070CBF004247F0010766F3D527EB
:101600004FEA1E31B80814F5806412DDBD0775F18C
:10161000004250EB0E5051EB045111F5801F5CBF9E
:1016200041EA0C01F0BD4CF07F6141F0E041002047
:10163000F0BDBD076D0840EA0E5041F48011D4F1B1
:101640000104B4F120060ADAC4F120060200E040E9
:1016500001FA06F3E1401843B24015430EE0342C82
:1016600013DCC6F1200445EA40056D0820FA06F2B5
:10167000154321FA06F0A1400D43002175F1004207
:1016800050F1000051EB0C01F0BD00205FEA0C01AD
:10169000F0BDCFB992185B41B3FA83F704BFB2FA39
:1016A00082F6BF190B3FB7F120062FBF02FA06F3EF
:1016B000BB40C7F1200622FA06F638BF3343BA40D2
:1016C0001CB1E419641E33E77F4231F00041B1FAE6
:1016D00081F404BFB0FA80F6A4190B3CB4F12006E3
:1016E0002FBF00FA06F1A140C4F1200620FA06F649
:1016F00038BF3143A0403C1B1AE7AC421ABF05EA91
:101700001357AF4212E050EA41061CBF52EA4306AB
:10171000BFE750EA4107304661461CBF41EA055128
:10172000F0BD52EA430C08BFC143F0BD00204FF4A6
:10173000001616EB410F98BF16EB430F08BF16EBD0
:10174000410F24BFC14305E016EB430F0CBF6146B8
:101750004CEA0551F0BD0000B0B581EA030C0CF075
:10176000004C40F2FF7515EA11541DBF15EA1357DE
:10177000AC42AF423AE0E41923EA455343F4801304
:10178000C90241F0004141EA50574FEAC02E110012
:10179000AEFB020200284FF00000E7FB01204FF0F3
:1017A0000001E3FB0E2118BF42F0010240180021A6
:1017B0004941E3FB0701A4F580640F0302D2520004
:1017C0004041494154F101046BDD470872F1004288
:1017D00050F1000051EB0451A1F580115CBF41EACA
:1017E0000C01B0BD4CEA05510020B0BD05EA13570D
:1017F000AC4214BFAF4240E050EA410E1CBF52EA77
:10180000430E02E061460020B0BD24423C441AD1A0
:101810003F42F7D0090302BF01460020143FB1FA4E
:1018200081FEA7EB0E0401FA0EF70EF10C0ECEF1BD
:10183000200100FA0EFEC84047EA000723EA45539C
:1018400043F48013A3E733F00043B3FA83F704BFF4
:10185000B2FA82FE77440B3FE41BB7F1200E2FBF94
:1018600002FA0EF3BB40C7F1200E22FA0EFE38BF7B
:1018700043EA0E03BA40641C82E750EA410E14BFEB
:1018800052EA430E6FF000014FF4001717EB430FBD
:101890008ABF194617EB410FB6E74CEA0551002005
:1018A000B0BDD4F10104B4F120070FDAC4F1200770
:1018B000520828BF42F0010210FA07F501FA07F7B3
:1018C000E1BF2A43E0403843E1400FE0352C99DC8A
:1018D000C7F1200452EA400220FA07F218BF42F092
:1018E000010231FA07F0A1400A43002172F10042DF
:1018F00050F1000051EB0C01B0BD000070B44FF08E
:10190000004591EA030F44BF6B4000F08CBA841A83
:1019100071EB030604D26E40001BB14112197341F2
:101920004FF4001C1CEB410F34BF7CEB430684E0FA
:101930000C0DA4EB1356362E7DDC012E43DC45EA5C
:10194000C32343EA525312BFD20292025B0824051A
:1019500045EAC12141EA5051D2EBC020994125D43A
:1019600007D1B0FA80F610FA06F164D000202036D4
:1019700008E0B1FA81F6B140C6F1200220FA02F285
:101980001143B0404FEAF474B4EB465434F001060E
:101990004FEA74040AD8D6F50016760D04F0004418
:1019A000F04061FA06F25040F1404840C00A40EA77
:1019B000415021F0004128BF5FEA500550F100007E
:1019C00044EBD12137E045EAC323DB0A45EAC121D4
:1019D000C90AB6F120050EDD42EA0242120CC5F139
:1019E000200603FA06F6EB4042EA06056D429841EE
:1019F00061F100010DE062FA06F5F240554063FA2C
:101A000006FC82EA0C02F3405A406D42904161EBC1
:101A1000030111F4801F05D1641E620502D06D0020
:101A20004041494121F48011430875F1004350F1D0
:101A3000000041EB045170BC70471CEB410F15D204
:101A400023F0004352EA43060BD04FEA4C0CBCEBA8
:101A5000410F04D80C0D661E342EB7DDEBE7801A5B
:101A6000994150EA410608BF0021E4E708BF1CEB9A
:101A7000430F28BF6FF00001DDE700005348006806
:101A80004FF4807108435149086070474F49096815
:101A900080B208434D49086070474D49096880B2DB
:101AA00008434B490860704780B5FF20FFF7F5FFFA
:101AB00001BD10B50400FFF7F7FF002C0ED0022C7B
:101AC00014D00FD3042C19D014D3062C1ED019D344
:101AD000082C23D01ED3092C24D026E03F20FFF76A
:101AE000D5FF22E00620FFF7D1FF1EE09B20FFF785
:101AF000CDFF1AE08F20FFF7C9FF16E0A620FFF701
:101B0000C5FF12E0AD20FFF7C1FF0EE0BD20FFF7DB
:101B1000BDFF0AE02720FFF7B9FF06E0BF20FFF76F
:101B2000B5FF02E0AF20FFF7B1FF10BD10B582B0E6
:101B30002848006850F010002649086040F2FF1065
:101B4000ADF8000003208DF8020010208DF803008E
:101B500000A92148FFF772FBFFF790FFFFF7F6FAA5
:101B6000FFF7A2FF0120FFF791FFFFF7EFFA022036
:101B7000FFF78CFFFFF7EAFA0420FFF787FFFFF774
:101B8000E5FA0820FFF782FFFFF7E0FA1020FFF7E1
:101B90007DFFFFF7DBFA2020FFF778FFFFF7D6FA8B
:101BA0008020FFF773FFFFF7D1FA4020FFF76EFFA9
:101BB000FFF7CCFA002405E02000FFF77AFFFFF7DB
:101BC000C5FA641C0A2CF7DB13BD00001410014099
:101BD00010100140181002400010014013F0004C9A
:101BE00003D55B42524263F100039CEA210C15D1FC
:101BF0001B4229D109424CD12AB18446B0FBF2F0F4
:101C000002FB10C2704700F099BEFCD300220023F3
:101C100070470B00020000210020704710B5644699
:101C200003D34942404261F10001FFF7E1FF640044
:101C300004D34942404261F10001244203D55B4292
:101C4000524263F1000310BD904271EB030CE0D3EC
:101C500070B5B1FA81F4B3FA83F52C1BA340C4F13B
:101C6000200532FA05F63343A2405FF00046E64015
:101C700002E05B085FEA3202841A71EB030524BFBD
:101C8000204629467641F4D302000B0030000021A3
:101C900070BD012AB9D970B5140C20D0B1FA81F405
:101CA000B2FA82F5C4F120046419B4F12006D6D347
:101CB000B2405FF00044F440002502E052085FEAC1
:101CC0003303C61A71EB020E24BF304671466441DD
:101CD0006D41F3D302000B002000290070BD0C46BB
:101CE000B1FBF2F102FB11452D0445EA1045B5FBAD
:101CF000F2F402FB145580B240EA0545B5FBF2F060
:101D000002FB105240EA044070BD000070B504466A
:101D10000D46E088C0F30A1040F2FF76B04210D1C1
:101D2000A0790F21084208D1A088002805D1608839
:101D3000002802D12088002801D0022070BD012097
:101D400070BD30B9204600F0D8F8012801DB002032
:101D500070BD4519B54209DBE088000447BF00208B
:101D60002A4900202A49C4E90001E8E7012DE0885A
:101D700005DB48F20F01084040EA051041E000F49D
:101D80000040A17901F00F0141F01001E1806D1ECA
:101D900015F1340F05DAE0800020A08060802080FB
:101DA00070BD2DB26FF00E018D420BDA6288228079
:101DB000A2886280E288A2800022E28010352DB2E3
:101DC0008D42F3DB694209B20A0018D0C1F110025A
:101DD00023880B41658895402B43238063880B4102
:101DE000A58895402B436380A3880B41E58805FABD
:101DF00002F21A43A280E28822FA01F1E180E1882E
:101E00000843E0804FF0FF3070BD00BF0000F0FFDE
:101E10000000F07F70B44FF0004591EA030C44BF1E
:101E20006B40FFF774BD841A71EB030603D2001BED
:101E3000B141121973414FF4001C1CEB410F34BF28
:101E40007CEB430443E00C0DA4EB1356352E50DC21
:101E500045EAC323DB0A45EAC121C912B6F12005D0
:101E60000DDD63FA05F6EB4086EA0305124218BF62
:101E700045F00105C01851F100010CD213E062FADF
:101E800006F5F2405540F3415A40B340F3405A4002
:101E90008018594107D349085FEA30005FEA3505E9
:101EA00028BF45F0010501F58011420875F1004297
:101EB00050F1000041EB045170BC4FF4001C1CEBCE
:101EC000410F38BF70470020090D090570471CEB12
:101ED000410F10D252EA43060BD0BCEB410F05D89C
:101EE0000C0DAB43661E342EB5DD02E0AB4380180B
:101EF000594170BC704770BC704770B4C18801F420
:101F000000420121837913F00F03C38012D183882B
:101F100023B9438813B90388002B4BD08388C3802F
:101F2000448884800488448000240480103909B2E5
:101F3000002BF3D0C388102B16D28388C488DD0B06
:101F400045EA4404C4804588EE0B46EA4303838097
:101F50000388DE0B46EA450545805B000380491E89
:101F600009B2A4B2102CE8D3C388202B1ED3038857
:101F70004488C4F30004E40344EA53030380438821
:101F80008488C4F30004E40344EA53034380838851
:101F9000C488C4F30004E40344EA53038380C38881
:101FA0005B08C380491C09B2202BE0D2837903F07F
:101FB0000F03C380C3881A43C280084670BC7047B1
:101FC000164800684FF400710843144908607047D0
:101FD000134800684FF400710843114908607047C6
:101FE0000E48006850F020000C49086070470C480B
:101FF000006850F020000A490860704707480068F0
:102000004FF4807108430549086070470448006830
:102010004FF480710843024908607047140C014076
:10202000100C014080B5FFF7D3FFFFF7E0FFFFF78B
:10203000EDFF01BD10B5040018E0FFF7C9FFFFF781
:10204000CFFFFFF7DBFFFFF781F8FFF7B9FFFFF7DF
:10205000CEFFFFF7D3FFFFF779F8FFF7B1FFFFF7E8
:10206000BFFFFFF7D3FFFFF771F8641E002CE4D128
:1020700010BD80B51E20FFF7DDFF01BD70B5054620
:1020800005F10F00C408E400012000F0F8F8A542B3
:1020900004D3012000F016F9002070BD082C04D2F2
:1020A000082402E0083000F093F8224D286801006F
:1020B0000CD1291D00E0011D0868A0B10268A242F0
:1020C000F9D315E01368A34212D2111D0A68002A41
:1020D000F8D10068291D03E01368A34208D2111D3E
:1020E0000A688242F8D100F0C5FA0028DAD100214E
:1020F0000029CED00E6830680838A0423CBF706816
:10210000086008D3A0190860726842603068001B3C
:102110000A6810603460086818B1416809B1001D90
:1021200000E000202860012000F0CCF806F1080053
:1021300070BD00004C090020F0B500F108010268F4
:1021400001EBC202406802EBC000002300241D46E0
:1021500001260CE013F8017BF44506D00CF8017B56
:102160006D1C2DB2002DF7D40126F44509D1824211
:1021700000D1F0BD52F804CB52F8047B07EB0C0EF3
:10218000F3E7A34206D151F8043B51F8044BE4189D
:10219000A342F8D05EB113F9015B0026A34206D139
:1021A00051F8043B51F8044BE418A342F8D0002D39
:1021B000D0D4002DD8D4F44518BFA3421FBF13F8C4
:1021C000017B0CF8017B6D1E2DB2F2D1CDE7000032
:1021D00010B5F0B1A0F108042068082819D3072130
:1021E000084216D1012000F04AF81A48416809B1A6
:1021F0008C4203D2616044601BE019464B680BB10E
:10220000A342FAD30A6853189C4203D2012000F07B
:1022100059F810BDA34204D123689A180A600C46ED
:1022200007E04A681AB123681B199A42EED362602C
:102230004C6061680029E9D0226812198A42E5D110
:1022400000210160606821680268511821604068BF
:102250006060DBE74C09002010B51F4C201D00F02A
:1022600088F904F1080000F084F904F10C0000F092
:1022700080F904F11000BDE8104000F07AB938B5DB
:102280000446154D286898B9281D00F06BF905F132
:10229000080000F067F905F10C0000F063F905F1A2
:1022A000100000F05FF9002200210C4800F050F807
:1022B00001202860042C04D205EB8400001D00F0EE
:1022C0005FF931BD80B5042805D2034901EB8000D8
:1022D000001D00F05CF901BD3809002059220008FA
:1022E0004AB38B0707D011F8013B00F8013B521E9F
:1022F00021D08B07F7D183071ED1103A07D330B412
:10230000B1E83810103AA0E83810F9D230BC5307C1
:1023100024BFB1E80810A0E8081044BF51F8043BFE
:1023200040F8043BD20724BF31F8022B20F8022BDF
:1023300044BF0B7803707047083A07D3B1E8081020
:10234000083A40F8043B40F804CBF7D25307E4E7DF
:1023500030B4164B1C68164DAC4203D204F20C0587
:102360001D600CB9012003E021606060A2600020C4
:1023700030BC70470020F8B50C4C25682E0014D0F6
:102380000C4F00E08847BE420FD0206885421CBF3A
:10239000064605460C3E71680800F4D000207060C7
:1023A00030680028EED18847EDE7F1BDE408002051
:1023B000D40700200006002000228068084201D0D7
:1023C000012200E000221000C0B2704710B50024C6
:1023D000FFF728FE01E0FFF703FEFEF7BDFE200039
:1023E000441CC00702D4FFF709FE01E0FFF70EFE10
:1023F00001210948FFF7E0FF012802D1FFF7E0FDC6
:1024000001E0FFF7E5FD02210348FFF7D5FF0128B2
:10241000E1D0FFF7ECFDE0E700080140C9B2830717
:1024200006D0521E22D310F8013B9942F7D11FE08B
:10243000083A13D302F1040241EA012141EA0141C1
:1024400050F8043B121F21BF4B40A3F1013C2CEA82
:10245000030C1CF0803FF3D0C9B2001F083210F803
:10246000013B521E28BF91EA030FF8D818BF012084
:10247000401E7047F446400D40EAC120490006D294
:1024800000F013F8004248BF6FF00040604700F0D2
:102490000CF84FF0004188428CBF0846404260472C
:1024A000400D40EAC12049000CD240F00040490DE7
:1024B000A1F58061491C05D4D1F11F0154BFC8406A
:1024C000C01770474FF000007047000030B430B9BB
:1024D0001048D0E90045C2E90045002001E0017044
:1024E000012030BC704730B431B90B48D0E9004509
:1024F000C3E9004500200BE012B96FF0010007E0CE
:1025000008B10A7802800978481E8041C043C00F94
:1025100030BC7047142900081C290008182A00083C
:10252000182A0008182A0008182A0008182A000883
:10253000182A0008182A0008FFFFFFFFFFFFFFFF0F
:10254000142A0008182A0008182A0008182A000867
:10255000182A0008242900082C290008182A000835
:10256000182A000880B50D4909680A0018BF884775
:1025700001BD80B50A4909680A0018BF884701BD36
:1025800080B5084909680A0018BF884701BD80B5B1
:10259000054909680A0018BF884701BD580900208D
:1025A0005C090020600900206409002000F101039B
:1025B000810704D010F8011B89B18107FAD10268A4
:1025C000B2F10131914311F0803F04BF50F8042F64
:1025D000F6E710F8011B11B110F8011BFBE7C01A58
:1025E000704700004FF4001C1CEB410F94BF1CEB24
:1025F000430F09E041EA030C50EA4C0C52EA0C0C80
:1026000003D2994208BF9042704714BF8B42824266
:10261000704700004FF4001C1CEB410F94BF1CEBF3
:10262000430F09E041EA030C50EA4C0C52EA0C0C4F
:1026300003D28B4208BF8242704714BF9942904236
:1026400070470000010040F10880F446404200F06D
:1026500004F851F000416047010009D0B0FA80F160
:102660008840C91CC1F58461090501EBD0214005F2
:102670007047000006490868002801D00020704714
:10268000044808600449C908C900091A0160704774
:102690005409002000040020000600205F270008E5
:1026A00084000000E8080020000000003921000834
:1026B0000100000001000000192A0008810000004C
:1026C000D4070020140100000EB400B582B003A9A5
:1026D000009100AB024601210248FDF707FD06BC50
:1026E0005DF810FB0728000810B50548054CA0420E
:1026F00004D050F8041B8847A042FAD110BD00BF97
:102700009C260008C8260008F8B504460D46164663
:102710001F4600F0A1F83B4632462946204601B04C
:10272000BDE8F040FFF7DFBE00B5054A106800289D
:1027300004D011000220ABBE0020106000BD0000DC
:102740006809002070B504460D46164600F084F86E
:10275000324629462046BDE87040FFF7B7BE002349
:1027600005E050F8041B41F8043B121FFBD150F860
:10277000042B002AF5D170475553415254312D3E58
:10278000425252203A203078253038580A00000052
:102790000A2D2D2D2D2D2D2D2D2D2D2D2D2D2D2D8C
:1027A0002D2D2D2D2D2D0A002D2D2D2D2D2D2D2DA9
:1027B0002D2D2D2D2D2D2D2D2D2D2D2D2D0A0000C6
:1027C000303E2053797374656D20496E666F726D6B
:1027D0006174696F6E0A000000F019F9002801D0D9
:1027E000FFF782FF0020FEF715FE00F0A3F80000BF
:1027F0000278C9B28A421AB11CBF10F8012FF9E75A
:1028000018BF0020704738B504460D46284600F032
:1028100069F8A84218BF0024204632BD333E203755
:102820002D5365676D656E7420546573740A0000DE
:1028300010B5034C2068010018BF8047201D10BD53
:102840005808002080B5FFF76FFF024A11001820DA
:10285000ABBEFBE72600020010B5034CE06A0100A6
:1028600018BF8047A06910BDD4070020507265735F
:1028700073206D656E75206B65790A00313E204CC2
:10288000454420546573740A00000000323E204B1A
:10289000455920546573740A0000000020697320B4
:1028A00073656C65637465640A0A000000000000CB
:1028B00000000000686A6C747A4C00000746FFF75D
:1028C00059FD3846FFF7BEFFFBE791FBF2F303FB30
:1028D0001211C0E900317047783E20717569740AA1
:1028E0000A0000000149FEF74CBD00BFA40800200B
:1028F00080B5FFF7B1FF012002BD0000000000001D
:102900000000000066616C736500000074727565FC
:1029100000000000000000000000000000000000B7
:102920000000000066616C736500000074727565DC
:102930000000000080B5FFF7C1BF00007047FFF73F
:10294000FEBFFFF7FEBFFFF7FEBFFFF7FEBFFFF7BB
:10295000FEBFFFF7FEBFFFF7FEBFFFF7FEBFFFF7AB
:10296000FEBFFFF7FEBFFFF7FEBFFFF7FEBFFFF79B
:10297000FEBFFFF7FEBFFFF7FEBFFFF7FEBFFFF78B
:10298000FEBFFFF7FEBFFFF7FEBFFFF7FEBFFFF77B
:10299000FEBFFFF7FEBFFFF7FEBFFFF7FEBFFFF76B
:1029A000FEBFFFF7FEBFFFF7FEBFFFF7FEBFFFF75B
:1029B000FEBFFFF7FEBFFFF7FEBFFFF7FEBFFFF74B
:1029C000FEBFFFF7FEBFFFF7FEBFFFF7FEBFFFF73B
:1029D000FEBFFFF7FEBFFFF7FEBFFFF7FEBFFFF72B
:1029E000FEBFFFF7FEBFFFF7FEBFFFF7FEBFFFF71B
:1029F000FEBFFFF7FEBFFFF7FEBFFFF7FEBFFFF70B
:102A0000FEBFFFF7FEBFFFF7FEBFFFF7FEBF0120CF
:102A100070472E002E00000000E40003172A000873
:102A2000FC0003172A0008F800031C250008AC006E
:102A30001B162A0008162A0008162A0008162A0063
:102A400008162A0008162A0008162A0008F8FF436C
:102A5000122A0008162A0008162A0008162A00085A
:102A6000162A0008042900080C290008162A000864
:102A7000162A000802040101E80800203809002095
:102A8000E8080020E8080020E8080020E10800200D
:0A2A9000C8080020DF000206002045
:04000005080027D9EF
:00000001FF
