:020000040800F2
:1000000000040020F12500083327000835270008E8
:1000100037270008392700083B27000800000000A8
:100020000000000000000000000000003D27000864
:100030003F27000800000000412700084327000870
:100040004527000847270008492700084B270008D4
:100050004D2700084F2700085127000853270008A4
:100060005527000857270008592700085B27000874
:100070005D2700085F270008612700086327000844
:100080006527000867270008692700086B27000814
:100090006D2700086F2700087127000873270008E4
:1000A0007527000877270008792700087B270008B4
:1000B0007D2700087F270008812700088327000884
:1000C0008527000887270008892700088B27000854
:1000D0008D2700088F270008912700089327000824
:0C00E000952700089727000899270008C2
:1000EC002DE9F04FA5B016001C00DFF83426D2E93C
:1000FC000023CDE91223049004AD69600020A862AE
:10010C000DF150096FF0004B00E0BE190020ADF866
:10011C00020012AB4FF0FF3231000DF1020002F081
:10012C0027FA0700012804DA3078471EBF41FF4345
:10013C00FF0FBDF80200252801D17A1E00E03A001D
:10014C00012A0ADB310002A801F04AF8002804D584
:10015C004FF0FF3025B0BDE8F08FBDF80200252828
:10016C0007D1002028616861A861E8612862686293
:10017C0005E00028C9D1A86AECE740F0010016F8A8
:10018C00011F2029F9D023290DD02B2904D02D298A
:10019C0006D030290BD00DE040F0020080B2EEE723
:1001AC0040F00400FAE740F0080080B2E7E740F0C6
:1001BC001000F3E72A290DD12268111D2160116866
:1001CC002963002904D54A422A6340F0040080B216
:1001DC00761C10E0002129630A2307E0296B59459E
:1001EC0003D001FB032130392963761C3278302A85
:1001FC0001D33A2AF2D331782E2903D04FF0FF31B4
:10020C00E9621BE016F8011F2A2906D12268111D8C
:10021C0021601168E962761C10E00021E9620A2372
:10022C0007E0E96A594503D001FB03213039E96243
:10023C00761C3278302A01D33A2AF2D3A886317848
:10024C00DFF8E00402F0DAF908B116F8010B8DF8CA
:10025C0046009DF84600682806D1307868280CD1F5
:10026C0062208DF8460007E06C2806D130786C28A7
:10027C0003D171208DF84600761C14A8E86096F81E
:10028C0000C06046413800F0F080001F022840F2A8
:10029C00EC80133800F0A080093800F0E680801E56
:1002AC001AD0401E3DD0401E022840F2DE80001FB6
:1002BC0037D0401F00F01B81401E00F08D80401E87
:1002CC0000F05481C01E00F05F81801E00F084801D
:1002DC00C01E00F0818079E19DF846006C2809D0A1
:1002EC002869411C29612268111D2160116800F8E0
:1002FC00091075E12168081D2060086880B2ADF80E
:10030C0004000020ADF806004FF0FF30E86201A9B0
:10031C0002A800F009FA002840F162814FF0FF308A
:10032C005FE19DF846006C281BD071280BD120682A
:10033C00C01D072188432060014601F108002060A0
:10034C00D1E9002312E06A280BD12068C01D0721D7
:10035C0088432060014601F108002060D1E90023A8
:10036C0004E02168081D20600A68D3179DF8460038
:10037C00682801D112B207E0622801D152B203E021
:10038C00742801D07A2800D1D317002B06DC00DBAF
:10039C0004D228692D2100F809100FE0A88E10F066
:1003AC00020F04D028692B2100F8091006E010F088
:1003BC00010F06D02869202100F809102869401C7B
:1003CC002861286914A94018A860CDE90223614668
:1003DC0002A800F01BFB03E19DF846006C281BD023
:1003EC0071280BD12068C01D07218843206001466D
:1003FC0001F108002060D1E9002312E06A280BD13A
:10040C002068C01D072188432060014601F10800C7
:10041C002060D1E9002304E02168081D20600A68EF
:10042C0000239DF84600682801D192B207E06228AB
:10043C0001D1D2B203E0742801D07A2800D1002374
:10044C00A88E10F0080FBCD00BB9002AB9D04CF014
:10045C0020007828B5D12869302100F809102869C6
:10046C00401C286100F809C0A8E79DF846004C28FC
:10047C0020680AD1C01D072188432060014601F184
:10048C0008002060D1E9000109E0C01D0721884364
:10049C002060014601F108002060D1E90001CDE99E
:1004AC000201BDF80E0010F4004F04D028692D2174
:1004BC0000F809100FE0A88E10F0020F04D0286984
:1004CC002B2100F8091006E010F0010F06D0286966
:1004DC00202100F809102869401C2861286914A9FA
:1004EC004018A860614602A800F02AFB78E09DF84D
:1004FC00460062280CD068282AD06A2818D06C28AC
:10050C001FD071280BD074281BD07A2819D026E064
:10051C00A86A2268111D21601168087060E0A86A41
:10052C00C11723681A1D22601A68C2E9000157E03E
:10053C00A86AC11723681A1D22601A68C2E9000153
:10054C004EE02168081D20600868A96A016047E038
:10055C00A86A2268111D21601168088040E021689A
:10056C00081D20600868A96A016039E02168081D2F
:10057C0020600A6814A8A8604FF0FF3000211040DA
:10058C00CDE90201782123E79DF846006C2821680B
:10059C0013D0081D20600868A860EA6A002A02D5FA
:1005AC0001F00AFF07E0002101F03CFE10B1A96840
:1005BC00401A00E0E86A686112E0081D20600968D2
:1005CC0002A800F0B1F800280AD5A7E62869411C5A
:1005DC002961BCF1000F08BF4FF0250C00F809C0D1
:1005EC000020761C00287FF4B3AD286B2969401AD3
:1005FC00E969401A6969401A296A401AA969401ABE
:10060C00696A471AA88E10F0040F12D120208DF8B9
:10061C0000004FF00008012F0BDB012200A902A8FB
:10062C0000F0DEFD00287FF493AD08F10108B84519
:10063C00F3DB2A6914A902A800F0D2FD00287FF48C
:10064C0087AD30208DF80000D5F81CA04FF00008C5
:10065C00BAF1010F0BDB012200A902A800F0C0FDCA
:10066C0000287FF475AD08F10108D045F3DB6A6909
:10067C00A96802A800F0B4FD00287FF469AD302011
:10068C008DF80000D5F820A04FF00008BAF1010F4A
:10069C000BDB012200A902A800F0A2FD00287FF4C8
:1006AC0057AD08F10108D045F3DBAA696869A96860
:1006BC00411802A800F094FD00287FF449AD3020C9
:1006CC008DF80000D5F824A04FF00008BAF1010F06
:1006DC000BDB012200A902A800F082FD00287FF4A8
:1006EC0037AD08F10108D045F3DBA88E10F0040FEC
:1006FC003FF40CAD20208DF800004FF00008012FC6
:10070C00FFF604AD012200A902A800F069FD002843
:10071C007FF41EAD08F10108B845BFF6F7ACF1E760
:10072C00B4260008BC2600082DE9F04F95B0050052
:10073C008B466E6B002E48BF6FF0004601F0CAFF6F
:10074C00A96B40180190B048D0E90001CDE9030134
:10075C00A88F10F0040F02D10198412806D20DF198
:10076C001409402001900020029009E001F0C0FB28
:10077C008146B9F1000FF6D14FF0FF3041E1361B45
:10078C00012EC0F2B88003AABBF800100DF10100D5
:10079C0001F00CFF040004D4BBF8000028B9641E5F
:1007AC0003D54FF0FF300290A5E0A642C0F2A38023
:1007BC00A86901992218914280F08E800021A963CA
:1007CC004142686A081AE969401AA96A401A296AFA
:1007DC00401AE96A471AA88F10F0040F11D1202093
:1007EC008DF800004FF00008012F0ADB012200A950
:1007FC00280000F0F5FC00286CD108F10108B84580
:10080C00F4DBAA694946280000F0EAFC002861D113
:10081C0030208DF80000D5F824A04FF00008BAF174
:10082C00010F0ADB012200A9280000F0D9FC0028E6
:10083C0050D108F10108D045F4DBEA692969280098
:10084C0000F0CEFC002845D130208DF80000D5F802
:10085C0028A04FF00008BAF1010F0ADB012200A911
:10086C00280000F0BDFC002834D108F10108D04567
:10087C00F4DB2A6AE86929694118280000F0B0FC09
:10088C0040BB30208DF80000D5F82CA04FF00008AC
:10089C00BAF1010F09DB012200A9280000F0A0FC2D
:1008AC00C0B908F10108D045F5DBA88F10F0040F92
:1008BC0010D020208DF800004FF00008012F09DB2C
:1008CC00012200A9280000F08BFC18B908F10108DE
:1008DC00B845F5DB0020A86122000DF10101A869E3
:1008EC00484401F067FCA8692018A8613BF8020B8A
:1008FC0000287FF444AFA86BA969401A696A401AB2
:10090C00E969401AA96A401A296A401AE96A441A24
:10091C00A88F10F0040F0FD120208DF800000026B6
:10092C00012C09DB012200A9280000F059FC002849
:10093C005DD1761CA642F5DBAA694946280000F079
:10094C004FFC002853D130208DF800006E6A002730
:10095C00012E09DB012200A9280000F041FC00282F
:10096C0045D17F1CB742F5DBEA692969280000F004
:10097C0037FC00283BD130208DF80000AE6A0027F0
:10098C00012E09DB012200A9280000F029FC002817
:10099C002DD17F1CB742F5DB2A6AE8692969411819
:1009AC00280000F01DFC10BB30208DF80000EE6A12
:1009BC000027012E08DB012200A9280000F010FC02
:1009CC00A8B97F1CB742F6DBA88F10F0040F0ED02D
:1009DC0020208DF800000026012C08DB012200A944
:1009EC00280000F0FDFB10B9761CA642F6DB0020B7
:1009FC00A861A86305A881451CBF484601F01CFBF3
:100A0C00029815B0BDE8F08FEC2600082DE9FA47E6
:100A1C0086B08046D8F8140000909DF818006F2816
:100A2C0002D14FF0080907E040F0200078280CBFF5
:100A3C004FF010094FF00A093C24D8E900010600D8
:100A4C000F009DF81820642A01D0692A09D10029C9
:100A5C0007DC00DB05D200200021801BB941060019
:100A6C000F001FB916B9D8F8340050B3651E2C000E
:100A7C004FEAE97ACDE9029A30003900DDE9022328
:100A8C0001F0F2F9CDE90401B246DDE90423DDE918
:100A9C000201A2FB00675046801B3030C0B23A28DE
:100AAC0003D39DF818105139081800996854DDE9E2
:100ABC00046707B92EB1D8F8100000996118884264
:100ACC00D4D3B9F1080F0CD1B8F83C0010F0080FD2
:100ADC0007D00098205C302803D0641E0098302189
:100AEC002154C4F13C00C8F81C0000996118C8F8E6
:100AFC001010D8F8341088420ADA081AC8F8240002
:100B0C00B8F83C004FF6EF710840A8F83C0014E030
:100B1C00002912D5B8F83C1001F0140110290CD1A1
:100B2C00D8F83810D8F81820891AD8F82420891A3F
:100B3C000C1A012CA8BFC8F8244008B0BDE8F087F7
:100B4C002DE9F24F8EB0060004AFD6E90001CDE9D5
:100B5C0000019DF8380040F020008DF80800612855
:100B6C000BD0706B002801D5062005E005D19DF84F
:100B7C000800672801D101207063F18847F6F070F6
:100B8C000840001140F2FF7290421CD111F00F0F7F
:100B9C0005D1B08818B9708808B9308848B10320DD
:100BAC00F0619DF83800612835D37B2833D2D5A16C
:100BBC0032E00320F0619DF83800612831D37B28A6
:100BCC002FD2D1A128E0012804DA300001F0BAF8C4
:100BDC0001281DDAF18848F20F02114043F6E07249
:100BEC001143F180A0F2FE354FF0FF309DF8081054
:100BFC0061291DD13269511C31613021117031696B
:100C0C004A1C32619DF83820612A0CD178220BE005
:100C1C0000250020EAE7CFA10322306901F0CAFACF
:100C2C0095E1CDA1F8E758220A70B169891CB16130
:100C3C0010B90024002580E19DF80800612840F0DF
:100C4C009980706B002801D5212401E0441C24B24A
:100C5C0004F10108D6E900ABDDE900010022002314
:100C6C0001F0E2FB2EBFCDE900AB8BF0004BCDE9E0
:100C7C0000AB2D1F00208DF810000DF11109B8F1FB
:100C8C00010F35DBDDE900010022002301F0E4FB5C
:100C9C002ED21C2100A800F051FFDDE9000101F06B
:100CAC00EDFA0700A8F10708B8F1010F09DB01F014
:100CBC00EBFB02000B00DDE9000100F07FFECDE94B
:100CCC00000109F107000721012F0ADB491E08D496
:100CDC0007F00F0200F8012D3F11F5E7002200F894
:100CEC00012D491EFAD500F10709B8F1010FC9DA37
:100CFC000DF11100A9EB00000DF11107A042B8BFD6
:100D0C0004B2002C2FD4844206DA04A820184078B0
:100D1C00082801D30F2000E00020210004AA8A1823
:100D2C0001E0641E24B2491E12F801398342F8D046
:100D3C000F2804D104A808184278521C42700029CC
:100D4C0003D504AF641C24B22D1D200009E0C15D45
:100D5C003031C9B23A2903D39DF838203A3A5118A8
:100D6C00C155401EF3D5706B002840F1E680601E23
:100D7C007063E2E0DDE900010022002301F054FB86
:100D8C003EBFDDE9000181F00041CDE900012DB24B
:100D9C0047F297506843714990FBF1F52DB2C5F1BC
:100DAC0007009046DFF8B89101281BDB0400DDE951
:100DBC0000AB14F0010F07D05046594642464B4643
:100DCC0000F02AFD82468B46641040464946424656
:100DDC004B4600F021FD80468946002CE9D1CDE937
:100DEC0000AB22E044429246DFF878B113E014F0F5
:100DFC00010F07D05046594642464B4600F00CFDB9
:100E0C0082468B4664104046494642464B4600F0AB
:100E1C0003FD80468946002CE9D1DDE900015246EC
:100E2C005B4600F0B5FBCDE900019DF80800662893
:100E3C0002D105F10A0000E00620716B4418142C55
:100E4C00A8BF132430208DF810000DF11107012CD0
:100E5C002DDBDFF8149111E0DDE9000101F024FA3B
:100E6C0001F01CFB02000B00DDE9000100F0A6FD07
:100E7C0000224B4600F0D0FCCDE90001DDE9000179
:100E8C0001F012FA07F1080108220A23B0FBF3FC67
:100E9C00E6460EFB1303DBB26046303301F8013D2E
:100EAC00521EF2D101F10807083C012CD4DA0DF1E5
:100EBC001100381A0DF111079DF81110302905D1C8
:100ECC00401E6D1E17F8011F3029F9D09DF808102F
:100EDC00662902D12DB2691C04E0652901D10121DA
:100EEC0000E00021726B8C1824B2A042B8BF04B28F
:100EFC00002C22D4844209DAE05D352806D339204F
:100F0C0005E000BF6E616E00696E66003020210046
:100F1C00CA19521E01E0641E24B2491E12F801398E
:100F2C008342F8D0392802D1C85D401CC85500292D
:100F3C0003D57F1E641C24B26D1C2DB220B523007A
:100F4C003A009DF84010300000F010F802B00FB0DD
:100F5C00BDE8F08F4E414E00494E4600A086010080
:100F6C00000024400000F03F84D797412DE9F04762
:100F7C0086B00400884615001E00BDF9387001F0DB
:100F8C0075FB406A90F800A0D4F83490012E01DA79
:100F9C00012692A548F0200066280AD0672840F068
:100FAC0086806FF003018F42C0F287804F4580F23C
:100FBC0084807F1C66280CD0A08F10F0080F02D103
:100FCC004E45B8BFB1463FB2B9EB070948BF4FF029
:100FDC0000092069E1693FB2012F25DA4A1C302350
:100FEC000B54B9F1010F03DAA18F11F0080F02D0E5
:100FFC0002F800A0521CE26179428945B8BFC9F1E0
:10100C0000073FB27942A162B944B145B8BF4E4620
:10101C0036B2266232002900E369181801F0CAF8CA
:10102C00A9EB0600E062C3E00818BE4218DA3200F1
:10103C00290001F0BFF8E1697118E161B81BA062E9
:10104C00B9F1010F03DAA08F10F0080F05D0206959
:10105C0001F800A0206A401C2062C4F82C90A7E084
:10106C003A00290001F0A6F8E0693818E061F61B97
:10107C00B9F1010F03DAA18F11F0080F04D0411C54
:10108C00E161216900F801A036B2B145B8BF4E4606
:10109C0036B232007919E0692369C01801F08AF878
:1010AC00E0693018E061A9EB0600A06280E0B8F1BD
:1010BC00610F16D14FF0700818E04E4504DAA18F7D
:1010CC0011F0080F08BFB146B9F1010948BF4FF044
:1010DC000009B8F1670F14BF4FF045084FF06508D1
:1010EC0004E0B8F1410F08BF4FF05008E1694A1C09
:1010FC00206915F8013B0B54B9F1010F03DAA18FEC
:10110C0011F0080F02D002F800A0521CE261B9F1F4
:10111C00010F11DB761E36B2B145B8BF4E4636B262
:10112C0032002900E369181801F044F8E06930181E
:10113C00E061A9EB0600A062E0692169451805F899
:10114C00018B002F03D42B2005F8010B04E02D207C
:10115C0005F8010B3800474200260DF1080909E09B
:10116C000A22390000A801F077FA019809F8010B5E
:10117C00009F761C3FB2012FF2DA022E06DA48F0FD
:10118C002000652802D1302005F8010B4EB9302023
:10119C0005F8010B07E0761E02A8305C303005F82C
:1011AC00010B012EF7DAE06921694018281A206238
:1011BC00A08F00F0140010280DD1A069E169081867
:1011CC00A16A0818216A0818E16A0818A16B8842FC
:1011DC0001DA081A606206B0BDE8F0873000000042
:1011EC00F8B505000E00140000208CB14FF0FF374D
:1011FC0005E0286B401C28630020641E08D016F8FC
:10120C00011BE868AA689047E8600028F1D1380013
:10121C00F2BD0000C905C90D818070470200002095
:10122C00128811400A0092B2521E9241D243D20F40
:10123C001000C0B27047000080B5C0B2010089B286
:10124C00BB48FFF7E7FF8021B948FFF7E7FF00280D
:10125C00F9D001BD10B5040003E02078FFF7ECFFD6
:10126C00641C20780028F8D110BD000038B55FF060
:10127C00000E254A00235FF0000C048AA6464CF6AB
:10128C00FF7414EA0E0ECC8854EA0E0EA0F810E08F
:10129C00B0F80CE04EF6F31414EA0E0E8C880D899F
:1012AC002C434D892C4354EA0E0EA0F80CE0B0F8F8
:1012BC0014E04FF6FF4414EA0E0E8C8954EA0E0E1D
:1012CC00A0F814E05FF0190E02FB0EF20968890019
:1012DC00B2FBF1F10B006421B3FBF1F15FEA011EEB
:1012EC005FEA1E11642201FB12318C465FEA0C117D
:1012FC0032316422B1FBF2F111F00F0151EA0E0E02
:10130C00A0F808E031BD00BF00127A0000B585B02E
:10131C005FF4E13000900020ADF804000020ADF83F
:10132C0006000020ADF808000020ADF80C000C20E1
:10133C00ADF80A0000A97E48FFF798FF0348008823
:10134C0050F400500149088005B000BD0C38014034
:10135C0070B50022002400235FF0000E5FF0000C3B
:10136C000025CE7816F00F063200CE7816F0100F4E
:10137C0001D08B781A430B881B0634D0D0F800C0F0
:10138C0000230BE091F803E0BEF1480F05D15FF0AC
:10139C00010E1EFA03FEC0F810E05B1C082B20D2D5
:1013AC005FF0010E1EFA03FE0C881EEA040474455D
:1013BC00F3D15FEA830E0F2515FA0EF5EC4314EA10
:1013CC000C0C12FA0EFE5EEA0C0C91F803E0BEF166
:1013DC00280FD7D15FF0010E1EFA03FEC0F814E0FF
:1013EC00DBE7C0F800C00B884FF4807C634539D331
:1013FC00D0F804C0002331E05FF0010E1C0008346B
:10140C001EFA04FE0C881EEA0404744525D15FEA1A
:10141C00830E0F2515FA0EF5EC4314EA0C0C12FA98
:10142C000EFE5EEA0C0C91F803E0BEF1280F07D11A
:10143C005FF0010E1C0008341EFA04FEC0F814E024
:10144C0091F803E0BEF1480F07D15FF0010E1C00CC
:10145C0008341EFA04FEC0F810E05B1C082BCBD33A
:10146C00C0F804C070BD000080B54FF40070ADF83A
:10147C00000003208DF8020018208DF8030000A94D
:10148C001848FFF765FF4FF48060ADF800000420AA
:10149C008DF8030000A91348FFF75AFF0120ADF89F
:1014AC00000004208DF8030000A90E48FFF750FF40
:1014BC000220ADF8000004208DF8030000A90948B3
:1014CC00FFF746FF4FF44870ADF8000003208DF88D
:1014DC00020010208DF8030000A90348FFF738FF25
:1014EC0001BD00BF00080140000C014010B5040014
:1014FC000A2C0ED10D210E48FFF78CFE80210C48D2
:10150C00FFF78CFE0028F9D00A210948FFF782FE6C
:10151C0005E02100C9B289B20548FFF77BFE8021A6
:10152C000348FFF77BFE0028F9D0200010BD000017
:10153C000038014080B51148006850F004000F4994
:10154C0008600E48006850F008000C4908600B4811
:10155C00006850F4804009490860FFF785FFFFF7E9
:10156C00D5FE0748FFF776FE064800F0F1FF064867
:10157C00018889B2054800F0EBFFFEE71810024025
:10158C00EC2400083C2500080838014050260008CF
:10159C004FF4001C1CEB410F38BF1CEB430F17D34F
:1015AC001CEB410F09D31CEB430F28BF6FF000015C
:1015BC001B4248BF81F0004170471CEB430F18BF22
:1015CC006FF0000102BF594001F00041002070474C
:1015DC00BCEB410F98BFBCEB430F39D950EA410C1F
:1015EC0018BF52EA430C13D150EA410C81EA0301B3
:1015FC0001F000414FF000001EBF41F0E04141F00E
:10160C007F61704752EA430C08BF6FF000017047CE
:10161C00F0B475464FF40014B4EB410F11D9B4EB90
:10162C00430F07D900F0F2FE00F0E2FEE41B76084F
:10163C00AE4614E000F0DCFE5F00A4EB5754AE465F
:10164C000DE000F0E3FE4C00C7EB5454AE4606E050
:10165C00F0B44C007641640D5F00A4EB575446F196
:10166C00000C04F580646FF0404606EA812545EADB
:10167C009055800206EA832343EA92530221920298
:10168C0027D0861A9D4143F0804304D2641E760015
:10169C006D41B6185D4176006D41964275EB0307BE
:1016AC0024BFB61A3D464941F5D34FF4006076008D
:1016BC006D41964275EB030724BFB61A3D46404177
:1016CC00F5D376006D41B61A75EB030708BF3642A9
:1016DC0049E0ED1A43F0804303D2641E400043EB13
:1016EC0045055B4200421AD041F48061001853EB6F
:1016FC00450538BFED1A4941001853EB450538BF75
:10170C00ED1A4941001853EB450538BFED1A494114
:10171C00001853EB450538BFED1A4941ECD313EBD8
:10172C00450538BFED1A494113EB450538BFED1A95
:10173C00494113EB450538BFED1A4941F4D34FF439
:10174C00006013EB450538BFED1A404113EB45051E
:10175C0038BFED1A404113EB450538BFED1A404137
:10176C00EFD313EB45052CBF4FF00045002518BFF8
:10177C0045F0804540EA4150C90A641E2FDC41F413
:10178C008011D4F10104202C10DAC4F120072D4271
:10179C0025FA04F518BF45F0010500FA07F63543A4
:1017AC00E04001FA07F63043E14026E0342C12DC2D
:1017BC00203C2D4208BF5FEA4007C4F1200720FA05
:1017CC0004F518BF45F0010501FA07F6354331FA67
:1017DC0004F0002111E000205FEACC711AE021F442
:1017EC00801111EB04515CBF11F5801F05E0002046
:1017FC004FF07F6141F0E0410AE06D0008BF10F04E
:10180C00010F98BF5FEA350550F1000041F100016E
:10181C0041EACC71F0BC7047B0B581EA030C0CF016
:10182C00004C40F2FF7515EA11541DBF15EA135711
:10183C00AC42AF423AE0E41923EA455343F4801337
:10184C00C90241F0004141EA50574FEAC02E110045
:10185C00AEFB020200284FF00000E7FB01204FF026
:10186C000001E3FB0E2118BF42F0010240180021D9
:10187C004941E3FB0701A4F580640F0302D2520037
:10188C004041494154F101046BDD470872F10042BB
:10189C0050F1000051EB0451A1F580115CBF41EAFD
:1018AC000C01B0BD4CEA05510020B0BD05EA135740
:1018BC00AC4214BFAF4240E050EA410E1CBF52EAAA
:1018CC00430E02E061460020B0BD24423C441AD1D4
:1018DC003F42F7D0090302BF01460020143FB1FA82
:1018EC0081FEA7EB0E0401FA0EF70EF10C0ECEF1F1
:1018FC00200100FA0EFEC84047EA000723EA4553D0
:10190C0043F48013A3E733F00043B3FA83F704BF27
:10191C00B2FA82FE77440B3FE41BB7F1200E2FBFC7
:10192C0002FA0EF3BB40C7F1200E22FA0EFE38BFAE
:10193C0043EA0E03BA40641C82E750EA410E14BF1E
:10194C0052EA430E6FF000014FF4001717EB430FF0
:10195C008ABF194617EB410FB6E74CEA0551002038
:10196C00B0BDD4F10104B4F120070FDAC4F12007A3
:10197C00520828BF42F0010210FA07F501FA07F7E6
:10198C00E1BF2A43E0403843E1400FE0352C99DCBD
:10199C00C7F1200452EA400220FA07F218BF42F0C5
:1019AC00010231FA07F0A1400A43002172F1004212
:1019BC0050F1000051EB0C01B0BD0000F0B44FF041
:1019CC00004591EA030F44BF6B4000F050B98B42C5
:1019DC0008BF824205D98446100062464C19591939
:1019EC0023004FF4001C1CEB410F06D308BF1CEB6B
:1019FC00430F28BF6FF0000162E0BCEB430F14D91A
:101A0C00AB4352EA43060BD04FEA4C0CBCEB410FF4
:101A1C0004D80C0D661E342E57DD51E0801A994106
:101A2C0050EA410608BF00214AE00C0DA4EB135606
:101A3C00362E45DC012E45DC4FEA045445EAC3231F
:101A4C0043EA525312BFD20292025B0845EAC1210B
:101A5C0041EA5051D2EBC020994125D404BF014634
:101A6C000020B1FA81F601FA06F1C6F1200220FA43
:101A7C0002F241EA020100FA06F002BF20360942E6
:101A8C001EE04FEAF474B4EB465434F001064FEA0E
:101A9C00740409D8D6F50016760D2C40F04071FA76
:101AAC0006F25040F1404840C00A40EA415021EA59
:101ABC00050128BF5FEA500550F1000044EBD1212D
:101ACC00F0BC704745EAC323DB0A45EAC121C90AC9
:101ADC00202E0DDD203E63FA06F5F3405D401242E8
:101AEC0018BF45F001056D42984161F100010DE010
:101AFC0062FA06F5F24085EA020563FA06FC82EA10
:101B0C000C02F3405A406D429041994111F4801FF0
:101B1C0005D1641E620502D06D004041494121F49B
:101B2C0080116D0008BF10F0010F98BF5FEA3505FA
:101B3C0050F1000041EB0451F0BC704770B505004A
:101B4C000C00E88847F6F0710840001140F2FF766F
:101B5C00B0420DD1E88810F00F0F05D1A88818B944
:101B6C00688808B9288808B1022070BD012070BDB2
:101B7C0030B9280000F0E6F8012801DB002070BD28
:101B8C000419B4420BDBE88810F4004F02D000209B
:101B9C00304901E000203049C5E90001E6E7012C9D
:101BAC00E88809DB48F20F010840A4B240EA0410AF
:101BBC00E8804FF0FF3070BD00F40040E98801F080
:101BCC000F0141F01001E980641E6FF033018C426B
:101BDC0005DAE8800020A8806880288070BD24B2D7
:101BEC006FF00E018C420BDA6A882A80AA886A8010
:101BFC00EA88AA800022EA80103424B28C42F3DBFB
:101C0C00614209B20A001FD0C2F110022B880B41AD
:101C1C00B5F802C00CFA02FC4CEA03032B806B886B
:101C2C000B41B5F804C00CFA02FC4CEA03036B80C0
:101C3C00AB880B41B5F806C00CFA02F21A43AA8025
:101C4C00EA8822FA01F1E980E9880843E8804FF03C
:101C5C00FF3070BD0000F0FF0000F07FF0B44FF0DB
:101C6C00004591EA030C44BF6B40FFF7B0BE8B42BA
:101C7C0008BF824205D98446100062468C46190082
:101C8C0063464FF4001C1CEB410F01D3F0BC7047B2
:101C9C00BCEB430F0FD952EA430648D0BCEB410FC3
:101CAC0005D80C0DAB43661E342E0CDD3FE0AB4368
:101CBC00801859413BE00C0DA4EB1356352E36DC45
:101CCC0045EAC323DB0A45EAC121C912202E11DBE8
:101CDC00203E18BF5FEA020263FA06F523FA06F308
:101CEC0085EA030518BF45F00105C01851F1000144
:101CFC000CD213E072FA06F5F2405540F3415A400B
:101D0C00B340F3405A408018594107D349085FEA61
:101D1C0030005FEA350528BF45F0010501F580115B
:101D2C00420875F1004250F1000041EB0451F0BC47
:101D3C004FF4001C1CEB410F38BF70470020090DFD
:101D4C000905704710B50100C88800F40042012055
:101D5C00CB8803F00F03CB80C3B98B8823B94B8896
:101D6C0013B90B88002B57D08B88CB80B1F802C0ED
:101D7C00A1F804C0B1F800C0A1F802C04FF0000CEB
:101D8C00A1F800C0103800B2002BEDD0CB88102B7E
:101D9C001ED28B88B1F806C04FEAD33E4EEA4C0CEB
:101DAC00A1F806C0B1F802E04FEADE3444EA43037E
:101DBC008B800B88DC0B44EA4E0EA1F802E05B0032
:101DCC000B80401E00B21FFA8CFCBCF1100FE0D34C
:101DDC00CB88202B1CD34B88B1F800C04FEAC33EF4
:101DEC004EEA5C0CA1F800C0B1F804C04FEACC3E3E
:101DFC004EEA53034B80CB884FEAC33E4EEA5C0C51
:101E0C00A1F804C05B08CB80401C00B2202BE2D2AE
:101E1C00CB8803F00F03CB80CB881A43CA8010BD4C
:101E2C002DE9005003D34942404261F1000100F01A
:101E3C001BF8BDE800505FEA4C0C05D34942404208
:101E4C0061F100011CEA0C0F03D55B42524263F1B5
:101E5C000003704713F0004C03D55B42524263F110
:101E6C0000039CEA210CDBD151EA030C0ED1002AB1
:101E7C001FBF8446B0FBF2F002FB10C2704700F0AB
:101E8C004FBC0B00020000210020704752EA030CEB
:101E9C00F5D02DE9F041002400250F00060052EA90
:101EAC0003081FD05FF0000892185B4108D2BB42B8
:101EBC0008BFB24298BF08F10108F5D918F1000823
:101ECC005FEA33034FEA3202B01A77EB030124BF07
:101EDC000F46064664416D415B084FEA3202B8F189
:101EEC000108F1DA2000290032003B00BDE8F08146
:101EFC0070B5050005F10F0407208443012000F0A4
:101F0C0069F8A54204D3012000F08AF8002070BDC6
:101F1C00082C04D2082402E0083000F08DF8224D81
:101F2C00286801000CD1291D00E0011D0868A0B132
:101F3C000268A242F9D315E01368A34212D2111D14
:101F4C000A68002AF8D10068291D03E01368A3422F
:101F5C0008D2111D0A688242F8D100F0ADFA0028AF
:101F6C00DAD100210029CED00E6830680838A042A2
:101F7C0002D27068086008E0A019086072684260BC
:101F8C003068001B0A6810603460086818B141683A
:101F9C0009B1001D00E000202860012000F040F88D
:101FAC0006F1080070BD00BF3808002010B5214CA8
:101FBC00201D00F097F904F1080000F093F904F1EA
:101FCC000C0000F08FF904F11000BDE8104000F097
:101FDC0089B9000038B50400164D286898B9281D39
:101FEC0000F078F905F1080000F074F905F10C0027
:101FFC0000F070F905F1100000F06CF900220021DE
:10200C00064800F05DF801202860042C04D205EB92
:10201C008400001D00F06EF931BD00BFB91F00082F
:10202C0080B5042805D2034901EB8000001D00F0A7
:10203C0069F901BD2408002010B5F0B1A0F1080425
:10204C002068082819D310F0070F16D10120FFF7CC
:10205C00C1FF1A48416809B18C4203D261604460E7
:10206C001BE019004B680BB1A342FAD30A68531852
:10207C009C4203D20120FFF7D3FF10BDA34204D131
:10208C0023689A180A600C0007E04A681AB12368A2
:10209C001B199A42EED362604C6061680029E9D04A
:1020AC00226812198A42E5D100210160606821681A
:1020BC0002685118216040686060DBE73808002036
:1020CC0080B51D4BD3F800C0DFF828E0F44506D2EC
:1020DC000CF10C0EC3F800E0BCF1000F01D1012093
:1020EC0002BDCCF80010CCF80400CCF8082000207D
:1020FC0002BD00BFD4070020002000BFF8B50E4C75
:10210C0027683E0014D00B4D00E08847AE420FD03C
:10211C002068874201D0060007000C3E7168080059
:10212C00F4D00020706030680028EED18847EDE7CD
:10213C00F1BD00BF000600206809002070B500F159
:10214C000801026801EBC202406802EBC0000023E8
:10215C009C469E4601E0AC4207D1824200D170BD44
:10216C0052F8044B52F8045B2D19634502BF51F829
:10217C00043B51F804CB9C446345ECD0AC42EAD010
:10218C00BEF1000F08BF13F901EB002601E004F8C3
:10219C00016BBEF1000FEFD0AC42EDD06345EBD03C
:1021AC00BEF1000F52BFAEF1010E13F8016B0EF130
:1021BC00010EECE78B0707D0521E24BF11F8013B30
:1021CC0000F8013BF6D8704783071ED1103A07D3AD
:1021DC0030B4B1E83810103AA0E83810F9D230BC5D
:1021EC00530724BFB1E80810A0E8081044BF51F809
:1021FC00043B40F8043BD20724BF31F8022B20F8F3
:10220C00022B44BF0B7803707047083A07D3B1E830
:10221C000810083A40F8043B40F804CBF7D25307B7
:10222C00E4E70000C9B2830706D0521E22D310F88F
:10223C00013B9942F7D11FE0083A13D302F1040293
:10224C0041EA012141EA014150F8043B121F21BF30
:10225C004B40A3F1013C2CEA030C1CF0803FF3D063
:10226C00C9B2001F083210F8013B521E28BF91EA78
:10227C00030FF8D818BF0120401E7047F446400DDC
:10228C0040EAC120490006D200F013F8004248BFD2
:10229C006FF00040604700F00CF84FF000418842AE
:1022AC008CBF084640426047400D40EAC1204900BF
:1022BC000CD240F00040490DA1F58061491C05D4B9
:1022CC00D1F11F0154BFC840C01770474FF0000038
:1022DC007047000080B50F4909680A0018BF88478D
:1022EC0001BD000080B50C4909680A0018BF884779
:1022FC0001BD000080B5094909680A0018BF88476C
:10230C0001BD000080B5064909680A0018BF88475E
:10231C0001BD000044080020480800204C080020A3
:10232C005008002030B90548D0E90001C2E900018D
:10233C000020704701700120704700BF042700087F
:10234C0031B90A48D0E90001C3E900010020704707
:10235C0012B96FF00100704708B10A780280097851
:10236C00481E8041C043C00F704700BF0C270008B7
:10237C009C2700089C2700089C2700089C27000825
:10238C009C2700089C2700089C270008FFFFFFFFE4
:10239C00FFFFFFFF302700089C2700089C27000840
:1023AC009C2700089C270008142700081C270008FD
:1023BC009C2700089C27000800F10103810704D02A
:1023CC0010F8011B0029F9D110E00268B2F10131BB
:1023DC00914311F0803F04BF50F8042FF6E710F83A
:1023EC00011B00291CBF10F8011BFAE7C01A70472B
:1023FC00400049417641002411F4801F05D1641E30
:10240C004000494111F4801FF9D0704752005B41E4
:10241C007641002713F4801FF7D17F1E52005B41D9
:10242C0013F4801FF9D070474FF4001C1CEB410FC4
:10243C0098BF1CEB430F09D841EA030C50EA4C0C33
:10244C0052EA0C0C03D2994208BF9042704718BF55
:10245C008B4208BF824270474FF4001C1CEB410FAB
:10246C0098BF1CEB430F09D841EA030C50EA4C0C03
:10247C0052EA0C0C03D28B4208BF8242704718BF41
:10248C00994208BF90427047010040F10880F44621
:10249C00404200F004F851F000416047010009D0BF
:1024AC00B0FA80F18840C91CC1F58461090501EBC3
:1024BC00D0214005704700000649086808B100208B
:1024CC00704705480860054907229143091A0160C5
:1024DC00704700BF400800200004002000060020C8
:1024EC000D0A48656C6C6F20576F726C6421204824
:1024FC00656C6C6F20436F727465782D4D33210DB4
:10250C000A000000D525000884000000D407002034
:10251C00000000004921000801000000010000003B
:10252C009D270008840000005808002014010000BA
:10253C0048656C6C6F20436F727465782D4D332138
:10254C002077697468207072696E74660A000000E6
:10255C000EB400B582B003A9009100AB02000121BA
:10256C000248FDF7BDFD06BC5DF810FB39260008DE
:10257C00F8B507000C0015001E0000F08BF83300B6
:10258C002A002100380001B0BDE8F040FFF7D8BEAA
:10259C0010B50448044C02E050F8041B8847A042D4
:1025AC00FAD110BD102500083C25000870B50600B6
:1025BC000C00150000F06EF82A0021003000BDE878
:1025CC007040FFF7AFBE0000002305E050F8041B7D
:1025DC0041F8043B121FFBD150F8042B002AF5D113
:1025EC007047000000F098F8002801D0FFF7D0FFEA
:1025FC000020FEF79FFF00F091F800000278C9B2AE
:10260C00012A91EA020F84BF10F8012FF8E718BFD6
:10261C000020704780B504490868002803D00220C8
:10262C00ABBE0020086001BD5408002038B5050081
:10263C000C00200000F048F8A04218BF002528002C
:10264C0032BD00005553415254312D3E425252205E
:10265C003A20253038580A0018B491FBF2F31C00CC
:10266C0002FB1311C0E9004112BC704710B5034CBA
:10267C00A06C010018BF8047200010BDDC080020B2
:10268C0080B5FFF7C7FF02491820ABBEFCE7C04678
:10269C002600020010B5034CE06A010018BF804709
:1026AC00A06910BD580800200000000000000000C8
:1026BC00686A6C747A4C00000746FFF71DFD3846BB
:1026CC00FFF7DEFFFBE700000149FEF70FBF00BF7D
:1026DC002809002080B5FFF7DDFF012002BD0000B6
:1026EC00000000000000000066616C7365000000D3
:1026FC00747275650000000000000000000000000E
:10270C00000000000000000066616C7365000000B2
:10271C00747275650000000001207047FFF7CCBF94
:10272C0070472E002E00FEE7FEE7FEE7FEE7FEE711
:10273C00FEE7FEE7FEE7FEE7FEE7FEE7FEE7FEE765
:10274C00FEE7FEE7FEE7FEE7FEE7FEE7FEE7FEE755
:10275C00FEE7FEE7FEE7FEE7FEE7FEE7FEE7FEE745
:10276C00FEE7FEE7FEE7FEE7FEE7FEE7FEE7FEE735
:10277C00FEE7FEE7FEE7FEE7FEE7FEE7FEE7FEE725
:10278C00FEE7FEE7FEE7FEE7FEE7FEE7FEE70000FA
:10279C00001CFC9B27000804FC9B27000808FC7C01
:1027AC0023000850B89A2700089A2700089A270097
:1027BC00089A2700089A2700089A2700089A2700E9
:1027CC0008FFFFFFFFFFFFFFFF2E2700089A2700DF
:1027DC00089A2700089A2700089A270008F4260070
:1027EC0008FC2600089A2700089A27000804E00233
:1027FC00040101D407002024080020D4070020D4B1
:10280C00070020D4070020650900204C0900202176
:05281C00FD0600200094
:04000005080025F1D9
:00000001FF
