:020000040800F2
:100000000004002071570008653E0008673E0008A4
:10001000693E00086B3E00086D3E000800000000CD
:100020000000000000000000000000006F3E00081B
:10003000713E000800000000733E0008753E000895
:100040007D3E00087F3E0008813E0008833E000898
:10005000853E0008873E0008893E0008A33E000850
:10006000BD3E0008BF3E0008D93E0008DB3E000848
:10007000DD3E0008DF3E0008E13E0008E33E0008E8
:10008000E53E0008E73E0008E93E0008EB3E0008B8
:10009000ED3E0008EF3E0008F13E0008F33E000888
:1000A000F53E0008F73E0008093F00080B3F000836
:1000B0000D3F00081B3F00081D3F00081F3F0008C0
:1000C000213F0008233F0008253F0008273F000884
:1000D000293F00082B3F0008D73F0008D93F000800
:1000E000194000081B4000081D4000082DE9F04F92
:1000F000A5B017461C46DFF87058D5E90023CDE9B6
:100100001223049004AD69600020A8620DF1500A2A
:100110006FF0004800E04F440020ADF8020012AB41
:100120004FF0FF3239460DF1020005F08FFA81469B
:10013000B9F1010F08DA3878B0F1010969EB090962
:100140006FEA09004FEAD079BDF8020025280CBFFC
:10015000A9F101024A46012A0ADB394602A800F049
:10016000D1FF002804D54FF0FF3025B0BDE8F08F57
:10017000BDF80200252816D1002028616861A86119
:10018000E8612862686217F8011F202908D0232936
:1001900014D02B290BD02D290DD0302911D013E0EC
:1001A00040F00100EFE70028B5D1A86ADDE740F094
:1001B000020080B2E7E740F00400FAE740F00800F0
:1001C000F7E740F01000F4E72A290DD12268111D4D
:1001D000216011682963002904D54942296340F050
:1001E000040080B27F1C12E00021296309E0296B22
:1001F000414505D001EB810302EB4301303929630E
:100200007F1C3A78A2F13001C9B20A29EFD33978BC
:100210002E291CBF4FF0FF31E9621DD117F8011FD5
:100220002A2906D12268111D21601168E9627F1C0C
:1002300012E00021E96209E0E96A414505D001EBDD
:10024000810302EB43013039E9627F1C3A78A2F165
:100250003001C9B20A29EFD3A8863978DFF8300C0B
:1002600005F038FA08B117F8010B8DF846009DF833
:100270004600682804D1387868280AD1622005E051
:100280006C2806D138786C2803D171208DF846008F
:100290007F1C14A8E8603A781046413800F0D180FD
:1002A000001F022840F2CD80133800F08B800938FF
:1002B00000F0C780801E17D0401E39D0401E022893
:1002C00040F2BF80001F33D0401F00F0E980401E85
:1002D00078D0401E00F01281C01E00F01A81801EEE
:1002E00070D0C01E6ED036E19DF846006C2809D053
:1002F0002869411C29612268111D2160116800F8DC
:100300000A102FE12168081D20600868ADF804007C
:100310000020ADF806004FF0FF30E86201A902A806
:1003200000F0B8F9002840F11D814FF0FF301AE1CC
:100330009DF846006C280FD071280BD12068C01D95
:1003400020F007002060034603F108002060D3E995
:10035000000106E06A28F1D02168081D20600868C5
:10036000C1179DF84630682B08BF00B207D0622B3A
:1003700008BF40B203D0742B01D07A2B00D1C11733
:10038000002904DA2B695E1C2E612D260DE0AB8E50
:100390009E0704D52B695E1C2E612B2605E0DB072A
:1003A00005D52B695E1C2E61202603F80A602B6997
:1003B00014AE3344AB60CDE90201114602A800F04F
:1003C000D5FACFE09DF846006C280FD071280BD1EC
:1003D0002068C01D20F007002060034603F10800DC
:1003E0002060D3E9000106E06A28F1D02168081DE9
:1003F0002060086800219DF84630682B08BF80B255
:1004000007D0622B08BFC0B203D0742B01D07A2B67
:1004100000D1002195F834301B07C8D509B9002850
:10042000C5D042F02003782BC1D12B695E1C2E6110
:10043000302603F80A602B695E1C2E6103F80A203F
:10044000B5E72068C01D20F007002060034603F1D7
:1004500008002060D3E90001CDE90201BDF80E00DB
:10046000000404D52869411C29612D210DE0A88EC6
:10047000810704D52869411C29612B2105E0C007AB
:1004800005D52869411C2961202100F80A10286936
:1004900014A94018A860114602A800F0EFFA61E024
:1004A0009DF8460062280BD0682820D06A280ED01C
:1004B0006C2815D071280AD0742811D07A280FE042
:1004C000A86A2268111D2160116808704AE0A86AB4
:1004D000C11723681A1D22601A68C2E9000141E0B1
:1004E0002168081D20600868A96A01603AE0A86ACE
:1004F0002268111D21601168088033E02168081D01
:100500002060086814A9A9600021CDE902017821C2
:1005100054E79DF846006C28216813D0081D206020
:100520000868A860EA6A002A02D504F0C9FF07E05B
:10053000002104F0FDFE00281ABFA968401AE86AED
:1005400068610FE0081D2060096802A800F0A2F8A9
:10055000002807D5E9E62869411C296102B925224E
:1005600000F80A2000207F1C00287FF4FCAD286BD7
:100570002969401AE969401A6969401A296A401ACA
:10058000A969401A696AA0EB010995F8340040078F
:1005900011D420208DF800000026B9F1010F0ADBEC
:1005A000012200A902A800F0ADFD00287FF4DBAD18
:1005B000761C4E45F4DB2A6914A902A800F0A2FDBE
:1005C00000287FF4D0AD30208DF80000EE694FF0A8
:1005D000000B012E0BDB012200A902A800F092FD06
:1005E00000287FF4C0AD0BF1010BB345F3DB6A6962
:1005F000A96802A800F086FD00287FF4B4AD302081
:100600008DF800002E6A4FF0000B012E0BDB01224B
:1006100000A902A800F076FD00287FF4A4AD0BF13C
:10062000010BB345F3DBAA696869A968411802A800
:1006300000F068FD00287FF496AD30208DF80000B2
:100640006E6A4FF0000B012E0BDB012200A902A8FD
:1006500000F058FD00287FF486AD0BF1010BB34587
:10066000F3DB95F8340040077FF556AD20208DF878
:1006700000000026B9F1010FFFF64EAD012200A9DE
:1006800002A800F03FFD00287FF46DAD761C4E45BA
:10069000F4DB41E52DE9F04F95B005460F466C6B54
:1006A000002C48BF6FF0004405F07EF8A96B40189D
:1006B0000190DFF83C0AD0E90023CDE9032395F847
:1006C0003C00400702D40198412806D20DF1140ADB
:1006D000402001900020029009E004F03FFA5FEA18
:1006E000000AF7D14FF0FF303AE1A4EB0804012CE7
:1006F000C0F2B18003AA39880DF1010004F0C4FFF3
:100700005FEA000804D4388830B9B8F1010803D58D
:100710004FF0FF3002909EE04445C0F29C80A869F3
:10072000019908EB0002914280F086800021A963C4
:100730004042696A401AE969401AA96A401A296A5E
:10074000401AE96AA0EB010995F83C00400710D473
:1007500020208DF800000026B9F1010F09DB0122ED
:1007600000A9284600F0CEFC002863D1761C4E4537
:10077000F5DBAA695146284600F0C4FC002859D18F
:1007800030208DF800006E6A4FF0000B012E0ADB5E
:10079000012200A9284600F0B5FC00284AD10BF13F
:1007A000010BB345F4DBEA692969284600F0AAFC8D
:1007B00000283FD130208DF80000AE6A4FF0000BCA
:1007C000012E09DB012200A9284600F09BFC88BB12
:1007D0000BF1010BB345F5DB2A6AE8692969411879
:1007E000284600F08FFC28BB30208DF80000EE6A10
:1007F0004FF0000B012E09DB012200A9284600F072
:1008000081FCB8B90BF1010BB345F5DB95F83C0061
:1008100040070FD520208DF800000026B9F1010F08
:1008200008DB012200A9284600F06CFC10B9761CF8
:100830004E45F6DB0020A86142460DF10101A86992
:10084000504404F0FFFBA8694044A86137F8020B4C
:1008500000287FF44AAFA86BA969401A696A401A58
:10086000E969401AA96A401A296A401AE96A461ACF
:1008700095F83C0040070FD420208DF80000002799
:10088000012E09DB012200A9284600F03BFC0028CC
:100890005CD17F1CB742F5DBAA695146284600F0BF
:1008A00031FC002852D130208DF800006F6A0024FE
:1008B000012F09DB012200A9284600F023FC0028B3
:1008C00044D1641CBC42F5DBEA692969284600F082
:1008D00019FC00283AD130208DF80000AF6A0024BE
:1008E000012F08DB012200A9284600F00BFC68BBA1
:1008F000641CBC42F6DB2A6AE8692969411828466B
:1009000000F000FC10BB30208DF80000EF6A0024DE
:10091000012F08DB012200A9284600F0F3FBA8B94B
:10092000641CBC42F6DB95F83C0040070ED5202045
:100930008DF800000027012E08DB012200A92846BF
:1009400000F0E0FB10B97F1CB742F6DB0020A86185
:10095000A86305A882451CBF504604F043FA0298DC
:1009600015B0BDE8F08F0000605700082DE9FA4788
:1009700086B00446606900909DF818006F2808BF93
:10098000082705D040F02000782814BF0A27102738
:100990003C25D4E90001064689469DF81820642AC2
:1009A00001D0692A04D1002902DA764269EB4909AB
:1009B000B9F1000F02D10EB9606B60B3A5F1010867
:1009C0004546F817CDE9047030464946DDE9042371
:1009D00003F04CFECDE90201B246DDE90223DDE978
:1009E0000401A0FB02695046801B3030C0B23A2897
:1009F00003D39DF8181051390818009908F8010020
:100A0000DDE90269B9F1000F00D126B12069009932
:100A100069188842D2D3082F0BD194F83C00000704
:100A200007D50098285C302803D06D1E009830212F
:100A30002954C5F13C00E061009969182161616B9E
:100A4000884206DA081A6062A08F20F01000A087A2
:100A500010E000290ED594F83C1001F01401102983
:100A600008D1A16BA269891A626A891A0D1A012D2F
:100A7000A8BF656208B0BDE8F08700002DE9F24F1D
:100A80008EB0054604AFD5E90001CDE902019DF81D
:100A9000380040F020008DF8000061280BD0686B12
:100AA000002848BF062005D405D19DF8000067281E
:100AB00001D101206863E888C0F30A1040F2FF7199
:100AC000884222D1A8790F21084205D1A88818B9F7
:100AD000688808B9288868B10320E8619DF8380063
:100AE0006138C0B21A2836D389A10322286904F0DC
:100AF000A9FAC7E10320E8619DF838006138C0B267
:100B00001A2834BF83A184A1EFE7012804DA28461C
:100B100003F0C1FF01281BDA40F2FE31EA8861F3DD
:100B20000E12EA80441A4FF0FF309DF80010612940
:100B300017D12A69511C29613021117029694A1C79
:100B40002A619DF83820612A0CBF7822582204E0DF
:100B500000240020E9E7CDA1C7E70A70A969891C34
:100B6000A96110B90026B04682E19DF80000612815
:100B700040F09580686B00284EBF2126461C36B297
:100B8000771CD5E900ABDDE902010022002304F067
:100B9000CBFC3ABF8BF00040CDE902A0CDE902AB1F
:100BA000A4F104088DF810200DF11109012F33DB99
:100BB000DDE902010022002304F0CEFC2CD21C212E
:100BC00002A803F071FEDDE9020104F0DDFB04463A
:100BD000FF1F012F09DB04F0D7FC02460B46DDE9BD
:100BE000020103F0CDFBCDE9020109F20700072164
:100BF000012C0BDB491E5EBF04F00F0200F8012D33
:100C00002411F5D502E0002200F8012D491EFAD585
:100C100000F20709012FCBDA0DF11100A9EB00005A
:100C20000DF11107B042B8BF06B2002E30D4864293
:100C300006DA04A830184078082828BF0F2000D210
:100C40000020314604AA8A1801E0761E36B2491EF9
:100C500012F801398342F8D00F2804D104A80818EB
:100C60004278521C4270002904D504AF761C36B27B
:100C700008F10408304609E0C15D3031C9B23A29B3
:100C800003D39DF838203A3A5118C155401EF3D588
:100C9000686B002840F1EC80701E6863E8E0DDE9D5
:100CA00002010022002304F03FFC05D2DDE902012D
:100CB00081F00041CDE9020124B247F29750604330
:100CC000DFF8301490FBF1F80FFA88F8C8F1070448
:100CD0000027DFF82494012C20DBDDE902ABE007DC
:100CE00007D5504659463A464B4603F077FA8246B6
:100CF0008B466410384649463A464B4603F06EFA36
:100D000007468946002CEAD1CDE902AB28E000BFB6
:100D10004E414E00696E6600494E4600644292465E
:100D2000DFF8D8B314D0E00707D5504659463A4605
:100D30004B4603F053FA82468B46641038464946C8
:100D40003A464B4603F04AFA07468946002CEAD158
:100D5000DDE9020152465B4602F05AFECDE902018E
:100D60009DF8000066280CBF08F10A000620696B98
:100D70004418142CA8BF132430208DF810000DF156
:100D80001106012C30DBDE4F11E0DDE9020104F039
:100D900011FB04F003FC02460B46DDE9020103F0FF
:100DA000EFFA00223B4603F019FACDE90201DDE932
:100DB000020104F0FFFA06F1080104220A23B0FB45
:100DC000F3F603FB1600303001F8010DB6FBF3F02B
:100DD00003FB1063303301F8013D521EEED101F1E7
:100DE0000806083C012CD0DA0DF11100301A0DF183
:100DF00011079DF81110302906D1401EA8F10108F5
:100E000017F8011F3029F8D09DF80010662904BF9B
:100E10000FFA88F808F1010103D065290CBF012100
:100E200000216A6B8E1836B2B042B8BF06B2002EEF
:100E30001ED4864204DAF05D352828BF392000D25E
:100E400030203146CA19521E01E0761E36B2491EC4
:100E500012F801398342F8D0392802D1C85D401C0C
:100E6000C855002904D57F1E761C36B208F101084A
:100E70000FFA88F0009033463A469DF8381028461D
:100E800000F008F80FB0BDE8F08F00006E616E0052
:100E9000685700082DE9F04786B006468A46904616
:100EA0001C46BDF9385004F035FC406A90F80090BB
:100EB000776B012CBCBF01240FF230284AF02000D0
:100EC000662807D067287AD16FF003018D427CDB5A
:100ED000BD427ADA6D1C66280AD096F83C000007FD
:100EE00002D4BC42B8BF27462DB27F1B48BF0027A3
:100EF0003069F1692DB2012D21DA4A1C30230B54DF
:100F0000012F03DA96F83C10090702D502F8009089
:100F1000521CF261EF42B8BF7D422DB26942B1620C
:100F2000EF19A742B8BF3C4624B23462224641467C
:100F3000F369181804F086F8381BF062BFE008184F
:100F4000AC4216DA2246414604F07CF8F169611899
:100F5000F161281BB062012F03DA96F83C0000070C
:100F600005D5306901F80090306A401C3062F762A4
:100F7000A5E02A46414604F065F8F0692818F061BA
:100F8000641B012F03DA96F83C10090704D5411CB5
:100F9000F161316900F8019024B2A742B8BF3C4624
:100FA00024B2224605EB0801F0693369C01804F049
:100FB00049F8F0692018F061381BB0627FE0BAF19F
:100FC000610F14D14FF0700A16E0BC4204DA96F8B3
:100FD0003C10090758BF27467F1E48BF0027BAF1BB
:100FE000670F14BF4FF0450A4FF0650A04E0BAF1ED
:100FF000410F08BF4FF0500AF1694A1C306918F8D8
:10100000013B0B54012F03DA96F83C10090702D577
:1010100002F80090521CF261012F10DB641E24B212
:10102000A742B8BF3C4624B222464146F36918188D
:1010300004F008F8F0692018F061381BB062F0691C
:10104000316900EB010808F801AB002D5CBF2B20D3
:1010500008F8010B03D52D2008F8010B6D42002480
:1010600002AF2DB2012D0EDB0A22294600A804F0A2
:101070008EFB019807F8010B009D641C2DB2012D19
:10108000F2DA022C06DA4AF02000652804BF30208C
:1010900008F8010B1CB9302008F8010B09E0012CFD
:1010A00007DB641E02A8205C303008F8010B012C1D
:1010B000F7DAF06931694018A8EB0000306296F861
:1010C0003C0000F0140010280DD1B069F169081837
:1010D000B16A0818316A0818F16A0818B16B8842B9
:1010E000BCBF081A706206B0BDE8F087300000008F
:1010F000B4570008A0860100000024400000F03F23
:1011000084D79741F8B504460D46164600208EB1A7
:101110004FF0FF3705E0206B401C20630020761E57
:1011200008D015F8011BE068A2689047E06000282D
:10113000F1D13846F2BD000038B504000D000020A2
:10114000DFF8EC148C4243D0B4F1804F40D0DFF88C
:10115000E40484423CD0DFF8E004844238D0DFF875
:10116000DC04844234D0DFF8D804844230D0DFF885
:10117000D40484422CD0DFF8D004844228D0DFF895
:10118000CC04844224D0DFF8C804844220D0DFF8A5
:10119000C40484421CD0DFF8C004844218D0DFF8B5
:1011A000BC04844214D0DFF8B804844210D0DFF8C5
:1011B000B40484420CD0DFF8B004844208D0DFF8D5
:1011C000B404844204D0E721DFF8A00404F098FAC4
:1011D0006888002810D0688810280DD068882028DA
:1011E0000AD06888402807D06888602804D0E821A1
:1011F000DFF8780404F084FAE88800280ED0E88844
:101200004FF48071884209D0E8884FF40071884219
:1012100004D0E921DFF8540404F072FA2088DFF8E2
:1012200010148C4212D0DFF820148C420ED0B4F18E
:10123000804F0BD0DFF8FC138C4207D0DFF8F81397
:101240008C4203D0DFF8F4138C4204D14FF68F7137
:10125000084069880843DFF8E8138C4208D0DFF8BB
:10126000E4138C4204D04FF6FF410840E98808435C
:101270002080A888A08528882085DFF8B4038442D0
:101280000FD0DFF8C40384420BD0DFF8D8038442C8
:1012900007D0DFF8D403844203D0DFF8D8038442B8
:1012A00001D1287A20860120A08231BD2DE9F041AC
:1012B00004000D005FF0000800260027DFF870032F
:1012C00084423CD0B4F1804F39D0DFF868038442C7
:1012D00035D0DFF86403844231D0DFF86003844204
:1012E0002DD0DFF86403844229D0DFF86003844204
:1012F00025D0DFF85C03844221D0DFF85803844214
:101300001DD0DFF85403844219D0DFF85003844223
:1013100015D0DFF84C03844211D0DFF84803844233
:101320000DD0DFF84403844209D0DFF8440384423F
:1013300005D04FF48E71DFF8340304F0E1F928880A
:10134000002814D02888102811D0288820280ED0F2
:10135000288830280BD02888602808D02888702852
:1013600005D040F21D11DFF8040304F0C9F96888C4
:10137000002808D06888012805D04FF48F71DFF865
:10138000EC0204F0BDF92889002808D02889022839
:1013900005D040F21F11DFF8D40204F0B1F9208C1F
:1013A00020F001002084268CA788B4F818804FF61E
:1013B0008F7010EA08084FF6FC7010EA08082888B9
:1013C00050EA080826F00206288906436888064382
:1013D000DFF85C0284420FD0DFF86C0284420BD04D
:1013E000DFF88002844207D0DFF87C02844203D019
:1013F000DFF87C02844243D1A888002808D0A8885E
:10140000042805D04FF49E71DFF8600204F078F9EB
:101410006889002808D06889082805D040F23D1165
:10142000DFF8480204F06CF9E8894FF40071884253
:1014300008D0E889002805D04FF49F71DFF82C020E
:1014400004F05EF9A8894FF48071884208D0A88919
:10145000002805D040F23F11DFF8100204F050F9E7
:1014600026F008066889064326F00406A888064385
:1014700027F4807727F40077A8890743E889074392
:10148000A780A4F81880E888A0862684BDE8F081AB
:101490002DE9F04104000D005FF000080026002750
:1014A000DFF88C01844224D0B4F1804F21D0DFF8E2
:1014B000840184421DD0DFF88001844219D0DFF816
:1014C0007C01844215D0DFF88001844211D0DFF81E
:1014D0007C0184420DD0DFF88001844209D0DFF81E
:1014E0008401844205D040F26F11DFF8800104F0DE
:1014F00007F92888002814D02888102811D02888B7
:1015000020280ED0288830280BD02888602808D0C2
:101510002888702805D04FF4B871DFF8500104F026
:10152000EFF86888002808D06888012805D040F2C4
:101530007111DFF8380104F0E3F82889002808D099
:101540002889022805D04FF4B971DFF8200104F092
:10155000D7F8208C20F010002084268CA788B4F8BF
:10156000188048F6FF7010EA08084FF6FF4010EAAE
:101570000808288858EA002826F02006288956EA14
:101580000016688856EA00162948844202D02E4880
:10159000844244D1A888002808D0A888042805D00F
:1015A00040F28F11DFF8C40004F0AAF8688900281F
:1015B00007D06889082804D04FF4C8712B4804F07C
:1015C0009FF8E8894FF40071884207D0E889002825
:1015D00004D040F29111254804F092F8A8894FF404
:1015E0008071884207D0A889002804D04FF4C971BF
:1015F0001E4804F085F826F08006688956EA001631
:1016000026F04006A88856EA001627F4806727F4DB
:101610000067A88957EA8007E88957EA8007A7800A
:10162000A4F81880E88820872684BDE8F0810000AF
:10163000002C01400004004000080040000C004065
:10164000001000400014004000340140004C0140F4
:10165000005001400054014000180040001C0040B0
:10166000002000400040014000440140F8510008C3
:10167000004801400048014038B504000D00DFF883
:10168000A401844244D0B4F1804F41D0DFF89C01E2
:1016900084423DD0DFF89801844239D0DFF89401CC
:1016A000844235D0DFF8B401844231D0DFF8B00194
:1016B00084422DD0DFF87001844229D0DFF8780110
:1016C000844225D0DFF87401844221D0DFF8700114
:1016D00084421DD0DFF86C01844219D0DFF8680124
:1016E000844215D0DFF86401844211D0DFF8640130
:1016F00084420DD0DFF85801844209D0DFF864013C
:10170000844205D040F22931DFF84C0103F0F8FFA4
:10171000EDB2002D08D0EDB2012D05D040F22A31F6
:10172000DFF8340103F0ECFFEDB2002D04D0208887
:1017300050F00100208003E0208820F0010020808C
:1017400031BD70B504000D001600DFF8D8008442EA
:1017500044D0B4F1804F41D0DFF8D00084423DD076
:10176000DFF8CC00844239D0DFF8C800844235D09D
:10177000DFF8E800844231D0DFF8E40084422DD065
:10178000DFF8A400844229D0DFF8AC00844225D0E1
:10179000DFF8A800844221D0DFF8A40084421DD0E5
:1017A000DFF8A000844219D0DFF89C00844215D0F5
:1017B000DFF89800844211D0DFF8980084420DD001
:1017C000DFF88C00844209D0DFF89800844205D00D
:1017D00040F26B31DFF8800003F092FF4FF47F405E
:1017E000054202D1ADB2002D05D14FF45B71DFF897
:1017F000680003F085FFF6B2002E08D0F6B2012E85
:1018000005D040F26D31DFF8500003F079FFF6B2F9
:10181000002E03D0A0892843A08102E0A089A8431C
:10182000A08170BD002C0140003401400004004044
:1018300000080040000C0040004C014000500140F6
:101840000054014000180040001C004000200040EF
:101850000044014000400140F851000800100040E1
:101860000014004000480140F8B504000D001600C7
:101870001F00002000210022DFF874319C421CD0A0
:10188000B4F1804F19D0DFF86C01844215D0DFF835
:101890006801844211D0DFF8640184420DD0DFF882
:1018A0006001844209D0DFF86401844205D04FF41E
:1018B0009F61DFF8940203F023FFADB2012D0BD03E
:1018C000ADB2022D08D0ADB2032D05D040F2F941E2
:1018D000DFF8740203F014FFB6B2002E08D0B6B2DF
:1018E000022E05D040F2FA41DFF85C0203F008FF57
:1018F000BFB2002F08D0BFB2022F05D040F2FB418B
:10190000DFF8440203F0FCFE2089218B228C4FF685
:10191000F873184028434FF6FC43194040F2011376
:1019200019434FF6DD731A4056EA07131A43208114
:1019300021832284F1BD38B504000D002C48844277
:101940003DD0B4F1804F3AD02A48844237D02A485B
:10195000844234D02948844231D0DFF8F4018442F3
:101960002DD0DFF8F001844229D02548844226D0CA
:101970002448844223D0DFF8BC0184421FD0DFF822
:10198000B80184421BD02048844218D0DFF8AC0153
:10199000844214D0DFF8A801844210D01B4884424E
:1019A0000DD0DFF8A001844209D0DFF8A001844205
:1019B00005D040F28451DFF8900103F0A1FEEDB2B2
:1019C000002D08D0EDB2012D05D040F28551DFF891
:1019D000780103F095FEEDB2002D04D0208850F080
:1019E0008000208003E0208820F08000208031BD2E
:1019F000002C01400004004000080040000C0040A2
:101A000000340140004C01400018004000400140FB
:101A100038B504000D000020DFF83C118C4237D0AF
:101A2000B4F1804F34D0DFF83401844230D0DFF895
:101A3000300184422CD0DFF82C01844228D0DFF81A
:101A40002801844224D0DFF82401844220D0394880
:101A500084421DD0384884421AD0DFF814018442F1
:101A600016D03648844213D03548844210D0DFF86F
:101A7000040184420CD03348844209D0DFF8CC0002
:101A8000844205D040F2E951DFF8BC0003F038FE93
:101A9000ADB2082D08D0ADB2002D05D040F2EA510C
:101AA000DFF8A40003F02CFE208B20F00800284370
:101AB000208331BD38B504000D000020DFF89810F8
:101AC0008C4224D0B4F1804F21D0DFF890008442C2
:101AD0001DD0DFF88C00844219D0DFF888008442E2
:101AE00015D0DFF88400844211D0DFF880008442F2
:101AF0000DD0DFF87C00844209D0DFF87800844202
:101B000005D040F20261DFF8400003F0F9FDADB20C
:101B1000082D07D0ADB2002D04D040F203610A4871
:101B200003F0EEFD208B20F4006050EA05202083B6
:101B300031BD00000050014000540140001C004035
:101B40000020004000440140F851000800480140D6
:101B50000010004000140040002C01400004004030
:101B600000080040000C004000340140004C0140DF
:101B7000001800400040014010B50400DFF84801A3
:101B800084423CD0B4F1804F39D0DFF84001844228
:101B900035D0DFF83C01844231D0DFF8380184428F
:101BA0002DD0DFF83401844229D0DFF8300184429F
:101BB00025D01448844222D0144884421FD01648AD
:101BC00084421CD01548844219D01148844216D052
:101BD0001348844213D0DFF8E80084420FD00D4848
:101BE00084420CD0DFF8DC00844208D006488442EE
:101BF00005D04FF41D61DFF8C40003F081FDA08C17
:101C000010BD00000034014000480140004C01407C
:101C100000180040004001400050014000540140C5
:101C2000001C004038B504000D002748844234D021
:101C3000B4F1804F31D0254884422ED024488442CC
:101C40002BD02448844228D02348844225D02348DE
:101C5000844222D0224884421FD0234884421CD090
:101C60002448844219D02448844216D01F48844214
:101C700013D02248844210D0114884420DD01C4811
:101C800084420AD00F48844207D01648844204D0C8
:101C900040F67721094803F033FD4FF47F400542B9
:101CA00002D1ADB2002D04D140F67821034803F0F3
:101CB00027FDADB2E843208231BD0000F851000895
:101CC0000020004000440140002C0140000400407E
:101CD00000080040000C00400010004000140040CC
:101CE0000034014000480140004C01400018004011
:101CF000004001400050014000540140001C0040E1
:101D000040B2002809D540B210F00F00DFF82427B8
:101D10008018090100F8041C04E040B2DFF818271D
:101D200009018154704780B5B0F1807F01D3012053
:101D300013E00002000A401EDFF8001708600F21C0
:101D40005FF0FF30FFF7DCFFDFF8F40600210160F1
:101D5000DFF8F00607210160002002BD10B5040085
:101D60000A2C11D10D21DFF8E00600F042FD8021A0
:101D7000DFF8D40600F0E6FD0028F8D00A21DFF8ED
:101D8000C80600F036FD06E02100C9B289B2DFF8CE
:101D9000B80600F02EFD8021DFF8AC0600F0D2FD81
:101DA0000028F8D0200010BD01B4DFF8A00600998B
:101DB0000160DFF8980600680028FAD101B070478A
:101DC000DFF888060068002806D0DFF88006006883
:101DD000401EDFF878160860704780B502F090FB6F
:101DE000DFF86C0601F038FFDFF8640600684FF496
:101DF0007A71B0FBF1F0FFF796FF002800D0FEE704
:101E00000121042001F0C4FF0121082001F0C0FFDE
:101E10000121102001F0BCFF0121202001F0B8FFBA
:101E20000121012001F0B4FF01214FF4804001F0B5
:101E3000AFFF01215FF4802001F0D1FF01214FF4B9
:101E4000007001F0A5FF0121012001F077FF0121C1
:101E50004FF4006001F09CFF0121012001F0BFFF61
:101E60000121022001F0BBFF0121042001F0B7FF96
:101E700001BD00B58BB0DFF8DC0501F0A7FBDFF892
:101E8000D8050090DFF8D4050190002002900B20C7
:101E9000039000200490802005904FF480700690FD
:101EA0004FF480600790202008904FF40050099074
:101EB00000200A9000A9DFF89C0501F067FC0121D1
:101EC000DFF8900501F031FD0BB000BD00B585B025
:101ED0005FF4C020009001208DF8040001208DF8EF
:101EE00005005FF460200290002003900B208DF825
:101EF000100000A9DFF8680500F064FE0523012248
:101F00000421DFF85C0501F01AF8052302220521FF
:101F1000DFF84C0501F013F8052303220621DFF852
:101F2000400501F00CF8052304220721DFF83005F5
:101F300001F005F8052305220821DFF8240500F04B
:101F4000FEFF052306220921DFF8140500F0F7FF44
:101F5000052307220A21DFF8080500F0F0FF05231A
:101F600008220B21DFF8F80400F0E9FF052309221D
:101F70000C21DFF8EC0400F0E2FF05230A220D211A
:101F8000DFF8DC0400F0DBFF05230B220E21DFF875
:101F9000D00400F0D4FF0121DFF8C40400F00AFFF0
:101FA0000121DFF8BC0400F0D7FEDFF8B40400F034
:101FB0002CFFDFF8AC0400F041FF0028F9D1DFF876
:101FC000A00400F058FFDFF8980400F06DFF00282F
:101FD000F9D10121DFF8880400F083FF05B000BDCE
:101FE00000B587B042F21070ADF8040041F61F4012
:101FF000ADF800000020ADF806000020ADF80200AA
:1020000000208DF8080000A9DFF85804FFF794F8C5
:102010000121DFF85004FFF72FFB0121DFF8440412
:10202000FFF700FE01220121DFF83804FFF789FBEA
:1020300041F26F70ADF804000020ADF80000002000
:10204000ADF806000020ADF8020000208DF8080071
:1020500000A95FF08040FFF76FF86020ADF80C003A
:102060000120ADF80E000020ADF812000020ADF800
:10207000140003A95FF08040FFF718F908215FF012
:102080008040FFF7C5FC03A95FF08040FFF700FA2E
:1020900008215FF08040FFF70DFD01215FF08040D7
:1020A000FFF749FC01215FF08040FFF7E5FA07B038
:1020B00000BD80B500215FF0006002F0C9FB4FF465
:1020C000A06002F061FB25208DF8000000208DF853
:1020D000010001208DF8020001208DF8030000A806
:1020E00002F06DFB27208DF8000000208DF8010024
:1020F00000208DF8020001208DF8030000A802F0F6
:102100005EFB19208DF8000000208DF801000020F2
:102110008DF8020001208DF8030000A802F04FFBAB
:1021200001BD00B583B00021002001F08BF9012032
:10213000009000208DF804000C208DF8050001208F
:102140008DF8060000A801F06FFF0121002001F0CA
:1021500079F90220009000208DF804000C208DF801
:10216000050001208DF8060000A801F05DFF0A219E
:10217000012001F067F90820009000208DF804008C
:102180000C208DF8050001208DF8060000A801F054
:102190004BFF0421012001F055F910200090002090
:1021A0008DF804000C208DF8050001208DF8060044
:1021B00000A801F039FF07BD80B54FF40070ADF8FD
:1021C000000003208DF8020018208DF8030000A9FC
:1021D000A54800F09BFF4FF48060ADF8000004209C
:1021E0008DF8030000A9A04800F090FF4FF4806034
:1021F000ADF8000003208DF8020018208DF80300D0
:1022000000A99A4800F082FF4FF40060ADF800008A
:1022100004208DF8030000A9944800F077FF032004
:10222000ADF8000004208DF8030000A98E4800F0EE
:102230006DFFF020ADF8000000208DF8030000A92C
:10224000894800F063FF0320ADF8000000208DF8FE
:10225000030000A9854800F059FF1F20ADF80000D9
:1022600000208DF8030000A9814800F04FFF4FF4D3
:102270007040ADF8000010208DF8030000A97B48E5
:1022800000F044FFC020ADF8000003208DF80200EC
:1022900048208DF8030000A9744800F037FFC020E3
:1022A000ADF8000003208DF8020048208DF80300EF
:1022B00000A96F4800F02AFF01216E4800F0ECFFF2
:1022C0004FF40040ADF8000003208DF80200182004
:1022D0008DF8030000A9644800F018FF0820ADF84D
:1022E000000003208DF8020018208DF8030000A9DB
:1022F0005E4800F00BFF01215F4800F0CDFF012197
:102300005E4800F0C9FF01BD00B585B00090002017
:10231000ADF804000020ADF806000020ADF808007C
:102320000020ADF80C000C20ADF80A00012240F2AC
:102330002551454800F0D0F900A9434800F0AAF81B
:102340000121414800F092F905B000BD00B585B00B
:1023500000900020ADF804000020ADF80600002039
:10236000ADF808000020ADF80C000C20ADF80A0014
:10237000012240F22551424800F0AEF900A9404840
:1023800000F088F801213E4800F070F905B000BD6A
:10239000E0B50020ADF800004FF6FF70ADF8040086
:1023A0000020ADF806000020ADF8020000208DF8F6
:1023B000080000A93348FEF7BFFE002300220321D6
:1023C0003048FFF751FA01212E48FFF7B4FA0121F6
:1023D0002C48FFF751F92B48FFF7CEFB2A4908801C
:1023E0000020ADF800004FF6FF70ADF804000020AB
:1023F000ADF806000020ADF8020000208DF80800BE
:1024000000A92248FEF798FE0023002203211F485E
:10241000FFF72AFA01211D48FFF78DFA01211B4819
:10242000FFF72AF91948FFF7A7FB1949088007BDEC
:102430000000000018ED00E000E400E014E000E01F
:1024400018E000E010E000E000380140AC09002096
:102450007C090020080002404C2401405009002063
:1024600000240140002C014000080140000C014004
:1024700000100140000C1A00000430000003180096
:102480000048004000080040C80900200004004047
:10249000CA090020F0B585B004000D00002000211D
:1024A000002200230026DFF88074BC4214D0DFF83D
:1024B0007C04844210D0DFF8780484420CD0DFF82A
:1024C0007404844208D0DFF87404844204D0B82134
:1024D000DFF8640403F014F92868002804D02868A1
:1024E000DFF85C14884204D3B921DFF84C0403F010
:1024F00007F9A888002808D0A888B0F5805F04D024
:10250000BA21DFF8340403F0FBF8E888002810D083
:10251000E888B0F5805F0CD0E888B0F5005F08D09F
:10252000E888B0F5405F04D0BB21DFF80C0403F06D
:10253000E7F8288900280CD02889B0F5806F08D0EA
:102540002889B0F5C06F04D0BC21DFF8EC0303F09C
:10255000D7F868894FF6F371084202D168890028DC
:1025600004D1BD21DFF8D00303F0CAF8A889002800
:1025700013D0A8894FF4807188420ED0A8894FF4F7
:102580000071884209D0A8894FF44071884204D074
:10259000BE21DFF8A40303F0B3F8A889002810D007
:1025A000DFF8840384420CD0DFF88003844208D033
:1025B000DFF87C03844204D0C221DFF87C0303F0FF
:1025C0009FF82600208A4CF6FF710840E9880843EE
:1025D0002082A0894EF6F3110840A9882A89114368
:1025E0006A8911430843A081A08A4FF6FF41084041
:1025F000A9890843A08200A801F02EFBDFF8280378
:10260000864201D1039900E00299A089000407D510
:10261000192000FB01F029684900B0FBF1F206E047
:10262000192000FB01F029688900B0FBF1F2642059
:10263000B2FBF0F000010109642303FB1123A1891F
:10264000090408D5D90032316422B1FBF2F111F04E
:102650000701084307E0190132316422B1FBF2F1AE
:1026600011F00F010843208105B0F0BD38B504001A
:102670000D00DFF8B402844215D0DFF8B0028442C6
:1026800011D0DFF8AC0284420DD0DFF8A8028442FA
:1026900009D0DFF8A802844205D04FF4B171DFF809
:1026A000980203F02DF8EDB2002D08D0EDB2012D07
:1026B00005D040F26311DFF8800203F021F8EDB29B
:1026C000002D04D0A08950F40050A08103E0A0891F
:1026D00020F40050A08131BDF8B504000D001600B3
:1026E0000020002100220023DFF83C72BC4215D0FC
:1026F000DFF83802844211D0DFF8340284420DD072
:10270000DFF83002844209D0DFF83002844205D07D
:1027100040F28911DFF8200202F0F2FFADB2282D5D
:1027200026D040F22770ADB2854221D040F226601B
:10273000ADB285421CD040F22550ADB2854217D0D3
:1027400040F22440ADB2854212D040F64600ADB210
:1027500085420DD040F66A10ADB2854208D0ADB2C8
:10276000602D05D04FF4C571DFF8CC0102F0C8FF31
:10277000F6B2002E08D0F6B2012E05D040F28B1131
:10278000DFF8B40102F0BCFF40F66A10ADB285423A
:1027900011D1DFF8940184420DD0DFF8900184421A
:1027A00009D0DFF88C01844205D040F28F11DFF8A8
:1027B000880102F0A5FF23002800C0B24009C0B282
:1027C000ADB215F01F0101228A40012801D10C335E
:1027D00004E0022801D1103300E01433F6B2002ED9
:1027E00003D018681043186002E01868904318601E
:1027F000F1BD38B504000D004B48844210D04B4861
:1028000084420DD04A4884420AD04A48844207D0C4
:102810004A48844204D040F25321474802F070FFF6
:102820004FF40070ADB2854204D34FF415714248A5
:1028300002F066FFE805C00DA08031BD80B5010043
:1028400089B2DFF86403FFF7D4FF8021DFF8580373
:1028500000F078F80028F8D001BD10B50400A4B24B
:10286000DFF8480394FBF0F100FB114042F21071D5
:1028700090FBF1F0303080B2FFF7E0FFA4B242F2FB
:10288000107094FBF0F100FB11404FF47A7190FB53
:10289000F1F0303080B2FFF7D1FFA4B24FF47A707C
:1028A00094FBF0F100FB1140642190FBF1F030301B
:1028B00080B2FFF7C3FFA4B2642094FBF0F100FBE9
:1028C00011400A2190FBF1F0303080B2FFF7B6FFE3
:1028D000A4B20A2094FBF0F100FB1140303080B22A
:1028E000FFF7ACFF00F001F810BD80B52020FFF726
:1028F000A5FF01BD10B504000B48844210D00B4861
:1029000084420DD00A4884420AD00A48844207D043
:102910000A48844204D04FF42371074802F0F0FEC5
:10292000A088C005C00D10BD003801400044004023
:1029300000480040004C0040D44F000800500040C8
:1029400021AA440038B504000D00002096498C42AD
:1029500010D0974884420DD0964884420AD09648B9
:10296000844207D09648844204D040F2963193487E
:1029700002F0C6FEADB2012D23D0ADB2802D20D025
:10298000ADB2402D1DD0ADB2202D1AD0ADB2102D5C
:1029900017D04FF48070ADB2854212D04FF4007062
:1029A000ADB285420DD0ADB2082D0AD0ADB2042D26
:1029B00007D0ADB2022D04D040F297317F4802F02B
:1029C0009FFE4FF40070ADB285420DD1764884422F
:1029D0000AD07748844207D07648844204D040F237
:1029E0009B31764802F08CFE2088284201D00120DD
:1029F00000E00020C0B232BD70B504000D0000211F
:102A0000002200230020684EB44210D0684884425F
:102A10000DD0684884420AD06748844207D068488D
:102A2000844204D040F2E931644802F069FEADB25C
:102A3000282D31D040F22770ADB285422CD040F223
:102A40002660ADB2854227D040F22550ADB2854216
:102A500022D040F22440ADB285421DD040F646005F
:102A6000ADB2854218D040F66A10ADB2854213D09F
:102A70004FF45870ADB285420ED04FF41870ADB21D
:102A8000854209D04FF4B070ADB2854204D040F217
:102A9000EA314A4802F034FE40F66A10ADB285428F
:102AA0000DD1414884420AD04148844207D0414870
:102AB000844204D040F2EE31404802F021FE28006A
:102AC000C0B24309DBB2ADB215F01F02012010FA0B
:102AD00002F2012B02D1A089024006E0022B02D1B2
:102AE000208A024001E0A08A0240ADB2290A89B2E0
:102AF000012010FA01F120880140002A03D00029AA
:102B000001D0012000E00020C0B270BD38B5040043
:102B10000D0000200021244A944210D02448844211
:102B20000DD0244884420AD02348844207D0244848
:102B3000844204D040F23241204802F0E1FD40F2EC
:102B40002660ADB2854213D040F22550ADB2854229
:102B50000ED040F64600ADB2854209D040F66A106C
:102B6000ADB2854204D040F23341144802F0C8FDB2
:102B700040F66A10ADB285420DD10B4884420AD0AE
:102B80000B48844207D00B48844204D040F23741BE
:102B90000A4802F0B5FDADB2280A0121814089B290
:102BA000C843208031BD000000380140A0860100EC
:102BB0000044004000480040004C0040D44F000852
:102BC0000050004070B504000D0000200026DFF822
:102BD00020158C420CD0DFF81C05844208D0DFF8A9
:102BE0001805844204D0DF21DFF8100502F088FDCB
:102BF0002868002828D02868B0F5803F24D02868AD
:102C0000B0F5003F20D02868B0F5403F1CD02868C0
:102C1000B0F5802F18D02868B0F5A02F14D0286800
:102C2000B0F5C02F10D02868B0F5E02F0CD0286880
:102C3000B0F5002F08D02868B0F5102F04D0E0219F
:102C4000DFF8B80402F05CFD2879002807D0287965
:102C5000012804D0E121DFF8A40402F051FD6879D5
:102C6000002807D06879012804D0E221DFF88C041D
:102C700002F046FDA868002837D0A868B0F5003FEC
:102C800033D0A868B0F5802F2FD0A868B0F5C02F3A
:102C90002BD0A868B0F5002F27D0A868B0F5202F5A
:102CA00023D0A868B0F5402F1FD0A868B0F5602FDA
:102CB0001BD0A868002818D0A868B0F5003F14D031
:102CC000A868B0F5C02F10D0A868B0F5002F0CD0C0
:102CD000A868B0F5202F08D0A868B0F5402F04D020
:102CE000E321DFF8180402F00BFDE868002808D0A3
:102CF000E868B0F5006F04D0E421DFF8000402F0CA
:102D0000FFFC287C401EC0B2102804D3E521DFF868
:102D1000EC0302F0F5FC6068DFF8E4130840296872
:102D20002A7951EA022108436060A068DFF8D413D1
:102D30000840E968AA6811436A7951EA42010843E8
:102D4000A060E06A30F47000297C491E0E43F6B2A0
:102D500050EA0650E06270BD38B504000D00DFF89F
:102D6000900384420DD0DFF88C03844209D0DFF851
:102D70008803844205D04FF49771DFF8800302F096
:102D8000BFFCEDB2002D08D0EDB2012D05D040F210
:102D90002F11DFF8680302F0B3FCEDB2002D04D070
:102DA000A06850F00100A06003E0A06820F00100DE
:102DB000A06031BD38B504000D00DFF83403844253
:102DC00009D0DFF83403844205D040F24711DFF820
:102DD0002C0302F095FCEDB2002D08D0EDB2012DD0
:102DE00005D04FF4A471DFF8140302F089FCEDB2B2
:102DF000002D05D0A0684FF480710843A06003E067
:102E0000A06820F48070A06031BD10B50400DFF828
:102E1000E00284420DD0DFF8DC02844209D0DFF802
:102E2000D802844205D04FF4BF71DFF8DC0202F013
:102E300067FCA06850F00800A06010BD10B5040049
:102E40000020DFF8AC128C420DD0DFF8A8028442DB
:102E500009D0DFF8A402844205D04FF4C671DFF830
:102E6000A80202F04DFCA068000701D5012000E097
:102E70000020C0B210BD10B50400DFF87402844217
:102E80000DD0DFF87002844209D0DFF86C02844272
:102E900005D04FF4D271DFF8700202F031FCA06867
:102EA00050F00400A06010BD10B504000020DFF851
:102EB00040128C420DD0DFF83C02844209D0DFF88A
:102EC0003802844205D04FF4D971DFF83C0202F099
:102ED00017FCA068400701D5012000E00020C0B227
:102EE00010BD38B504000D00DFF8040284420DD097
:102EF000DFF80002844209D0DFF8FC01844205D0EB
:102F00004FF4E671DFF8000202F0FAFBEDB2002D9B
:102F100008D0EDB2012D05D040F2CD11DFF8E80167
:102F200002F0EEFBEDB2002D04D0A06850F4A0003A
:102F3000A06003E0A06830F4A000A06031BDF8B547
:102F400004000D0016001F0000200021DFF8A02162
:102F500094420DD0DFF89C01844209D0DFF898013B
:102F6000844205D040F25221DFF89C0102F0C8FBF8
:102F7000EDB2002D38D0EDB2012D35D0EDB2022DDD
:102F800032D0EDB2032D2FD0EDB2042D2CD0EDB206
:102F9000052D29D0EDB2062D26D0EDB2072D23D078
:102FA000EDB2082D20D0EDB2092D1DD0EDB20A2DC5
:102FB0001AD0EDB20B2D17D0EDB20C2D14D0EDB20E
:102FC0000D2D11D0EDB20E2D0ED0EDB20F2D0BD078
:102FD000EDB2102D08D0EDB2112D05D040F25321E5
:102FE000DFF8240102F08CFB701EC0B2102805D35C
:102FF0004FF41571DFF8100102F082FBFFB2002FD1
:103000001AD0FFB2012F17D0FFB2022F14D0FFB297
:10301000032F11D0FFB2042F0ED0FFB2052F0BD01B
:10302000FFB2062F08D0FFB2072F05D040F255217E
:10303000DFF8D40002F064FBEDB20A2D11D3E06892
:103040000721B5F10A0203235A4391408843FFB296
:10305000B5F10A010322514317FA01F10843E06078
:103060000EE020690721032202FB05F2914088430C
:10307000FFB2032101FB05F117FA01F108432061BA
:10308000F6B2072E0FD2606B1F21721E05235A4322
:1030900091408843EDB2711E0522514315FA01F1AA
:1030A0000843606323E0F6B20D2E0FD2206B1F2180
:1030B000F21F05235A4391408843EDB2F11F0522C8
:1030C000514315FA01F10843206310E0E06A1F2123
:1030D000B6F10D0205235A4391408843EDB2B6F193
:1030E0000D010522514315FA01F10843E062F1BDDB
:1030F0000024014000280140003C0140B450000879
:10310000FFFEF0FFFDF7F1FFB4500008F8B5040032
:103110000D00002600220021002300200027DFF8F8
:1031200060C164451CD0DFF85C01844218D0DFF830
:103130005801844214D0DFF85401844210D0DFF8E3
:10314000500184420CD0DFF84C01844208D0DFF8F3
:10315000F002844204D0B221DFF8D80302F0D0FAA2
:10316000E878002819D0E878042816D0E8782828CC
:1031700013D0E878482810D0E87814280DD0E878E3
:1031800010280AD0E8781C2807D0E878182804D03E
:10319000B321DFF8A00302F0B3FA2888002804D195
:1031A000B421DFF8900302F0ABFAE87810F00F06D4
:1031B000E878C0060FD5A87801280AD0A878022898
:1031C00007D0A878032804D0BB21DFF8680302F0F9
:1031D00097FAA87806432878000622D020680021B4
:1031E00006E0EA78482A02D101228A402261491C7D
:1031F000082915D2012212FA01F32A881A409A42AC
:10320000F5D18B000F2212FA03F7B84316FA03F236
:103210001043EA78282AE4D101228A406261E6E775
:10322000206028884FF48071884227D3606800218D
:1032300021E0012211F1080312FA03F32A881A404F
:103240009A4217D18B000F2212FA03F7B84316FAED
:1032500003F21043EA78282A04D1012211F108036D
:103260009A406261EA78482A04D1012211F10803E8
:103270009A402261491C0829DBD36060F1BD00003F
:1032800000080140000C0140001001400014014002
:1032900000180140001C014038B504000D0000205A
:1032A000002200210023012C00F08580022C00F078
:1032B0008280042C00F07F80082C7CD09E488442C1
:1032C00079D09E48844276D09D48844273D09D48F0
:1032D000844270D09C4884426DD09C4884426AD01D
:1032E0009B48844267D09B48844264D09A48844279
:1032F00061D0B4F5805F5ED0B4F5EA1F5BD0B4F561
:10330000EB1F58D0B4F5004F55D09448844252D0AA
:10331000934884424FD0934884424CD09248844290
:1033200049D09248844246D0B4F1201F43D09048FF
:10333000844240D08F4884423DD08F4884423AD066
:103340008E48844237D08E48844234D08D4884429F
:1033500031D0B4F5011F2ED08B4884422BD08B483E
:10336000844228D08A48844225D08A48844222D088
:10337000894884421FD0894884421CD088488442AE
:1033800019D08848844216D08748844213D0874891
:10339000844210D0864884420DD0864884420AD0A8
:1033A0008548844207D08548844204D040F22A21CF
:1033B000604802F0A5F9EDB2002D07D0EDB2012D65
:1033C00004D040F22B215B4802F09AF9002C02D580
:1033D0007B48016801E07B480168C4F30343A0B265
:1033E00014F44012B2F5401F08D131F07061754AF3
:1033F000126832F07062734B1A6010E0E20205D579
:1034000003229A40914351F0706108E0C4F347529F
:10341000D2B2120110FA02F2914351F07061EDB292
:10342000002D05D0C4F34752D2B21201904001439F
:10343000002C02D56248016001E06248016031BDA4
:103440000020014038B504000D000020E4B2002C3B
:1034500016D0E4B2012C13D0E4B2022C10D0E4B2A6
:10346000032C0DD0E4B2042C0AD0E4B2052C07D012
:10347000E4B2062C04D040F265212E4802F040F957
:10348000EDB2002D31D0EDB2012D2ED0EDB2022DD6
:103490002BD0EDB2032D28D0EDB2042D25D0EDB206
:1034A000052D22D0EDB2062D1FD0EDB2072D1CD078
:1034B000EDB2082D19D0EDB2092D16D0EDB20A2DBE
:1034C00013D0EDB20B2D10D0EDB20C2D0DD0EDB20E
:1034D0000D2D0AD0EDB20E2D07D0EDB20F2D04D078
:1034E00040F26621134802F00BF90F2015F003019A
:1034F000C9B289008840EDB2A910334A52F82110B0
:1035000031EA0000EDB2A9102F4A42F82100EDB2D5
:10351000A8102D4951F82000E4B215F00301C9B2FA
:10352000890014FA01F10843EDB2A910264A42F8C5
:10353000210031BD644F0008100014003000140059
:1035400040001600C000160000011800000218001C
:103550000003180000081A00000C1A0001002000E7
:1035600002002000040020000800200010002000BD
:103570004000200000013000000230000004300054
:1035800000112000002020000100008002000080C7
:1035900004000080080000801000008020000080EF
:1035A0004000008080000080000100800002008058
:1035B00000040080000800800010008000200080CF
:1035C0001C000140040001400800014010B5040047
:1035D000DFF8FC03844230D0DFF8F80384422CD0BB
:1035E000DFF8F403844228D0DFF8F003844224D0CB
:1035F000DFF8EC03844220D0DFF8E80384421CD0DB
:10360000DFF8E403844218D0DFF8E003844214D0EA
:10361000DFF8DC03844210D0DFF8D80384420CD0FA
:10362000DFF8D403844208D0DFF8D003844204D00A
:103630006F21DFF8CC0302F063F820684FF6FE71CB
:103640000840206000202060002060600020A06012
:103650000020E060DFF87803844208D1DFF8A4039B
:10366000006850F00F00DFF89C1308608DE0DFF871
:103670006403844208D1DFF88C03006850F0F00046
:10368000DFF88013086080E0DFF84C03844208D143
:10369000DFF87003006850F47060DFF868130860AA
:1036A00073E0DFF83803844208D1DFF8580300687C
:1036B00050F47040DFF84C13086066E0DFF8200338
:1036C000844208D1DFF83C03006850F47020DFF832
:1036D0003413086059E0DFF80C03844208D1DFF8A6
:1036E0002403006850F47000DFF8181308604CE001
:1036F000DFF8F402844208D1DFF80803006850F0D4
:103700007060DFF8001308603FE0DFF8E0028442F9
:1037100008D1DFF8F402006850F00F00DFF8E8127B
:10372000086032E0DFF8C802844208D1DFF8D8022E
:10373000006850F0F000DFF8D012086025E0DFF8F4
:10374000B402844208D1DFF8C002006850F470600F
:10375000DFF8B412086018E0DFF89C02844208D158
:10376000DFF8A402006850F47040DFF89C12086093
:103770000BE0DFF88802844207D1DFF88C02006892
:1037800050F47020DFF88012086010BD38B50400D6
:103790000D000020DFF838128C4230D0DFF8340200
:1037A00084422CD0DFF83002844228D0DFF82C028B
:1037B000844224D0DFF82802844220D0DFF824029B
:1037C00084421CD0DFF82002844218D0DFF81C02AB
:1037D000844214D0DFF81802844210D0DFF81402BB
:1037E00084420CD0DFF81002844208D0DFF80C02CB
:1037F000844204D0CF21DFF8080201F081FFA868DD
:10380000102807D0A868002804D0D021DFF8F001E4
:1038100001F076FFE868002803D0E868B0F5803F43
:1038200004D3D121DFF8D80101F06AFF28694028CC
:1038300007D02869002804D0D221DFF8C40101F0A4
:103840005FFF6869802807D06869002804D0D32109
:10385000DFF8AC0101F054FFA86900280ED0A86978
:103860004FF48071884209D0A8694FF400718842F2
:1038700004D0D421DFF8880101F042FFE869002874
:103880000CD0E869B0F5806F08D0E869B0F5006F3A
:1038900004D0D521DFF8680101F032FF286A202822
:1038A00007D0286A002804D0D621DFF8540101F09F
:1038B00027FF686AB0F5405F0FD0686AB0F5005F17
:1038C0000BD0686AB0F5805F07D0686A002804D022
:1038D000D721DFF82C0101F013FFA86AB0F5804F63
:1038E00007D0A86A002804D0D821DFF8140101F01D
:1038F00007FF2068DFF814110840A9682A6A1143FD
:103900002A6911436A691143AA691143EA6911439B
:103910006A6A1143AA6A114308432060E86860603C
:103920002868A0606868E06031BD38B504000D000B
:10393000DFF89C00844231D0DFF8980084422DD01B
:10394000DFF89400844229D0DFF89000844225D02B
:10395000DFF88C00844221D0DFF8880084421DD03B
:10396000DFF88400844219D0DFF88000844215D04B
:10397000DFF87C00844211D0DFF8780084420DD05B
:10398000DFF87400844209D0DFF87000844205D06B
:1039900040F22911DFF8680001F0B2FEEDB2002D0F
:1039A00008D0EDB2012D05D04FF49571DFF850002D
:1039B00001F0A6FEEDB2002D04D0206850F0010009
:1039C000206004E020684FF6FE710840206031BDA1
:1039D000080002401C000240300002404400024047
:1039E000580002406C00024080000240080402407F
:1039F0001C040240300402404404024058040240C7
:103A00002051000804000240040402400F80FFFF20
:103A1000F0B540F2FF7581EA030C0CF0004C15EA9A
:103A200011541DBF15EA1357AC42AF42E5E0BC414B
:103A3000C1F31301C3F31303801A994143F48013B4
:103A400004D2641E4000494180185941C90241EA2C
:103A50005051B1FBF3F603FB1611A2FB0675D7EB31
:103A6000C020A94102D2761E80185941C90241EAFC
:103A70005051B1FBF3FE03FB1E11A2FB0E75D7EBF9
:103A8000C020A94103D2AEF1010E8018594189022C
:103A900041EA9051760546EA8E2EB1FBF3F603FB20
:103AA0001611A2FB0675D7EB8020A94102D2761E23
:103AB00080185941C90241EA50514EEA060EB1FB45
:103AC000F3F603FB1611A2FB0675D7EBC020A94144
:103AD00002D2761E80185941C90241EA5051B1FB09
:103AE000F3F703FB1711A2FB0735D3EBC020A94165
:103AF00067F100070CBF004247F0010766F3D527C6
:103B00004FEA1E31B80814F5806412DDBD0775F167
:103B1000004250EB0E5051EB045111F5801F5CBF79
:103B200041EA0C01F0BD4CF07F6141F0E041002022
:103B3000F0BDBD076D0840EA0E5041F48011D4F18C
:103B40000104B4F120060ADAC4F120060200E040C4
:103B500001FA06F3E1401843B24015430EE0342C5D
:103B600013DCC6F1200445EA40056D0820FA06F290
:103B7000154321FA06F0A1400D43002175F10042E2
:103B800050F1000051EB0C01F0BD00205FEA0C0188
:103B9000F0BDCFB992185B41B3FA83F704BFB2FA14
:103BA00082F6BF190B3FB7F120062FBF02FA06F3CA
:103BB000BB40C7F1200622FA06F638BF3343BA40AD
:103BC0001CB1E419641E33E77F4231F00041B1FAC1
:103BD00081F404BFB0FA80F6A4190B3CB4F12006BE
:103BE0002FBF00FA06F1A140C4F1200620FA06F624
:103BF00038BF3143A0403C1B1AE7AC421ABF05EA6C
:103C00001357AF4212E050EA41061CBF52EA430686
:103C1000BFE750EA4107304661461CBF41EA055103
:103C2000F0BD52EA430C08BFC143F0BD00204FF481
:103C3000001616EB410F98BF16EB430F08BF16EBAB
:103C4000410F24BFC14305E016EB430F0CBF614693
:103C50004CEA0551F0BD000030B4002200210023E1
:103C60000024DFF8C8512D6815F00C052A00002A41
:103C700004D0042A06D0082A08D029E0DFF8B411BD
:103C8000016028E0DFF8B011016024E0DFF89C114A
:103C9000096811F47011DFF89421126812F480336E
:103CA000890C891C002B04D1DFF89021514301605D
:103CB00011E0DFF878211268920304D5DFF8802143
:103CC0005143016007E0DFF870215143016002E0D9
:103CD000DFF860110160DFF85411096811F0F0029B
:103CE0001209DFF86011545C0168E1404160DFF8BF
:103CF0003C11096811F4E062120ADFF84811545CC3
:103D00004168E1408160DFF82411096811F46052D4
:103D1000D20ADFF83011545C4168E140C160DFF83D
:103D20000C11096811F44042920BDFF81C11545C2D
:103D3000C168B1FBF4F1016130BC704738B50400D3
:103D40000D00DFF80801044201D1002C04D140F23B
:103D50002D41374801F0D4FCEDB2002D07D0EDB273
:103D6000012D04D040F22E41314801F0C9FCEDB2E2
:103D7000002D07D0DFF8D80000682043DFF8D0100E
:103D8000086004E032480068A0433149086031BD52
:103D900038B504000D002F48044201D1002C04D195
:103DA00040F24C41224801F0ABFCEDB2002D07D0AF
:103DB000EDB2012D04D040F24D411D4801F0A0FCB0
:103DC000EDB2002D05D02448006820432249086048
:103DD00004E021480068A0431F49086031BD38B5A0
:103DE00004000D001D48044201D1002C04D140F212
:103DF0006B410F4801F084FCEDB2002D07D0EDB20D
:103E0000012D04D040F26C41094801F079FCEDB27B
:103E1000002D05D01248006820431149086004E0D5
:103E20000F480068A0430E49086031BD04100240ED
:103E30008C51000800127A00001BB70000093D00F9
:103E4000808D5B00E4080020F4080020A8FAFFFF42
:103E5000141002400200C0FF181002400036018119
:103E60001C1002407047FEE7FEE7FEE7FEE77047E2
:103E70007047704780B5FDF7A3FF01BD70477047DD
:103E8000704770477047704780B5012000F03DF9DA
:103E9000002805D00A20FEF7E0FC012000F082F99E
:103EA00001BD80B5022000F030F9002805D00C20BB
:103EB000FEF7D3FC022000F075F901BD704780B514
:103EC000082000F022F9002805D04C4801F09EFBA4
:103ED000082000F067F901BD7047704770477047D0
:103EE000704770477047704770477047704770471A
:103EF00070477047704780B501214148FDF792FE39
:103F00000120FEF7AAFC01BD7047704780B5012172
:103F10005FF08040FDF786FE01BD70477047704737
:103F20007047704770477047704780B540F2255121
:103F30003448FEF7EBFD40F225513248FEF75CFDB8
:103F4000002847D02F48FEF7D5FC2F4909782F4A83
:103F500088542D4800782D49405C80B2FEF77DFCE6
:103F6000294800782949405C01281CD101212848B2
:103F7000FEF720FF01212648FEF7EEFE2448FEF75B
:103F800044FF2348FEF75AFF0028FAD12048FEF7E5
:103F900072FF1F48FEF788FF0028FAD101211C4854
:103FA000FEF79FFF16E0184800781849405C022889
:103FB00004D100211648FEF7CFFE0BE0124800782E
:103FC0001249405C032805D11248FDF7D5FD80B2A7
:103FD000FEF743FC01BD704780B540F2255109480A
:103FE000FEF70AFD002807D040F225510548FEF7EC
:103FF0008DFD0A20FEF731FC01BD0000505700087E
:10400000002C014000380140FC0800206809002015
:1040100000240140000800407047704780B55FF4FD
:10402000802000F0BFF801BD10B504000020217908
:10403000002906D02079042803D06A21664801F0BF
:104040005FFB6079082809D060790C2806D0607978
:10405000102803D06B21604801F052FB2068000D4E
:104060000005002802D12068002803D16C215A489D
:1040700001F046FBA079002806D0A079012803D0E2
:104080006D21554801F03CFB4E48A179002935D0FF
:104090004C490968226891434A4A11604A490968B3
:1040A00022689143484A1160217908180168226802
:1040B000114301604548006821688843434908600E
:1040C00043480068216888434149086060791028A6
:1040D0000CD13E480068216808433C4908603C48D0
:1040E0000068216808433A4908600DE03548617965
:1040F0000818016822681143016005E02179081859
:10410000016822689143016010BD10B504000020D1
:104110000021012C37D0022C35D0042C33D0082CB0
:1041200031D0102C2FD0202C2DD0402C2BD0802CF7
:1041300029D04FF48070844225D04FF4007084421F
:1041400021D0B4F5806F1ED0B4F5006F1BD0B4F54C
:10415000805F18D0B4F5005F15D0B4F5804F12D051
:10416000B4F5004F0FD0B4F5803F0CD0B4F5003F4C
:1041700009D0B4F5802F06D0B4F5002F03D0E52187
:10418000154801F0BDFA0F48006814EA0001114813
:104190000068204203D0002901D0012000E0002067
:1041A000C0B210BD10B50400200D0005002801D1DB
:1041B000002C03D1FC21084801F0A2FA0548046054
:1041C00010BD000000040140040401400804014047
:1041D0000C04014014040140F44E0008B0B581EA1B
:1041E000030C0CF0004C40F2FF7515EA11541DBF92
:1041F00015EA1357AC42AF423AE0E41923EA4553BB
:1042000043F48013C90241F0004141EA50574FEA9C
:10421000C02E1100AEFB020200284FF00000E7FBA9
:1042200001204FF00001E3FB0E2118BF42F0010214
:10423000401800214941E3FB0701A4F580640F0306
:1042400002D252004041494154F101046BDD47085C
:1042500072F1004250F1000051EB0451A1F58011C0
:104260005CBF41EA0C01B0BD4CEA05510020B0BD75
:1042700005EA1357AC4214BFAF4240E050EA410E8A
:104280001CBF52EA430E02E061460020B0BD24424A
:104290003C441AD13F42F7D0090302BF0146002037
:1042A000143FB1FA81FEA7EB0E0401FA0EF70EF1EE
:1042B0000C0ECEF1200100FA0EFEC84047EA0007BE
:1042C00023EA455343F48013A3E733F00043B3FAE2
:1042D00083F704BFB2FA82FE77440B3FE41BB7F1C9
:1042E000200E2FBF02FA0EF3BB40C7F1200E22FAB8
:1042F0000EFE38BF43EA0E03BA40641C82E750EA60
:10430000410E14BF52EA430E6FF000014FF4001744
:1043100017EB430F8ABF194617EB410FB6E74CEA7C
:1043200005510020B0BDD4F10104B4F120070FDA2B
:10433000C4F12007520828BF42F0010210FA07F525
:1043400001FA07F7E1BF2A43E0403843E1400FE0BC
:10435000352C99DCC7F1200452EA400220FA07F21A
:1043600018BF42F0010231FA07F0A1400A430021D0
:1043700072F1004250F1000051EB0C01B0BD0000A1
:1043800070B44FF0004591EA030F44BF6B4000F05A
:1043900018BB841A71EB030604D26E40001BB141B6
:1043A000121973414FF4001C1CEB410F34BF7CEB1E
:1043B000430684E00C0DA4EB1356362E7DDC012E53
:1043C00043DC45EAC32343EA525312BFD2029202AE
:1043D0005B08240545EAC12141EA5051D2EBC020D7
:1043E000994125D407D1B0FA80F610FA06F164D0CD
:1043F0000020203608E0B1FA81F6B140C6F1200273
:1044000020FA02F21143B0404FEAF474B4EB465480
:1044100034F001064FEA74040AD8D6F50016760D7A
:1044200004F00044F04061FA06F25040F140484088
:10443000C00A40EA415021F0004128BF5FEA500520
:1044400050F1000044EBD12137E045EAC323DB0AF9
:1044500045EAC121C90AB6F120050EDD42EA024251
:10446000120CC5F1200603FA06F6EB4042EA0605F7
:104470006D42984161F100010DE062FA06F5F240EB
:10448000554063FA06FC82EA0C02F3405A406D4242
:10449000904161EB030111F4801F05D1641E620598
:1044A00002D06D004041494121F48011430875F16B
:1044B000004350F1000041EB045170BC70471CEB0D
:1044C000410F15D223F0004352EA43060BD04FEAC6
:1044D0004C0CBCEB410F04D80C0D661E342EB7DD1E
:1044E000EBE7801A994150EA410608BF0021E4E752
:1044F00008BF1CEB430F28BF6FF00001DDE7000091
:1045000080B54E48006850F001004C4908604C48A6
:1045100000684C4908404A490860484800684A49D0
:104520000840464908604548016821F4802101603F
:104530004348006830F4FE004149086043485FF496
:104540001F01016000F005F841485FF00061016063
:1045500001BD80B500F001F801BD82B000200190DE
:10456000002000903548006850F4803033490860DE
:104570003248006810F4003000900198401C01900F
:104580000098002803D10198B0F5A06FF0D12B4816
:104590000068800302D50120009001E00020009017
:1045A0000098012847D12B48006850F01000294995
:1045B000086028480068800880002649086025486F
:1045C000006850F00200234908601D481C49096832
:1045D00001601B481A49096801601948006850F4D5
:1045E0008060174908601648006830F47C10144950
:1045F00008601348006850F48810114908600F489B
:10460000006850F080700D4908600C480068800117
:10461000FBD50B48006880088000094908600848FD
:10462000006850F00200064908600548006810F074
:104630000C000828F9D102B07047000000100240B9
:10464000041002400000FFF8FFFFF6FE08100240D1
:1046500008ED00E00020024013F0004C03D55B425F
:10466000524263F100039CEA210C15D11B4229D16F
:1046700009424CD12AB18446B0FBF2F002FB10C2D1
:10468000704701F0B7B8FCD30022002370470B003D
:10469000020000210020704710B5644603D3494250
:1046A000404261F10001FFF7E1FF640004D3494299
:1046B000404261F10001244203D55B42524263F162
:1046C000000310BD904271EB030CE0D370B5B1FA5A
:1046D00081F4B3FA83F52C1BA340C4F1200532FA10
:1046E00005F63343A2405FF00046E64002E05B0877
:1046F0005FEA3202841A71EB030524BF2046294683
:104700007641F4D302000B003000002170BD012A75
:10471000B9D970B5140C20D0B1FA81F4B2FA82F58F
:10472000C4F120046419B4F12006D6D3B2405FF07E
:104730000044F440002502E052085FEA3303C61A41
:1047400071EB020E24BF3046714664416D41F3D3D4
:1047500002000B002000290070BD0C46B1FBF2F1F5
:1047600002FB11452D0445EA1045B5FBF2F402FBAE
:10477000145580B240EA0545B5FBF2F002FB105239
:1047800040EA044070BD000010B50400B4F5E06FCD
:1047900010D0B4F5C06F0DD0B4F5A06F0AD0B4F549
:1047A000806F07D04FF44070844203D063213548B6
:1047B00000F0A6FF344820433449086010BD38B5E6
:1047C0000400002000210F25E278002A06D0E078BE
:1047D000012803D075212B4800F092FF6078102843
:1047E00003D37621274800F08BFFA078102803D34D
:1047F0007721244800F084FFE07800281DD023486A
:10480000006810F4E060D0F5E060000AD0F1040127
:10481000C54060788840A17829400843000121788C
:104820001B4A8854207840111A490122237813F03A
:104830001F039A4041F8202009E0207840111649D2
:104840000122237813F01F039A4041F8202031BD44
:1048500038B504000D00B4F1005F06D0B4F1006F6C
:1048600003D09F21074800F04BFF0C48854203D33B
:10487000A021044800F044FF09482840204309498A
:10488000086031BDCC5200080000FA050CED00E0D4
:1048900000E400E000E100E080E100E0FFFF0F0045
:1048A00080FFFF1F08ED00E070B504460D46E0886C
:1048B000C0F30A1040F2FF76B04210D1A0790F2168
:1048C000084208D1A088002805D16088002802D1BC
:1048D0002088002801D0022070BD012070BD30B9B1
:1048E000204600F0D8F8012801DB002070BD4519F2
:1048F000B54209DBE088000447BF00202A490020B8
:104900002A49C4E90001E8E7012DE08805DB48F207
:104910000F01084040EA051041E000F40040A17991
:1049200001F00F0141F01001E1806D1E15F1340F0F
:1049300005DAE0800020A0806080208070BD2DB26C
:104940006FF00E018D420BDA62882280A2886280AD
:10495000E288A2800022E28010352DB28D42F3DB86
:10496000694209B20A0018D0C1F1100223880B4134
:10497000658895402B43238063880B41A58895402B
:104980002B436380A3880B41E58805FA02F21A43A2
:10499000A280E28822FA01F1E180E1880843E08008
:1049A0004FF0FF3070BD00BF0000F0FF0000F07F4F
:1049B00070B44FF0004591EA030C44BF6B40FFF721
:1049C000E8BC841A71EB030603D2001BB141121933
:1049D00073414FF4001C1CEB410F34BF7CEB4304CC
:1049E00043E00C0DA4EB1356352E50DC45EAC323EF
:1049F000DB0A45EAC121C912B6F120050DDD63FAD3
:104A000005F6EB4086EA0305124218BF45F00105A2
:104A1000C01851F100010CD213E062FA06F5F24021
:104A20005540F3415A40B340F3405A408018594131
:104A300007D349085FEA30005FEA350528BF45F033
:104A4000010501F58011420875F1004250F10000A6
:104A500041EB045170BC4FF4001C1CEB410F38BFFC
:104A600070470020090D090570471CEB410F10D25B
:104A700052EA43060BD0BCEB410F05D80C0DAB43FB
:104A8000661E342EB5DD02E0AB438018594170BC80
:104A9000704770BC704770B4C18801F400420121B6
:104AA000837913F00F03C38012D1838823B943881D
:104AB00013B90388002B4BD08388C380448884803B
:104AC0000488448000240480103909B2002BF3D0FC
:104AD000C388102B16D28388C488DD0B45EA4404B2
:104AE000C4804588EE0B46EA430383800388DE0BCF
:104AF00046EA450545805B000380491E09B2A4B221
:104B0000102CE8D3C388202B1ED303884488C4F319
:104B10000004E40344EA5303038043888488C4F315
:104B20000004E40344EA530343808388C488C4F345
:104B30000004E40344EA53038380C3885B08C38012
:104B4000491C09B2202BE0D2837903F00F03C38004
:104B5000C3881A43C280084670BC704770B50546CA
:104B600005F10F00C408E400012000F092F9A5420D
:104B700004D3012000F0B0F9002070BD082C04D24D
:104B8000082402E0083000F02DF9224D28680100C9
:104B90000CD1291D00E0011D0868A0B10268A242E5
:104BA000F9D315E01368A34212D2111D0A68002A36
:104BB000F8D10068291D03E01368A34208D2111D33
:104BC0000A688242F8D100F0F7FC0028DAD100210F
:104BD0000029CED00E6830680838A0423CBF70680B
:104BE000086008D3A0190860726842603068001B32
:104BF0000A6810603460086818B1416809B1001D86
:104C000000E000202860012000F066F906F10800AD
:104C100070BD0000A409002080B500F02DF840F21E
:104C2000E73000F096F82148FCF7A6FF20490880FD
:104C30002048FCF7A1FF2049088040F2EE21012026
:104C400000F0A6F841F28830FDF7AEF84FF4FA71A3
:104C5000012000F09DF841F28830FDF7A5F8FA2117
:104C6000022000F095F841F28830FDF79DF84FF4EE
:104C70007A70FDF799F8D6E780B5FDF7AEF8FDF745
:104C80009BFAFDF716FAFDF7F4F8FDF71FF9FDF7AB
:104C9000A7F9FDF746FAFDF77BFB4FF46140FDF7FE
:104CA00033FB5FF4E130FDF751FB01BD000800402C
:104CB000C809002000040040CA090020F0B500F136
:104CC0000801026801EBC202406802EBC000002349
:104CD00000241D4601260CE013F8017BF44506D0A4
:104CE0000CF8017B6D1C2DB2002DF7D40126F44584
:104CF00009D1824200D1F0BD52F804CB52F8047BB6
:104D000007EB0C0EF3E7A34206D151F8043B51F830
:104D1000044BE418A342F8D05EB113F9015B0026FE
:104D2000A34206D151F8043B51F8044BE418A342C6
:104D3000F8D0002DD0D4002DD8D4F44518BFA3420C
:104D40001FBF13F8017B0CF8017B6D1E2DB2F2D151
:104D5000CDE7E0B5ADF804004720ADF80000002035
:104D6000ADF806000020ADF8020000208DF8080024
:104D700000A95FF08040FCF7DFF901215FF080407F
:104D8000FCF7D9FD01215FF08040FCF775FC07BD01
:104D900000B585B06022ADF800200122ADF80220F8
:104DA000ADF806100021ADF80810C0B201280AD1F4
:104DB00000A95FF08040FCF779FA00215FF08040A5
:104DC000FCF726FE0CE0C0B2022809D100A95FF072
:104DD0008040FCF75DFB00215FF08040FCF76AFE3D
:104DE00005B000BD10B5F0B1A0F108042068082896
:104DF00019D30721084216D1012000F04AF81A48B9
:104E0000416809B18C4203D2616044601BE01946DD
:104E10004B680BB1A342FAD30A6853189C4203D2E1
:104E2000012000F059F810BDA34204D123689A185C
:104E30000A600C4607E04A681AB123681B199A42B7
:104E4000EED362604C6061680029E9D022681219D3
:104E50008A42E5D10021016060682168026851182A
:104E6000216040686060DBE7A409002010B51F4C9A
:104E7000201D00F008FB04F1080000F004FB04F121
:104E80000C0000F000FB04F11000BDE8104000F041
:104E9000FABA38B50446154D286898B9281D00F0AF
:104EA000EBFA05F1080000F0E7FA05F10C0000F05C
:104EB000E3FA05F1100000F0DFFA002200210C48AF
:104EC00000F0D0F901202860042C04D205EB840006
:104ED000001D00F0DFFA31BD80B5042805D203497A
:104EE00001EB8000001D00F0DCFA01BD90090020FC
:104EF0006D4E0008443A5C436F727465785C4853A9
:104F0000746F7279322E305C4D616E676F2D4D3348
:104F1000322E4669726D776172655C30342E205096
:104F200065726970685F52425C6C69627261727925
:104F30005C53544D3332463130785F53746450655E
:104F4000726970685F4472697665725C7372635CE3
:104F500073746D3332663130785F657874692E63AF
:104F600000000000443A5C436F727465785C4853FB
:104F7000746F7279322E305C4D616E676F2D4D33D8
:104F8000322E4669726D776172655C30342E205026
:104F900065726970685F52425C6C696272617279B5
:104FA0005C53544D3332463130785F5374645065EE
:104FB000726970685F4472697665725C7372635C73
:104FC00073746D3332663130785F6770696F2E634A
:104FD00000000000443A5C436F727465785C48538B
:104FE000746F7279322E305C4D616E676F2D4D3368
:104FF000322E4669726D776172655C30342E2050B6
:1050000065726970685F52425C6C69627261727944
:105010005C53544D3332463130785F53746450657D
:10502000726970685F4472697665725C7372635C02
:1050300073746D3332663130785F75736172742EBC
:10504000630000004AB38B0707D011F8013B00F85A
:10505000013B521E21D08B07F7D183071ED1103A96
:1050600007D330B4B1E83810103AA0E83810F9D2BC
:1050700030BC530724BFB1E80810A0E8081044BFB3
:1050800051F8043B40F8043BD20724BF31F8022B0F
:1050900020F8022B44BF0B7803707047083A07D3FF
:1050A000B1E80810083A40F8043B40F804CBF7D2C6
:1050B0005307E4E7443A5C436F727465785C485385
:1050C000746F7279322E305C4D616E676F2D4D3387
:1050D000322E4669726D776172655C30342E2050D5
:1050E00065726970685F52425C6C69627261727964
:1050F0005C53544D3332463130785F53746450659D
:10510000726970685F4472697665725C7372635C21
:1051100073746D3332663130785F6164632E63007F
:10512000443A5C436F727465785C4853746F72796B
:10513000322E305C4D616E676F2D4D33322E4669D5
:10514000726D776172655C30342E205065726970C3
:10515000685F52425C6C6962726172795C53544D53
:105160003332463130785F537464506572697068C9
:105170005F4472697665725C7372635C73746D33DD
:1051800032663130785F646D612E6300443A5C436F
:105190006F727465785C4853746F7279322E305C2C
:1051A0004D616E676F2D4D33322E4669726D77619A
:1051B00072655C30342E205065726970685F5242AF
:1051C0005C6C6962726172795C53544D3332463162
:1051D00030785F5374645065726970685F447269B7
:1051E0007665725C7372635C73746D3332663130F2
:1051F000785F7263632E6300443A5C436F72746538
:10520000785C4853746F7279322E305C4D616E67F2
:105210006F2D4D33322E4669726D776172655C3049
:10522000342E205065726970685F52425C6C69620E
:10523000726172795C53544D3332463130785F532A
:1052400074645065726970685F4472697665725CF7
:105250007372635C73746D3332663130785F746976
:105260006D2E630030B4164B1C68164DAC4203D251
:1052700004F20C051D600CB9012003E021606060A0
:10528000A260002030BC70470020F8B50C4C2568A7
:105290002E0014D00C4F00E08847BE420FD020688B
:1052A00085421CBF064605460C3E71680800F4D0D6
:1052B0000020706030680028EED18847EDE7F1BD2E
:1052C000F8080020D407002000060020443A5C4380
:1052D0006F727465785C4853746F7279322E305CEB
:1052E0004D616E676F2D4D33322E4669726D776159
:1052F00072655C30342E205065726970685F52426E
:105300005C6C6962726172795C53544D3332463120
:1053100030785F5374645065726970685F44726975
:105320007665725C7372635C6D6973632E630000F3
:10533000C9B2830706D0521E22D310F8013B99420E
:10534000F7D11FE0083A13D302F1040241EA012128
:1053500041EA014150F8043B121F21BF4B40A3F129
:10536000013C2CEA030C1CF0803FF3D0C9B2001FB3
:10537000083210F8013B521E28BF91EA030FF8D8FB
:1053800018BF0120401E7047F446400D40EAC1207E
:10539000490006D200F013F8004248BF6FF0004009
:1053A000604700F00CF84FF0004188428CBF08467F
:1053B00040426047400D40EAC12049000CD240F015
:1053C0000040490DA1F58061491C05D4D1F11F01B0
:1053D00054BFC840C01770474FF00000704700002E
:1053E00030B430B91048D0E90045C2E9004500208A
:1053F00001E00170012030BC704730B431B90B4876
:10540000D0E90045C3E9004500200BE012B96FF078
:10541000010007E008B10A7802800978481E80413F
:10542000C043C00F30BC7047CC570008D4570008A9
:10543000D0580008D0580008D0580008D0580008AC
:10544000D0580008D0580008D0580008FFFFFFFFD0
:10545000FFFFFFFFCC580008D0580008D0580008C4
:10546000D0580008D0580008DC570008E45700085E
:10547000D0580008D058000880B50D4909680A00C6
:1054800018BF884701BD80B50A4909680A0018BFDE
:10549000884701BD80B5084909680A0018BF8847D8
:1054A00001BD80B5054909680A0018BF884701BDDC
:1054B000B4090020B8090020BC090020C009002060
:1054C00000F10103810704D010F8011B89B18107A5
:1054D000FAD10268B2F10131914311F0803F04BF6B
:1054E00050F8042FF6E710F8011B11B110F8011B5A
:1054F000FBE7C01A7047000057726F6E672070613B
:1055000072616D65746572732076616C75653A20A1
:1055100066696C65202573206F6E206C696E65204E
:1055200025640D0A000000004FF4001C1CEB410F25
:1055300094BF1CEB430F09E041EA030C50EA4C0C0A
:1055400052EA0C0C03D2994208BF9042704714BF34
:105550008B428242704700004FF4001C1CEB410F4D
:1055600094BF1CEB430F09E041EA030C50EA4C0CDA
:1055700052EA0C0C03D28B4208BF8242704714BF20
:105580009942904270470000010040F10880F446C3
:10559000404200F004F851F000416047010009D09A
:1055A000B0FA80F18840C91CC1F58461090501EB9E
:1055B000D02140057047000006490868002801D046
:1055C00000207047044808600449C908C900091A46
:1055D00001607047B0090020000400200006002090
:1055E000A3560008CC0000000009002000000000C5
:1055F000BD4C00080100000001000000D158000867
:1056000093000000D4070020290100000EB400B56B
:1056100082B003A9009100AB024601210248FAF7CB
:1056200065FD06BC5DF810FBEB56000810B505489B
:10563000054CA04204D050F8041B8847A042FAD180
:1056400010BD00BFE05500080C560008F8B5044630
:105650000D4616461F4600F071F83B463246294675
:10566000204601B0BDE8F040FFF7C7BE00B5054ACF
:105670001068002804D011000220ABBE002010608A
:1056800000BD0000C409002070B504460D46164652
:1056900000F054F8324629462046BDE87040FFF736
:1056A0009FBE002305E050F8041B41F8043B121F85
:1056B000FBD150F8042B002AF5D1704700F003F914
:1056C000002801D0FFF7B2FF0020FFF7A5FA00F095
:1056D0008DF800000278C9B28A421AB11CBF10F8D6
:1056E000012FF9E718BF0020704738B504460D4672
:1056F000284600F053F8A84218BF0024204632BDC7
:1057000080B50A0001000248FFF780FFFEE70000B5
:10571000F854000810B5034C2068010018BF8047FA
:10572000201D10BD5808002080B5FFF79FFF024ADA
:1057300011001820ABBEFBE72600020010B5034C99
:10574000E06A010018BF8047A06910BDD40700209F
:10575000427574746F6E332050726573730A000063
:105760000000000000000000686A6C747A4C0000C1
:10577000014880470148004701450008BD56000820
:105780000746FFF781FD3846FFF7CEFFFBE791FBA9
:10579000F2F303FB1211C0E9003170470149FCF735
:1057A000DDBA00BFA408002080B5FFF7C7FF0120C5
:1057B00002BD0000000000000000000066616C7384
:1057C00065000000747275650000000000000000B4
:1057D00000000000000000000000000066616C7323
:1057E00065000000747275650000000080B5FFF769
:1057F000C7BF00007047FEF735BBFEF734BBFEF7AE
:1058000033BBFEF732BBFEF731BBFEF730BBFEF712
:105810002FBBFEF72EBBFEF72DBBFEF72FBBFEF70F
:105820002EBBFEF72DBBFEF72CBBFEF72BBBFEF706
:105830002ABBFEF729BBFEF734BBFEF73FBBFEF7E2
:105840003EBBFEF749BBFEF748BBFEF747BBFEF782
:1058500046BBFEF745BBFEF744BBFEF743BBFEF776
:1058600042BBFEF741BBFEF740BBFEF73FBBFEF776
:105870003EBBFEF73DBBFEF73CBBFEF73BBBFEF776
:105880003ABBFEF741BBFEF740BBFEF73FBBFEF75E
:1058900044BBFEF743BBFEF742BBFEF741BBFEF73E
:1058A00040BBFEF73FBBFEF73EBBFEF73DBBFEF73E
:1058B0003CBBFEF790BBFEF78FBBFEF7ADBBFEF720
:1058C000ACBBFEF7ABBB012070472E002E000000E2
:1058D00000E40003CF580008FC0003CF580008F88C
:1058E000000330540008AC001BCE580008CE58000E
:1058F00008CE580008CE580008CE580008CE5800F0
:1059000008CE580008F8FF43CA580008CE580008CF
:10591000CE580008CE580008CE580008BC570008E2
:10592000C4570008CE580008CE58000802040101F0
:105930000009002050090020000900200009002073
:1059400000090020E1080020C8080020DC00140144
:105950000203040102030406070809020406080002
:04596000060020011C
:04000005080056BDDC
:00000001FF
