:020000040800F2
:100000000004002039010008790100087901000886
:10001000790100087901000879010008000000005A
:10002000000000000000000000000000790100084E
:10003000790100080000000079010008790100083A
:1000400001B402E00098401E009000980028F9D109
:1000500001B0704780B51848FFF7F2FF01BD80B5C9
:100060001648006850F008001449086014480068F9
:1000700050F01100124908601248006850F48010D6
:10008000104908600E48006850F011000C490860E3
:100090000D4800684FF4487108430B490860FFF7AA
:1000A000D9FF0A4800684FF44871084307490860BF
:1000B000FFF7D0FFECE70000C44E0C001810024020
:1000C000040C0140000C0140140C0140100C0140D4
:1000D0001D010008040000000004002000000000D2
:1000E00010B50548054CA04204D050F8041B8847C1
:1000F000A042FAD110BD00BFD0000008E000000807
:1001000000B5054A1068002804D011000220ABBEDB
:100110000020106000BD000000040020002305E066
:1001200050F8041B41F8043B121FFBD150F8042B7C
:10013000002AF5D17047000000F01CF8002801D01B
:10014000FFF7CEFF0020FFF78AFF00F010F8000055
:1001500080B5FFF7D5FF024A11001820ABBEFBE7C0
:100160002600020007463846FFF7F2FFFBE780B59E
:0A017000FFF7F8BF01207047FEE71B
:0400000508000139B5
:00000001FF
