:020000040800F2
:10000000000400203102000871020008710200089B
:10001000710200087102000871020008000000006F
:100020000000000000000000000000007102000855
:10003000710200080000000071020008710200084F
:1000400001B402E00098401E009000980028F9D109
:1000500001B0704780B52D48FFF7F2FF01BDD2B265
:10006000C9B251EA82010022030618D0002200E042
:10007000521C082A2DD280B2012393409842F7D116
:100080009200234800680F2393409843204B186048
:100090001F480068914008431D49086019E080B27C
:1000A000000A002200E0521C082A12D280B201236A
:1000B00093409842F7D19200164800680F2393406E
:1000C0009843144B18601348006891400843114945
:1000D0000860704780B51048006850F008000E496D
:1000E0000860002201214FF40070FFF7B8FF0022E2
:1000F00001212020FFF7B3FF002201214FF480707F
:10010000FFF7ADFF00F05BF8FEE70000C44E0C0007
:10011000000C0140040C0140181002401648006811
:100120004FF4007108431449086070471348006891
:100130004FF4007108431149086070470E48006889
:1001400050F020000C49086070470C48006850F0DF
:1001500020000A4908607047074800684FF4807122
:100160000843054908607047044800684FF48071EF
:100170000843024908607047140C0140100C01400C
:1001800010B5040018E0FFF7D1FFFFF7D7FFFFF726
:10019000E3FFFFF75FFFFFF7C1FFFFF7D6FFFFF7B2
:1001A000DBFFFFF757FFFFF7B9FFFFF7C7FFFFF7C9
:1001B000DBFFFFF74FFF641E002CE4D110BD80B5BC
:1001C0001E20FFF7DDFF01BD15020008040000003E
:1001D000000400200000000010B50548054CA042B6
:1001E00004D050F8041B8847A042FAD110BD00BFCC
:1001F000C8010008D801000800B5054A10680028A9
:1002000004D011000220ABBE0020106000BD000031
:1002100000040020002305E050F8041B41F8043BD3
:10022000121FFBD150F8042B002AF5D170470000B3
:1002300000F01CF8002801D0FFF7CEFF0020FFF7E8
:1002400049FF00F010F8000080B5FFF7D5FF024A23
:1002500011001820ABBEFBE7260002000746384617
:10026000FFF7F2FFFBE780B5FFF7F8BF012070470B
:02027000FEE7A7
:0400000508000231BC
:00000001FF
